:100000000C9468000C9485000C9485000C94A8084E
:100010000C9416090C9471090C9485000C948500BD
:100020000C9485000C9485000C9485000C9485003C
:100030000C9485000C9485000C9485000C9485002C
:100040000C9485000C94AE0B0C94DB0B0C94850087
:100050000C9485000C9485000C9485000C9485000C
:100060000C9485000C94850017052B051B052B05AA
:1000700030052B051F052B0523052B052B052B050F
:100080002B0527052B052B052B053605030620061A
:10009000BA0520061D062006DA05200603062006FE
:1000A0002006200620061706200620062006170632
:1000B0005306390692063906800639067006390657
:1000C0004006400640064006390692067A067A0641
:1000D00011241FBECFEFD8E0DEBFCDBF13E0A0E0FC
:1000E000B1E0E4E8FEE102C005900D92AA39B10743
:1000F000D9F724E0AAE9B3E001C01D92AE39B207F6
:10010000E1F70E94F00D0C94400F0C94200C81E05C
:1001100020919B0390919A03921708F480E0089530
:1001200081E090919A03923008F480E0089584E190
:10013000EBE9F3E0DF011D928A95E9F710929A034B
:1001400008959C0190919A03F90170E0AF01421B60
:10015000530B4617570784F4943130F090939A0369
:100160000E9497008DE008958191A92FB0E0A556D7
:10017000BC4F8C939F5FEACF90939A0380E00895E1
:100180008BE993E00895CF93DF93EFEAF3E08AE001
:100190002FEF3FEF9CE0318320838283DF011496B1
:1001A000ED01492F19924A95E9F774968F5F8E30C9
:1001B00091F7DF91CF91089524E1829FC00111242E
:1001C000FC01E155FC4F2FEF3FEF31832083138279
:1001D000FC01ED54FC4F2FE0DF011D922A95E9F759
:1001E00008950F931F93CF93DF93CDB7DEB7629738
:1001F0000FB6F894DEBF0FBECDBF8E010F5F1F4F4D
:1002000082E1D8011D928A95E9F7809105048983DE
:10021000609106046A83209107049FEF920F9F303C
:1002200010F08CE013C030E0E0911904F0911A0452
:100230000190F081E02DAE014C5F5F4F0995811177
:1002400005C01B82809107048B5F02C08B8385E011
:1002500094E0EFEFF3E0DF011D929A95E9F792E069
:10026000909300048093FF03109302040093010411
:1002700066E574E0CF010E9425066091FF0370E0FF
:10028000E0911B04F0911C040280F381E02D86E5CF
:1002900094E0099562960FB6F894DEBF0FBECDBF0D
:1002A000DF91CF911F910F9108950F931F93CF93DB
:1002B000DF9300D01F92CDB7DEB78E010F5F1F4FC7
:1002C00083E0D8011D928A95E9F78091050489831E
:1002D000609106046A832091030430E024503109C0
:1002E000E0911904F0911A040280F381E02D47E0B7
:1002F00054E00995811102C01B8201C08B8384E008
:10030000EFEFF3E0DF01982F1D929A95E9F78093C4
:10031000000485E08093FF0310930204009301041E
:1003200066E574E0CF010E9425066091FF0370E04E
:10033000E0911B04F0911C040280F381E02D86E51E
:1003400094E009950F900F900F90DF91CF911F913E
:100350000F910895CF93DF93DC012C9130E0EFEA09
:10036000F3E0DF0190E080E0CD91DC911197C217BE
:10037000D30729F1D7FF982F8F5F54968430A1F7C8
:100380009330E8F480E090E0A081B181119681F48F
:10039000A4E1A89FF001A99FF00D1124E155FC4FA5
:1003A00031832083DB018C938281FA01808305C035
:1003B000019674968430910539F780E001C085E09C
:1003C000DF91CF9108950F931F93CF93DF9300D0C8
:1003D00000D0CDB7DEB78E010F5F1F4F83E0F8016D
:1003E00011928A95E9F780910504898390911D0403
:1003F000933019F48AE08B830EC0E0911904F091D8
:100400001A040084F185E02DBE016C5F7F4F0995D1
:100410008B838C818A8385E08093FF038FE08093B8
:100420000004109302040093010466E574E08FEF6A
:1004300093E00E9425066091FF0370E0E0911B04A9
:10044000F0911C040280F381E02D86E594E009958B
:100450000F900F900F900F90DF91CF911F910F9100
:1004600008955F926F927F928F929F92AF92BF9208
:10047000CF92DF92EF92FF920F931F93CF93DF9370
:10048000CDB7DEB762970FB6F894DEBF0FBECDBF13
:10049000E62E9E012F5F3F4F590192E1D9011D9237
:1004A0009A95E9F7882E912CB4E18B9FF0011124E5
:1004B000E155FC4F73808F01F12C89E0612C6F01B5
:1004C00033E1C30ED11C671469F1D80114969C91D5
:1004D0009F3F59F4F6019081F501EF0DF11D9083D6
:1004E0009F5FD6019C93F39419C0E0911904F09199
:1004F0001A04309799F0D80116965C901697252D1E
:1005000030E00190F081E02DA5014F0D511D1596B1
:100510006C91892F0995811133C0F50C63940D5F9F
:100520001F4FD1CFEE2061F181112AC08FEF8F0DC7
:10053000823130F5F394F394F092FF0384E1889DC7
:10054000F001899DF00D1124E155FC4F82818093CB
:100550000004B0920204A092010466E574E08FEFFB
:1005600093E00E9425066091FF0370E0E0911B0478
:10057000F0911C040280F381E02D86E594E009955A
:1005800062960FB6F894DEBF0FBECDBFDF91CF915C
:100590001F910F91FF90EF90DF90CF90BF90AF90A1
:1005A0009F908F907F906F905F900895CF92DF9291
:1005B000EF92FF920F931F93CF93DF9300D01F9280
:1005C000CDB7DEB78FEAE82E83E0F82E10E003E027
:1005D000CE0101966C01F601802F11928A95E9F700
:1005E000F7018081918197FD13C060E0812F0E9407
:1005F0003102F70180818983E0911904F0911A0496
:100600000680F781E02DC6010995812F0E94DC004C
:100610001F5FF4E1EF0EF11C1430E9F60F900F901C
:100620000F90DF91CF911F910F91FF90EF90DF908E
:10063000CF900895833011F00C94D6020895CF9393
:1006400090911D04933031F4C82F0E941A03C09377
:100650001D0402C080931D04CF910895EFEAF3E0DA
:100660008081918197FF0AC0749683E0EF3FF8077D
:10067000B9F782E00E941F0380E0089581E00895A9
:10068000EF92FF920F931F93CF93DF931F92CDB7FB
:10069000DEB719828FEAE82E83E0F82E00E013E03F
:1006A0008091050490E0F7012081318128173907F6
:1006B00021F4802F0E94DC0010E00F5FF4E1EF0EC8
:1006C000F11C043069F711110BC0E0911904F0918D
:1006D0001A040680F781E02D85E094E00995182F33
:1006E0000E942E0383E08093FF0380E18093000447
:1006F0001983CE010196909302048093010466E56C
:1007000074E08FEF93E00E9425066091FF0370E094
:10071000E0911B04F0911C040280F381E02D86E53A
:1007200094E009950F90DF91CF911F910F91FF9069
:10073000EF900895009749F090931A04809319045C
:100740000E94C30081E00C941F030895EF92FF9272
:100750000F931F93CF93DF9300D000D0CDB7DEB7B8
:10076000CE0101967C0184E0F70111928A95E9F7A8
:1007700081E08A8382E08B830E941F030E9497009E
:100780000FEF13E086E0F801818399E09C8380837A
:10079000F382E28266E574E0C8010E942506F80152
:1007A000608170E0E0911B04F0911C040280F381F1
:1007B000E02D86E594E009950F900F900F900F9033
:1007C000DF91CF911F910F91FF90EF90089580914D
:1007D000050481110AC0E0911B04F0911C043097BC
:1007E00071F00480F581E02D09C0E0911704F091CB
:1007F0001804309721F00190F081E02D09950E94B6
:10080000D6020E94970081E00C941F03EF92FF92A2
:100810000F931F93CF93DF9300D000D0CDB7DEB7F7
:100820001A821982109103041550133008F458C02D
:100830008BEA189F112D1124169583E0E82E84E091
:10084000F82EF70180E090E02781820F9F5F3396BA
:100850001913FACF833108F043C0AE014C5F5F4FEC
:10086000BE016D5F7F4F85E094E00E94AA01082FD2
:10087000811131C0EB8184E1E89FD0011124A155A1
:10088000BC4F13961C931397FD0180E0D70115967A
:100890009C911597948316969C911697958317961D
:1008A0009C9196838F5FB3E0EB0EF11C3396181387
:1008B000EDCFE0911904F0911A040480F581E02D48
:1008C00085E094E00995082F811105C08C8189830A
:1008D00083E00E941F0360E08B810E94310201C00F
:1008E00006E084E08093FF0388E0809300040A839D
:1008F000CE010196909302048093010466E574E0B2
:100900008FEF93E00E9425066091FF0370E0E09175
:100910001B04F0911C040280F381E02D86E594E035
:1009200009950F900F900F900F90DF91CF911F912D
:100930000F91FF90EF9008950F931F93CF930FEABD
:1009400013E0C0E0F8018081918197FD0EC0E09135
:100950001904F0911A040284F385E02D099588307A
:1009600021F461E08C2F0E943102CF5F0C5E1F4F9B
:10097000C43041F7CF911F910F9108950F931F93AA
:10098000CF93DF931F92CDB7DEB789830FEF13E0CC
:1009900083E0F801808381E18183CE010196938316
:1009A000828366E574E0C8010E942506F801608133
:1009B00070E0E0911B04F0911C040280F381E02DB3
:1009C00086E594E009950F90DF91CF911F910F91EB
:1009D0000895CF93DF930E94C000EC010E94900025
:1009E000811107C08CE00E94BE04DF91CF910C946E
:1009F000970084E0EFEFF3E0DF011D928A95E9F7BD
:100A000063E074E0CE010E949F058F3FBFEF9B071C
:100A1000B1F120911D0422502230F8F4FC013197ED
:100A2000E231F105C0F4EC5CFF4F0C94100EDF9145
:100A3000CF910C94F100DF91CF910C945501DF918F
:100A4000CF910C940604DF91CF910C944003DF9179
:100A5000CF910C94E3018EE00EC08530910521F416
:100A6000DF91CF910C94A603429721F4DF91CF91AF
:100A70000C94E7038FE0DF91CF910C94BE04DF91DB
:100A8000CF910895CF93DF93CDB7DEB764970FB6BC
:100A9000F894DEBF0FBECDBFE0911B04F0911C04A3
:100AA0000190F081E02D64E170E0CE01019609959E
:100AB000853110F08CE011C0882399F0682FCE01A9
:100AC00001960E94A100811107C00E94870088231F
:100AD00041F00E94E90403C08DE00E94BE040E9420
:100AE000970064960FB6F894DEBF0FBECDBFDF91BE
:100AF000CF910895009711F120911B0430911C04AF
:100B00008217930749F090931C0480931B040E9462
:100B1000970081E00E941F0380911D04882371F0DB
:100B200080911B0490911C04892B11F00E944205B6
:100B300080911D04833011F40C949C040895CF938C
:100B4000DF93EC01DB0184E1FB0111928A95E9F767
:100B500028812C93998111969C931197492F50E0ED
:100B6000FA013197E231F10508F06AC0EA5BFF4F04
:100B70000C94100EAB014E5F5F4F82E1FA011192AF
:100B80008A95E9F78A8112968C9312978B81139636
:100B90008C93139730E02450310924961496FE016B
:100BA000AF014C1B5D0B421753070CF046C08191FF
:100BB0008D93F6CF9B012E5F3F4F82E1F901119299
:100BC0008A95E9F78A8112968C9312978B811396F6
:100BD0008C9313978C8114968C931497FE01359601
:100BE0006496808115968C931597818116968C93C7
:100BF0001697828117968C93179733961396EC1756
:100C0000FD0779F71AC09B012E5F3F4F83E0F90182
:100C100011928A95E9F78A8112968C9312978B81AB
:100C200013968C9313978C8114968C9306C012960E
:100C30001C9212978A8112968C93892F90E002C0A1
:100C40008FEF9FEFDF91CF910895CF93DF93EC016A
:100C5000DB018881853168F48C93898111968C93AE
:100C60001197E9814E2F50E0FA013297E031F105FA
:100C700018F08FEF9FEF65C0E85AFF4F0C94100EED
:100C8000888190E00297129620E030E0281739071B
:100C90000CF055C0EA81FB81E20FF31F40814D93B8
:100CA0002F5F3F4FF3CFEA81FB81808112968C93B7
:100CB0001297818113968C931397828114968C934B
:100CC0001497888190E0059733961596ED019E0163
:100CD0002A1B3B0B2817390794F521912993F7CF4D
:100CE000EA81FB81808112968C9312978181139601
:100CF0008C9325C0EA81FB81808112968C931FC062
:100D0000EA81FB81808112968C93129781811396E0
:100D10008C931397828114968C93149783811596E4
:100D20008C930DC0EA81FB81808112968C9312977F
:100D3000818113968C931397828114968C9380E013
:100D400090E0DF91CF910895CF93DF93CDB7DEB7D9
:100D500064970FB6F894DEBF0FBECDBF94E1E8E014
:100D6000F1E0DE01119601900D929A95E1F7E1E034
:100D7000F0E0EC0FFD1FE80FF11D9081FB01908367
:100D8000883018F48BE290E005C08E3038F485E2AC
:100D900090E0FB019283818380E006C0843118F4E7
:100DA00088E290E0F6CF83E064960FB6F894DEBF59
:100DB0000FBECDBFDF91CF910895FC01218132811B
:100DC000908180E090FD03C08F5F9695FBCF2B3222
:100DD000310559F02532310511F4885F0895283224
:100DE000310511F4825F08958FEF08950F931F93DB
:100DF000CF93DF93EC01F89400916D0410916E0491
:100E00000E94DD061F928F938CE191E09F938F9358
:100E1000F801099588811F928F938A818F93898128
:100E20008F9383E391E09F938F93E0916D04F09112
:100E30006E040995CE010E94DD06E82FF0E0EE0F6A
:100E4000FF1FE25EFB4F81E090E091838083789406
:100E50008DB79EB70A960FB6F8949EBF0FBE8DBF92
:100E6000DF91CF911F910F9108950F931F93CF930F
:100E7000DF93C82F062F1F926F931F928F9388E5E1
:100E800091E09F938F93E0916D04F0916E0409952A
:100E90006AE674E08C2F0E94A406182F0F900F9022
:100EA0000F900F900F900F9081114BC1F89480918B
:100EB0006B0490916C048B9709F092C020916D00A7
:100EC000C1E0D0E0CE0100906A0402C0880F991FF3
:100ED0000A94E2F7822B80936D0080916800846011
:100EE000809368009AB19E0100906A0402C0220FAC
:100EF000331F0A94E2F7822F809589238AB92BB198
:100F0000CE0100906A0402C0880F991F0A94E2F78C
:100F1000822B8BB93BB12AB19091680080916D0012
:100F20001F923F931F922F931F929F931F928F9315
:100F30008EE791E09F938F93E0916D04F0916E04A2
:100F4000099520914604CE0100906A0402C0880FE2
:100F5000991F0A94E2F7822B8093460480914604FD
:100F60001F928F9388EB91E09F938F93E0916D0494
:100F7000F0916E0409958FB71F928F938AED91E0DF
:100F80009F938F93E0916D04F0916E0409958DB756
:100F90009EB742960FB6F8949EBF0FBE8DBF90913C
:100FA0006A048091490401C0CC0F9A95EAF7023097
:100FB00011F4C82B02C0C095C823C0934904809186
:100FC00049041F928F9388EE91E09F938F93E09155
:100FD0006D04F0916E0409950F900F900F900F9093
:100FE00080916B0490916C04859709F054C0209116
:100FF0006B00C1E0D0E0CE0100906A0402C0880F0F
:10100000991F0A94E2F7822B80936B00809168000D
:1010100081608093680094B19E0100906A0402C0D0
:10102000220F331F0A94E2F7822F8095892384B917
:1010300025B1CE0100906A0402C0880F991F0A945E
:10104000E2F7822B85B980916B001F928F938DEF11
:1010500091E09F938F93E0916D04F0916E04099558
:1010600020914404CE0100906A0402C0880F991FA9
:101070000A94E2F7282B209344040F900F900F90CE
:101080000F9090914704023011F4892B02C0809593
:1010900089238093470480916B0490916C04889716
:1010A00009F042C040916C0081E090E09C0100900A
:1010B0006A0402C0220F331F0A94E2F7242B209304
:1010C0006C002091680022602093680037B1AC0169
:1010D00000906A0402C0440F551F0A94E2F7242FBF
:1010E0002095232327B948B19C0100906A0402C0CF
:1010F000220F331F0A94E2F7242B28B920914504CC
:1011000000906A0402C0880F991F0A94E2F7282B06
:101110002093450490914804023011F4892B02C0B9
:101120008095892380934804789483E192E09F938B
:101130008F93E0916D04F0916E0409950F900F90DC
:1011400001C013E0812FDF91CF911F910F9108957E
:101150001F920F920FB60F9211242F933F934F932C
:101160005F936F937F938F939F93AF93BF93CF932F
:10117000DF93EF93FF9389E192E09F938F93E09148
:101180006D04F0916E040995D3B1C091470480912C
:101190004404CD27C095C82390914404809147040E
:1011A0001F929F931F928F9385E292E09F938F935C
:1011B000E0916D04F0916E04099585E290E09093C2
:1011C0007F0480937E04C0937D041F92CF931F926F
:1011D000DF9389E492E09F938F93E0916D04F09107
:1011E0006E0409958DB79EB70E960FB6F8949EBF04
:1011F0000FBE8DBFCC2339F0E0910601F0910701BD
:101200008DE794E00995FF91EF91DF91CF91BF9128
:10121000AF919F918F917F916F915F914F913F918E
:101220002F910F900FBE0F901F9018951F920F9245
:101230000FB60F9211242F933F934F935F936F93A9
:101240007F938F939F93AF93BF93CF93EF93FF932E
:1012500085E692E09F938F93E0916D04F0916E0488
:10126000099596B1C091480480914504C927C0955D
:10127000C82328E230E030937F0420937E04C0939B
:101280007D041F92CF931F929F9381E792E09F93DB
:101290008F93E0916D04F0916E0409958DB79EB720
:1012A00008960FB6F8949EBF0FBE8DBFCC2339F0C1
:1012B000E0910601F09107018DE794E00995FF9117
:1012C000EF91CF91BF91AF919F918F917F916F914E
:1012D0005F914F913F912F910F900FBE0F901F90F4
:1012E00018951F920F920FB60F9211242F933F93D0
:1012F0004F935F936F937F938F939F93AF93BF931E
:10130000EF93FF938DE892E09F938F93E0916D04AC
:10131000F0916E04099589B1909149042091460499
:101320008927809582232BE230E030937F0420933D
:101330007E0480937D040F900F90882339F0E09114
:101340000601F09107018DE794E00995FF91EF9177
:10135000BF91AF919F918F917F916F915F914F91CD
:101360003F912F910F900FBE0F901F901895CF9324
:10137000FC01618180810E943507C82FE0916D04D6
:10138000F0916E04882349F089E992E09F938F934E
:1013900009950F900F90C3E007C08DEA92E09F93EC
:1013A0008F9309950F900F908C2FCF9108950F93E5
:1013B0001F93CF93DF9300D01F92CDB7DEB7843158
:1013C000D0F48B01BE016F5F7F4F0E94A406EA81BB
:1013D000FB813297808190E0098002C095958795C6
:1013E0000A94E2F780FF02C082E001C081E0F801C8
:1013F000808380E001C083E00F900F900F90DF9119
:10140000CF911F910F910895843190F4F894E82FB3
:10141000F0E0EE0FFF1FE25EFB4F808191810097AD
:1014200011F0118210827894892B21F088E00895C0
:1014300083E0089587E00895CF93DF93D82F6AE67D
:1014400074E00E94A406C82F8111C5C01F92DF93CB
:1014500080916C048F9380916B048F9380916A04C8
:101460008F9383EC92E09F938F93E0916D04F091C2
:101470006E0409958DB79EB707960FB6F8949EBF78
:101480000FBE8DBF20916B0430916C042B3231055F
:1014900081F550916D0081E090E0BC0100906A04FC
:1014A00002C0660F771F0A94E2F7462F4095452346
:1014B00040936D00409168004B7F409368005BB1A2
:1014C000BC0100906A0402C0660F771F0A94E2F71D
:1014D000462F409545234BB94091460400906A043D
:1014E00002C0880F991F0A94E2F7809584238093A5
:1014F00046042532310581F550916B0081E090E082
:10150000BC0100906A0402C0660F771F0A94E2F7DC
:10151000462F4095452340936B00409168004E7FD5
:101520004093680055B1BC0100906A0402C0660F88
:10153000771F0A94E2F7462F4095452345B940911D
:10154000440400906A0402C0880F991F0A94E2F7CD
:1015500080958423809344042832310581F53091AD
:101560006C0081E090E0AC0100906A0402C0440F7E
:10157000551F0A94E2F7242F2095232320936C0013
:10158000209168002D7F2093680038B1AC01009055
:101590006A0402C0440F551F0A94E2F7242F2095D5
:1015A000232328B92091450400906A0402C0880FC3
:1015B000991F0A94E2F7809582238093450488EE70
:1015C00092E09F938F93E0916D04F0916E040995E2
:1015D0000F900F9001C0C3E08C2FDF91CF91089541
:1015E000FC0180810C941C0AEF92FF920F931F93D1
:1015F000CF93DF937C01EB01F89480E894E00E94A4
:10160000F00C8C017894C817D90778F4F89480E826
:1016100094E00E94830C41E050E060E071E080E8DB
:1016200094E00E94460C789414C0892B91F0C0E09D
:10163000D0E0B7016C0F7D1FC017D10741F0F894BF
:1016400080E894E00E94BD0C78942196F2CFCE0100
:1016500002C080E090E0DF91CF911F910F91FF9049
:10166000EF900895F8949093C5008093C4008EE0A5
:101670008093C200E1ECF0E080818869808341E0E2
:1016800050E060E071E080E894E00E94460C7894BD
:101690000895EEE8F4E086E0DF011D928A95E9F70F
:1016A00084EF9AE09183808386E69BE09383828334
:1016B00080E090E00E94320B8EE894E008959091D3
:1016C000C00095FFFCCF8093C6000895EF92FF9273
:1016D0000F931F93CF93DF93EC018B0185E093E091
:1016E0009F938F93E0916D04F0916E0409950C0F18
:1016F0001D1F0F900F908CE0E82E83E0F82EE091F4
:101700006D04F0916E04C017D10771F088811F92AB
:101710008F93FF92EF92099589910E945F0B0F9032
:101720000F900F900F90EBCF8DE393E09F938F93EB
:1017300009950F900F90DF91CF911F910F91FF901E
:10174000EF900895CF93DF93EC018991882319F0EE
:101750000E945F0BFACFDF91CF9108951F920F92F5
:101760000FB60F9211242F933F934F935F936F9374
:101770007F938F939F93AF93BF93EF93FF9382E1F8
:1017800093E09F938F93E0916D04F0916E0409951F
:101790000F900F90FF91EF91BF91AF919F918F911B
:1017A0007F916F915F914F913F912F910F900FBE5D
:1017B0000F901F9018951F920F920FB60F92112441
:1017C0002F933F934F935F936F937F938F939F9349
:1017D000AF93BF93EF93FF93CF93DF931F92CDB758
:1017E000DEB78091C00083FF0BC08BE293E09F9334
:1017F0008F93E0916D04F0916E0409950F900F9016
:101800008091C6008983F894BE016F5F7F4F80E8A6
:1018100094E00E94880C78940F90DF91CF91FF9113
:10182000EF91BF91AF919F918F917F916F915F9158
:101830004F913F912F910F900FBE0F901F901895D1
:101840001F920F920FB60F9211242F933F934F9335
:101850005F936F937F938F939F93AF93BF93EF9318
:10186000FF9380E493E00E94A20BFF91EF91BF9160
:10187000AF919F918F917F916F915F914F913F9128
:101880002F910F900FBE0F901F901895CF92DF925F
:10189000EF92FF920F931F93CF93DF93EC016B01B5
:1018A0007A01649F8001659F100D749F100D1124B3
:1018B000C8010E94160E99838883892B59F48AE403
:1018C00093E09F938F93E0916D04F0916E040995DE
:1018D0000F900F9088819981080F191F1B830A832D
:1018E000DD82CC821F821E82F986E8869B878A87EA
:1018F0009D878C87DF91CF911F910F91FF90EF9083
:10190000DF90CF900895FC01808191810C94AE0E00
:10191000CF93DF93EC012E813F818C819D8128172D
:10192000390761F48AE593E09F938F93E0916D040A
:10193000F0916E0409950F900F901CC04885598551
:101940008A859B850E94370F2A853B8588859985E6
:10195000820F931F9B878A872A813B818217930777
:1019600021F4888199819B878A878E819F81019646
:101970009F838E83DF91CF910895CF93DF93EC0106
:10198000CB012E813F81232B61F48BE693E09F9363
:101990008F93E0916D04F0916E0409950F900F9074
:1019A0001CC06C857D85488559850E94370F2C8524
:1019B0003D8588859985820F931F9D878C872A8115
:1019C0003B818217930721F4888199819D878C87B9
:1019D0008E819F8101979F838E83DF91CF910895A0
:1019E000FC01868197810895CF93DF93CDB7DEB751
:1019F00080E090E0DF91CF91089584EF9CE0909398
:101A00006E0480936D0408958CE08093B80008956F
:101A10001092BC0094EA9093BC009091BC0097FF98
:101A2000FCCF9091B900987F983011F081E0089533
:101A30008093BB0084E88093BC008091BC0087FF4A
:101A4000FCCF8091B900887F883111F0803471F724
:101A500080E008958093BB0084E88093BC0080916F
:101A6000BC0087FFFCCF9091B900987F81E098324D
:101A700009F480E0089584EC8093BC008091BC0060
:101A800087FFFCCF8091BB00089584E88093BC0061
:101A90008091BC0087FFFCCF8091BB000895DF924E
:101AA000EF92FF920F931F93CF93DF93C62FD42E05
:101AB000052F79010E94080D182F882311F011E0DD
:101AC00013C08C2F0E942A0DCD2DD02FEC0EFD1EA1
:101AD000CE15DF0531F089910E942A0D8823C1F3CC
:101AE000EECF84E98093BC00812FDF91CF911F91CD
:101AF0000F91FF90EF90DF900895880F0E944F0D97
:101B000091E0811101C090E0892F0895AF92BF92BA
:101B1000CF92DF92FF920F931F93CF93DF93C82F43
:101B2000D62F6A0189010E94080D882319F0FF242D
:101B3000F39421C08D2F0E942A0D8C2F81600E946A
:101B4000080DF82E8111F3CF5601E8012197C50148
:101B50008C199D098C179D0730F40E943B0DF501EF
:101B600081935F01F4CFCC0DDD1D0E94450D88836C
:101B700084E98093BC008F2DDF91CF911F910F914D
:101B8000FF90DF90CF90BF90AF900895880F0E9494
:101B9000860D91E0811101C090E0892F0895EAE45B
:101BA000F4E08CE0DF011D928A95E9F786EC9DE078
:101BB000918380838DE79DE09383828387ED99E015
:101BC0009187808787EB99E09583848380EF9AE003
:101BD0009783868384E09AE093878287CF01089574
:101BE0008FE694E090939B0480939A040E94FD0CEE
:101BF0000E94040D0E94490BEC010E94CF0D0E942F
:101C00009A0389E893E09F938F93E0916D04F0919C
:101C10006E0409950F900F90CE010E947A05FCCFBB
:101C2000EE0FFF1F0590F491E02D09940F931F9381
:101C3000CF93DF938230910510F482E090E0E09141
:101C40009604F091970420E030E0A0E0B0E03097F7
:101C500019F1408151810281138148175907C8F059
:101C60008417950769F4109731F012960C93129728
:101C700013961C9327C0009396041093970422C0D8
:101C80002115310519F04217530718F49A01BD01C7
:101C9000EF01DF01F801DBCF21153105F9F0281B39
:101CA000390B2430310580F48A819B8161157105DF
:101CB00021F0FB019383828304C090939704809367
:101CC0009604FE01329644C0FE01E20FF31F819399
:101CD000919322503109398328833AC0209194048A
:101CE00030919504232B41F420910201309103019E
:101CF00030939504209394042091000130910101C8
:101D00002115310541F42DB73EB7409104015091A2
:101D10000501241B350BE0919404F0919504E21722
:101D2000F307A0F42E1B3F0B2817390778F0AC01FE
:101D30004E5F5F4F2417350748F04E0F5F1F5093DB
:101D40009504409394048193919302C0E0E0F0E005
:101D5000CF01DF91CF911F910F910895CF93DF9322
:101D6000009709F481C0FC01329713821282A0917E
:101D70009604B0919704109781F420813181820FED
:101D8000931F20919404309195042817390751F539
:101D9000F0939504E093940467C0ED0120E030E0F7
:101DA000CE17DF0740F44A815B819E014115510542
:101DB000F1F0EA01F5CFD383C28340815181840FD2
:101DC000951FC817D90759F488819981840F951FE9
:101DD0000296918380838A819B81938382832115DC
:101DE000310529F4F0939704E09396043DC0E9018E
:101DF000FB83EA8349915991C40FD51FEC17FD0766
:101E000061F480819181840F951F0296E901998385
:101E10008883828193819B838A83E0E0F0E012963D
:101E20008D919C911397009719F0FD01DC01F7CF7C
:101E30008D919C9111979D012E5F3F4F820F931FB3
:101E400020919404309195042817390769F430974C
:101E500029F4109297041092960402C01382128201
:101E6000B0939504A0939404DF91CF910895FB0162
:101E7000DC0102C001900D9241505040D8F7089506
:041E8000F894FFCF04
:101E840000009E042000F606000102030405060774
:101E9400000102030405000102030405696E7420B5
:101EA40068616E646C65722070696E3A20256420E6
:101EB4000A0D00696E745F68616E646C65722070EF
:101EC4006F72743A20307825782C2070696E3A202D
:101ED40030782578200A0D006176725F696E74652A
:101EE40072727570745F696E69742070696E3A20DD
:101EF400256420706F6C3A202564200A0D0050433D
:101F04004D534B32203D20307825782C20504349C6
:101F14004352203D20307825782C204444524420DC
:101F24003D20307825782C20504F525444203D20B9
:101F340030782578200A0D00656E61626C65645FF7
:101F4400696E74732E706F7274645F6D61736B204D
:101F54003D2030782578200A0D0073726567203D96
:101F640020307825780A0D00706F7274645F736591
:101F74006E7365203D20307825780A0D00504F524D
:101F840054422050434D534B30203D2025780A0DB8
:101F94000A0A007365692E2E0049535220504F528D
:101FA40054420A0D00706F7274625F73656E7365DC
:101FB400203D20307825782070625F6D61736B203E
:101FC4003D20307825780A0D0070696E62203D202E
:101FD4003078257820696E7470696E203D203078E1
:101FE40025780D0A0049535220504F5254430A0D8C
:101FF4000070696E63203D203078257820696E7406
:1020040070696E203D20307825780D0A00495352BE
:1020140020504F5254440A0D00656E61626C655F36
:10202400696E745F6661696C65640D0A00656E6152
:10203400626C655F696E745F737563636573732E39
:102044000D0A0044697361626C6520696E7465727F
:102054007275707420706F72743D25642C207069E1
:102064006E203D2025640D0064697361626C6564B3
:1020740020696E746572727570742073756363651C
:1020840073730A0D0073656E643A2000252E32784E
:1020940020005350495F5354435F76656374207442
:1020A40072696767657265640D0A007278206461FD
:1020B4007461206F7665722072756E2E200A0D0091
:1020C400626164206973720D0A006D616C6C6F63E8
:1020D400206661696C65640A0D00627566666572E6
:1020E4002066756C6C2E2E2E0A0D0063625F706F75
:1020F400705F66726F6E743A2063625F636F756EB1
:1021040074203D3D20300D0A000A0A0A0D53746103
:0A211400727465642E2E2E0A0D0071
:00000001FF
