:100000000C94B2000C94CF000C94CF000C94961773
:100010000C9404180C945F180C94CF000C94CF002F
:100020000C94CF000C94CF000C94CF000C94E018EB
:100030000C94CF000C94CF000C94CF000C94CF0004
:100040000C94CF000C9425110C9452110C94CF00F9
:100050000C94CF000C94CF000C94CF000C94CF00E4
:100060000C94CF000C94CF00710485049804B00464
:10007000BC04D7045A056A0531059A07A607AF07DD
:10008000C707D307EC07130817080708C00A3A0B7D
:10009000B70A3A0B3E0B3A0BC90A3A0BD20A3A0B93
:1000A000DB0A3A0BE30A3A0BEB0A3A0BF40A3A0B77
:1000B000FC0A3A0B470B3A0B040B3A0B0D0B3A0BAD
:1000C000160B3A0B1F0B3A0B310B3A0B280B740C27
:1000D000FE0D9A0CFE0DFB0DFE0D620DFE0D9A0C31
:1000E000FE0DA70CFE0D620DFE0DC30CFE0D620D84
:1000F000FE0D620DFE0D620DFE0D620DFE0D690D11
:10010000FE0D620DFE0D8F0DFE0DB40DFE0DAF0D3B
:10011000F20C020D200D5A0D5A0D3E0D5A0D5C0DBC
:10012000540D590E200F420E200F600E200F6E0E40
:10013000200F7A0E200F830E200F100F200F100FAC
:10014000200F100F200F100F200F100F200F8D0EFB
:10015000200FA40E200FBB0E200FD20E200F100F69
:10016000200FF10E11241FBECFEFD8E0DEBFCDBFB0
:1001700014E0A0E0B1E0EAE2FCE302C005900D92D9
:10018000A239B107D9F726E0A2E9B4E001C01D9277
:10019000A937B207E1F70E94061A0C94131E0C94BB
:1001A0009711EF92FF920F931F93CF93DF93FC0170
:1001B0002481243008F063C07B01EC01FB018181C4
:1001C000811111C08C819EE1DE01989FA00DB11DAF
:1001D00011241596F70101900D929A95E1F78F5F22
:1001E0008C8380E04DC02223D1F1422F50E0CA0120
:1001F0000197FEE12F9F9001112460E070E0FB0168
:10020000E20FF31F7897EC0FFD1FE081EE2349F01A
:1002100001976E5171098F3FEFEF9E0781F780E0E4
:1002200090E02EE1289FD001299FB00D112460E0BD
:1002300070E020E030E0625E7F4F841795076CF439
:10024000FD01E60FF71F7597EC0FFD1F0190F08180
:10025000E02D2E0F3F1F0196EECF890102C000E076
:1002600010E00E94570B0297801B910BF70124812D
:1002700035818217930708F0A5CF8EE001C08DE08D
:10028000DF91CF911F910F91FF90EF900895EF9222
:10029000FF920F931F93CF93DF931F92CDB7DEB7DB
:1002A0008C01DC0111968C91882319F08130F1F1D9
:1002B0005AC0E091A105F091A2050190F081E02DD6
:1002C000D80114968C9190E0A80120E030E0281726
:1002D000390750F4425E5F4FDA0159976C916530EF
:1002E00029F02F5F3F4FF3CF60E001C061E078015C
:1002F000BDE7EB0EF11CC7010995E091A105F09156
:10030000A2050084F185E02DBE016F5F7F4FD7010C
:100310008C91099581112AC081E0F801E258FF4FC4
:10032000208199812917A9F080E013C0E0919F05F1
:10033000F091A0053097C9F0D801A058BF4F6D913A
:100340007D918D919C910480F581E02D099581111D
:100350000DC091E0F801928323E02093A90581115B
:10036000938380E003C089E001C08BE00F90DF91B0
:10037000CF911F910F91FF90EF9008958093A90561
:1003800080E008958091A90508958053823058F443
:1003900094E8899FF0011124EE56FB4F8081882359
:1003A00011F0CF01089580E090E00895CF93DF939E
:1003B00080E30E94C501009721F0FC01C281D0E0DA
:1003C00002C0C0E0D0E081E30E94C501009721F0A7
:1003D000FC01828181112196CE01DF91CF91089598
:1003E0000F931F93CF938C01FC018181882391F09F
:1003F000813009F5F801E058FF4F608171818281F9
:100400009381E0919F05F091A0050680F781E02D92
:1004100009950BC0E091A105F091A2050280F3813E
:10042000E02DC80183589F4F0995C82F811104C042
:10043000F801128201C0C9E00E94D601892B59F44B
:10044000E0919D05F0919E050680F781E02D0995CC
:1004500082E08093A9058C2FCF911F910F91089571
:10046000CF93DF930097A9F1FC012081222389F12A
:10047000EC018181882319F0813069F01DC0E09181
:10048000A105F091A2050280F381E02DCE018358F1
:100490009F4F099511C0E0919F05F091A0053097FD
:1004A00059F0DE01A058BF4F6D917D918D919C91C7
:1004B0000280F381E02D099584E8FE0111928A956E
:1004C000E9F718820E94D601892B19F482E0809303
:1004D000A905DF91CF91089582E994E00E9430024E
:1004E00086E195E00C943002CF93DF93FC019FE00E
:1004F000AAE9B5E001900D929A95E1F780919D05EA
:1005000090919E050E94AA0BEC01892B31F40E9468
:100510006C0281E08093A90502C0CFEFDFEFCE012E
:10052000DF91CF91089580E30E94C5010E943002BF
:1005300081E30E94C5010E9430020E948C0B81E081
:100540008093A905E091A705F091A805309721F0C7
:100550000190F081E02D09940895CF93C82F80E396
:100560000E94C501009749F0FC012181211105C0BD
:10057000E358FF4F8081C81781F081E30E94C501D5
:10058000009749F0FC012181211105C0E358FF4F7C
:1005900080818C1711F080E001C081E0CF91089537
:1005A000CF93DF93D82FC0E38C2F0E94C501009713
:1005B000B9F0FC01248130E080E090E082179307DD
:1005C0007CF44581463021F44485D41306C00DC027
:1005D000493019F444854D1741F001967E96EECFCF
:1005E000CF5FC23309F780E001C081E0DF91CF9196
:1005F0000895CF93C82F0E94AD02811106C08C2FA1
:100600000E94D00291E0892702C080E090E08170D2
:10061000CF910895AF92BF92CF92DF92EF92FF9267
:100620001F93CF93DF934115510511F480E083C0F0
:100630007A016B01182F811108C0DB018C910E9497
:10064000F902811104C083E076C0813051F08091BD
:100650009204882371F080911605882369F08CE05C
:100660006AC080919F059091A005892B81F78BE04E
:1006700062C080E090E002C081E090E024E8289F22
:10068000F001299FF00D1124EE56FB4FD701119672
:10069000FC93EE93805D8083CD91DC911A821C8265
:1006A00019831B825E01BDE7AB0EB11C87E0F6012A
:1006B000D50101900D928A95E1F71123B9F011301F
:1006C00069F59E0120583F4FC258DF4F488159813C
:1006D00060E070E0E0919F05F091A0050190F0814D
:1006E000E02DD5018C910995C82F14C0E091A1058A
:1006F000F091A2050190F081E02D60E0C50109951F
:10070000C82FE091A105F091A2050280F381E02DB0
:10071000C5010995CC2309F489CF01C0C9E0D701EF
:10072000ED91FC91309731F084E8DF011D928A95BC
:10073000E9F710828C2FDF91CF911F91FF90EF90FE
:10074000DF90CF90BF90AF9008952F923F924F923D
:100750005F926F927F928F929F92AF92BF92CF9251
:10076000DF92EF92FF920F931F93CF93DF93CDB75A
:10077000DEB7A4970FB6F894DEBF0FBECDBF809151
:10078000A905813069F482E0898385E08A832AE9BA
:1007900035E047E95AE062E070E0CE01019608C01A
:1007A0002AE935E047E95AE060E070E080E090E057
:1007B0000E94AC0B8091A905833009F0D5C140E3BC
:1007C000342E832D0E94C5015C01009709F4C8C135
:1007D000DC0112968C911297882309F4C1C118A2EA
:1007E00013968C911397882329F013961C92B1E0ED
:1007F000B8A32EC0F5018181882319F0813089F0DA
:10080000AFC1E091A105F091A2050480F581E02D32
:10081000BE01605E7F4FD501A358BF4F8C910995F3
:1008200015C0E0919F05F091A005309709F498C19B
:10083000D501A058BF4F6D917D918D919C91008401
:10084000F185E02DAE01405E5F4F0995811188C1B1
:1008500088A1882309F484C182E08C8FD5018C9112
:100860008D8FE1E0F0E0EC0FFD1FFF8FEE8F750143
:100870004501FBE08F0E911C612C712C32E0232E80
:10088000D50114968C9190E0681679060CF061C140
:10089000412C512CF7013D96FAA3E9A3C7010E960E
:1008A0009CA38BA3F701808590E0481659060CF0B5
:1008B00046C1CC8CD12C82E0C81AD1088E8D9F8D78
:1008C000C80ED91ED7011596EC918E2F90E0FC0131
:1008D0003197E930F10508F00CC1EC5CFF4F0C9446
:1008E000D81BF701268530E0E0919B05F0919C052F
:1008F0000190F081E02DA601D7011D966C91C401F5
:100900000995182FF7018685F8C0D7015A962C91C2
:100910005A9730E0E0919B05F0919C050280F381AD
:10092000E02D4BA15CA11D966C91C4010995DFC01F
:10093000F70100A110E0478D50E0E0919B05F09198
:100940009C050480F581E02D960169A17AA1C4017E
:100950000995182F8111D0C0D70190968C91CDC0E8
:10096000F70181A1D6018C9381A192A101969927CB
:1009700092A381A381E0BEC0E091A105F091A20500
:100980000680F781E02DBE016D5E7F4FD7011C967A
:100990008C910995182F8111AFC08B89F601808346
:1009A0008C8981838D8982838E89838381C0D701DD
:1009B0001C968C911C978B8B1E968C911E978C8B02
:1009C0001D968C911D978D8B50968C9150978E8B88
:1009D0001F968C918F8BE091A505F091A605028062
:1009E000F381E02DBE016D5E7F4FD4018C9109959E
:1009F000182F811181C0E091A505F091A605019005
:100A0000F081E02DAE01485E5F4FD7011C966C91DE
:100A1000D4018C910995182F81116EC0F70186853C
:100A200090E0079623E0959587952A95E1F7F601E2
:100A3000D601A80FB91F20E030E0AE17BF0709F4B8
:100A40005CC0488D598D6A8D7B8D022E04C07695D1
:100A50006795579547950A94D2F74193285F3F4F82
:100A6000ECCFE091A505F091A6050190F081E02D75
:100A7000AE014D5E5F4FD7011C966C91D4018C91F5
:100A80000995182F811138C0F60180E090E04B895C
:100A90005C896D897E89082E04C076956795579587
:100AA00047950A94D2F7419308968032910579F7D9
:100AB00084E023C0E091A105F091A2050084F185B6
:100AC000E02DB601D4018C910995182F81E01123F6
:100AD000A1F012C0E091A105F091A2050284F38576
:100AE000E02DD7011C966C91D4018C910995182F9B
:100AF00003C080E010E001C080E0F7019781911110
:100B000003C09C8D890F8C8F112341F01E3011F48E
:100B10000E949302812F0E94610B22C0D70116967A
:100B20008C91811108C08C8D833028F0CE014C96B9
:100B30000E942C0C2C8EBFEF4B1A5B0AB3CEFFEF3A
:100B40006F1A7F0A8EE1E80EF11C9EE1890E911C5E
:100B500097CE8C8D833020F0CE014C960E942C0CC9
:100B6000339492E339122DCEA4960FB6F894DEBFDB
:100B70000FBECDBFDF91CF911F910F91FF90EF90EE
:100B8000DF90CF90BF90AF909F908F907F906F90AD
:100B90005F904F903F902F900895EF92FF920F93A8
:100BA0001F93CF93DF93CDB7DEB763970FB6F8945B
:100BB000DEBF0FBECDBF8C01CE0101967C0183E16B
:100BC000D7011D928A95E9F7F8012381223190F42B
:100BD00030E0DB011196ED91FC9112970190F081CC
:100BE000E02DAE014E5F5F4FD80112966C91C801A7
:100BF000099501C08EE089838981811105C0F801C2
:100C000083818B8B8D5F02C01B8A83E094E0EAEACC
:100C1000F5E0DF01292F1D922A95E9F79093AB05A6
:100C20008093AA05F092AD05E092AC05CF010E9439
:100C30002C0C63960FB6F894DEBF0FBECDBFDF91CC
:100C4000CF911F910F91FF90EF900895FF920F9316
:100C50001F93CF93DF9300D000D0CDB7DEB724E051
:100C6000F22E8E010F5F1F4FD801EF2D1D92EA95D6
:100C7000E9F7DC0113962C9130E0AC014C5F5F4F3B
:100C8000DB011196ED91FC9112970280F381E02D2A
:100C9000DC0112966C9109958C83EAEAF5E0DF019C
:100CA0001D92FA94E9F782E0818383E080831383C5
:100CB0000283CF010E942C0C0F900F900F900F9089
:100CC000DF91CF911F910F91FF900895EF92FF92C6
:100CD0000F931F93CF93DF9300D000D0CDB7DEB733
:100CE0007C018E010F5F1F4F84E0D8011D928A9511
:100CF000E9F782E08A830E94930282E00E94BE01AB
:100D0000EAEAF5E086E08183D7019C919C838083A9
:100D100013830283CF010E942C0C0F900F900F9031
:100D20000F90DF91CF911F910F91FF90EF90089559
:100D30000F931F93CF93DF9300D000D0CDB7DEB7D2
:100D40008E010F5F1F4F23E0D8011D922A95E9F70E
:100D5000FC0180818983DB011796ED91FC91189746
:100D60000084F185E02DBE016C5F7F4F09958B8378
:100D70008C818A83EAEAF5E085E0808388E08183DC
:100D800013830283CF010E942C0C0F900F900F90C1
:100D90000F90DF91CF911F910F9108950F931F93A3
:100DA000CF93DF9300D0CDB7DEB78C011A821982C2
:100DB000DB011796ED91FC9118970484F585E02DE1
:100DC000309711F0099501C08BE08A83F80180818A
:100DD000898384E08093AA058AE08093AB05CE01E5
:100DE00001969093AD058093AC058AEA95E00E9448
:100DF0002C0C0F900F90DF91CF911F910F910895C0
:100E0000CF93DF9300D000D0CDB7DEB71C821B821A
:100E1000BC016F5F7F4FAE014F5F5F4FFC01808170
:100E20000E940A038B83811105C0E981FA818081C8
:100E30008C8301C01C8284E08093AA058CE080939F
:100E4000AB05CE0103969093AD058093AC058AEA7D
:100E500095E00E942C0C0F900F900F900F90DF9157
:100E6000CF910895CF93DF931F92CDB7DEB719824C
:100E7000FC0180818F3F39F480E30E94C5010E940C
:100E8000300281E302C0823330F40E94C5010E9427
:100E90003002198202C089E0898383E08093AA0529
:100EA0008EE08093AB05CE0101969093AD058093C3
:100EB000AC058AEA95E00E942C0C0F90DF91CF914F
:100EC0000895CF92DF92EF92FF920F931F93CF93EB
:100ED000DF93CDB7DEB76F970FB6F894DEBF0FBEC6
:100EE000CDBF8C016B01DC0157968C910E94C5012E
:100EF0007C01892B09F4A1C0D8015696EC91569734
:100F0000E98359968C9159978A835A968C915A976E
:100F10008B8358968C918C831E821D828E2F90E03D
:100F2000FC013197E930F10508F087C0E35CFF4F21
:100F30000C94D81BF80180819181A281B3818F83A9
:100F40009887A987BA87838190E02AC080E1F80159
:100F5000DE01179601900D928A95E1F770C086E147
:100F6000F801DE01179601900D928A95E1F78C8DBC
:100F700090E09E838D83D6011196ED91FC9112979E
:100F800084819581892B09F05AC08BE05EC0F801FD
:100F900080818F831E8E1D8E8111F7CF81E090E0BE
:100FA0009E838D834CC0D70111968C91811145C0D1
:100FB000D6011796ED91FC91189786819781892B20
:100FC00021F3F80180818F83F701E358FF4F80817F
:100FD000888784E090E0E4CF86E0F801DE01179690
:100FE00001900D928A95E1F78A85813230F590E083
:100FF000079623E0959587952A95E1F79E838D8343
:1010000088850E94AD02882341F083E01EC0F8016C
:101010008081918198878F83F3CFD6011B968D9124
:101020009C911C97AFCFF80180818F83B7CFD801F7
:101030008D919C9198878F8302C089E006C0BE0184
:101040006F5F7F4FC7010E94D1008F8F83E0809335
:10105000AA0580E18093AB05CE014F969093AD0534
:101060008093AC058AEA95E00E942C0C6F960FB62F
:10107000F894DEBF0FBECDBFDF91CF911F910F91CE
:10108000FF90EF90DF90CF900895CF93DF931F9262
:10109000CDB7DEB7FC0180818F3F89F4198280E3F0
:1010A0000E94C501009729F00E94470189838111A0
:1010B0000FC081E30E94C501009729F409C00E9476
:1010C000C501009719F00E94470101C089E089839A
:1010D00083E08093AA0582E18093AB05CE0101965F
:1010E0009093AD058093AC058AEA95E00E942C0CA4
:1010F0000F90DF91CF910895CF93DF931F92CDB7DB
:10110000DEB7FC0180818F3F89F4198280E30E9461
:10111000C501009729F00E94F001898381110FC059
:1011200081E30E94C501009729F409C00E94C5010E
:10113000009719F00E94F00101C089E0898383E0E3
:101140008093AA0584E18093AB05CE01019690932C
:10115000AD058093AC058AEA95E00E942C0C0F90B7
:10116000DF91CF910895DC018C91DB0181110CC0DE
:101170001396ED91FC911497309781F00480F581DE
:10118000E02D309751F40AC01996ED91FC911A9711
:10119000309721F00190F081E02D09950C94930295
:1011A000CF93DF93CDB7DEB763970FB6F894DEBF6A
:1011B0000FBECDBFDB011996ED91FC911A973097C8
:1011C00071F00280F381E02DAE014D5E5F4FBE01F4
:1011D0006E5F7F4FDC018C910995898303C08BE0A2
:1011E00089831B8A8B898D5F8093AA0588E1809310
:1011F000AB05CE0101969093AD058093AC058AEACC
:1012000095E00E942C0C63960FB6F894DEBF0FBEDB
:10121000CDBFDF91CF910895EF92FF920F931F936F
:10122000CF93DF93CDB7DEB762970FB6F894DEBFEA
:101230000FBECDBF7C01DB011196ED91FC911297A1
:101240000480F581E02D309781F0DC0153960C91FC
:10125000539710E052964C9150E09E012E5F3F4F05
:10126000BC016E5F7F4F099501C08BE08983898146
:10127000811104C0F70183898A8B01C01A8A8A8987
:101280008D5F8093AA058AE18093AB05CE0101961C
:101290009093AD058093AC058AEA95E00E942C0CF2
:1012A00062960FB6F894DEBF0FBECDBFDF91CF912F
:1012B0001F910F91FF90EF900895CF93DF93CDB7DB
:1012C000DEB765970FB6F894DEBF0FBECDBF21E144
:1012D00030E03D8B2C8BDB011996ED91FC911A9738
:1012E0000480F581E02DAE014C5E5F4FBE016E5F64
:1012F0007F4FDC018C9109958983811102C08C8913
:1013000001C080E08B8B8D5F8093AA058CE1809378
:10131000AB05CE0101969093AD058093AC058AEAAA
:1013200095E00E942C0C65960FB6F894DEBF0FBEB8
:10133000CDBFDF91CF910895EF92FF920F931F934E
:10134000CF93DF93CDB7DEB72E970FB6F894DEBFFD
:101350000FBECDBF8C017B01DB011B96ED91FC9193
:101360001C97309719F48BE08E8320C0DC01119616
:101370008C911197898313968C9113978A83129677
:101380008C9112978B8315968C9115978C8314965C
:101390008C9114978D830280F381E02DBE016F5FE5
:1013A0007F4F8C9109958E83882311F080E015C0C2
:1013B000D7011B96ED91FC911C970190F081E02DD7
:1013C000AE01455F5F4FD80111966C9111978C91DA
:1013D00009958E838111EACF84E09EE19093AB055D
:1013E0008D5F8093AA05CE0106969093AD058093FC
:1013F000AC058AEA95E00E942C0C2E960FB6F89464
:10140000DEBF0FBECDBFDF91CF911F910F91FF9037
:10141000EF900895CF93DF9300D000D01F92CDB707
:10142000DEB7DB011B96ED91FC911C97309719F408
:101430008BE0898311C00190F081E02DAE014E5FF9
:101440005F4FDC0111966C9111978C9109958983FE
:10145000811102C084E001C080E092E29093AB056C
:101460008D5F8093AA05CE0101969093AD05809380
:10147000AC058AEA95E00E942C0C0F900F900F901B
:101480000F900F90DF91CF910895CF93DF931F922C
:10149000CDB7DEB7DC01FB018C918730A9F028F4D1
:1014A0009FEF980F953020F02CC08830E1F029C0D4
:1014B0000180F281E02D0680F781E02D309709F15F
:1014C000BD016F5F7F4F1BC00584F685E02D30970F
:1014D00041F011968C91823020F40190F081E02D42
:1014E0000995198210C00384F485E02D309749F0E6
:1014F000BD016F5F7F4F0280F381E02D88E0099589
:1015000001C08BE0898380E28093AB0583E0809308
:10151000AA05CE0101969093AD058093AC058AEAA9
:1015200095E00E942C0C0F90DF91CF9108950F93BE
:101530001F93CF93DF93EC018B0184E0EAEAF5E09F
:10154000DF011D928A95E9F70E94C2018250E9816C
:10155000823008F091C08E2F90E0FC013197E1328B
:10156000F10508F087C0EA5BFF4F0C94D81BB80167
:10157000CE010296DF91CF911F910F910C94CD0572
:10158000B801CE010296DF91CF911F910F910C947B
:101590002606B801CE010296DF91CF911F910F91DF
:1015A0000C949806B801CE010296DF91CF911F915D
:1015B0000F910C94CE06CE010296DF91CF911F9130
:1015C0000F910C940007CE010296DF91CF911F91ED
:1015D0000F910C943207B801CE010296DF91CF91A2
:1015E0001F910F910C946107CE010296DF91CF916C
:1015F0001F910F910C944508CE010296DF91CF9177
:101600001F910F910C947C08B801CE010296DF91D6
:10161000CF911F910F910C94D008B801CE01029682
:10162000DF91CF911F910F910C940C09B801CE015D
:101630000296DF91CF911F910F910C945D09B80133
:10164000CE010296DF91CF911F910F910C949C09CE
:10165000B801CE010296DF91CF911F910F910C94AA
:101660000A0AB801CE010296DF91CF911F910F9126
:101670000C94450A87E015C0E53039F4C801DF91C4
:10168000CF911F910F910C946606E53149F4B80192
:10169000CE010296DF91CF911F910F910C94B30868
:1016A00088E0DF91CF911F910F910C94610B809195
:1016B000CC059091CD058431910510F084E190E046
:1016C0000895CF93DF93CDB7DEB769970FB6F8943F
:1016D000DEBF0FBECDBF898F83E08D8B86E18E8B01
:1016E000CE014996988F8F8BBE016F5F7F4F049715
:1016F0000E94060E6D8970E0E091C605F091C70565
:10170000CE010196099569960FB6F894DEBF0FBE1B
:10171000CDBFDF91CF91089584E1E0EBF5E0DF01EB
:101720001D928A95E9F71092AF051092AE050895C3
:10173000FC0180859185449750F09AE0A4ECB5E0D7
:1017400001900D929A95E1F780E090E008958FEF77
:101750009FEF08950C94980B8F929F92AF92BF9237
:10176000CF92DF92EF92FF920F931F93CF93DF936D
:10177000CDB7DEB7E1970FB6F894DEBF0FBECDBF91
:101780007C016B014A0159018E01025E1F4FE091FD
:10179000C405F091C50564E170E0C80109950097A2
:1017A00009F447C02091AE053091AF0544E150E007
:1017B000421B530B4817590768F0D901A055BA4F7F
:1017C000F80141914D93AF01401B510B4817590748
:1017D000C0F306C08EE00E94610B0E948C0B29C0F2
:1017E0008C01020F131F1093AF050093AE05E11497
:1017F000F10459F00C151D0540F0A60160EB75E0F1
:10180000C7010E94FD1D892B41F78091B00590E032
:101810000817190770F0BE016F5F7F4F80EB95E0EE
:101820000E94590C0E948C0BB501CE010196F40167
:101830000995E1960FB6F894DEBF0FBECDBFDF91DC
:10184000CF911F910F91FF90EF90DF90CF90BF90BD
:10185000AF909F908F900895EF92FF921F93CF9338
:10186000DF93CDB7DEB764970FB6F894DEBF0FBE37
:10187000CDBF7C01BE016F5F7F4F0E94060E182F07
:1018800081110AC0F701608170E0E091C605F09116
:10189000C705CE0101960995812F64960FB6F8947D
:1018A000DEBF0FBECDBFDF91CF911F91FF90EF90B4
:1018B0000895CF93DF93EC01DB018DE1FB011192E1
:1018C0008A95E9F728812C93998111969C93119719
:1018D000492F50E0FA013197E132F10508F08EC14D
:1018E000E959FF4F0C94D81BAB014E5F5F4F83E16A
:1018F000FA0111928A95E9F78A8112968C931297D0
:101900008B8113968C9313978C8114968C931497D8
:10191000255015962C93159725961696FE0130E0C6
:10192000AF014C1B5D0B421753070CF064C1819152
:101930008D93F6CF9B012E5F3F4F84E0F90111920A
:101940008A95E9F78A8112968C9312970EC088E0E7
:101950009B012E5F3F4FF90111928A95E9F78A8129
:1019600012968C93129781110AC08B8113968C93D7
:1019700013978C8114968C9314978D8140C081307D
:1019800009F03FC11CC18BE1AB014E5F5F4FFA0113
:1019900011928A95E9F78A8159968C9359978B8190
:1019A000E82FEF735896EC935897382F331F33274F
:1019B000331F5B963C935B9786FB882780F95C9688
:1019C0008C935C978C815A968C935A974E2F50E04B
:1019D000FA013197E930F10508F00DC1E857FF4FE2
:1019E0000C94D81B8D8112968C9312978E8113962E
:1019F0008C9313978F8114968C93149788851596E2
:101A00008C93F9C08D8112968C9312978E811396C8
:101A10008C9313978F8114968C931497285051961A
:101A20002C93519728961596FE0130E0AF014C1B80
:101A30005D0B421753070CF0DEC081918D93F6CFFA
:101A40008D8112968C9312978E8113968C93139797
:101A50008F8157968C935797285056962C9356976C
:101A600028961496FE0130E0AF014C1B5D0B421727
:101A700053070CF0C0C081918D93F6CF8D811296E3
:101A80008C9312978E8113968C9313978F81149653
:101A90008C931497888515968C931597898516963F
:101AA0008C9316978A8558C08D8112968C931297C5
:101AB0008E819FC08E810AC08E8112968C93129760
:101AC0008F8197C012961C9212978A8112968C93DE
:101AD00092C0AB014E5F5F4F84E1FA0111928A958B
:101AE000E9F78A8112968C9312978B8113968C93C7
:101AF00013978C8155968C935597255054962C931B
:101B0000549725961496FE0130E0AF014C1B5D0BF7
:101B1000421753070CF06FC081918D93F6CF9B0154
:101B20002E5F3F4F86E0F90111928A95E9F78A818D
:101B300012968C9312978B8113968C9313978C81AA
:101B400014968C9314978D8115968C9315978E818E
:101B500016968C9316978F8117968C934CC08A811A
:101B600012968C93129744C086E09B012E5F3F4FE4
:101B7000F90111928A95E9F78A8112968C9312974E
:101B8000863028F4843038F58130C8F434C087308A
:101B900079F1883081F58B8113968C9313978C8122
:101BA00015968C9315978D8114968C9314978E812E
:101BB00017968C9317978F8116968C931CC08B81E8
:101BC00013968C9313972C8130E015963C932E93AB
:101BD00014978D8107C02B8130E015963C932E938E
:101BE00014978C81382B15963C932E93149703C031
:101BF0008B8113968C93892F90E005C087E090E04D
:101C000002C089E090E0DF91CF9108950F931F9378
:101C1000CF93DF938C01EB010E94570BD8012C91DD
:101C2000422F50E08417950708F404C128831196C9
:101C30008C91119789831196EC911197E033B0F054
:101C4000E23308F0FAC02C912250229680E090E016
:101C5000821708F0ECC0D8011296ED91FC91139711
:101C6000E80FF91F308139930196F2CF8E2F90E063
:101C7000FC013297E132F10508F0E2C0EF56FF4F68
:101C80000C94D81BF80122813381F90181918A8358
:101C9000BE016D5F7F4FDB01E9018A8990E0AD01F4
:101CA000461B570B481759070CF0C1C081918D9303
:101CB000F3CFD8011296ED91FC9113978381B6C0B2
:101CC000D8011296ED91FC91139780818A838181CE
:101CD0008B8382818C8383818D83A9C0D8011296E6
:101CE000ED91FC91139782818A8380818B8381811E
:101CF0008C839DC0D8011296ED91FC911397818140
:101D00008A83808108C0D8011296ED91FC911397C7
:101D100080818A8381818B838AC0F801228133810B
:101D2000F90181918A83BE016D5F7F4FDB01E9017B
:101D30008A8990E0AD01461B570B481759070CF0F4
:101D400076C081918D93F3CFF80122813381F9011F
:101D500081918A83BE016D5F7F4FDB01E901898933
:101D600090E0AD01461B570B481759070CF05FC0B8
:101D700081918D93F3CFF80122813381F901819113
:101D80008A83BE016D5F7F4FDB01E9018A8990E0A4
:101D9000AD01461B570B481759070CF048C08191FD
:101DA0008D93F3CFD8011296ED91FC91139780811A
:101DB0008A83808181113BC0239680E090E041813D
:101DC000528163817481082E04C07695679557957A
:101DD00047950A94D2F7499308968032910579F78E
:101DE00026C0D8011296ED91FC91139780818A83C9
:101DF000808181111CC0239680E090E04181528156
:101E000063817481082E04C0769567955795479530
:101E10000A94D2F7499308968032910579F707C062
:101E2000D8011296ED91FC91139780818A8380E00E
:101E300090E008C08EE090E005C089E090E002C02C
:101E400087E090E0DF91CF911F910F9108959091DD
:101E50007C00907F90937C00803191F040F48E3034
:101E6000E1F08F3069F580917C00816014C082318F
:101E700079F050F0833121F580917C0085600BC0B2
:101E800080917C00826007C080917C00836003C0E9
:101E900080917C00846080937C0080917C001F9204
:101EA0008F938CE191E09F938F93E0912F06F091B7
:101EB000300609950F900F900F900F9080E00895D5
:101EC00085E00895FB01883091F481818A3089F49E
:101ED000848181110EC0838181110BC082818111A7
:101EE00008C080810E94270F811105C008958BE0F2
:101EF000089589E0089585E0089590917A009F778C
:101F000090937A000E94270F81110BC090917C0062
:101F1000906490937C0090917A00976890937A00F7
:101F2000089585E008950F931F93CF93883071F53E
:101F30008A01862F0E947D0F81112AC080917A002C
:101F4000806480937A0080917A00C82FC07486FDE7
:101F5000FACF8091780090917900A0E0B0E0F8018C
:101F600080839183A283B38380917C001F928F939F
:101F700089E291E09F938F93E0912F06F0913006D4
:101F800009950F900F900F900F9003C0CBE001C008
:101F9000C5E08C2FCF911F910F910895EFE3F6E0EC
:101FA00084E0DF011D928A95E9F783E99FE0918340
:101FB000808382E69FE093838283CF010895CF934D
:101FC000DF93CDB7DEB764970FB6F894DEBF0FBED0
:101FD000CDBF94E1E8E0F1E0DE01119601900D92B1
:101FE0009A95E1F7E1E0F0E0EC0FFD1FE80FF11D3D
:101FF0009081FB019083883018F48BE290E005C05B
:102000008E3038F485E290E0FB019283818380E09A
:1020100006C0843118F488E290E0F6CF85E064963B
:102020000FB6F894DEBF0FBECDBFDF91CF910895FC
:10203000FC0121813281908180E090FD03C08F5F9F
:102040009695FBCF2B32310559F02532310511F42D
:10205000885F08952832310511F4825F08958FEF6B
:1020600008950895CF92DF92EF92FF920F931F93FE
:10207000CF93DF93EC017B01F89483E496E00E9418
:1020800067128C017894E816F90678F4F89483E4E2
:1020900096E00E94FA1141E050E060E270E083E4D3
:1020A00096E00E94BD11789441C0009709F43EC0AB
:1020B0007E01E80EF91ECE15DF0549F0F894BE0149
:1020C00083E496E00E94341278942196F4CF83E35F
:1020D00091E09F938F93E0912F06F0913006099540
:1020E000C01BD10B6E01C00ED11E0F900F908AE362
:1020F000E82E81E0F82EE0912F06F0913006CC1505
:10210000DD0559F089911F928F93FF92EF92099507
:102110000F900F900F900F90EECF82E791E09F937A
:102120008F9309950F900F90C80102C080E090E056
:10213000DF91CF911F910F91FF90EF90DF90CF90A3
:102140000895F8949093C5008093C4008EE0809326
:10215000C200E1ECF0E080818869808341E050E0DA
:1021600060E270E083E496E00E94BD1178940895E7
:10217000E1E5F6E08AE0DF011D928A95E9F782E366
:1021800090E1918380838DED90E19383828381E35D
:1021900090E19783868384E190E09187808780E057
:1021A00090E00E94A11081E596E008959091C00012
:1021B00095FFFCCF8093C6000895EF92FF920F9396
:1021C0001F93CF93DF93EC018B0180E491E09F9309
:1021D0008F93E0912F06F091300609950C0F1D1F8B
:1021E0000F900F908AE3E82E81E0F82EE0912F0601
:1021F000F0913006C017D10771F088811F928F933C
:10220000FF92EF92099589910E94D6100F900F903E
:102210000F900F90EBCF82E791E09F938F930995FA
:102220000F900F90DF91CF911F910F91FF90EF9042
:102230000895CF93DF93EC018991882319F00E94D0
:10224000D610FACFDF91CF9108951F920F920FB65B
:102250000F9211242F933F934F935F936F937F932C
:102260008F939F93AF93BF93EF93FF9387E491E096
:102270009F938F93E0912F06F091300609950F9070
:102280000F90FF91EF91BF91AF919F918F917F91AF
:102290006F915F914F913F912F910F900FBE0F90D3
:1022A0001F9018951F920F920FB60F9211242F9323
:1022B0003F934F935F936F937F938F939F93AF93CE
:1022C000BF93EF93FF93CF93DF931F92CDB7DEB70A
:1022D0008091C00083FF0BC080E691E09F938F93B5
:1022E000E0912F06F091300609950F900F908091A4
:1022F000C6008983F894BE016F5F7F4F83E496E048
:102300000E94FF1178940F90DF91CF91FF91EF9190
:10231000BF91AF919F918F917F916F915F914F91FD
:102320003F912F910F900FBE0F901F9018951F9205
:102330000F920FB60F9211242F933F934F935F93F9
:102340006F937F938F939F93AF93BF93EF93FF937D
:1023500085E791E00E941911FF91EF91BF91AF9134
:102360009F918F917F916F915F914F913F912F91AD
:102370000F900FBE0F901F901895CF92DF92EF92A3
:10238000FF920F931F93CF93DF93EC016B017A01C0
:10239000649F8001659F100D749F100D1124C8016A
:1023A0000E94DC1C99838883892B59F48FE791E084
:1023B0009F938F93E0912F06F091300609950F902F
:1023C0000F9088819981080F191F1B830A83DD8272
:1023D000CC821F821E82F986E8869B878A879D872A
:1023E0008C87DF91CF911F910F91FF90EF90DF903D
:1023F000CF900895FC01808191810C94741DCF933E
:10240000DF93EC012E813F818C819D812817390754
:1024100061F48FE891E09F938F93E0912F06F09104
:10242000300609950F900F901CC0488559858A8504
:102430009B850E940A1E2A853B8588859985820F87
:10244000931F9B878A872A813B818217930721F4F8
:10245000888199819B878A878E819F8101969F833E
:102460008E83DF91CF910895CF93DF93EC01CB0161
:102470002E813F81232B61F480EA91E09F938F931B
:10248000E0912F06F091300609950F900F901CC037
:102490006C857D85488559850E940A1E2C853D8561
:1024A00088859985820F931F9D878C872A813B8120
:1024B0008217930721F4888199819D878C878E816B
:1024C0009F8101979F838E83DF91CF910895FC01B7
:1024D000868197810895CF93DF93CDB7DEB780E0F3
:1024E00090E0DF91CF9108958BE692E190933006D2
:1024F00080932F0608950F931F93CF93DF93EC01E2
:10250000F89400912F06109130060E9418101F9227
:102510008F938EEB91E09F938F93F80109958881BB
:102520001F928F938A818F9389818F9385ED91E09C
:102530009F938F93E0912F06F09130060995CE017D
:102540000E941810E82FF0E0EE0FFF1FE253FA4F41
:1025500081E090E09183808378948DB79EB70A964E
:102560000FB6F8949EBF0FBE8DBFDF91CF911F9124
:102570000F9108950F931F93CF93DF9300D01F9275
:10258000CDB7DEB78B01BE016F5F7F4F0E94DF0FBB
:10259000811113C0EA81FB813297208130E00980EC
:1025A00002C0359527950A94E2F720FF02C092E019
:1025B00001C091E0F801908301C085E00F900F9079
:1025C0000F90DF91CF911F910F9108951F93CF939B
:1025D000DF9300D01F92CDB7DEB7162FBE016F5F1D
:1025E0007F4F0E94DF0F81115BC0F8942A813B81ED
:1025F0002B323105D1F42AB1498130E0042E02C0DA
:10260000359527950A94E2F720FF4CC09BB121E055
:1026100030E001C0220F4A95EAF7123011F4292B5D
:1026200002C0209529232BB939C025323105D1F4B8
:1026300024B1498130E0042E02C0359527950A94D3
:10264000E2F720FF2FC095B121E030E001C0220F5A
:102650004A95EAF7123011F4292B02C0209529235C
:1026600025B91CC028323105E9F427B1498130E091
:10267000042E02C0359527950A94E2F720FF12C078
:1026800098B121E030E001C0220F4A95EAF71230FC
:1026900011F4292B02C02095292328B9789403C06E
:1026A00085E001C089E00F900F900F90DF91CF91EE
:1026B0001F9108958431B0F4F89490E0880F991F29
:1026C000FC01E253FA4F20813181232B19F021E0E4
:1026D000FB012083FC01E253FA4F118210827894AF
:1026E00080E0089585E008950F931F93CF93DF93C3
:1026F000C82F062F1F926F931F928F938AEF91E03E
:102700009F938F93E0912F06F091300609956BE52A
:1027100076E08C2F0E94DF0F182F0F900F900F90F4
:102720000F900F900F9081114BC1F89480915C062F
:1027300090915D068B9709F092C020916D00C1E0E9
:10274000D0E0CE0100905B0602C0880F991F0A946A
:10275000E2F7822B80936D00809168008460809303
:1027600068009AB19E0100905B0602C0220F331FE1
:102770000A94E2F7822F809589238AB92BB1CE0182
:1027800000905B0602C0880F991F0A94E2F7822B23
:102790008BB93BB12AB19091680080916D001F9276
:1027A0003F931F922F931F929F931F928F9380E2CC
:1027B00092E09F938F93E0912F06F0913006099558
:1027C0002091F605CE0100905B0602C0880F991F8C
:1027D0000A94E2F7822B8093F6058091F6051F920A
:1027E0008F938AE592E09F938F93E0912F06F0916B
:1027F000300609958FB71F928F938CE792E09F93D5
:102800008F93E0912F06F091300609958DB79EB712
:1028100042960FB6F8949EBF0FBE8DBF90915B0697
:102820008091F90501C0CC0F9A95EAF7023011F4B6
:10283000C82B02C0C095C823C093F9058091F90543
:102840001F928F938AE892E09F938F93E0912F06D7
:10285000F091300609950F900F900F900F90809196
:102860005C0690915D06859709F054C020916B003D
:10287000C1E0D0E0CE0100905B0602C0880F991F36
:102880000A94E2F7822B80936B008091680081604C
:102890008093680094B19E0100905B0602C0220FF5
:1028A000331F0A94E2F7822F8095892384B925B1DA
:1028B000CE0100905B0602C0880F991F0A94E2F7D0
:1028C000822B85B980916B001F928F938FE992E0E4
:1028D0009F938F93E0912F06F091300609952091F8
:1028E000F405CE0100905B0602C0880F991F0A9480
:1028F000E2F7282B2093F4050F900F900F900F9084
:102900009091F705023011F4892B02C0809589233C
:102910008093F70580915C0690915D06889709F099
:1029200042C040916C0081E090E09C0100905B0609
:1029300002C0220F331F0A94E2F7242B20936C006D
:102940002091680022602093680037B1AC010090AC
:102950005B0602C0440F551F0A94E2F7242F20950E
:10296000232327B948B19C0100905B0602C0220FC7
:10297000331F0A94E2F7242B28B92091F505009023
:102980005B0602C0880F991F0A94E2F7282B209358
:10299000F5059091F805023011F4892B02C080955D
:1029A00089238093F805789485EB92E09F938F9329
:1029B000E0912F06F091300609950F900F9001C01D
:1029C00015E0812FDF91CF911F910F910895CF9343
:1029D000FC01618180810E947413C82FE0912F0651
:1029E000F0913006882349F08BEB92E09F938F9310
:1029F00009950F900F90C9E007C08FEC92E09F936C
:102A00008F9309950F900F908C2FCF9108950F936E
:102A10001F93CF93DF93FC012381213009F4BAC0C7
:102A20002281222309F4B6C0EB018C01F89489813C
:102A30009A818B97B1F53AB181E090E0AC010880C2
:102A400002C0440F551F0A94E2F7242F2095232338
:102A50002AB923813881223039F42BB101C0880F83
:102A60003A95EAF7822B07C02BB101C0880F3A953F
:102A7000EAF7809582238BB99BB18AB11F929F930D
:102A80001F928F9385EE92E09F938F93E0912F0694
:102A9000F091300609950F900F900F900F900F90C6
:102AA0000F9089819A818597B9F594B121E030E042
:102AB000A901088002C0440F551F0A94E2F7842F31
:102AC0008095892384B9F80183819881823039F413
:102AD00085B101C0220F9A95EAF7282B07C085B16E
:102AE00001C0220F9A95EAF72095282325B995B1C0
:102AF00084B11F929F931F928F9388E093E09F93DE
:102B00008F93E0912F06F091300609950F900F906A
:102B10000F900F900F900F9089819A818897B9F547
:102B200097B121E030E0A901088002C0440F551F91
:102B30000A94E2F7842F8095892387B9F80183816D
:102B40009881823039F488B101C0220F9A95EAF752
:102B5000282B07C088B101C0220F9A95EAF720956B
:102B6000282328B998B187B11F929F931F928F9302
:102B70008BE293E09F938F93E0912F06F0913006C4
:102B800009950F900F900F900F900F900F907894E1
:102B900080E001C089E0DF91CF911F910F910895EE
:102BA0000F931F93CF93DF938C01EB01F8948981EE
:102BB0009A818B97A9F54AB181E090E09C01088049
:102BC00002C0220F331F0A94E2F7242B2AB9F8011E
:102BD00023813881223039F42BB101C0880F3A9516
:102BE000EAF7822B07C02BB101C0880F3A95EAF7AC
:102BF000809582238BB99BB18AB11F929F931F92BC
:102C00008F938EE493E09F938F93E0912F06F09142
:102C1000300609950F900F900F900F900F900F9026
:102C200089819A818597A9F544B181E090E09C0162
:102C3000088002C0220F331F0A94E2F7242B24B924
:102C4000F80123813881223039F425B101C0880F81
:102C50003A95EAF7822B07C025B101C0880F3A9553
:102C6000EAF78095822385B995B184B11F929F932D
:102C70001F928F9382E793E09F938F93E0912F06AB
:102C8000F091300609950F900F900F900F900F90D4
:102C90000F9089819A818897A9F547B181E090E0EA
:102CA0009C01088002C0220F331F0A94E2F7242BF4
:102CB00027B9F80123813881223039F428B101C0C5
:102CC000880F3A95EAF7822B07C028B101C0880F18
:102CD0003A95EAF78095822388B998B187B11F9217
:102CE0009F931F928F9386E993E09F938F93E09138
:102CF0002F06F091300609950F900F900F900F90CE
:102D00000F900F90789480E0DF91CF911F910F91F9
:102D10000895EF92FF921F93CF93DF9300D01F92FD
:102D2000CDB7DEB77C01BE016F5F7F4FFC018081B4
:102D30000E94DF0F811115C0F7011181111107C029
:102D4000BE016F5F7F4FC7010E9407150DC0113094
:102D500051F4BE016F5F7F4FC7010E94D01510E094
:102D600003C015E001C019E0812F0F900F900F9064
:102D7000DF91CF911F91FF90EF900895CF93DF9354
:102D8000D82F6BE576E00E94DF0FC82F8111C5C0F8
:102D90001F92DF9380915D068F9380915C068F93E5
:102DA00080915B068F938AEB93E09F938F93E091E2
:102DB0002F06F091300609958DB79EB707960FB68E
:102DC000F8949EBF0FBE8DBF20915C0630915D06CA
:102DD0002B32310581F550916D0081E090E0BC010E
:102DE00000905B0602C0660F771F0A94E2F7462F39
:102DF0004095452340936D00409168004B7F409380
:102E000068005BB1BC0100905B0602C0660F771FD3
:102E10000A94E2F7462F409545234BB94091F605B9
:102E200000905B0602C0880F991F0A94E2F7809514
:102E300084238093F6052532310581F550916B008E
:102E400081E090E0BC0100905B0602C0660F771F36
:102E50000A94E2F7462F4095452340936B0040913A
:102E600068004E7F4093680055B1BC0100905B063E
:102E700002C0660F771F0A94E2F7462F409545235C
:102E800045B94091F40500905B0602C0880F991F78
:102E90000A94E2F7809584238093F4052832310563
:102EA00081F530916C0081E090E0AC0100905B0610
:102EB00002C0440F551F0A94E2F7242F20952323C4
:102EC00020936C00209168002D7F2093680038B11A
:102ED000AC0100905B0602C0440F551F0A94E2F754
:102EE000242F2095232328B92091F50500905B0617
:102EF00002C0880F991F0A94E2F78095822380937D
:102F0000F5058FED93E09F938F93E0912F06F0915D
:102F1000300609950F900F9001C0C5E08C2FDF910E
:102F2000CF910895FC0180810C94BE161F920F92E0
:102F30000FB60F9211242F933F934F935F936F938C
:102F40007F938F939F93AF93BF93CF93DF93EF9331
:102F5000FF938CEF93E09F938F93E0912F06F09176
:102F600030060995D3B1C091F7058091F405CD27BE
:102F7000C095C8239091F4058091F7051F929F9307
:102F80001F928F9388E094E09F938F93E0912F0698
:102F9000F0913006099585E290E090936006809369
:102FA0005F06C0935E061F92CF931F92DF938CE261
:102FB00094E09F938F93E0912F06F091300609954E
:102FC0008DB79EB70E960FB6F8949EBF0FBE8DBFFD
:102FD000CC2339F0E0910601F09107018EE596E0EF
:102FE0000995FF91EF91DF91CF91BF91AF919F91A3
:102FF0008F917F916F915F914F913F912F910F90A2
:103000000FBE0F901F9018951F920F920FB60F9240
:1030100011242F933F934F935F936F937F938F93DD
:103020009F93AF93BF93CF93EF93FF9388E494E084
:103030009F938F93E0912F06F0913006099596B1FA
:10304000C091F8058091F505C927C095C82328E2ED
:1030500030E03093600620935F06C0935E061F92B7
:10306000CF931F929F9384E594E09F938F93E09179
:103070002F06F091300609958DB79EB708960FB6CA
:10308000F8949EBF0FBE8DBFCC2339F0E0910601AE
:10309000F09107018EE596E00995FF91EF91CF91B0
:1030A000BF91AF919F918F917F916F915F914F9160
:1030B0003F912F910F900FBE0F901F9018951F9268
:1030C0000F920FB60F9211242F933F934F935F935C
:1030D0006F937F938F939F93AF93BF93EF93FF93E0
:1030E00080E794E09F938F93E0912F06F091300654
:1030F000099589B19091F9052091F6058927809568
:1031000082232BE230E03093600620935F068093A9
:103110005E060F900F90882339F0E0910601F09140
:1031200007018EE596E00995FF91EF91BF91AF9170
:103130009F918F917F916F915F914F913F912F91CF
:103140000F900FBE0F901F901895EAEFF5E087EEF5
:1031500094E19183808382E997E1938382838AE576
:1031600093E1958384838AEB92E19187808789E854
:1031700096E19587848786EE92E19387828717820E
:103180001682CF010895EFE6F0E090819D7F908355
:10319000709389006093880010928000886080930B
:1031A000810010928500109284008081826080836B
:1031B000509362064093610608951092810008952D
:1031C0001F920F920FB60F9211242F933F934F939C
:1031D0005F936F937F938F939F93AF93BF93EF937F
:1031E000FF93E0916106F09162060995FF91EF91DE
:1031F000BF91AF919F918F917F916F915F914F910F
:103200003F912F910F900FBE0F901F901895843013
:1032100091F4FB01818192818436910529F08039F6
:10322000914049F48CE001C088E48093B80010928A
:10323000BC0080E008958BE008958CE08093B80096
:103240001092BC00089594EA9093BC009091BC0049
:1032500097FFFCCF9091B900987F983039F090910A
:10326000B900987F903111F081E008958093BB0000
:1032700084E88093BC008091BC0087FFFCCF8091E4
:10328000B900887F883111F0803471F780E00895AB
:103290008093BB0084E88093BC008091BC0087FFD2
:1032A000FCCF9091B900987F81E0983209F480E0DA
:1032B000089584EC8093BC008091BC0087FFFCCF14
:1032C0008091BB00089584E88093BC008091BC008D
:1032D00087FFFCCF8091BB000895DF92EF92FF92B1
:1032E0000F931F93CF93DF93C62FD42E052F790111
:1032F0000E942319182F882311F011E013C08C2F7E
:103300000E944819CD2DD02FEC0EFD1ECE15DF05E5
:1033100031F089910E9448198823C1F3EECF84E9E6
:103320008093BC00812FDF91CF911F910F91FF906F
:10333000EF90DF900895FC018181880F0E946D1944
:1033400091E0811101C090E0892F0895AF92BF9262
:10335000CF92DF92FF920F931F93CF93DF93C82FEB
:10336000D62F6A0189010E942319882319F0FF24AE
:10337000F39421C08D2F0E9448198C2F81600E94E8
:103380002319F82E8111F3CF5601E8012197C501C9
:103390008C199D098C179D0730F40E945919F5016D
:1033A00081935F01F4CFCC0DDD1D0E9463198883EA
:1033B00084E98093BC008F2DDF91CF911F910F91F5
:1033C000FF90DF90CF90BF90AF900895FC01818176
:1033D000880F0E94A61991E0811101C090E0892F09
:1033E0000895E8E0F6E088E0DF011D928A95E9F7AC
:1033F00086EE99E1918380838BE999E193838283BF
:1034000087E099E197838683CF01089581E396E071
:1034100090937606809375060E9474120E941D197F
:1034200089E0809310060E94F11990931206809310
:1034300011060E94B81090931406809313060E9400
:10344000A51890931806809317060E94CB1B9093A3
:103450001A06809319060E946B1B909316068093A0
:1034600015060E94CE0F90931C0680931B061092A7
:103470001E0610921D0680E196E00E9474028CE701
:1034800094E09F938F93E0912F06F0913006099579
:103490000F900F900E94A503FDCF80916B06909135
:1034A0006C06A0916D06B0916E060097A105B1055E
:1034B00061F481E0809366068091670690916806CA
:1034C000A0916906B0916A0603C00197A109B109EC
:1034D00080936B0690936C06A0936D06B0936E0676
:1034E0000895672B682B692B89F4809165068823E2
:1034F00079F0F89480916606882329F081E0FA013A
:10350000808310926606789480E0089589E008959B
:1035100086E00895672B682B692B59F48091650626
:10352000882349F0F8940E94DD187894109265067B
:1035300002C089E0089580E00895672B682B692B0D
:1035400051F480916506882341F0F8940E94DD18BB
:10355000789480E0089589E0089586E00895672BC7
:10356000682B692BF9F4809165068823E9F0809136
:10357000670690916806A0916906B0916A068093EB
:103580006B0690936C06A0936D06B0936E06F8944C
:103590004DE45AE161E070E085E00E94C318789440
:1035A00080E0089589E0089586E00895AF92BF9283
:1035B000CF92DF92EF92FF920F931F93CF93DF93FF
:1035C00090916506911179C0E9018230C1F198F4BA
:1035D000813009F074C0BA0180E090E024E83EE157
:1035E00040E050E00E94371CE0E4AE2EF2E4BF2E33
:1035F000AFE0CA2E32C08330C1F0843009F05FC022
:1036000000EFA02E86E2B82E97E0C92ED12CE12C37
:10361000F12C00E010E09A0140E050E060E070E042
:1036200080E090E00E94DE1B1FC0BA0180E090E0C5
:1036300024E83EE140E050E00E94371C15C0BA018A
:1036400080E090E024E83EE140E050E00E94371C3A
:10365000B8EEAB2E13E0B12EC12CD12CE12CF12C05
:1036600000E010E00E94641C122FB32FF42FE52F0E
:10367000212F3B2F4F2F5E2FAFEF0E94C11C2E3FFB
:103680003F4F4F4F5F4F610571058105910509F06F
:10369000B0F481E08093650610926606CF01109326
:1036A0006706B09368069093690680936A0618824D
:1036B00019821A821B8280E003C086E001C08AE082
:1036C000DF91CF911F910F91FF90EF90DF90CF90FE
:1036D000BF90AF900895E3E6F6E08FEF9FEF918300
:1036E00080831282138214821582168217821086BA
:1036F000118612861386EFE1F6E086ED9AE191835A
:1037000080838AE89AE1938382838FEA9AE19583A2
:1037100084838DE99AE19783868381E79AE1918793
:103720008087CF0108950F931F93DB01811119C08A
:1037300081E2E0E0F0E080935700E491EC93E2E076
:10374000F0E080935700E4911196EC931197E4E038
:10375000F0E080935700849112968C9383E090E080
:1037600011C08130A1F400918D0410918E0420913C
:103770008F04309190040D931D932D933C931397D8
:1037800084E090E0FA019183808380E001C08BE0C7
:103790001F910F910895E9E2F6E086E0DF011D92A6
:1037A0008A95E9F783E99BE195838483CF010895A6
:1037B000EE0FFF1F0590F491E02D0994DF93CF9356
:1037C0001F930F939A9DF02D219FF00D8B9DF00D6F
:1037D0008A9DE02DF10D039FF00D029FE00DF11D7C
:1037E0004E9DE00DF11D5E9DF00D4F9DF00D7F9300
:1037F0006F93BF92AF925F934F93D5010E94CD1C00
:103800008B01AC01D7010E94CD1CEB01E80FF91F21
:10381000D6010E942E1C2F913F91D6010E94CD1CF3
:10382000C60FD71FE81FF91FAF91BF910E942E1C32
:103830002F913F910E94CD1CC60FD71FE81FF91F83
:10384000D6010E94CD1CE60FF71F9801BE01CF01E3
:1038500011240F911F91CF91DF9108950E94CD1CEB
:10386000460F571FC81FD91F08F431960895E894D2
:10387000DF93CF93FC01DB010E94CD1C7F936F93FC
:10388000E9019A01AC01BF93AF933F932F93DF01FE
:103890000E94CD1C26F46C1B7D0B820B930B9E01AA
:1038A000EB01FC010E942E1CAF91BF912F913F9123
:1038B0000E942E1CBE01CF01F9012F913F91CF91A3
:1038C000DF910895689401C0E8948F929F92CF93FE
:1038D000DF930E94701CDF91CF919F908F9008958D
:1038E00088249924F401E401B0E49F93AA279A154F
:1038F0008B049C04ED05FE05CF05D007A10798F4C5
:10390000AD2FDC2FCF2FFE2FE92D982C892E982F4D
:10391000872F762F652F542F432F322F2227B85011
:1039200031F7BF9127C01B2EBF91BB27220F331F3A
:10393000441F551F661F771F881F991F881C991CDD
:10394000EE1FFF1FCC1FDD1FAA1FBB1F8A149B0485
:10395000EC05FD05CE05DF05A007B10748F08A1884
:103960009B08EC09FD09CE09DF09A00BB10B216012
:103970001A94E1F62EF49401AF01BE01CD01000CC2
:1039800008950024A7FD00942A0F301D401D501DEE
:10399000601D701D801D901D0895A29FB001B39FF2
:1039A000C001A39F700D811D1124911DB29F700D48
:1039B000811D1124911D08950F931F93CF93DF93C1
:1039C0008230910510F482E090E0E0917106F09170
:1039D000720620E030E0A0E0B0E0309719F14081BD
:1039E00051810281138148175907C8F08417950740
:1039F00069F4109731F012960C93129713961C935A
:103A000027C0009371061093720622C0211531055C
:103A100019F04217530718F49A01BD01EF01DF01B5
:103A2000F801DBCF21153105F9F0281B390B2430C3
:103A3000310580F48A819B816115710521F0FB01BC
:103A40009383828304C09093720680937106FE0173
:103A5000329644C0FE01E20FF31F819391932250EE
:103A60003109398328833AC020916F06309170065E
:103A7000232B41F420910201309103013093700611
:103A800020936F062091000130910101211531052D
:103A900041F42DB73EB74091040150910501241B1C
:103AA000350BE0916F06F0917006E217F307A0F472
:103AB0002E1B3F0B2817390778F0AC014E5F5F4F84
:103AC0002417350748F04E0F5F1F50937006409340
:103AD0006F068193919302C0E0E0F0E0CF01DF91A7
:103AE000CF911F910F910895CF93DF93009709F421
:103AF00081C0FC01329713821282A0917106B091AD
:103B00007206109781F420813181820F931F2091DA
:103B10006F06309170062817390751F5F09370063B
:103B2000E0936F0667C0ED0120E030E0CE17DF07BD
:103B300040F44A815B819E0141155105F1F0EA0193
:103B4000F5CFD383C28340815181840F951FC8175D
:103B5000D90759F488819981840F951F0296918322
:103B600080838A819B81938382832115310529F487
:103B7000F0937206E09371063DC0E901FB83EA838E
:103B800049915991C40FD51FEC17FD0761F480814D
:103B90009181840F951F0296E90199838883828120
:103BA00093819B838A83E0E0F0E012968D919C9153
:103BB0001397009719F0FD01DC01F7CF8D919C91CF
:103BC00011979D012E5F3F4F820F931F20916F062B
:103BD000309170062817390769F4309729F410924C
:103BE00072061092710602C013821282B0937006A0
:103BF000A0936F06DF91CF910895FB01DC0104C013
:103C00008D910190801921F441505040C8F7881BD4
:103C1000990B0895FB01DC0102C001900D92415007
:0A3C20005040D8F70895F894FFCF44
:103C2A000000790620007B12000102030405060742
:103C3A0000010203040500010203040541444D5535
:103C4A0058203D203078257800414443203D2025E6
:103C5A006C7500726563763A2000252E3278200052
:103C6A0073656E643A20005350495F5354435F763C
:103C7A00656374207472696767657265640D0A000A
:103C8A0072782064617461206F7665722072756E35
:103C9A002E200A0D00626164206973720D0A006D9C
:103CAA00616C6C6F63206661696C65640A0D006201
:103CBA0075666665722066756C6C2E2E2E0A0D006E
:103CCA0063625F706F705F66726F6E743A206362D0
:103CDA005F636F756E74203D3D20300D0A00696E7A
:103CEA00742068616E646C65722070696E3A202572
:103CFA0064200A0D00696E745F68616E646C657297
:103D0A0020706F72743A20307825782C2070696E92
:103D1A003A2030782578200A0D006176725F696E44
:103D2A00746572727570745F696E69742070696EF9
:103D3A003A20256420706F6C3A202564200A0D0011
:103D4A0050434D534B32203D20307825782C20505B
:103D5A0043494352203D20307825782C2044445250
:103D6A0044203D20307825782C20504F525444204E
:103D7A003D2030782578200A0D00656E61626C65F9
:103D8A00645F696E74732E706F7274645F6D6173B1
:103D9A006B203D2030782578200A0D007372656704
:103DAA00203D20307825780A0D00706F7274645FA8
:103DBA0073656E7365203D20307825780A0D0050B2
:103DCA004F5254422050434D534B30203D202578CA
:103DDA000A0D0A0A007365692E2E00656E61626C0F
:103DEA00655F696E745F6661696C65640D0A00657A
:103DFA006E61626C655F696E745F73756363657328
:103E0A00732E0D0A00496E70757420444452442082
:103E1A003D20307825782C20504F525444203D20A4
:103E2A0030782578200A0D00496E70757420444454
:103E3A005242203D20307825782C20504F5254424F
:103E4A00203D2030782578200A0D00496E7075745F
:103E5A002044445243203D20307825782C20504F6E
:103E6A00525443203D2030782578200A0D004F75A2
:103E7A00747075742044445244203D20307825786B
:103E8A002C20504F525444203D2030782578200A67
:103E9A000D004F75747075742044445242203D20C1
:103EAA00307825782C20504F525442203D203078CB
:103EBA002578200A0D004F75747075742044445299
:103ECA0043203D20307825782C20504F52544320EF
:103EDA003D2030782578200A0D0044697361626CB0
:103EEA006520696E7465727275707420706F727471
:103EFA003D25642C2070696E203D2025640D0064E8
:103F0A00697361626C656420696E7465727275703A
:103F1A007420737563636573730A0D0049535220E5
:103F2A00504F5254420A0D00706F7274625F73658B
:103F3A006E7365203D20307825782070625F6D6150
:103F4A00736B203D20307825780A0D0070696E6207
:103F5A00203D203078257820696E7470696E203D86
:103F6A0020307825780D0A0049535220504F525478
:103F7A00430A0D0070696E63203D20307825782051
:103F8A00696E7470696E203D20307825780D0A00BC
:103F9A0049535220504F5254440A0D000A0A0A0D3E
:103FAA00537461727465642E2E2E0A0D000EBA6A5D
:023FBA00E50020
:00000001FF
