:4000000000800020110000005D6900005D690000034A08B51268034B1A6006F0A7FC00BFFA460040BC76004010B5054C237833B9044B13B10448AFF300800123237010BD4B
:400040002084FF1F00000000046E0000084B10B51BB108490848AFF300800848036803B910BD074B002BFBD0BDE81040184700BF000000002484FF1F046E0000C880FF1F68
:40008000000000001C4B1A782AB15A781AB993F87021824215D093F87811174A49B993F8F012154A79B993F86834134AC3B91846704792F879110029F1D192F8E822824201
:4000C000EDD10120704792F8F1120029EBD192F860248242F5D093F86834074A002BE6D092F8693433B992F8D835181AB0FA80F04009704700207047D884FF1F38B5437819
:400100000446002B39D0012B1DD009251F4B1A7802B19A7893F878111C4819B190F87A1101B1013293F8F0021849B8B993F86814E9B932B9164B9B68DB689847154B022212
:400140001A70284638BD124BD0F87401DB68DB6898470546002DD9D1A570D7E791F8F2020028E3D091F8681401320029E9D093F86A34002BDDD0284638BD054B00F5B8705B
:400180001B695B6898470546E4E700BFD884FF1F748EFF1FB88AFF1F70B5457882B004469DB1012D0ED1424BDB68002B79D09B68D0F87401984730B93E4B0322A5701A70F8
:4001C00002B070BD092002B070BD394E0379326900F5B8701268002B68D0A17905295CD0012B61D094F82410052956D0022B5BD094F84210052950D0032B55D094F86010C8
:4002000005294AD0042B4AD094F87E10052944D0052B44D094F89C1005293ED0062B3ED094F8BA10052938D0072B38D094F8D810052932D0082B32D094F8F61005292CD07F
:40024000092B2CD094F81411052926D00A2B26D094F83211052920D00B2B20D094F85011A1F10501B1FA81F14909904733690DF107011B6994F8700198470028A3D194F846
:4002800071119DF807200B4D0123032691422E70A37008BFE37002B070BD0121E5E70021E3E70B2002B070BD2946DEE71946DCE7748EFF1FB88AFF1F10B543780446002B30
:4002C00038D0012B2DD04FF4BC720021204606F0E7FB00221B4B22701A7802B19A7893F87811184811B190F87A11C1B993F8F002144938B993F8681461B97AB9124B022229
:400300001A7010BD91F8F2020028F3D091F86814013219B193F86A34002BEED010BD0132E4E70A4BDB68002BCDD05B68D0F874019847C8E7054B00F5B8701B695B6898479E
:40034000C1E700BFD884FF1FB88AFF1F748EFF1F994B02781B8A142B28BF14239A4201D90E2070470A7043784B7043782F2B03D9332B2DD909207047023B202B00F22381DE
:40038000DFE813F01C0121018F0021010F01210106012101FF002101F800210121002101210021012100210121002101210021018F0021013A0021018F002101E8002101D6
:4003C00021002101E800436800201B788B7070470278022A63D002310B4630B4D51EEDB201350D4444685A1AA25C03F8012BAB42F8D1002030BC704743681A788A705A7C9D
:40040000002A4CD05A78CA705A7C012A47DD9A780A715A7C022A42DDDA784A715A7C032A3DDD1A798A715A7C042A38DD5A79CA715A7C052A33DD9A790A725A7C062A2EDD03
:40044000DA794A725A7C072A29DD1A7A8A725A7C082A24DD5A7ACA725A7C092A1FDD9A7A0A735A7C0A2A1ADDDA7A4A735A7C0B2A15DD1A7B8A735A7C0C2A10DD5A7BCA7375
:400480005A7C0D2A0BDD9A7B0A745A7C0E2A06DDDA7B4A745A7C0F2A01DD1B7C8B740020704743681A788A709A7C002AF7D05A78CA709A7C012AF2DD9A780A719A7C022A2D
:4004C000EDDDDA784A719A7C032AE8DD1A798A719A7C042AE3DD5A79CA719A7C052ADEDD9A790A729A7C062AD9DDDA794A729A7C072AD4DD1A7A8A729A7C082ACFDD5A7A93
:40050000CA729A7C092ACADD9A7A0A739A7C0A2AC5DDDA7A4A739A7C0B2AC0DD1A7B8A739A7C0C2ABBDD5A7BCA739A7C0D2AB6DD9A7B0A749A7C0E2AB1DDDA7B4A749A7C19
:400540000F2AACDD1A7C8A749A7C102AC4BF5B7CCB74A4E743681A788A701A78002A9ED15A68CA705A68120A0A71DA884A71DB798B7194E7436800201A788A705B78CB70AD
:400580007047436800205A788A701B78CB707047436800209A788A701A78CA705B780B717047436800201A788A705A78CA709A780A71DB784B717047488EFF1F436800204A
:4005C000DB788B7070470720704700BF2DE9F04FA14FA24C3A780023023A012A99B005468A46236063601CD94278052A78D0152A3FD010A9082509AB162203240BA80C9381
:400600008DF824508DF82C408DF82D20FFF7A0FE934B10A85B689DF82C10984719B0BDE8F08F41784A1E202A00F2D482DFE812F0AB00D202C800D2029E00D202EB00D202AC
:400640002401D2024401D202A302D2027C02D202B602D202E301D2022100D202FF01D2022002D2024702D202A701D202D401D20262022A79002A2DD1DAF8083013B19B6858
:4006800003B19847774E3378002B40F08C8396F87831002B40F0838396F8F032002B40F07A8396F86834002B40F071836E4B6F4AD9696F4C00230120136053609360D360B5
:4006C0001361238038700029A8D00B68984719B0BDE8F08FDAF81430002BD3D01B68D0E7604E022132780B938DF82D10002A46D196F87821002A40F05E8396F8F022002AF5
:4007000030D196F86824002A40F05183564A5749D569574E002201200A604A608A60CA600A61328038700DB12A6890474B4D022128460622397062709AF8006010A90BABC9
:400740008DF82F6063602270FFF702FE10F0FF0F7FF464AF424B297810A85B68984719B0BDE8F08F4348FFF7A7FDCAE73D4E0020327802210B908DF82D10002AB8D030463E
:40078000FFF79AFDB4E7DAF8043000260B9604305F68A979EB79021DB847304D26608DF82F000222032310A928460BAF676062702370FFF7CDFD10F0FF0F7FF42FAFC9E7C8
:4007C000C37900270BAE112BF7600B977760B760C6F80F7040F228843B460E228DF82C2003221E4D002727608DF83E302846042310A9666022706370FFF7AAFD10F0FF0FC8
:400800007FF40CAFA6E70079DAF810200023ADF82C308DF82E308DF82C00136909A998470E4E9DF824708DF82E00052208230BAD10A9304665608DF82D7022706370FFF70A
:4008400087FD10F0FF0F7FF4E9AE054B317810A85B689847E2E600BFB88AFF1F3C84FF1F488EFF1FD884FF1F748EFF1F608EFF1F5C8EFF1FC887FF1FDAF810300022ADF8DC
:400880002C209B69002B00F0AB83043098478DF82D002A79A24D18AB03F8342D28460A2210A90426636026706270FFF751FD10F0FF0F7FF4B3AE4DE707790023ADF82C3083
:4008C000002F40F0B182974E017A337833B1737823B996F870318B4200F0808396F87821904B3AB193F8792122B993F8E8328B4200F0748396F8F0228A4B3AB193F8F1227D
:4009000022B993F860348B4200F0688396F86824844B3AB193F8692422B993F8D8358B4200F05C837F4B04201A78002A40F0BD82013803F5BC73F7D132787A4B002A00F050
:40094000878596F87821774B002A00F0CF8593F8F022002A00F0C78593F868344FF00308002B00F06A820C2100238DF82C108DF82D306B4D10A9284604260C2221E0DAF89C
:400980001820002A00F0B2834179C77986798DF82410407A297A8DF827008DF828108DF825708DF82660526809A9287990478DF82C00002800F025830326594D10A92846C8
:4009C0001E220BAB636026706270FFF7C1FC10F0FF0F7FF423AEBDE60079421E072A00F22181DFE812F0160116011601160116011F010B01FA000379FF2B40F0E081494D61
:400A0000002305F5BC668DF82C302B782BB12846FFF774FB8DF82C0018B905F5BC75B542F3D13F4D10A9284603261422C9E7DAF81430002B00F0D8825B6800790DF13E0215
:400A40000DF12D0198479DF83E308DF82C000333DBB2334D10A9284618260BAA626023706670FFF775FC10F0FF0F7FF4D7AD71E6DAF804309E68002E00F0D182C37D827DB0
:400A8000811D009304300DF12D03B0478DF82C00002840F0B382EE7DF31CDBB2204D0BAA8DF83D60284610A91A27626023706770FFF74EFC10F0FF0F7FF4B0AD4AE6DAF86F
:400AC000143018AA112122F83C1D9B6800790DF12D0198478DF82C00002840F08C829DF82420D31CDBB20E4D10A928461C268DF83E20B2E7DAF81830002B00F0FC824179AB
:400B00001B680CAA0079984700280CBF072603268DF82C00024D10A92846222251E700BF3C84FF1FD884FF1FC77E303FFFB2032F00F2CB804FF4BC7202FB07F2AA4EB25CE0
:400B4000002A00F0C28090F81A80037F08F1FF3290F81D9090F81EB00393082A00F2B580DFE812F0F400FF00D000C900B700A600A2009900640003790022FF2B8DF82C20E7
:400B800000F06582332B40F20A8409238DF82C30964D10A9284603260E2212E70379FF2B40F02E81904D002305F5BC668DF82C302B782BB12846FFF7EFFA8DF82C0018B907
:400BC00005F5BC75AE42F3D1884D10A9284603261222F6E610A907250DE5DAF818300BB35B68A91D082098478DF82C007F4D2026284610A903220BAB6670A3E5DAF81C3061
:400C00001BB1A879012840F2618400238DF82C30ECE7DAF80430DB6823B1A91D98478DF82C00E3E70B238DF82C30DFE76B79AA8818460593ADF84620FFF724FA002840F01B
:400C40002C84DAF81830002B58D02A7904904FF4BC7000FB07F031180D79DFF88CE10B2D40F25A824FF00D0E8DF824E05F4D102209AB28460BA90326267062706360FFF785
:400C800067FB10F0FF0F7FF4C9AC594B29780BA85B689847C2E4AB882A79ADF846306B79059300230493D2E72A7901230493CEE72A4652F8041FEB799288202B0693CDF8A5
:400CC0004610ADF84A2040F2ED8309238DF82430CCE74FF4BC7101FB07614A78002AF4D1DAF81030DB684BB191F870312A79059304230493ABE72A79002AD6D00B238DF884
:400D00002430B3E72A4652F8041FDAF80430CDF846105168D068D2F808E0CDF84A101169928ACDF85200ADF85A206879CDF84EE0CDF8561099686B7E0590E87907939BB273
:400D40002A7904930690002981D1D7E7EA796B686979CDF8463093B2069204932A79059175E72B4653F8042F5968CDF846209A68DB68CDF84E20CDF852306B79CDF84A1071
:400D80000593EB792A790693002304935FE71948FFF792FA8AE41848FFF78EFA81E41748FFF78AFA78E43046FFF786FA6FE41148FFF782FAAAE41148FFF77EFA9DE4303BE7
:400DC000DBB2032B00F2A0814FF4BC7000FB03F3054A995C9818002900F09681FFF78EF98DF82C001DE600BFD884FF1F3C84FF1F488EFF1F4089FF1FC887FF1F5086FF1F1D
:400E0000303BDBB2032B00F27B814FF4BC7000FB03F3BF4A995C9818002900F07181FFF7BBF98DF82C00CFE6012F00F08D82B84E3378002B7FF485AD98464FF4BC7202FB79
:400E400008F208F13001B318B15400225F709A701A71DA70083503F5B87395E8030083E80300002F00F00283012F40F08882A94A4FF4BC7303FB08F3D168F21813460D68E3
:400E800002F5BA72B3F8721193F87001A8470546002D40F075824FF4BC7303FB08F3F35C8DF82C508DF82D3063E51A79002A3FF43FAD93F806E0BEF1060F00F01181BEF130
:400EC000090F00F00D81012A3FF432AD93F824E0BEF1060F00F0FE80BEF1090F00F0FA80022A3FF425AD93F842E0BEF1060F00F0EB80BEF1090F00F0E780032A3FF418ADED
:400F000093F860E0BEF1060F00F0D880BEF1090F00F0D480042A3FF40BAD93F87EE0BEF1060F00F0C580BEF1090F00F0C180052A3FF4FEAC93F89CE0BEF1060F00F0B280E3
:400F4000BEF1090F00F0AE80062A3FF4F1AC93F8BAE0BEF1060F00F09F80BEF1090F00F09B80072A3FF4E4AC93F8D8E0BEF1060F00F08C80BEF1090F00F08880082A3FF4A7
:400F8000D7AC93F8F6E0BEF1060F7AD0BEF1090F77D0092A3FF4CCAC93F814E1BEF1060F6AD0BEF1090F67D00A2A3FF4C1AC93F832E1BEF1060F5AD0BEF1090F57D00B2A54
:400FC0003FF4B6AC93F85021062A02D0092A7FF4AFAC93F857218A427FF4AAAC0321C3E40B238DF82D3054E40B228DF83E308DF82C2003232DE50323002274E5032300269C
:401000004CE5DAF8183008AA1B686979287998478DF82C0000287FF4CFAC0726CDE40B238DF82C30032339E5DAF804100DF12D02D1F8008004308178C0478DF82C0000286D
:4010400040F05782EB79DA1CD2B2FFF7CABB304D05F5BC662B7813B12846FFF72DF905F5BC75AE42F6D100238DF82C3090E593F839E18E45A3D1B1E793F81BE18E4593D1E7
:40108000ACE793F8FDE08E4583D1A7E793F8DFE08E457FF473AFA1E793F8C1E08E457FF460AF9BE793F8A3E08E457FF44DAF95E793F885E08E457FF43AAF8FE793F867E010
:4010C0008E457FF427AF89E793F849E08E457FF414AF83E793F82BE08E457FF401AF7DE793F80DE08E457FF4EEAE77E70B238DF82C30032661E40B238DF82C30032609E5F2
:4011000009238DF82C305FE509238DF82C3088E4D884FF1F748EFF1FB9F1000F00F05181002D00F0B881691E4FF01E0A0AFB010CF4449CF807C0BCF1000F00F0CE81A91E25
:401140004B1C66D00AFB010CF4449CF807C0BCF1000F00F0C281E91E4B1C5AD00AFB010CF4449CF807C0BCF1000F00F0B681291F4B1C4ED00AFB01007044C079002800F046
:40118000AC81691F481C44D04FF4BC7C0CFB07FC0AFB01C03044C079D646DFF860A3002800F09B81A91F4B1C33D00EFB01C05044C079002800F09181E91F481C29D00EFB7F
:4011C00001C05044C079002800F08781A5F108014B1C1ED00EFB01C05044C079002800F07C81A5F10901481C13D00EFB01CED6449EF80700002800F07081A5F10A014B1C1A
:4012000007D01E2000FB01C03044C079002800F0648100214FF4BC7000FB07FA1E2303FB01A001F1010E3044754540897ADD03FB0EAEB24B9E44BEF80AC001F1020E6044B9
:40124000AE4580B26EDA1E2303FB0EAEAB4B9E44BEF80AC001F1030E6044754580B261DD1E2303FB0EAEA54B9E44BEF80AC001F1040E6044AE4580B254DA1E2303FB0EAE9A
:401280009E4B9E44BEF80AC001F1050E6044AE4580B247DA1E2303FB0EAE984B9E44BEF80AC001F1060E6044AE4580B23ADA1E2303FB0EAE914B9E44BEF80AC001F1070E91
:4012C0006044AE4580B22DDA1E2303FB0EAE8B4B9E44BEF80AC001F1080E6044754580B220DD1E2303FB0EAE844B9E44BEF80AC001F1090E6044754580B213DD1E2303FB62
:401300000EAE7E4B0A319E44BEF80AE08D42704480B207DD4FF4BC7101FB0761B1F83611084480B201467648C1F57F41FE31008A89B2142894BF09181431049B89B2994277
:401340003FD24FF00E0E8FE46E4AD368002B3FF40BAB6A4E3378002B7FF4F3AA083506F5B87E4FF0300C95E80300B37033717770F370984686F800C08EE8030078E509254F
:401380004FF4BC7202FB08F8002106EB080005F087FB0023294606F80830FFF7E5BA303BDBB2032B3FF65FAE4FF4BC7202FB03F3524AD15CD01800293FF455AEFEF77CFF85
:4013C00051E69DF80C304FF4BC718DF84330BDF8103001FB07F7ADF844309DF81430C5EB051C8DF847309DF8183007EB4C0C8DF849309DF81C304FF0000EB4448DF841902E
:40140000ADF85CE08DF840808DF85B308DF842B08DF846200DF140080CF10609B8E80F00CCF80600CCF80A10CCF80E20B8E80700B8F800C0374401353D71C9F80C30C9F845
:401440001000C9F81410C9F81820A9F81CC00BE4083503F5B872987018715870D870804695E8030082E8030030271F704FF4BC7707FB0867DFF88C9007F5B877D9F8103063
:4014800038461B6800219847D9F8103005465B6838469847FCE4294645E703238DF82430FFF7E4BB6B7918460593FEF7EBFD0028F3D1DAF81830002B3FF420AC069B2A7975
:4014C0000733C3F3CF030493FFF7C1BB1B68984700238DF82C30FFF789BB8D42D8BF00217FF721AF96E64FF00208A6E44FF00108A3E43B460322FFF774B900BFD884FF1F94
:40150000488EFF1F748EFF1F2DE98048ABB062B6DFF82CA3DAF80030002B00F0A687BB4BBB491A686FF07F4542F002021A601A68B84842F001021A601A68002422F002020A
:401540001A600D601A68B44942F004021A6004600B7873B9B148B24DB24A72260670B24C06262B70167047250122257000F8023C0A70AE4C05F060FA2378AD4943F02003EF
:4015800023700B78AB4A43F010030B701378AA4D43F0100313702B78A4F5035443F00803213C2B702378A54E43F00803237005F047FA3378A24F43F00103337005F03CFA15
:4015C000A049A14A0B7803F0EF030B70137803F0EF03137005F034FA2B789C4903F0FD032B7023789A4A03F0FD0323700B78994803F0F10343F002030B70137803F0F10393
:4016000043F002031370037803F0F10343F0020303703378904803F0F10343F00C033370337843F00103337091F8573003F0F10343F0020381F8573012F80E3C102103F067
:40164000F10343F0020302F80E3C02F5A35201600C321378814803F0FD031370037892F80F317F4803F0DF0382F80F317D4B016019702B787C4803F0FB032B7023787B4906
:401680007B4A03F0FB032370CAF80400CAF80810784BCAF80C209AF81450CAF81030002D00F06886744A0025744B15707448754A7549764C764E774F1D70774B3D70257050
:4016C0003570057015704FF400000D704FF08072202118601A604020196080226F4918601A600B786E4843F001030B706D4B032101701A70012005F097F96B4B04221A7034
:401700006A4B6B4993F805310D60032B00F22D86664A591C92F804216448134403F00303624A03EB831313441A4680F8051183F84050604B57491A604FF00000554B002229
:401740001B78002BFAD00B780870002BF6D02378002BF1D0584BDFF880911A705A70574B89F800201B78DFF87481DBB2591E072940F2EE85514B5B78DBB25A1E072A40F23D
:40178000F987DFF85CB19BF80030002B00F07D834A4B1A78002A00F07883494A11460592127842B19BF80020082A04D81B78082B9CBF0A461378204ADFF828E11378414C8E
:4017C00043F0100313709EF800603F4D46F010068EF800600FCC0FC594E80700A44605F10C060C3485E807000FCC0FC637483849384A00271423AAF82830CAF82070CAF8F6
:401800001800CAF81C10CAF824206DE010E000E014E000E018E000E0298CFF1F83640040876500402465004034650040936400409765004091640040A24300400D500040A1
:401840005084FF1F986400409E6400400E5000400F5000400050004080E100E06A65004080E200E0F88AFF1F412C00005D310000352900003D560000DE8AFF1F3C8EFF1F9F
:40188000408EFF1F418EFF1F428EFF1F3E8EFF1F3F8EFF1F3D8EFF1F00E100E0096000402860004008600040126000401C8BFF1F248CFF1F188BFF1F148FFF1FF08AFF1F6A
:4018C000048FFF1F106E0000248FFF1FFD640000254D0000BD4C0000148BFF1F948EFF1FEC8AFF1FB243004094E8070086E80700634B644C19686448012222600864634807
:40190000DFF8F8E1E025196805706148CEF800200222226048645F481B685F490570CEF800200422226099645C49FF240B7845705B48CEF8002023F070035A4A0B700470A7
:40194000107811F8283C00F08F0010705648574A03F08F0301F8283C5549564BCAF82C00CAF830205448554ACAF83410CAF83830CAF83C0014705CF8280F3946BCF8042044
:401980009CF8063013909DF84C40ADF8502018A848228DF8523005F083F818A948224848ADF8804005F023FA9DF84D403946482218A805F075F818A948224248ADF880406A
:4019C00005F015FA9DF84E403946482218A805F067F818A948223C48ADF8804005F007FA9DF84F403946482218A805F059F818A948223648ADF8804005F0F9F99DF850408C
:401A00003946482218A805F04BF818A948223048ADF8804005F0EBF99DF851403946482218A805F03DF818A948222A48ADF8804005F0DDF99DF852403946482218A805F059
:401A40002FF818A948222448ADF8804005F0CFF9224B234D234C24482449254ACAF84830244BCAF844503E46234DCAF84040CAF84C00CAF85810CAF85020CAF8543044E0E9
:401A800008ED00E080E100E0B952000000E400E04552000001E400E0D1510000285B0040A083FF1F585B0040996300006D630000396300000D630000D1620000A183FF1F7F
:401AC0002C8CFF1F748CFF1FBC8CFF1F048DFF1F4C8DFF1F948DFF1FDC8DFF1F7D580000D15800008D540000395800002D5300004D54000005540000D080FF1F00E100E007
:401B0000B7F5347F06F1010613D0EB5B28371B07F6D54FF000030EA88DF838608DF839308DF83A3003F0D4FEB7F5347F06F10106EBD1834A83499AF87030CAF864200022D0
:401B4000CAF86C10CAF85C20CAF86020CAF868207D49002B00F0DA8304F06EFF7B4A7C491378064643F0020313700B78794843F002030B70037801F5AA5143F00103037095
:401B80009379103143F0010393710A7800F5AB50714B0D3042F0030204250A70057019786E4A41F04001197018786D4900F0FC0018700E2313704FF002030B7092F827328F
:401BC0000A2043F0080382F8273204F07BFB654B08241C60304604F033FF634A9AF874301460002B40F07B83574B93F8753003F0FF04002B00F0B4845C4F01238AF874308C
:401C000004F01AFF5A4A3B7811785A4B41F0010111701178584D41F0100111701A78574C42F001021A701978554A41F0100119702B78064643F002032B702378032043F0CB
:401C40000203237013780343137004F03BFB2B784C4A03F0FD032B7023784B4803F0FD03237013783B497A2443F00603137004700B78A2F5A65243F002030B70063A137863
:401C8000384D43F0020313704B784FF0005443F001034B7053783D4943F00103537030462C600C6004F0CCFE2F4B274E1C60384C301D60600A20207006F12C00E06006F115
:401CC0004000206106F16400606106F18000A061BAF828300020E0612E492F4A2C4806F11804132B8460CAF88010CAF8842040F2F2830FCC294D0FC5226896F888302A60AD
:401D0000002B40F0E3839AF80032002B40F0CA839AF87833002B40F0CD839AF8F034002B40F0D0831E4B012453F8040B8AF86846099009A8049303F0F9FA234684E000BFBF
:401D4000ED5A0000755500005084FF1FAB430040BB430040A14300400D590040085900401646004080E200E080E100E0CC80FF1FAA430040BA430040F8460040F946004099
:401D800091580040775800408258004000E100E0748EFF1F954A0000054A0000488EFF1F506E00000021084603F0C4FF9AF86836032B57D0A44B1B781BB1A44B1B781B0675
:401DC00066D499F800301BF8033003EB430308EB83035B78002B40F09B809D4B93F805211946002A00F083809A4B9A4A1B784BB311780023137029B3974A89F8003013701D
:401E00005370964A1278D2B2511E072940F2EB81924B5B78DBB25A1E072A40F2D7819BF800307BB18D4B8D4A1B785BB1059B8C491B783BB18B4B1B78082B03D81378082BDE
:401E400000D80B789AF86836012BABD1049B02211B8813A8ADF84C3003F06CFF9AF86836032BA7D1804FCDF80880B84618F80C2C1AB118F80A3C002B4DD17C4B08F5BC78F6
:401E80004345F3D1DDF8088094E7754B059392E404F0E6FB0028FBD199F800101BF80130734A03EB430308EB83035B78002BF5D06C4B5B5CDBB203EB430102EB8102591E41
:401EC0000729108989D8D188D0786A491B011944C3B200200B70487050705379DBB28B705B4B93F805211946002A7FF47DAF91F80431554C03F00303227003EB83135E4C78
:401F00000B44012081F80501236083F840206BE704F0A6FB61E718F8091C00238DF82330C9B918F80B3C002B00F06981012BA4D1524BDB68002BA0D01B690DF12301D8F885
:401F400068019847002898D19DF82330002B94D018F80C2C04E0012108F8093C8DF8231018F8081C02238DF829200EAA0B928DF82830002981D00022CDF80C80A8F10C04D7
:401F80000792CDF81880627A002A3ED00025A2790B9F9E1E013A07EB0608082A00F29D81DFE812F0CE00EC00D800F700C5008F0070007C000900314B13AA9B69617B1B68BD
:401FC000207B9847002840F09480139B0422BB5513999DF82830090A88F80110BDF84E1088F802109DF84F1088F80310207A002860D0E27912B9022B00F2D580627A013510
:402000009542C4DB069A12F8081C079A039801321E308A42079204F11E040390B3DB022BDDF818807FF629AF13A90AA8FEF790F910F0FF0F7FF421AF114B9DF828105B68F2
:4020400013A8984719E700BF158BFF1F034F00401C8BFF1F3D8EFF1F148FFF1FF08AFF1F048FFF1FEC8AFF1FE484FF1FC48AFF1F948EFF1FFC5F0040188BFF1F748EFF1FBD
:40208000488EFF1F974B41461B69207B1B69984700282ED19DF828300122A7E7914B03981B6941785B69007898470022237A23B99DF8283013448DF82830E8B99DF8283063
:4020C00097E7E37B627B8DF84D30864BA07B617C8DF84C20227C9B698DF84E008DF84F108DF850205B6813A9207B9847002800F09280227A002ADBD00E280246DDF818809E
:4021000000F0A680162313A98DF82020032408AA0CA88DF831300D928DF83040FEF718F9714B9DF830105B6813A89847A5E66D4B13A91B69607BDB6898470028D9D144E757
:40214000684B42465B68A17B1E680398E37BB047E27BABE7634A94F821305168039894F8202000938E68014643460231B0470028BFD194F821209DF8283037E7594B0398E4
:402180005A68A17B56680246E37E0332B04700228CE7638C0122BB55618C9DF828301144C9B2618422E713A90AA8FEF7D1F810F0FF0F05D14C4B9DF828105B6813A898478E
:4021C0004FF002038DF82830022317E703EB430208EB8202002151705179444A1B01C9B21A4491701BE602EB420108EB81014B7049793E4B1201C9B21344997008E6394BB5
:402200000DF123011B6998F864019B68984700287FF433AE98E6334B0CAA9B69617B1B68207B984700287FF464AFE37B0733DA1018BF08EB020307D00C99C14008F8011B7E
:40224000984500F10800F7D1D2B29DF82830CDE69AF8883003BB9AF8003233BB9AF87833002B2BD19AF8F034002B30D11D4B204CD969002323606360A360E36023611D4CEA
:40228000012023808AF8680600293FF43BAF0B6803929847039A35E717480392FEF70CF89AF80032039A002BD8D014480392FEF703F89AF87833039A002BD3D010480392ED
:4022C000FDF7FAFF9AF8F034039A002BCED00D480392FDF7F1FF039AC8E7002286E60A4F8EE400BF748EFF1F488EFF1FFC5F0040608EFF1F5C8EFF1FD884FF1F5086FF1F72
:40230000C887FF1F4089FF1FCC80FF1F42F2A7047148724D02782D6842F010020270704AE02010706F4A7048EA6402786F4D42F0060202706E48C4222A706E4D6E4A0380BC
:4023400001202C6081F870001380A1F8723003E403EB430108EB81014A704979674A1B01C9B21A449170FFF705BA01232A460B60FFF7DFB904F060FB6149624A0B78804618
:4023800043F001030B7013785F4801F5E35143F0010304311370012602F5E2524FF0020906701B3281F800901378284603F07F03137003F087FF14F81E3C544A03F0F9035B
:4023C00004F81E3C1378304603F0DF03137014F81E3C334304F81E3C03F074FF282003F071FF48464A4B1A7802F07F021A701A7802F0BF021A7014F81E3C034304F81E3C68
:4024000003F060FF14F81E3C4249434A43F0040304F81E3C40460D70157004F011FB2F4A04F1A02411683D48E02365342370C1F89C0011683A486370C1F8A00011683948DF
:4024400004F8123C48651168374804F8113C88651168364804F8103CC8651268344835493E7503701167FFF71DB9334A33481B4C136001682468324D41F00401E563314EAA
:40248000314F324D324C53609360D3601361016001224FF4004137602B602160CAF80020FFF73DB82B48FDF707FF9AF87833002B3FF433AC2848FDF7FFFE9AF8F034002BB1
:4024C0003FF430AC2548FDF7F7FE2BE406F18800FDF7F2FE17E4FEE70241004008ED00E003E400E0A55A0000095900400A5900400A8BFF1F0C8BFF1F108BFF1FFC5F004006
:40250000A5430040B54300409D60004012600040F85100408460004085600040095C0000453800002D360000F9350000BD3500000CE400E0FD5B0000288EFF1F10E000E049
:40254000C55A000014E000E01021010018E000E000E100E05086FF1FC887FF1F4089FF1FA54FA64B01223A7047F602701C70A44BA3491B78A34A43F010030B701378A249D6
:4025800043F010031370E0230B7002F5BC529F4B11321D7014701C7292F870329C4943F0180382F870329B4B0C70A3F5427383F8084382F8F2420A221A70974A5C7014707E
:4025C0005B221A725E225A72944AA3F67F23147014221A703B7892490F2281F87A2001EB830393F876208F4BA1F878001A703B788D4A01EB8303B3F874108C4B11803A780A
:402600001C70D6B2012E7FF4F8AA8949894A3020087015704FF00605874BDFF870E287481D703F238EF80040854D4C710370854B94712C708EF806401E70502381F8843A10
:40264000072382F8833A804E292380F8803A552385F87E4A33705A2381F88B3A82F88A4A4FF00202DFF828C2784B8EF88A2A2821EB2212208CF8000085F8871A1A7004F09B
:40268000DBF9A6F58C560290123E3378A5F5E26543F0030333702B786D4A442143F003032B700320117003F00DFE3378029803F0FC0333702B7806F58D5603F0FC032B7062
:4026C00004F0BEF96349644A644B58200870147005221A704FF0020342F6AB1E6048614A03363370137804704C724D496FF4CF6CC1F87CE0424965440878298823F04003CC
:4027000089B243F04003062900F00700137010D0554B1B7803F00106002839D1002937D14FF006032B80364B354A1B7803F0BF031370344A4D481178038801F007019BB2A4
:40274000182B10D04A4C267806F00206F6B2002940F0A080002B40F09D8018230380137803F0BF031370434B434A1B68C3F8B420FFF743BA03EB430208EB8202002151703E
:4027800051793E4A1B01C9B21A449170FEF7F9BF0EB33B483B4A3C4D002301242B700470137010F8083C6E3203F07F0300F8083C13781B070FD42846072322F8801C2B70E2
:4027C0000378314913F00103FAD12748027802F0FE0202700B70244A1378DD0740F18E80294BA2F5687218460621118003221A700378DC07FCD49CE7CC80FF1F138BFF1FAD
:4028000082400040064100401DE400E09658004093580040885B0040835800408D5800405084FF1F0E4E00400C4E0040128BFF1F004E0040024E0040034E0040064E00404C
:40284000094E0040144E00408A580040915800409258004094580040955800409A5800409C580040035B0040A243004004410040A143004008ED00E0A95A0000FC5F00400C
:40288000104000401440004001400040044E00408F58004016B320482049214D002202242A7004700A7010F80C2CF63102F07F0200F80C2C0A78100710D42846A1F5827164
:4028C00007220B802A700378154913F00103FAD11448027802F0FD0202700B70114B1A78910712D5A3F5687318460F4A1821118003221A700378DA07FCD434E70B4B062157
:40290000198013783343137013E7094A182111801A7816431E7026E7144000401040004001400040A14300400240004080400040044100402DE9F84F05780C46012D9146DC
:402940009846BDF828A000F00E81042D40F08E80A74E3378042B47D0A64F3B7843F001033B7004F069F8A449A44A0B7803F0EF030B70137803F0EF03137004F061F8A04962
:40298000A04A0B78A04803F0FD030B70137803F0FD031370037803F0F10343F00203037091F86D3C03F0F10343F0020381F86D3C92F84E3C03F0F10343F0020382F84E3C9C
:4029C0003B7803F0F10343F00C033B703B7843F001033B7002F0F0FF8C49284602F02EFE07463570002F43D1D1454E4638BF5646804A04EB09071378C24403F0FE03137036
:402A000066B30023184699468149DFF82CC2DFF82CB2B04213D21D1D854210D9A74200F09B8094F800E00A785207FCD58CF800E00134013080B2864201D9A842EED39BF830
:402A40000020920608D5C24500F0CD80714A127808F8012B01339BB29E42DAD8654A0020137843F001031370BDE8F88F604E0B27604C654D237843F00103237003F0DCFF48
:402A80005D495E4A0B7803F0EF030B70137803F0EF03137003F0D4FF59495A4A0B78384603F0FD030B7013785B4F03F0FD0313702B78DFF878E103F0F10343F002032B703F
:402AC0003B7803F0F10343F002033B7015F80E3C03F0F10343F0020305F80E3C237803F0F10343F00C032370237843F00103237097F85630102403F0F10343F0020387F8F9
:402B0000563015F80D3C07F5AA5703F0F10343F0020305F80D3C05F5A355CEF800400D352B781B3703F0FD032B703B7895F80F313A4F03F0DF0385F80F31394B3C601C7053
:402B40000B78002403F0FB030B70137803F0FB0313703470BDE8F88F0A785407FCD53C468CF8009065E7224E3378012B3FF43CAF2C482D4A03782D4903F0F10343F0020383
:402B800003701378102003F0F10343F00203137002F5A35208601A321378254903F0FD0313700B7892F80F311C4F03F0DF0382F80F311B4BA1F507513860083918700B78B7
:402BC000A2F5035203F0FB03093A0B70137803F0FB03137003F038FE1649284602F02EFD35700746FEE60B4AD046127832E700BFB98AFF1F0D500040986400409E64004009
:402C0000A2430040B24300400E500040A883FF1F68640040586400400F50004080E200E0F88AFF1F655000400150004080E100E06A650040A483FF1F486400406E640040B1
:402C40002DE9F04F90F800A083B0BAF1010F04460F469146984600F0E180BAF1040F76D08F4D0B268F4C904F237843F00103237003F0E2FE8D498E4A0B7803F0EF030B70B0
:402C8000137803F0EF03137003F0DAFE89498A4A0B78DFF84CE203F0FD030B701378304603F0FD0313703B78844E03F0F10343F002033B709EF8003003F0F10343F002030F
:402CC0008EF800303378DFF80CE203F0F10343F002033370237803F0F10343F00C032370237843F00103237097F85730102403F0F10343F0020387F85730737807F5AA57D9
:402D000003F0F10343F00203737006F5A356CEF800401B3633781C3703F0FD0333703B7896F80F31664F03F0DF0386F80F31654B3C601C700B78002403F0FB030B70137873
:402D400003F0FB0313702C7003B0BDE8F08F544D2B78042B53D0534E337843F00103337003F06AFE5149524A0B7803F0EF030B70137803F0EF03137003F062FE4D494E4AC8
:402D80000B78494803F0FD030B70137803F0FD031370037803F0F10343F00203037091F86D3C03F0F10343F0020381F86D3C92F84E3C03F0F10343F0020382F84E3C33782E
:402DC00003F0F10343F00C033370337843F00103337002F0F1FD3C49504602F02FFC064685F800A0002E7FF43DAF2378012B00F03381042B03D00B2003B0BDE8F08F314D87
:402E00008DF807702A786378102A6BD02A78602A00F06481012003B0BDE8F08F204D2B78012B00F019812948294A0378294903F0F10343F0020303701378102003F0F103E0
:402E400043F00203137002F5A35208601A321378214903F0FD0313700B7892F80F31184E03F0DF0382F80F31164BA1F507513060083918700B78A2F5035203F0FB03093AFF
:402E80000B70137803F0FB03137003F0DDFC1349504602F0D3FB85F800A00646A2E700BFB98AFF1F0D5000400E500040986400409E640040A2430040B24300400050004065
:402EC00080E200E0F88AFF1FA883FF1F655000400150004080E100E06A650040A483FF1F0F500040874A1278D60693D4864E874A874845272F7000210127117007708548C2
:402F0000022202703278BB408348DFF840E202F0FD023270DBB20DF10702804F02608EF800307F4882233B707E4AFF2303701023117019467C4FDFF804E23B60CEF8001004
:402F40003078DFF8F8A180072B784FF0100239606D4BDFF8FCB1DFF8D0C1EFD5CAF800201978002011F0F00F1870CCF8002059D1B9F1000F3FF44EAF9BF800006178102807
:402F800000F0B9809BF8000060287FF443AF674802601A7802F0F7021A70654B654A492028705FFA88F80020187082F80080594A01231370327801FA03F35F4CDFF88CE1A1
:402FC00043F001035549DBB202F0FE023270C4F80090534F8EF80030534A4FF0320E81F800E0FF2310213B700B4617464D4C20705248116003603278DFF840C1D207297883
:40300000414C4FF010013B60DFF81CE1F2D5CCF800102078002310F0F0002370CEF800103FF492AE374B1B785C077FF5F3AE3C4B3A4E1A463B495227FF24002037701C70B3
:4030400008701378002BFCD110232E4A2B70137813F0210FFBD0DDE6607800287FF4CBAE3749384A0B7803F0FE030B7013785907FCD5354E3770B8F1000F29D04FF0000C01
:403080006746844638462F4ADFF8C8E0DFF8C8A0012188450ED33C1D8C4288BF002509D913785B07FCD5013189B28845357001D38C42F5D89EF800309B0606D5B8B19AF856
:4030C00000407B1C09F807409FB2B845E1D860461B4A137843F00103137035E6134A0A4E10211160327802F0F7023270FFE69AF800300120E9E7034B1B78D8067FF54DAFEA
:4031000088E600BF6A650040028BFF1F008BFF1FF98AFF1F018BFF1FFC8AFF1F7B6400401B6400405B64004000E100E080E200E0038BFF1F088BFF1F048BFF1F80E100E0E5
:403140000D50004068640040486400400B640040F88AFF1F6E640040586400402DE9F047047890B0012C05468A469146984600F0D980042C76D0C54E0B27C54CC54D237895
:4031800043F00103237003F057FCC349C34A0B7803F0EF030B70137803F0EF03137003F04FFCBF49BF4A0B78384603F0FD030B701378BD4F03F0FD0313702B78DFF800E3E8
:4031C00003F0F10343F002032B703B7803F0F10343F002033B7015F80E3C03F0F10343F0020305F80E3C237803F0F10343F00C032370237843F00103237097F856301024D6
:4032000003F0F10343F0020387F8563015F80D3C07F5AA5703F0F10343F0020305F80D3C05F5A355CEF800400D352B781B3703F0FD032B703B7895F80F319C4F03F0DF03B5
:4032400085F80F319A4B3C601C700B78002403F0FB030B70137803F0FB031370347010B0BDE8F087894E3378042B52D0884F3B7843F001033B7003F0DFFB8749874A0B78C2
:4032800003F0EF030B70137803F0EF03137003F0D7FB8349834A0B787E4803F0FD030B70137803F0FD031370037803F0F10343F00203037091F86D3C03F0F10343F0020347
:4032C00081F86D3C92F84E3C03F0F10343F0020382F84E3C3B7803F0F10343F00C033B703B7843F001033B7002F066FB7149204602F0A4F907463470002F7FF43EAF2B7834
:40330000012B00F0F780042B03D00B2010B0BDE8F08708F10104E4B2402C43D9012010B0BDE8F087594E3378012B00F0E3806248624A0378624903F0F10343F002030370F9
:403340001378102003F0F10343F00203137002F5A35208601A3213785A4903F0FD0313700B7892F80F31514F03F0DF0382F80F314F4BA1F507513860083918700B78A2F52D
:40338000035203F0FB03093A0B70137803F0FB03137003F059FA4C49204602F04FF934700746A9E7424649460DF101008DF800A003F01DFDDFF8F8E06B789EF80020102A44
:4033C00000F0E5809EF80020602AA7D1374ADFF820C1102111609CF8002002F0F7028CF800203A4D3A483B4945228EF8002000222A7004700A709CF80010374C5B00374E57
:403400003748DBB201F0FD018CF80010C4F800D0344D3370344982230370FF232B700D46324C1020034622700860254803609CF80020234F92079EF800102D4C4FF01001B9
:403440002B60294EF2D539602078002310F0F000237031603FF403AF1A4A127852077FF55DAF20491E4D0A4620485226FF242E700C7003701378002BFCD11023114A8EF824
:403480000030137813F0210FFBD047E7B98AFF1F0D5000400E500040986400409E640040A2430040B24300400F50004080E200E0F88AFF1FA883FF1F655000400150004061
:4034C00080E100E06A650040A483FF1F008BFF1FF98AFF1F018BFF1FFC8AFF1F0B6400407B6400401B64004000E100E05B640040028BFF1F6B78002B7FF407AF03F09CFAE7
:40350000274B1A7842F001021A701A7802F0FE021A7003F095FA2349234A0B7803F0FE030B7013785E07FCD5204C84F800A0B8F1000F0ED008F1FF3080B21B4A484409F149
:40354000FF3919F8011F13785D07FCD548452170F7D1154A1378D807FCD51249144A0B7843F001030B70137803F0200303F0FF00002B3FF474AE01F5A2510B310B7813786E
:4035800003F0200303F0FF00002BF7D167E6094A1278D1063FF5C2AEDFF81CC021E700BF986400400D50004068640040486400406E6400406A650040028BFF1F0B490420DC
:4035C0000B4A0C4B087092F8322093F8242002F00302012A05D093F8272082F0800283F82720012283F82520704700BF0B600040FC5F0040948EFF1F09490220094A0A4B82
:40360000087092F822201A7E02F00302012A03D0DA7E82F08002DA7601225A76704700BF0B600040FC5F0040948EFF1F08490120084A094B0870927C1A7B02F00302824240
:4036400003D0DA7B82F08002DA7301225A7370470B600040FC5F0040948EFF1F714AF0B413889BB2002B00F0B1806F4D6F4C704E02210023297023703380916819B191680B
:403680000B7091684B806B49664FC8798B79118843EA002389B28B42674838BF3B8007783188604B394489B23180128892B2002A00F09F8059685F4A0978C9B211705968C0
:4036C000013159601988013989B21980198889B2002900F0978059680978C9B251705968013159601988013989B21980198889B2002900F0898059680978C9B291705968CE
:40370000013159601988013989B21980198889B200297BD059680978C9B2D1705968013159601988013989B21980198889B200295CD059680978C9B211715968013159602A
:403740001988013989B21980198889B200295FD059680978C9B251715968013159601988013989B21980198889B2002952D059680978C9B29171596801315960198801391F
:4037800089B21980198889B2002945D059680978C9B2D1715A6801325A601A88013A92B21A801B889BB2002B38D0037808232278224E82F080020F270221227037702970C0
:4037C0001F4A13700370F0BC01207047164C174D1A48022718491A4A277080260F242E7004700B7013700120F0BC704704230278DDE70378082B13D01049134602220A7086
:403800002A70DDE70123F2E70223F0E70323EEE70523ECE70623EAE70723E8E70823E6E71346C4E7088FFF1F3C8EFF1F168FFF1F188FFF1F00600040428EFF1F1A8FFF1FD2
:40384000208FFF1F2DE9F04F934A89B01378DBB2DD0609D51C060AD403F0400202F0FF01002A70D19C064ED409B0BDE8F08F03F00F03012BF8D11378DBB213701378DBB257
:40388000180600F13E83854CA36843B1A2680221834B1170A268198800235180A360814A137803F06003202B00F05E81402B00F06281002B00F065817B4903230B700B785D
:4038C0001D06D1D4744A13781B06CDD47749784B08781B78774903430B7009788B42C3D171490C460B781078DBB2000605D42378DBB21370137803F00F0308789842F1D122
:4039000009B0BDE8F08F6C4A1378DBB2042B00F0F980062B00F0EF80022BD3D1674B604C1D7823885D482B449BB2238011708368002B00F0DC80836801221A708368228831
:403940005A808160D3E05C4A1378DBB2042B00F0C180062B00F0B480022BB3D15048574D4E4C2E780188314489B20180208880B2002800F0CE8261684A480978C9B2017075
:403980006168013161602188013989B22180218889B2002900F0BB8261680978C9B241706168013161602188013989B22180218889B2002900F0A88263681B78DBB283705C
:4039C0006368013363602388013B9BB2238023889BB2002B00F0A58263681978C9B2C1706168013161602188013989B22180218889B2002900F0138361680978C9B20171A7
:403A00006168013161602188013989B22180218889B2002900F01E8361680978C9B241716168013161602188013989B22180218889B2002900F0F58261680978C9B2817150
:403A40006168013161602188013989B22180218889B2002900F0028361680978C9B2C1716168013161602188013989B2218023889BB2002B00F0F0822B7808200B4C0A49DD
:403A800023780F2783F08003022623700F701670074B1870287015E728600040088FFF1F188FFF1F006000401A8FFF1F168FFF1F208FFF1F296000403C8EFF1F428EFF1F39
:403AC000824B197831B11978814C41F0800100202170187000217F4B11709A683AB19A6801247D4814709A680088508099607B4903230B70E6E6774B9A68002AF7D09A6839
:403B00000324EEE7764B74481A78038802F00F02023AD2B213449BB26E4C038023889BB2ABB1FAB16F4801E00131DAB16568435C013ADBB22B706368D2B201336360238837
:403B4000013B9BB2238023889BB2002BECD1664B66481A700378614983F080030B2203700A70AFE60022F2E702F0FCFA00283FF4A3AE5A49A3E613781E067FF59DAE537892
:403B80009AE611782380CBB21906527800F1CB81013A0A2A3FF690AE01A151F822F000BF3B3C0000B9380000A33E0000B9380000AB3C0000B9380000B9380000B938000024
:403BC0000D3D0000B9380000CD3B00004548484C037922784749D2B2012ADBB291F8225040F03E82022B3FF667AE0B4493F82850414EEDB283F82C508578EDB283F8285017
:403C0000037900790B44C0B2307093F82C0093F82830984205D0394B1A702378002B40F05384374E2D49314C2F4A06238025002033700B702570107041E603F00303012BAC
:403C400000F05782C0F07182022B7FF435AE254B9A7802F0FF00002A7FF42EAE1A7902F07F02531E072B3FF627AE264B0C2404FB02339978244D01F0FE019970D8702846B0
:403C80001201515D104401F07F015155597801F0FD025A701A795B78170600F12785012B0CBF082309238370BBE70E4B074F9B78134EDBB209490D4C0B483B700622802524
:403CC000002332700A7025700370F8E5408EFF1F08600040088FFF1F188FFF1F1A8FFF1F2960004000600040208FFF1F168FFF1F3E8EFF1FBC8AFF1F3F8EFF1F3D8EFF1FB0
:403D00003C8EFF1F948EFF1FFC5F0040C64B9B7803F0FF002BB1C54B012893F822307FF4CBADC34B1B7898423FF47BAFC14BBF49BF4DC14C00220126287026701A709A70BD
:403D4000DA701A819A725A705A711A739A73DA739A829A755A735A741A769A76DA761A8483F822205A765A7783F8242083F8262083F827209A8583F82E2083F8252083F8BF
:403D8000292083F8302083F8322083F833201A8783F83A2083F8312083F8352083F83C2083F83E2083F83F20A3F8442083F8462083F83D2083F8412083F8482083F84A205C
:403DC00083F84B20A3F8502083F8522083F8492083F84D2083F8542083F8562083F85720A3F85C2083F85E2083F8552083F8592083F8602083F8622083F86320A3F868203A
:403E000083F86A2083F8612083F8652081F8282081F82C2081F8292081F82D20287800283FF4FFAE287891F82240C0B2B04240F0B783824F82463E781C4606F0FE064FF088
:403E400002093E704FF040084FF0820C4FF00D0E09E0022800F02781032800F004810130092800F087810128C6B2F2D19F8ABFB2072F01D80827A78291F82870002FEED1C2
:403E800081276F4D1F744FF0030BC2F3800783F80CB042F0040283F811E083F80DA0EE55DDE703F00303012B00F02381C0F07A83022B7FF401AD5C4B9A7802F0FF00002AF0
:403EC0007FF4FAAC1B7903F07F035A1E072A3FF6F3AC58490C2202FB031291781B0141F001019170D070517841F002015170127912F0800F534A1A4414BF8D2389239370A2
:403F00008FE651490B70DAE418462B78B6E50120FBE7297808293FF4B1AD4B490B701370B6E50320F1E70A2A3FF6C6AC01A151F822F000BFE33F0000B9380000B938000074
:403F4000B9380000B9380000B9380000833F0000B9380000753F0000B9380000613F00000122314B22801B79384A13446360FFF775FBFBE52E4B012222806360FFF76EFB5F
:403F8000F4E5294AD378012B00F0CB83D378022B00F0B383D378032B7FF4E6AD9378002B00F0CA832A4B197851B1002101E0187830B11D7801319078C9B281422B44F6D3B0
:403FC000194A917819B19278802A00F045831A78002A3FF471AC1A7822806360FFF73EFBC4E513F0030300F03082022B7FF464AC0D4A238012790F4B02F07F020C2101FB6E
:4040000002330A4A9B7802F12401DBB2002082F8243082F825006160FFF720FBA6E5042073E7062071E700BF00600040BC8AFF1F3E8EFF1F948EFF1F3D8EFF1F418EFF1F96
:40404000048FFF1FFC5F00401A8FFF1FE48AFF1F586E0000052058E7082056E7072054E700235B68FFDE9F8DBFB23F2F35D8A4F82C8091F82970002F7FF4F1AE4FF00905DD
:4040800084F8280084F8249083F829504FF00005C2F34000084483F8255042F0020280F834600420DFE61F8CBFB23F2F1BD8A4F8208091F82970002F7FF4D1AE02F00107A2
:4040C0000F4484F81CC042F00102207683F81DE083F819A087F83060C1E691F82970002F7FF4BDAECAE791F82970002F7FF4B7AEE4E719490B79012B3FF6DEAB8878174AE3
:404100000B79174F134493F83820164922EA0002154D164C83F83820062080260023387008702E702370FFF7CABB0B4B9B78012B7FF4C2AB0E480A4F03780A490A4D0B4CFC
:4041400003F0FD0303700622802600233A700A702E702370FFF7B3BB00600040BC8AFF1F3C8EFF1F1A8FFF1F168FFF1F208FFF1F418EFF1F002201209A7583F8220083F895
:404180002E00BA48BA4E047891F822105A829A8AB84891B201F001020A4491B2D9831A8C012C0A4491B201F001020A4491B259859A8DB14C0A4491B201F001020A4491B26B
:4041C000D9861A8F18BF00200A4491B201F001020A4491B2A3F84210B3F844200C250A4491B201F001020A4491B2A3F84E10B3F8502030600A4491B201F001020A4491B2AD
:40420000A3F85A10B3F85C200A4492B202F001010A4492B2A3F86620B3F868202570597C964A002900F0E881127C12F0800F944A06BF082191709570598A8F4AC9B29171F0
:40424000598A904DC1F30721D171598A0C20C9B21171598A894CC1F30721517128705A7F002A00F0C581227F12F0800F864A06BF082191709070D98B824AC9B29171D98B2B
:40428000824DC1F30721D171D98B0C20C9B21171D98B7A4CC1F307215171287093F82920002A00F0A18194F8282012F0800F784A06BF082191709070598D744AC9B29171DD
:4042C000598D744DC1F30721D171598D0C20C9B21171598D694CC1F307215171287093F83520002A00F07C8194F8342012F0800F694A06BF082191709070D98E654AC9B27E
:404300009171D98E654DC1F30721D171D98E0C20C9B21171D98E594CC1F307215171287093F84120002A00F0578194F8402012F0800F5B4A06BF082191709070B3F8421086
:40434000564AC9B29171B3F84210564DC1F30721D171B3F842100C20C9B21171B3F84210464CC1F307215171287093F84D20002A00F02E8194F84C2012F0800F4A4A06BFD4
:40438000082191709070B3F84E10464AC9B29171B3F84E10454DC1F30721D171B3F84E100C20C9B21171B3F84E10344CC1F307215171287093F85920002A00F0058194F8E3
:4043C000582012F0800F3A4A06BF082191709070B3F85A10354AC9B29171B3F85A10354DC1F30721D171B3F85A100C20C9B21171B3F85A10214CC1F307215171287093F8FA
:404400006520002A00F0DC8094F8642012F0800F294A0ABF082190709170B3F86610254AC9B29171B3F866102448C1F30721D171B3F86610FF24C9B21171B3F86630C3F38A
:40444000072353710470FFF7ECBB02211C4A218011781C4AC9B202F1240082F8241082F825306060FFF7FAF8FFF780BB3E8EFF1F008FFF1F646F000080600040948EFF1F72
:404480000C600040906000401C600040A06000402C600040B06000403C600040C06000404C600040D06000405C600040E06000406C600040F06000407C6000400A60004092
:4044C000418EFF1FBC8AFF1F237891F82220DBB2012B62D1307800F0FF02002800F09080012A7FF49EAB91F8293003F0FF0413BB924B9348DC7682270D24022640251F77C4
:404500001E761D845C775A7682701C8C8D4AC4F3072404701C8CE4B24470D88BC0B29071D88BC0F30720D071D88BC0B21071DB8BC3F30723537191F8293003F0FF02002B35
:404540007FF46FAB7D48804B0121032702264025092480F8272080F8287080F82460858580F8294080F825209970828D7749C2F307221A70828DD2B25A70438DDBB28B71AF
:40458000438DC3F30723CB71438DDBB20B71438DC3F307234B71FFF744BB00231B7AFFDE5368FFDE6A4B9B78012B7FF485A96948694F037869496A4D6A4C43F00203C1E532
:4045C000694A8021917028E7684A80219170FFE6674A80219170D6E6664A80219170ADE6654A8021917088E6574A8021917063E6534A802191703EE6604A802191701BE62F
:4046000091F8282002F0FF07002A7FF40AAB4B485A4A0D21812603250824C773067405738482417443739370838A5549C3F307231370838ADBB25370438ADBB28B71438AD1
:40464000C3F30723CB71438ADBB20B71438AC3F307234B71FFF7E5BA4A4E03AD0FCE0FC53168494E2222494B3270297000211B780846DBB2464D01932F78464D43EA0723C7
:4046800001932F78444D43EA074301932F78023D43EA076301936B780327DBB202932D78324643EA05233D4D02932D78777043EA05433B4D02932D7801AE43EA05630293B6
:4046C000735C08AF03F00F053D4407EB1313013115F8145C13F8143C0829D07050711571937002F10402EBD1274B70E4012B16BF0D2384708370FFF794BA9378224A92F8F7
:404700002220002B7FF4D8A8264B63606368DA7863689B7843EA02232380FEF79FFFFFF725BA214A1849122391F8221062602380FEF794FFFFF71ABA1C4B41E4948EFF1F4E
:404740001C600040906000402C600040A060004000600040418EFF1F3C8EFF1F1A8FFF1F168FFF1F208FFF1F7C6000406C6000405C6000404C6000403C6000400C600040DD
:4047800080600040C06F0000BC8AFF1F0301004904010049EC4600400201004905010049060100497C6F0000686F0000586E00008C4A8D4B12781978490644D5D2B2D0073A
:4047C000F0B42CD519784539052928D8DFE801F0035D2727034102F00A01082902F0DF0200F08D800A291AD1997A7F4C41F0A0019972597A01F0020101F0FF00002900F086
:40480000CC8021789C7A11F0080F0CBF0A210921764821436025102499721D70046091060FD51A78987A12F0080F0CBF0222012202436F499A720A78102002F0DF020A701C
:404840001870F0BC70471A78D206FBD410221A7070476848D97A0078DC68C0B2C9B26054D97A61480131C9B2D972DC7A197C8C423BD3417A01F0020101F0FF0400295ED08C
:40488000817A5A4C41F0090110E002F0020101F0FF0089B1597A544801F0020101F0FF0400295AD0817A514C41F09A0160261025817206702560B2E71D7A5C784A49A542D8
:4048C0002DD20C7A4D68E4B22C5D4A4F4A4EE4B23C704A4D4A4C06273770FF262E702070087A0130C0B2087299E7434E434C44490227FF2500203770257008708FE71878A5
:404900003949452857D03C4802253C4E3C4C0570FF2700254A203770257008707FE7487A00F0020000F0FF0448B3887A2F4C40F00A006026102588720E7025606FE72C4885
:404940002D4F01782D4E41F020012D4D01701220FF21387031702C7061E7254D264F2978264E41F020012970254952253D70FF2535700C70817A41F0900181724FE71C4803
:404980001D4F01781D4E41F020011D4D01705220FF21387031702C7041E7154C164F2178164E41F02001164D21705224FF213C703170287033E748780028B0D048680D4ECA
:4049C00000780D4CC0B20D4F30700D4D0626FF20267038700026012446202E700C7208701DE700BF6A650040F88AFF1F80E100E08A6500400B6400407B6400401B640040E1
:404A00005B64004000F0FD03082B70B403D00B23184670BC70470B791BB170BC0923184670478B78002BF8D1CB78002BF5D1082805D04B78102B0CBF00230923E8E74A7858
:404A40000A2A1AD00C2A1BD0082AE6D11C46442042F2107141F224360B4A0C4D52F824200B4C01FB02F202F6921292FBF6F200212870618262612183CAE702248420E7E726
:404A80000424C420E4E700BFD46F00000A590040F88AFF1FF8B500F0FD03082B01D00B20F8BD112901D90920F8BD794C01EB8101C900635A2144DD0701D40520F8BD8D68C1
:404AC00008282B7803F0F1032B7000F08E8094F8D13291F82450022B18D86E495B00DBB201EB8300476ACE180133387896F83CE0DBB201EB8306766A20EA0E0038700B4496
:404B000093F83C10337823EA01033370022D18D860486900CBB200EB83014F6AC118013397F800E0DBB291F83C1000EB83064EEA0101766A39700344317893F83C300B4320
:404B4000337055485549037884F8D15243F0010303700D46013003E0EB7EDBB2012B07D08B7E002BF8D1037803F00103012BF7D14B4B187800F00300012840F2858003282C
:404B8000484B494D08BF49481B782D7808BF007843EA0523897E414809B10021C1761BB2136094F8D132FF2B6CD0022B18D8394A5B00DBB202EB83014D6AD0180133297864
:404BC00090F83C60DBB202EB8300406A21EA06012970134493F83C20037823EA02030370FF2384F8D1320020F8BD94F8D03291F82410022B0AD8274D05EB830040692B4432
:404C000093F82050037823EA05030370022909D8204B03EB810040690B44057893F820302B430370224B84F8D0121878214900F0FB001870187840F0010018700B781D4DF1
:404C4000DB07FBD516464A2001F0EEFE1A4B134A29781B88128B9B1A1BB2336094F8D032FF2B0FD0022B0AD80A4901EB830252690B4493F82010137823EA01031370FF23B7
:404C800084F8D0320020F8BD043B1B889BB281E7D080FF1FD46F0000004E0040F88AFF1F144E0040104E0040114E0040124E00400859004009590040A25B004038B501F04E
:404CC000CFFC0028FBD1134B134D197F134C6B5C114803EB430304EB83035B780F4A002BF5D0435CDBB203EB430102EB8102591E072910890DD8D1880949D0780D461B0106
:404D000019440024C0B258554C7054705379DBB28B7038BDF88AFF1FEC8AFF1F948EFF1FFC5F00402DE9F84F002900F09C804F4F002588468246B946AB4605E0254440286A
:404D4000ADB21FD0A84534D93E6AC5EB080496F84000A2B2C0F14004A4B2944228BF1446002CEBD00AEB05013044224602F03FF896F8400025442044C0B2402886F84000E9
:404D8000ADB2DFD197F8292187F81DB0032A5AD899F82801511C024402F00302344B02EB82121A4489F8291182F840B0A8453A62CAD8BA7F01237B772C492AB12D492E4AC1
:404DC00009781370BDE8F88F91F8302152BB2B482B4D047881F8303104F0010303702978284B01F0FC0129700178274C41F00401017019781F4E01F0CF011970197841F0B8
:404E000030011970197801F0F0011970197841F00F01197023780E2143F0010323708180A980327019481A490378144A43F0010303700B78012003430B7013780343137001
:404E4000B877BDE8F88FD9F82C41621CC9F82C2101F006FC99F82921032A99D90234C9F82C410022A2E7014FA3E700BFF88AFF1F1C8BFF1F034F004077640040004F004057
:404E8000024F00400B4F0040014F0040A3430040B34300402DE9F04172B640F2E32441F6E74740F6253642F251259D4B9D49612018709D4A0020088050211170A3F27C73B7
:404EC0009A48032119801823994903700B20D0800B7098484F21518197490370D481974C0B70C780137506275220954A277081F86E011178934F9448944AC9B2397024F834
:404F0000DE6C934905801578A4F5007403C984E803004FF4F0701C4605F00105164601F083FD01E0032D0DD033784FF4F07003F0010343EA450501F077FD013C05F00305DB
:404F4000F0D1FEE7834A844D4FF4807010800023824907201070824E2B70DFF864E2482580480D700227042513708EF80030377005701C4691F89A337B4D43F03F0381F846
:404F80009A3392F89D33A5F1440643F0030382F89D3391F8983343F0800381F8983392F8E43643F0040382F8E43604EB440306EB4303AA88586C0134002101F071FD0A2C59
:404FC00005F10605F1D1694D002404EB840306EB43032A890134D3F88410D3F8800001F006FF062C05F10A05EFD1614E614F002556F8043F13F0FF0E23F0FF0413D005F1D4
:4050000010530EF1FF3E03F157005FFA8EFE7044563340005B001A785978023383421155F9D101357544BE42E2D15348534B54490A24012204701A700B78524A43F002031E
:405040000B701378504C43F0020313702378A0F5A65043F040032370013801784B4A41F010014B4B017007CA03C34A4D4A491A8007C903C549492A80E83307C903C34849A3
:405080001A80B83D07C903C52A80A5F6F6552A78444E454B42F0080203CBDFF828E13060716003CB2A709EF80030404FA6F62A263F4A3578DFF810E197F80080DBB2106077
:4050C0003C485160EDB203F007021B098EF800205FFA88F8037045F003033370364A48F003033B7035497023137040230B70202180F89C304FF4397082F8EE1901F094FC9E
:4051000094E80F00DFF8C4E087F800801034442735708EF8007007C42380BDE8F08100BF004800408040004082400040864000408A4000408E4000409240004000430040A0
:405140000F010049A146004020420040254200402C110048044000400640004008400040014000400B4000401870000054700000FCFFFF47A800004883580040075B004009
:405180000350014013500140A0430040EC10004800510040C0510040F81000480411004810110048225100401C110048F9460040325100406F5800403D5100400959004077
:4051C00009400040CF0100496E5800407658004030B4184B18491C7891F8D63064082343164881F8D6300268B1F8D43001329BB20260EBB1124D002304E0B1F8D42092B2A3
:405200009A4215D903F1080201EB8202D2F894200133107D9BB20442EFD01069D060286820F07F401061B1F8D42092B29A42E9D830BC7047824500402C8CFF1FAC84FF1FE0
:4052400018E000E030B4184B18491C7891F88E3004F00F042343164881F88E300268B1F88C3001329BB20260E3B1124D002304E0B1F88C2092B29A4214D903F1080201EBDA
:405280008202D26C0133107D9BB20442F0D01069D060286820F07F401061B1F88C2092B29A42EAD830BC7047834500402C8CFF1FAC84FF1F18E000E030B4184B18491C7885
:4052C00091F84630C4F3C0042343164881F846300268B1F8443001329BB20260E3B1124D002304E0B1F8442092B29A4214D903F1080201EB820252680133107D9BB2044288
:40530000F0D01069D060286820F07F401061B1F8442092B29A42EAD830BC70478C4500402C8CFF1FAC84FF1F18E000E00378112B01D9092070470246407801280DD00028F6
:40534000F7D170B49D002E4CE918C900665A2144B60720D4052070BC7047294903EB8303DB00C85A0B44410701D405207047D07801282CD025D30228DBD1996800200A7879
:4053800002F0F10242F00C020A709A68137843F0010313707047D278012A2AD027D3022A23D18E680421327842F0010232702B4404EBC3039A68137803F0F1030B431370C2
:4053C000C9E79A68137803F0F10313707047996800200A7802F0F10242F00C020A709A68137803F0FE03137070470920B3E70221DDE78E680621327802F0FE023270D6E790
:40540000D080FF1F122801D90920704700EB80000D4BC0001A5A520701D405207047012909D00229F0D1184482680020137843F0010313707047184482680020137803F0D4
:40544000FE031370704700BFD080FF1F122803D900230B700920704700EB80000A4BC0001A5A920701D405207047184483681B7803F0100303F0FF0013B901230B707047FE
:4054800002230B7000207047D080FF1FF8B50378112B01D90920F8BD9E00354DF218D200AC5A1F4624072A4401D40520F8BD8478012C49D03FD3022C2CD0F218D200AC5ADC
:4054C0002A442407F1D5407801284FD04CD30228E0D1528B0C46334405EBC3031146D88B1A6A234D9047002C3CD007EB870705EBC7077A680020B2F844309BB2083302EB67
:4055000083035F607A68B2F8443001339BB2A2F84430F8BD9468237803F0F10343F0040323709268137843F0010313700378112BB0D89E00C1E79268137803F0F10343F034
:40554000020313700378F2E79468237803F0F10343F0060323709268137803F0FE0313700378E4E72046F8BD128BB3E7928BB1E7D080FF1FF0B570B1012804D000231380D2
:4055800009231846F0BD1388032B0BD8002313800E231846F0BD1388072B0BD80E2310801846F0BD1D4B042418680023086014801846F0BDDFF880E0194D1A4C1A4B1B4F8E
:4055C0001B4E3F7805339EF800C0367895F800E0257813F8054C1B7836041B0443EA0423144C46EA0C2624783E432B4346EA0E6543EA04642E0A4FEA142E2F0C0D700C713C
:405600004E700346260C2D0E240E082081F805E08F70CD708E71CC711080B2E79070000002010049010100490001004903010049EC46004006010049040100490128F0B591
:4056400004D004282CD00B231846F0BD0B78002BF9D14A88B2F57A6F45D000F28580B2F57A7F00F0D380B2F5FA6FECD11125684E684F30783A8800F0070492B295420BD061
:4056800065480078C0B2002C2FD1002A2DD13D80327802F0BF0232700868604A1060D3E74B88642B1DD0B3F5C87FCCD10B245C4D5C4E2A78338802F007009BB2A3420BD03F
:4056C000554A1278D2B2002859D1002B57D134802B7803F0BF032B700868504A00235060B2E72E24E3E70825C1E700F0020000F0FF0648B34C4FDFF83CE14C4800244FF0E2
:40570000020C047087F800C08EF8004017F8084C0EF1720E04F07F0407F8084C9EF80040240711D4044607272EF8842CAEF1840E077022783D4812F00102FAD1364F3C7832
:4057400004F0FD043C700270334A1478A0074FD56FF4687C62441046354E0324358014700278D707FCD497E741F2707082424BD042F2283082427FF466AF032577E702F034
:40578000040202F0FF051AB3274E2A4F274A00204FF0040E107086F800E0387016F8080C763700F07F0006F8080C387806070FD41046072627F8883C167003781B4A13F00B
:4057C0000103FAD1144E307800F0FB0030701370114B1878400711D56FF4687213441A46134D03202C8018701378DB07FCD473E7084805801078304310704DE7094A1480FC
:405800001A782A431A7067E7052530E724252EE78640004084400040A2430040A483FF1F8A4000408840004010400040014000400240004014400040112801D90920704752
:40584000F8B504460D4601F0F7F80B4B04EB840403EBC404E36826699E1B63EB030701F0EFF8002E77F1000302DB2E600020F8BD16F18076F9E700BFD080FF1F70B5044666
:405880000D4601F0D9F8104A04EB840402EBC4035C681A7D94F84630134004D12B7001F0CFF8002070BD094E94F84610736821EA02020121013384F846202970736001F071
:4058C000BFF8002070BD00BFD080FF1FAC84FF1FF8B50378112B01D90920F8BD354E03EB8303DB00F25AF418130701D40520F8BD0546236A218BE08B984701F09DF86268FC
:40590000217D92F8463023EA010382F8463001F097F82C7801F090F8A5002F1906EBC7077A68397D92F8463023EA010382F8463001F086F8D7F804E0BEF8440080B2B8B32D
:40594000DEF824309F424FF0000311D0BEF8442001339BB292B203F1080193420EEB810125D24A689742F1D14FF6FF7293421ED0BEF844200EF1240092B2013AD21A934293
:405980000DD203441044194613F8012FD2B283420A70F8D12C4406EBC406D6F804E0BEF844300020013B9BB2AEF84430F8BD0020F8BD00BFD080FF1FF8B5294A29481378AA
:4059C000294903F0F10343F0080313700378A2F6B34203F0F10343F0080303700B78234D43F004030B70137843F0040313702C786CBB1F4B02F503520932012614701E7008
:405A000001F01AF81B4A137843F01003137001F017F81949194A1A4B0F200F68107008201870A1F68831174A10230B60E0211170DFF868C0DFF868E013481449144A8CF821
:405A400000302E700470C7F850E00C701470114A11491378102043F0020313700860F8BD6550004001500040A2430040248EFF1F8A6500409A65004008ED00E02764004024
:405A80003764004004E400E0028BFF1F038BFF1F008BFF1F7B64004000E100E0F88AFF1FB1470000704700BF704700BF014B1870704700BF7C640040014B1870704700BF2B
:405AC0007465004038B5074B1B68DB0300D438BD054C04F1140554F8043B03B19847AC42F9D138BD10E000E0288EFF1F024A137843F0010313707047F6460040030702D5B1
:405B0000014BC9B21970704763450040C20702D5094BCAB21A70830702D5084BCAB21A70420702D5064BCAB21A70030702D5054BC9B21970704700BF184500401945004065
:405B40001A4500401B450040014B1860704700BF25650040014B1878704700BF68650040024A137803F07F031370704775650040014B1860704700BF2C640040014B1878FD
:405B8000704700BF6F640040024A137803F07F03137070477F640040830702D5104BCAB21A70420702D50F4BCAB21A70030702D50D4BCAB21A70C20602D50C4BCAB21A7036
:405BC000830602D50A4BCAB21A70420602D5094BCAB21A70030602D5074BC9B21970704711450040124500401345004014450040154500401645004017450040014B1B7876
:405C0000704700BF8F45004030B4084B084C09490022032580201A755A759A75DA751A765A769A762570087030BC7047288EFF1F286000400860004010B51A4CE37E2BB18B
:405C4000194A137843F08003137010BD17494FF0FF320B780A704B784A708B788A70144BC878CA7019781A7059785A7099789A70D978DA7000F0E0FE0E4A137843F01003AD
:405C8000137000F0DDFE0C4A1378190704D50B490B6813781B07FBD4094A002101231170E376CDE7288EFF1F756500402565004005650040986500406865004045650040BD
:405CC0008865004010B5134C237F2BB1124A137843F08003137010BD1049114A4FF0FF330B60136000F0A8FE0E4A137843F01003137000F0A5FE0C4A1378190704D50B49E2
:405D00000B6813781B07FBD4094A0021012311702377DBE7288EFF1F7F6400402C6400400C6400409F6400406F6400404C6400408F6400402DE9F043B14C91B006460F46E7
:405D4000236A03A81421984738B3A38EC3F11402904225D8184403AA85B203F1010EE11812F8010B1FFA8EF3AB4281F83800DFF89082F2D1A8F8343056B19F4208D808F127
:405D800038093A463046494601F022F8002873D194F838609A4FAE4220D911B0BDE8F083032208A916230E2501A88DF804208DF805308DF80050CDF808D0FAF7C9FA636A96
:405DC00008A89DF8041098470023E363A36323646364A364A38611B0BDE8F083202208A8002100F05DFE97F839208DF82060531E8DF82120202B2AD8DFE803F09D294C29E1
:405E0000292939294C2984293929DA293929392939293929BB293929112966295D0094F83A6094F83B5094F83C0094F83D1094F83E2094F83F308DF824608DF825508DF8E8
:405E400026008DF827108DF828208DF829306D4A0023536008A8A36302F114019360D3601361A386FAF7B2FB11B0BDE8F08394F83A308DF82430EAE70023C8F83830C8F865
:405E80003C30C8F84030C8F84430C8F84830A8F8343082E794F83A0094F83B1094F83C2094F83D308DF824008DF825108DF826208DF82730CBE794F83A2094F83B308DF8D1
:405EC00024208DF82530C2E794F83A200021531E09910A918DF82420072BB8D801A252F823F000BF5D6000005D6000005D6000004B6000004B6000004F5E00004160000009
:405F00001760000094F83A20002309930A930B938DF824203A4B002A40F0118193F83B1093F83C2093F83D308DF828108DF829208DF82A308BE7721F94F83A5094F83B00D1
:405F400094F83C100023D2B20C938DF827200A930B93CDF833308DF824508DF825008DF82610002A3FF473AF27490AA800F03FFF6DE7721F94F83A5094F83B0094F83C100D
:405F80000023D2B20D9309938DF836200A930B930C938DF824508DF825008DF83710002A3FF455AF18490DF1260000F020FF4EE794F83B20002302F03F0094F83A7094F8B3
:405FC0003C500E9309930A930B930C930D93411ED309C2F380128DF83A008DF83D308DF83E208DF83B708DF83C5008293FF62FAFDFE801F0947A600C0C410C4E570000BFD4
:40600000288EFF1F608EFF1F658EFF1F94F83E308DF824301BE794F83B5094F83C0094F83D1094F83E2094F83F308DF826508DF828008DF827108DF82A208DF8293006E7FF
:4060400094F83B308DF8263001E794F83C2094F83B3043EA0223ADF82830F8E694F83D1094F83C3094F83B2043EA0123ADF828308DF82620EBE694F83D6094F83E5094F8E9
:406080003F0094F8401094F8412094F84230D2E694F83E2094F83F308DF824208DF82530D5E694F83D2094F83E308DF824208DF82530CCE6A6F1080294F83D0094F83E1063
:4060C00094F83F30D2B28DF838208DF824008DF825108DF83930002A3FF4B9AE20490DF1260000F084FEB2E6A6F1080294F83D0094F83E1094F83F30D2B28DF833208DF878
:4061000024008DF825108DF82630002A3FF49FAE13490DF1270000F06AFE98E694F83D0094F83E1094F83F2094F840308DF824008DF825108DF826208DF8273087E6012A79
:406140007FF485AE93F83D0093F83C2093F83B1042EA0023ADF82A308DF8281077E600BF688EFF1F70B4544A137803F00303012B5AD0022B09D0514A0023D2F8D810CB5C80
:40618000022B15D0002070BC704713794B4A03F07F0303EB430302EB830393F87630DBB2022BEFD8454AD2F8D810CB5C022BE9D1414B197992F8DC30C9B203EB430302EB3C
:4061C000830393F876308B4231D092F8DD3003EB430302EB830393F87630994214BFFF2101213548037813F0800F437821D1DBB2202B2CD0222BC5D1837802EB4100A0F80C
:40620000F430114491F8EC30062443F002038026002581F8EC300120147582F8F24082F8EE6082F8F850AEE71379DBB2B8E70021D7E7212BA6D170BC214BC1EBC1010B445A
:406240000721A2F8E010C2F8E430FDF707BA1C48C1EBC10303440720A2F8E0001144C2F8E43091F8EC30042543F001038024002081F8EC30157582F8EE40A2F8F000D2F826
:40628000E8100E4B29B1D3F8E8100870D3F8E83058800949094CC8798B79B2F8E01043EA002389B28B4238BFA4F8E0300B2382F8F230012067E700BF00600040288EFF1FD0
:4062C000AC83FF1F4A2303FB00F000F0ADBB00BF012838B502D90923184638BD0A4DC0EBC00005EB80052B7913B90623184638BD2B690C4698476A79002310420CBF1A4604
:4063000001222270E8E700BF248FFF1F012801D90920704710B5074CC0EBC00004EB800423790BB9062010BDE368984723699847002010BD248FFF1F012801D909207047E7
:4063400070B5C0EBC000084E840035192B790BB9062070BDAB68984730596B699847AB6901209847002070BD248FFF1F012801D90920704710B5074CC0EBC00004EB800471
:40638000207930B1E3689847236998470020207110BD10BD248FFF1F2DE9F04F8EB20027B41947EB0705A4197D414FEA85194FEA841849EA946914EB080445EB0905AB00A0
:4063C000A10043EA94738C1943EB0705AB00A10043EA94738C1943EB07056B0143EAD463610183B00C461D46074692460846404A1946002300F05CFB4FF47A720023804692
:4064000089462046294600F053FBDFF8ECE0394BA6FB0EBC1A79CDE900BCA346AC463AB193F82020002A60D0062003B0BDE8F08F07F1FF3EBEF1030F28D8DFE80EF002211D
:40644000042444464D4614F1FF3645F1FF37002F08BFB6F1FF3F19D2002D08BF012C224614D00024E100091B8900581801250571013A00205A50CAF8004003B0BDE8F08F62
:4064800004460D46DFE7DDE90045DCE793F820204ABBBEF1030F26D8DFE80EF01902041683468C461BF1FF304CF1FF31002908BFB0F1FF3F17D2BCF1000F08BFBBF1010FE8
:4064C0005A4610D00124CDE7DDE900BCEAE718F1FF3049F1FF31002908BFB0F1FF3F02D2C346CC46E7E70A209FE707F1FF3ED0E740420F00248FFF1F808D5B002DE9F8430B
:40650000504E0D46348FB4B1A14228BF2546778F06F13C01641B2A463944A4B200F067FC34871CB974872846BDE8F8832F4477872846BDE8F883444B444F1A78DFF814E126
:40654000BB5C014603EB43030EEB83035B7803F0FF000BB9BDE8F883BA5CD2B24FEA420C0CEB02030EEB83031F89531E072BBFB23ED8DFF8E4901001C84610F80930804484
:4065800098F8014003F00F0344EA0323023B9BB29F4231D8002F47D07C1EA4B22C4BDFF8BC9001341C44814499F8080003F8010B9C42F9D162440EEB820E4FF000098EF8CE
:4065C00001909EF80530BD42DBB2378788F802301C4C1CD208462A4604F13C0100F007FC638F7F1B2B44278763872846BDE8F88334872046BDE8F88310F8097098F8013066
:4066000007F00F0743EA0727023FBFB2C2E708463A4604F13C0100F0EAFBA4F83890A4F83A903846BDE8F88362440EEB820E8EF801709EF805303846DBB2378788F80230EE
:4066400088E700BF248FFF1F148BFF1FF08AFF1F608FFF1F948EFF1FFC5F004070600040724B93F80501A0B12DE9F04F93F804316E4A03EB831383B09B18019300F0D38021
:4066800093F84090B9F1000F04D1484603B0BDE8F08F7047664B6749DB6F0F2B00F2968000208446CCEB0905614BEDB2402D624F624A0978D3F87CB06DD8002D6DD0ADB29E
:4066C0007B5C03EB430302EB83035B78002BF7D0594B5A485C5CE4B24FEA440808EB040300EB8303188980B2A84238BF188904F1FF3334BF80B22846072B3BD808EB040682
:4067000002EB8606F3889BB2C3F50073984203D9F088C0F5007080B208EB040302EB8303DB78DFF81CA143EA10232601DBB2B2448AF80030019B5FFA80FE13EB0C038AF856
:4067400001E00DD060B10138DFF8F8E080B21844B644013B13F8016F83428EF80860F9D14FF00003444402EB840463706379DBB28AF80230AC441FFA8CFCCCEB0905B9F177
:40678000400FEDB20CBF0BF1010B4FF0000B402D4FF0010091D9402592E700283FD1234B224993F805316BB191F80421013B013202F00302012081F8053181F8042103B0B6
:4067C000BDE8F08F012003B0BDE8F08F1A4E0A781A4DB35C184C03EB430305EB83035B781648002BF5D0A35CDBB203EB430200EB82005A1E072A04890DD8C288104AC478C7
:4068000015461B01E4B25C551A440023537043704379DBB29370064A0023D36740E7044BC3F87CB0BBE7184630E700BF1C8BFF1F248FFF1F148BFF1FEC8AFF1F948EFF1F50
:40684000FC5F00407060004070B5374A37481378374903F0F10343F00C0313700378A0F66D4003F0F10343F0020380F86D3C0B78304C03F0F10343F00C030B7012F8013CA9
:40688000A1F64E4103F0F10343F00C0302F8013C12F8013C43F0010302F8013C037894F8802043F0020303700B7843F002030B70A2B1214C00F0C0F82378204943F0200353
:4068C00023700B781E4A43F010030B70137843F010031370BDE8704000F0B2B8194B0F21194A19701378990604D518490B7813789B06FBD400F0A0F8104B154E1A780125F6
:4069000042F001021A701A7802F0FE021A7000F097F80D480F49104A3678002384F8805000780B701370C4E70E5000400F50004000500040248FFF1F9064004098640040B8
:406940009E640040806400406E6400405864004068640040886400408E64004008B500F073F803680C2B00D0FEE7FEE780B5134FF7B1134E002556F80C0C56F8084C56F8CA
:40698000102C03463CB1043A52F8041F43F8041B191AA142F8D156F8040C1A4620B142F8045BD11A8842FAD1013F06F11006E2D100F050F8FAF7A8FDFEE700BF0100000066
:4069C000CC7000000E4B0F4A0F491A600B680F4A43F400730E480B600023032B94BF50F823100C490133302B42F8041FF5D10A4B0A4918780A4A0B4B08701A60FEF74ABAAD
:406A00000CED00E00004FA0514ED00E0FC7FFF1F000000005D690000BC760040C080FF1F0080FF1F08ED00E00230800803D000BF01380046FCD17047EFF3108072B6704757
:406A400080F31088704700BF014B1868704700BF1C84FF1F0E4B70B51E460E4C0025E41AA410A54204D056F8253098470135F8E700F012FB084B094C1E46E41AA410002550
:406A8000A54204D056F8253098470135F8E770BDA4700000A4700000A4700000AC70000003460244934202D003F8011BFAE7704753B94AB9002908BF00281CBF4FF0FF31A9
:406AC0004FF0FF3000F082B9ADF1080C6DE904CE00F006F8DDF804E0DDE9022304B070472DE9F04F8C460C460546099E002B4FD18A4217466BD9B2FA82FEBEF1000F0BD03E
:406B0000CEF1200520FA05F501FA0EF345EA030C02FA0EF700FA0EF5390CBCFBF1F0BAB201FB10C300FB02F84FEA154C4CEA0344A04509D9E41900F1FF3380F02881A0451C
:406B400040F2258102383C44C8EB0404B4FBF1F301FB134C03FB02F2ACB244EA0C418A4209D9C91903F1FF3480F00F818A4240F20C81023B39448A1A43EA00400021002EB3
:406B800063D022FA0EF2002386E80C00BDE8F08F8B4207D9002E56D0002186E811000846BDE8F08FB3FA83F1002940F09380A34202D3824200F2FE80851A64EB03039C4661
:406BC0000120002E41D086E82010BDE8F08F12B90127B7FBF2F7B7FA87FEBEF1000F36D1E41B4FEA17481FFA87F90121B4FBF8F308FB134409FB03F24FEA154C4CEA044493
:406C0000A24207D9E41903F1FF3002D2A24200F2D3800346A41AB4FBF8F008FB104809FB00F9ACB244EA0842914507D9D21900F1FF3402D2914500F2BA802046C9EB0202EE
:406C400040EA03409BE731463046BDE8F08F07FA0EF7CEF1200C24FA0CF34FEA1748B3FBF8FA1FFA87F908FB1A3520FA0CFC04FA0EF40AFB09FB4CEA040C4FEA1C4242EAAF
:406C800005439B4500FA0EF50AD9DB190AF1FF3280F08B809B4540F28880AAF1020A3B44CBEB0303B3FBF8F008FB103300FB09F41FFA8CFC4CEA03439C4207D9DB1900F1A1
:406CC000FF326ED29C426CD902383B441C1B40EA0A418BE7C1F1200E8B4022FA0EFC4CEA030C24FA0EF74FEA1C49B7FBF9FA1FFA8CF309FB1A7720FA0EF88C400AFB03F597
:406D000048EA04044FEA144848EA0747BD4202FA01F200FA01FB09D917EB0C070AF1FF3041D2BD423FD9AAF1020A67447F1BB7FBF9F509FB157705FB03F3A4B244EA0747F1
:406D4000BB4208D917EB0C0705F1FF3027D2BB4225D9023D674445EA0A40A0FB0289FF1A4F4545464C4614D329D066B3BBEB050367EB040707FA0EFECB40CF404EEA03034B
:406D800086E888000021BDE8F08F2346F3E61846DAE6B8EB020569EB0C040138E5E70546D9E7104692E78246C0E7924678E702383A4443E7084604E7023B3C442AE7C345B4
:406DC000E7D33C46D1E73146BDE8F08F704700BF10B501390244904207D010F8013B11F8014FA342F7D0181B10BD002010BD10B5431E0A44914204D011F8014B03F8014FAF
:406E0000F8E710BD00000000D8FCFF7F01000000FFFFFFFF00010000C55C0000895B00007D5B0000715B0000AD5A0000FFFFFFFF00010000395C0000615B0000555B0000A8
:406E4000495B0000B95A000001040703010101000801000202050000040309042C0343007900700072006500730073002000530065006D00690063006F006E006400750044
:406E8000630074006F007200100355005300420055004100520054003803430044004300200043006F006D006D0075006E00690063006100740069006F006E0020004900FD
:406EC0006E007400650072006600610063006500260343004400430020004400610074006100200049006E00740065007200660061006300650018034B0069006F006E0060
:406F0000690078002C00200049006E00630032034500760061006C0075006100740069006F006E0020004B006900740020002800430079007000720065007300730029001B
:406F400020034200750073002D0070006F0077006500720065006400200043004400430000000000020A00001201000202020008B5040106010005068001000009024300EF
:406F800002010780FA090400000102020103052400100104240202052406000105240100010705810308000A09040100020A00000407058202400000070503024000000095
:406FC00030313233343536373839414243444546000000000001000000000000000400000000000000100000285B0040285B0040285B004010204000585B0040005B004093
:40700000585B0040005B0040585B0040005B00401010202040400000004F00400C00405100403000000001408002000301400005800801408007001401408002001701402D
:40704000000500400140000A004C01400002105001401000104500404C0F0048080018450040540F00480800800201405C0F0048800000080140DC0F0048800080160140E7
:407080005C100048800000500140DC1000481000CC5BF4B243000000F8B500BFF8BC08BC9E4670474D000000C5690000F8B500BFF8BC08BC9E46704729000000D0700000D5
:4070C000C880FF1F58030000880B00000000000000000000010000000E0000002C8CFF1F635000400000000000000000010000000000010002000800FD5A00000000000001
:407100000E000000748CFF1F1850004000000000000000000100000000000100020001000D5B0000000000000E000000748CFF1F1950004000000000000000000200000037
:4071400000000100020002000D5B0000000000000E000000748CFF1F1A50004000000000000000000400000000000100020004000D5B0000000000000E000000748CFF1F2D
:407180001B50004000000000000000000800000000000100020008000D5B00000000000001000000048DFF1F1C50004000000000000000000100000000000000000000004C
:4071C000000000000000000001000000048DFF1F1D5000400000000000000000010000000000000000000000000000000100000001000000048DFF1F1E50004000000000D2
:407200000000000001000000000000000000000000000000020000000E000000BC8CFF1F115000400000000000000000010000000000010002000200995B0000000000003C
