:400000000080002011000000F1650000F1650000034A08B51268034B1A6006F0F1FA00BFFA460040BC76004010B5054C237833B9044B13B10448AFF300800123237010BDE3
:40004000F883FF1F000000009C6A0000084B10B51BB108490848AFF300800848036803B910BD074B002BFBD0BDE81040184700BF00000000FC83FF1F9C6A0000C880FF1F92
:40008000000000001C4B1A782AB15A781AB993F87021824215D093F87811174A49B993F8F012154A79B993F86834134AC3B91846704792F879110029F1D192F8E822824201
:4000C000EDD10120704792F8F1120029EBD192F860248242F5D093F86834074A002BE6D092F8693433B992F8D835181AB0FA80F04009704700207047A084FF1F38B5437851
:400100000446002B39D0012B1DD009251F4B1A7802B19A7893F878111C4819B190F87A1101B1013293F8F0021849B8B993F86814E9B932B9164B9B68DB689847154B022212
:400140001A70284638BD124BD0F87401DB68DB6898470546002DD9D1A570D7E791F8F2020028E3D091F8681401320029E9D093F86A34002BDDD0284638BD054B00F5B8705B
:400180001B695B6898470546E4E700BFA084FF1F748EFF1F808AFF1F70B5457882B004469DB1012D0ED1424BDB68002B79D09B68D0F87401984730B93E4B0322A5701A7068
:4001C00002B070BD092002B070BD394E0379326900F5B8701268002B68D0A17905295CD0012B61D094F82410052956D0022B5BD094F84210052950D0032B55D094F86010C8
:4002000005294AD0042B4AD094F87E10052944D0052B44D094F89C1005293ED0062B3ED094F8BA10052938D0072B38D094F8D810052932D0082B32D094F8F61005292CD07F
:40024000092B2CD094F81411052926D00A2B26D094F83211052920D00B2B20D094F85011A1F10501B1FA81F14909904733690DF107011B6994F8700198470028A3D194F846
:4002800071119DF807200B4D0123032691422E70A37008BFE37002B070BD0121E5E70021E3E70B2002B070BD2946DEE71946DCE7748EFF1F808AFF1F10B543780446002B68
:4002C00038D0012B2DD04FF4BC720021204606F033FA00221B4B22701A7802B19A7893F87811184811B190F87A11C1B993F8F002144938B993F8681461B97AB9124B0222DE
:400300001A7010BD91F8F2020028F3D091F86814013219B193F86A34002BEED010BD0132E4E70A4BDB68002BCDD05B68D0F874019847C8E7054B00F5B8701B695B6898479E
:40034000C1E700BFA084FF1F808AFF1F748EFF1F994B02781B8A142B28BF14239A4201D90E2070470A7043784B7043782F2B03D9332B2DD909207047023B202B00F223814E
:40038000DFE813F01C0121018F0021010F01210106012101FF002101F800210121002101210021012100210121002101210021018F0021013A0021018F002101E8002101D6
:4003C00021002101E800436800201B788B7070470278022A63D002310B4630B4D51EEDB201350D4444685A1AA25C03F8012BAB42F8D1002030BC704743681A788A705A7C9D
:40040000002A4CD05A78CA705A7C012A47DD9A780A715A7C022A42DDDA784A715A7C032A3DDD1A798A715A7C042A38DD5A79CA715A7C052A33DD9A790A725A7C062A2EDD03
:40044000DA794A725A7C072A29DD1A7A8A725A7C082A24DD5A7ACA725A7C092A1FDD9A7A0A735A7C0A2A1ADDDA7A4A735A7C0B2A15DD1A7B8A735A7C0C2A10DD5A7BCA7375
:400480005A7C0D2A0BDD9A7B0A745A7C0E2A06DDDA7B4A745A7C0F2A01DD1B7C8B740020704743681A788A709A7C002AF7D05A78CA709A7C012AF2DD9A780A719A7C022A2D
:4004C000EDDDDA784A719A7C032AE8DD1A798A719A7C042AE3DD5A79CA719A7C052ADEDD9A790A729A7C062AD9DDDA794A729A7C072AD4DD1A7A8A729A7C082ACFDD5A7A93
:40050000CA729A7C092ACADD9A7A0A739A7C0A2AC5DDDA7A4A739A7C0B2AC0DD1A7B8A739A7C0C2ABBDD5A7BCA739A7C0D2AB6DD9A7B0A749A7C0E2AB1DDDA7B4A749A7C19
:400540000F2AACDD1A7C8A749A7C102AC4BF5B7CCB74A4E743681A788A701A78002A9ED15A68CA705A68120A0A71DA884A71DB798B7194E7436800201A788A705B78CB70AD
:400580007047436800205A788A701B78CB707047436800209A788A701A78CA705B780B717047436800201A788A705A78CA709A780A71DB784B717047488EFF1F436800204A
:4005C000DB788B7070470720704700BF2DE9F04FA14FA24C3A780023023A012A99B005468A46236063601CD94278052A78D0152A3FD010A9082509AB162203240BA80C9381
:400600008DF824508DF82C408DF82D20FFF7A0FE934B10A85B689DF82C10984719B0BDE8F08F41784A1E202A00F2D482DFE812F0AB00D202C800D2029E00D202EB00D202AC
:400640002401D2024401D202A302D2027C02D202B602D202E301D2022100D202FF01D2022002D2024702D202A701D202D401D20262022A79002A2DD1DAF8083013B19B6858
:4006800003B19847774E3378002B40F08C8396F87831002B40F0838396F8F032002B40F07A8396F86834002B40F071836E4B6F4AD9696F4C00230120136053609360D360B5
:4006C0001361238038700029A8D00B68984719B0BDE8F08FDAF81430002BD3D01B68D0E7604E022132780B938DF82D10002A46D196F87821002A40F05E8396F8F022002AF5
:4007000030D196F86824002A40F05183564A5749D569574E002201200A604A608A60CA600A61328038700DB12A6890474B4D022128460622397062709AF8006010A90BABC9
:400740008DF82F6063602270FFF702FE10F0FF0F7FF464AF424B297810A85B68984719B0BDE8F08F4348FFF7A7FDCAE73D4E0020327802210B908DF82D10002AB8D030463E
:40078000FFF79AFDB4E7DAF8043000260B9604305F68A979EB79021DB847304D26608DF82F000222032310A928460BAF676062702370FFF7CDFD10F0FF0F7FF42FAFC9E7C8
:4007C000C37900270BAE112BF7600B977760B760C6F80F7040F228843B460E228DF82C2003221E4D002727608DF83E302846042310A9666022706370FFF7AAFD10F0FF0FC8
:400800007FF40CAFA6E70079DAF810200023ADF82C308DF82E308DF82C00136909A998470E4E9DF824708DF82E00052208230BAD10A9304665608DF82D7022706370FFF70A
:4008400087FD10F0FF0F7FF4E9AE054B317810A85B689847E2E600BF808AFF1F1484FF1F488EFF1FA084FF1F748EFF1F608EFF1F5C8EFF1F9087FF1FDAF810300022ADF8AC
:400880002C209B69002B00F0AB83043098478DF82D002A79A24D18AB03F8342D28460A2210A90426636026706270FFF751FD10F0FF0F7FF4B3AE4DE707790023ADF82C3083
:4008C000002F40F0B182974E017A337833B1737823B996F870318B4200F0808396F87821904B3AB193F8792122B993F8E8328B4200F0748396F8F0228A4B3AB193F8F1227D
:4009000022B993F860348B4200F0688396F86824844B3AB193F8692422B993F8D8358B4200F05C837F4B04201A78002A40F0BD82013803F5BC73F7D132787A4B002A00F050
:40094000878596F87821774B002A00F0CF8593F8F022002A00F0C78593F868344FF00308002B00F06A820C2100238DF82C108DF82D306B4D10A9284604260C2221E0DAF89C
:400980001820002A00F0B2834179C77986798DF82410407A297A8DF827008DF828108DF825708DF82660526809A9287990478DF82C00002800F025830326594D10A92846C8
:4009C0001E220BAB636026706270FFF7C1FC10F0FF0F7FF423AEBDE60079421E072A00F22181DFE812F0160116011601160116011F010B01FA000379FF2B40F0E081494D61
:400A0000002305F5BC668DF82C302B782BB12846FFF774FB8DF82C0018B905F5BC75B542F3D13F4D10A9284603261422C9E7DAF81430002B00F0D8825B6800790DF13E0215
:400A40000DF12D0198479DF83E308DF82C000333DBB2334D10A9284618260BAA626023706670FFF775FC10F0FF0F7FF4D7AD71E6DAF804309E68002E00F0D182C37D827DB0
:400A8000811D009304300DF12D03B0478DF82C00002840F0B382EE7DF31CDBB2204D0BAA8DF83D60284610A91A27626023706770FFF74EFC10F0FF0F7FF4B0AD4AE6DAF86F
:400AC000143018AA112122F83C1D9B6800790DF12D0198478DF82C00002840F08C829DF82420D31CDBB20E4D10A928461C268DF83E20B2E7DAF81830002B00F0FC824179AB
:400B00001B680CAA0079984700280CBF072603268DF82C00024D10A92846222251E700BF1484FF1FA084FF1FC77E303FFFB2032F00F2CB804FF4BC7202FB07F2AA4EB25C40
:400B4000002A00F0C28090F81A80037F08F1FF3290F81D9090F81EB00393082A00F2B580DFE812F0F400FF00D000C900B700A600A2009900640003790022FF2B8DF82C20E7
:400B800000F06582332B40F20A8409238DF82C30964D10A9284603260E2212E70379FF2B40F02E81904D002305F5BC668DF82C302B782BB12846FFF7EFFA8DF82C0018B907
:400BC00005F5BC75AE42F3D1884D10A9284603261222F6E610A907250DE5DAF818300BB35B68A91D082098478DF82C007F4D2026284610A903220BAB6670A3E5DAF81C3061
:400C00001BB1A879012840F2618400238DF82C30ECE7DAF80430DB6823B1A91D98478DF82C00E3E70B238DF82C30DFE76B79AA8818460593ADF84620FFF724FA002840F01B
:400C40002C84DAF81830002B58D02A7904904FF4BC7000FB07F031180D79DFF88CE10B2D40F25A824FF00D0E8DF824E05F4D102209AB28460BA90326267062706360FFF785
:400C800067FB10F0FF0F7FF4C9AC594B29780BA85B689847C2E4AB882A79ADF846306B79059300230493D2E72A7901230493CEE72A4652F8041FEB799288202B0693CDF8A5
:400CC0004610ADF84A2040F2ED8309238DF82430CCE74FF4BC7101FB07614A78002AF4D1DAF81030DB684BB191F870312A79059304230493ABE72A79002AD6D00B238DF884
:400D00002430B3E72A4652F8041FDAF80430CDF846105168D068D2F808E0CDF84A101169928ACDF85200ADF85A206879CDF84EE0CDF8561099686B7E0590E87907939BB273
:400D40002A7904930690002981D1D7E7EA796B686979CDF8463093B2069204932A79059175E72B4653F8042F5968CDF846209A68DB68CDF84E20CDF852306B79CDF84A1071
:400D80000593EB792A790693002304935FE71948FFF792FA8AE41848FFF78EFA81E41748FFF78AFA78E43046FFF786FA6FE41148FFF782FAAAE41148FFF77EFA9DE4303BE7
:400DC000DBB2032B00F2A0814FF4BC7000FB03F3054A995C9818002900F09681FFF78EF98DF82C001DE600BFA084FF1F1484FF1F488EFF1F0889FF1F9087FF1F1886FF1F25
:400E0000303BDBB2032B00F27B814FF4BC7000FB03F3BF4A995C9818002900F07181FFF7BBF98DF82C00CFE6012F00F08D82B84E3378002B7FF485AD98464FF4BC7202FB79
:400E400008F208F13001B318B15400225F709A701A71DA70083503F5B87395E8030083E80300002F00F00283012F40F08882A94A4FF4BC7303FB08F3D168F21813460D68E3
:400E800002F5BA72B3F8721193F87001A8470546002D40F075824FF4BC7303FB08F3F35C8DF82C508DF82D3063E51A79002A3FF43FAD93F806E0BEF1060F00F01181BEF130
:400EC000090F00F00D81012A3FF432AD93F824E0BEF1060F00F0FE80BEF1090F00F0FA80022A3FF425AD93F842E0BEF1060F00F0EB80BEF1090F00F0E780032A3FF418ADED
:400F000093F860E0BEF1060F00F0D880BEF1090F00F0D480042A3FF40BAD93F87EE0BEF1060F00F0C580BEF1090F00F0C180052A3FF4FEAC93F89CE0BEF1060F00F0B280E3
:400F4000BEF1090F00F0AE80062A3FF4F1AC93F8BAE0BEF1060F00F09F80BEF1090F00F09B80072A3FF4E4AC93F8D8E0BEF1060F00F08C80BEF1090F00F08880082A3FF4A7
:400F8000D7AC93F8F6E0BEF1060F7AD0BEF1090F77D0092A3FF4CCAC93F814E1BEF1060F6AD0BEF1090F67D00A2A3FF4C1AC93F832E1BEF1060F5AD0BEF1090F57D00B2A54
:400FC0003FF4B6AC93F85021062A02D0092A7FF4AFAC93F857218A427FF4AAAC0321C3E40B238DF82D3054E40B228DF83E308DF82C2003232DE50323002274E5032300269C
:401000004CE5DAF8183008AA1B686979287998478DF82C0000287FF4CFAC0726CDE40B238DF82C30032339E5DAF804100DF12D02D1F8008004308178C0478DF82C0000286D
:4010400040F05782EB79DA1CD2B2FFF7CABB304D05F5BC662B7813B12846FFF72DF905F5BC75AE42F6D100238DF82C3090E593F839E18E45A3D1B1E793F81BE18E4593D1E7
:40108000ACE793F8FDE08E4583D1A7E793F8DFE08E457FF473AFA1E793F8C1E08E457FF460AF9BE793F8A3E08E457FF44DAF95E793F885E08E457FF43AAF8FE793F867E010
:4010C0008E457FF427AF89E793F849E08E457FF414AF83E793F82BE08E457FF401AF7DE793F80DE08E457FF4EEAE77E70B238DF82C30032661E40B238DF82C30032609E5F2
:4011000009238DF82C305FE509238DF82C3088E4A084FF1F748EFF1FB9F1000F00F05181002D00F0B881691E4FF01E0A0AFB010CF4449CF807C0BCF1000F00F0CE81A91E5D
:401140004B1C66D00AFB010CF4449CF807C0BCF1000F00F0C281E91E4B1C5AD00AFB010CF4449CF807C0BCF1000F00F0B681291F4B1C4ED00AFB01007044C079002800F046
:40118000AC81691F481C44D04FF4BC7C0CFB07FC0AFB01C03044C079D646DFF860A3002800F09B81A91F4B1C33D00EFB01C05044C079002800F09181E91F481C29D00EFB7F
:4011C00001C05044C079002800F08781A5F108014B1C1ED00EFB01C05044C079002800F07C81A5F10901481C13D00EFB01CED6449EF80700002800F07081A5F10A014B1C1A
:4012000007D01E2000FB01C03044C079002800F0648100214FF4BC7000FB07FA1E2303FB01A001F1010E3044754540897ADD03FB0EAEB24B9E44BEF80AC001F1020E6044B9
:40124000AE4580B26EDA1E2303FB0EAEAB4B9E44BEF80AC001F1030E6044754580B261DD1E2303FB0EAEA54B9E44BEF80AC001F1040E6044AE4580B254DA1E2303FB0EAE9A
:401280009E4B9E44BEF80AC001F1050E6044AE4580B247DA1E2303FB0EAE984B9E44BEF80AC001F1060E6044AE4580B23ADA1E2303FB0EAE914B9E44BEF80AC001F1070E91
:4012C0006044AE4580B22DDA1E2303FB0EAE8B4B9E44BEF80AC001F1080E6044754580B220DD1E2303FB0EAE844B9E44BEF80AC001F1090E6044754580B213DD1E2303FB62
:401300000EAE7E4B0A319E44BEF80AE08D42704480B207DD4FF4BC7101FB0761B1F83611084480B201467648C1F57F41FE31008A89B2142894BF09181431049B89B2994277
:401340003FD24FF00E0E8FE46E4AD368002B3FF40BAB6A4E3378002B7FF4F3AA083506F5B87E4FF0300C95E80300B37033717770F370984686F800C08EE8030078E509254F
:401380004FF4BC7202FB08F8002106EB080005F0D3F90023294606F80830FFF7E5BA303BDBB2032B3FF65FAE4FF4BC7202FB03F3524AD15CD01800293FF455AEFEF77CFF3B
:4013C00051E69DF80C304FF4BC718DF84330BDF8103001FB07F7ADF844309DF81430C5EB051C8DF847309DF8183007EB4C0C8DF849309DF81C304FF0000EB4448DF841902E
:40140000ADF85CE08DF840808DF85B308DF842B08DF846200DF140080CF10609B8E80F00CCF80600CCF80A10CCF80E20B8E80700B8F800C0374401353D71C9F80C30C9F845
:401440001000C9F81410C9F81820A9F81CC00BE4083503F5B872987018715870D870804695E8030082E8030030271F704FF4BC7707FB0867DFF88C9007F5B877D9F8103063
:4014800038461B6800219847D9F8103005465B6838469847FCE4294645E703238DF82430FFF7E4BB6B7918460593FEF7EBFD0028F3D1DAF81830002B3FF420AC069B2A7975
:4014C0000733C3F3CF030493FFF7C1BB1B68984700238DF82C30FFF789BB8D42D8BF00217FF721AF96E64FF00208A6E44FF00108A3E43B460322FFF774B900BFA084FF1FCC
:40150000488EFF1F748EFF1F2DE98048ADB062B6DFF828A3DAF80030002B00F04787BA4BBA491A686FF07F4542F002021A601A68B74842F001021A601A68002422F002026E
:401540001A600D601A68B34942F004021A6004600B7883B9B04872260670B04DB04A6FF480763044AF4C06262B70167047250122257003700A70AC4C05F0AAF82378AB49F0
:4015800043F0200323700B78A94A43F010030B701378A84D43F0100313702B78A4F5075443F00403293C2B702378A34E43F00403237005F091F83378A04F43F001033370A6
:4015C00005F086F89E499F4A0B7803F0EF030B70137803F0EF03137005F07EF82B789A4903F0FE032B702378984A03F0FE0323700B78974803F0F10343F002030B701378C7
:4016000003F0F10343F002031370037803F0F10343F00203037033788E4803F0F10343F00C033370337843F00103337091F8573003F0F10343F0020381F8573012F80E3CA6
:40164000102103F0F10343F0020302F80E3C02F5A3520160103213787F4803F0FD031370037892F809317D4803F0DF0382F809317B4B016019702B787A4803F0FD032B704F
:4016800023787949794A03F0FD032370CAF80400CAF80810764BCAF80C209AF81450CAF81030002D00F00786724A0025724B15707248734A7349744C744E754F1D70754BAA
:4016C0003D7025703570057015704FF400000D704FF08072202118601A604020196080226D4918601A600B786C4843F001030B706B4B032101701A70012004F0E1FF694B5B
:4017000004221A70684B694993F805310D60032B00F2CC85644A591C92F804216248134403F00303604A03EB831313441A4680F8051183F840505E4B55491A604FF00000AB
:40174000534B00221B78002BFAD00B780870002BF6D02378002BF1D0564BDFF87C911A705A70554B89F800201B78DFF870B1DBB2591E072940F28D854F4B5B78DBB25A1E1F
:40178000072A40F27885DFF8588198F80030002B00F06B85484B1A78002A00F06685474A11460692127842B198F80020082A04D81B78082B9CBF0A4613781E4E404F3578C5
:4017C000404C45F0080535703E783F4D46F008060FCC03943E700FC594E80700A64605F10C060C3485E807000FCC0FC637483849384A00271423AAF82830CAF81800CAF8AB
:401800001C10CAF824206DE010E000E014E000E018E000E01D8BFF1F8B6500408B64004029650040396500409B6500409B6400409A640040A24300400D5000402484FF1F97
:4018400090640040946400400E5000400F5000400050004080E100E06865004080E200E0848AFF1F052A0000252F0000F9260000795600000E8EFF1F3C8EFF1F408EFF1F74
:40188000418EFF1F428EFF1F3E8EFF1F3F8EFF1F3D8EFF1F00E100E009600040286000400860004012600040208BFF1F348CFF1F308CFF1F148FFF1F208EFF1F048FFF1F44
:4018C000B2430040A86A0000A08AFF1FA1360000A13E0000353E00001C8BFF1F948EFF1F1C8EFF1FCAF8207094E8070086E80700C84AC94D1368C9490120C94C2860C94E8F
:401900001964E02311682370C74C3060022028604C641168A2F6071213703060C34804222A608864C248C3490370C34C32600A78237802F08F020A7003F08F03BF4A2370D5
:40194000BF4BCAF82C20BF4ACAF83030BE4BCAF83420BE4A5EF8280FCAF83830BC4BCAF83C20FF22DEF804101A70039B0DF1400CACE8030053F8340F9EF80A601C46616854
:40198000A26815AC07C4BEF808309DF840509DF85440394648221AA8ACF800308CF8026004F0CAFE1AA94822AA48ADF888508DF8AF4005F068F89DF841509DF85540394600
:4019C00048221AA804F0B8FE1AA94822A248ADF888508DF8AF4005F056F89DF842509DF85640394648221AA804F0A6FE1AA948229A48ADF888508DF8AF4005F044F89DF86B
:401A000043509DF85740394648221AA804F094FE1AA948229248ADF888508DF8AF4005F032F89DF844509DF85840394648221AA804F082FE1AA948228A48ADF888508DF829
:401A4000AF4005F020F89DF845509DF85940394648221AA804F070FE834E1AA948228348ADF888508DF8AF4005F00DF88049814A3388814D814C8248CAF84810CAF844205D
:401A80008049814A13F0080F0EABCAF84050CAF84C40CAF85800CAF85010CAF85420079340F00686338D190700F1B685B6F850301A0700F1A485B6F878301B0700F1928562
:401AC000B6F8A0301F0700F18085B6F8C8301D0700F16E85B6F8F0301C0700F15C85B6F81831180700F14A85B6F84031190700F17A84B6F868311A0700F18584B6F8903106
:401B00001B0700F19084B6F8B8311F0700F19B84B6F8E0311D0700F1A684B6F808321C0700F1B184B6F83032180700F1BC84B6F85832190700F1C784B6F880321A0700F11C
:401B4000D284524A52499AF87030CAF864200022CAF86C10CAF85C20CAF86020CAF868204C49002B00F0818504F0B2FD4A4904460B784A4843F002030B700378484A43F0F8
:401B800002030370137800F5AA5043F0010313708B79103043F001038B71037802F5AB5243F0030303700D323E4B042111701A783D4942F040021A701A78A0F5975002F063
:401BC000FC021A700E220A701538384A0223037013780A2043F00803137004F07FFB344B08252C4E20461D6004F076FD31480A4A311D156041600A212F4B017006F12C018D
:401C0000C16006F140010161CAF8743006F1640154E000BF08ED00E080E100E0F552000000E400E000E100E0815200000D52000002E400E03D510040285B004075630000F1
:401C40004963000015630000E9620000613600007483FF1F3C8CFF1F848CFF1FCC8CFF1F148DFF1F5C8DFF1FCC80FF1FA48DFF1FB558000009590000C954000071580000EB
:401C80006953000089540000415400001D5B0000B15500002484FF1FAB430040BB430040A14300400D590040085900402F5B004080E200E0748EFF1F15380000BAF8283058
:401CC0009C4A416106F17401816106F118040021132BC1618460CAF8782040F2C5840FCC954D0FC5226896F87C302A60002B40F0B5849AF8F431002B40F09B849AF86C33EC
:401D0000002B40F09E849AF8E434002B40F0A1848A4B012453F8040B8AF85C460B900BA8059303F021FB234650E00021084604F00DF89AF85C36032B56D0814B1B781BB1EB
:401D4000804B1B781B0662D499F8003018F8033003EB43030BEB83035B78002B40F09680794B93F805211946002A7ED0774B774A1B784BB311780023137029B3744A89F80C
:401D8000003013705370734A1278D2B2511E072940F2EA816F4B5B78DBB25A1E072A40F2D68198F800307BB16A4B6A4A1B785BB1069B69491B783BB1684B1B78082B03D840
:401DC0001378082B00D80B789AF85C36012BACD1059B02211B8815A8ADF8543003F0B6FF9AF85C36032BA8D15D4FCDF80CB0BB461BF80C2C1AB11BF80A3C002B49D1594BB8
:401E00000BF5BC7B5B45F3D1DDF80CB095E701F01FFF0028FBD199F8001018F80130524A03EB43030BEB83035B78002BF5D04B4B5B5CDBB203EB430102EB8102591E0729E3
:401E400010898DD8D188D07848491B011944C3B200200B70487050705379DBB28B703A4B93F805211946002A80D191F80431344C03F00303227003EB83133D4C0B44012087
:401E800081F80501236083F840206FE701F0E0FE66E71BF8091C00238DF82B30C9B91BF80B3C002B00F06C81012BA8D1314BDB68002BA4D01B690DF12B01DBF868019847E8
:401EC00000289CD19DF82B30002B98D01BF80C2C04E001210BF8093C8DF82B101BF8081C02238DF8312010AA0D928DF83030002985D00022CDF810B0ABF10C040992CDF8D0
:401F000020B0627A002A60D00025A2790D9F9E1E013A07EB060B082A00F2AB81DFE812F0FA00EF00DB00D100C800920073007F002C0000BFE1350000488EFF1FF86A000064
:401F40002C8CFF1F034F0040208BFF1F3D8EFF1F148FFF1F208EFF1F048FFF1F1C8EFF1FAC84FF1F8C8AFF1F948EFF1FFC5F0040308CFF1F748EFF1F964B15AA9B69617B6A
:401F80001B68207B9847002874D1159B0422BB5515999DF83030090A8BF80110BDF856108BF802109DF857108BF80310207A002841D0E27912B9022B00F2B680627A0135E5
:401FC0009542A2DB089A12F8081C099A049801321E308A42099204F11E04049091DB022BDDF820B07FF60BAF15A90CA8FEF7B0F910F0FF0F7FF403AF774B9DF830105B68E1
:4020000015A89847FBE6734B59461B69207B1B69984700282ED19DF830300122C6E76D4B04981B6941785B69007898470022237A23B99DF8303013448DF83030E8B99DF8AA
:402040003030B6E7E37B627B8DF85530614BA07B617C8DF85420227C9B698DF856008DF857108DF858205B6815A9207B9847002800F09280227A002ADBD00E280246DDF832
:4020800020B000F0AD80162315A98DF8282003240AAA07988DF839300F928DF83840FEF757F94D4B9DF838105B6815A89847A6E6484B15A91B69607BDB6898470028D9D120
:4020C00063E7638C0122BB55618C9DF830301144C9B261846AE73F4A94F821305168049894F8202000938E6801465B460231B0470028BFD194F821209DF8303056E7354B33
:4021000004985A68A17B56680246E37E0332B04700228CE72F4B5A465B68A17B1E680498E37BB047E27B82E715A90CA8FEF710F910F0FF0F05D1284B9DF830105B6815A8AB
:4021400098474FF002038DF83030022336E703EB43020BEB82020021517051791F4A1B01C9B21A4491701CE602EB42010BEB81014B704979194B1201C9B21344997009E6F5
:40218000144B0DF12B011B699BF864019B68984700287FF434AE95E60E4B079A9B69617B1B68207B984700287FF464AFE37B0733DA1018BF0BEB020307D00E99C1400BF8E5
:4021C000011B9B4500F10800F7D1D2B29DF83030ECE600BF748EFF1F488EFF1FFC5F00409AF87C3003BB9AF8F43133BB9AF86C33002B2BD19AF8E434002B30D1C04BC14C82
:40220000D969002323606360A360E3602361BE4C012023808AF85C0600293FF434AF0B6804929847049A2EE7B8480492FEF744F89AF8F431049A002BD8D0B5480492FEF726
:402240003BF89AF86C33049A002BD3D0B1480492FEF732F89AF8E434049A002BCED0AE480492FEF729F8049AC8E7AC4B0693FFF7A4BA00229AE603EB43020BEB820200218C
:4022800051705179A64A1B01C9B21A449170FFF77ABA03EB43010BEB81014A704979A04A1B01C9B21A449170FFF766BA01232A460B60FFF740BA04F00BFA9A499A4A0B7835
:4022C000804643F001030B701378984801F5E35143F0010304311370012602F5E2524FF0020906701B3281F800901378284603F07F03137003F0F2FF14F81E3C8C4A03F076
:40230000F90304F81E3C1378304603F0DF03137014F81E3C334304F81E3C03F0DFFF282003F0DCFF4846834B1A7802F07F021A701A7802F0BF021A7014F81E3C034304F877
:402340001E3C03F0CBFF14F81E3C7B497B4A43F0040304F81E3C40460D70157004F0BCF9774A04F1A02411687648E02365342370C1F89C00116874486370C1F8A000116887
:40238000724804F8123C48651168714804F8113C886511686F4804F8103CC86512686E486E493E7503701167FFF77EB96C4A6D48634C1360016824686B4D41F00401E563F5
:4023C0006A4E6B4F6B4D6C4C53609360D3601361016001224FF4004137602B602160CAF80020FFF79CB80023082207988DF838208DF839308DF83A3003F086FAB6F8683177
:402400001A077FF57BAB0023092207988DF839308DF83A308DF8382003F076FAB6F890311B077FF570AB00230A2207988DF839308DF83A308DF8382003F066FAB6F8B83125
:402440001F077FF565AB00230B2207988DF839308DF83A308DF8382003F056FAB6F8E0311D077FF55AAB00230C2207988DF839308DF83A308DF8382003F046FAB6F80832A5
:402480001C077FF54FAB00230D2207988DF839308DF83A308DF8382003F036FAB6F8303218077FF544AB00230E2207988DF839308DF83A308DF8382003F026FAB6F8583234
:4024C00019077FF539AB00230F2207988DF838208DF839308DF83A3003F016FAB6F880321A077FF52EAB0023102207988DF838208DF839308DF83A3003F006FAFFF721BB73
:40250000748EFF1F608EFF1F5C8EFF1FA084FF1F1886FF1F9087FF1F0889FF1F048FFF1FFC5F0040A5430040B54300409D60004012600040F8510040846000408560004018
:4025400008ED00E03D5C0000A14200008940000055400000194000000CE400E0315C0000288EFF1F10E000E0F55A000014E000E01021010018E000E000E100E00023072218
:4025800007988DF838208DF839308DF83A3003F0BBF9FFF7A9BA0023062207988DF838208DF839308DF83A3003F0AEF9FFF797BA0023052207988DF838208DF839308DF804
:4025C0003A3003F0A1F9FFF785BA0023042207988DF838208DF839308DF83A3003F094F9FFF773BA0023032207988DF838208DF839308DF83A3003F087F9FFF761BA002322
:40260000022207988DF838208DF839308DF83A3003F07AF9FFF74FBA0023012207988DF838208DF839308DF83A3003F06DF9FFF73DBA2548FDF740FE9AF86C33002B3FF4A5
:4026400062AB2248FDF738FE9AF8E434002B3FF45FAB1F48FDF730FEFFF75ABB06F17C00FDF72AFEFFF745BBFEE740F62A041948194D02782D6842F010020270174AE02058
:402680001070174A1748EA640278174D42F006020270164884222A70154D164A038001202C6081F870001380A1F87230FFF75CBA18468DF838708DF839708DF83A7003F0D4
:4026C00023F9FFF7EFB900BF1886FF1F9087FF1F0889FF1F0241004008ED00E003E400E02D5B0000095900400A590040968AFF1F988AFF1F9C8AFF1F2DE9F84F05780C46E7
:40270000012D91469846BDF828A000F00E81042D40F08E80A74E3378042B47D0A64F3B7843F001033B7003F0D3FFA449A44A0B7803F0EF030B70137803F0EF03137003F072
:40274000CBFFA049A04A0B78A04803F0FE030B70137803F0FE031370037803F0F10343F00203037091F86D3C03F0F10343F0020381F86D3C92F84E3C03F0F10343F002032D
:4027800082F84E3C3B7803F0F10343F00C033B703B7843F001033B7003F02AF98C49284602F06AFF07463570002F43D1D1454E4638BF5646804A04EB09071378C24403F086
:4027C000FE03137066B30023184699468149DFF82CC2DFF82CB2B04213D21D1D854210D9A74200F09B8094F800E00A785207FCD58CF800E00134013080B2864201D9A84243
:40280000EED39BF80020920608D5C24500F0CD80714A127808F8012B01339BB29E42DAD8654A0020137843F001031370BDE8F88F604E0B27604C654D237843F00103237004
:4028400003F046FF5D495E4A0B7803F0EF030B70137803F0EF03137003F03EFF59495A4A0B78384603F0FE030B7013785B4F03F0FE0313702B78DFF878E103F0F10343F07D
:4028800002032B703B7803F0F10343F002033B7015F80E3C03F0F10343F0020305F80E3C237803F0F10343F00C032370237843F00103237097F85630102403F0F10343F01F
:4028C000020387F8563015F80D3C07F5AA5703F0F10343F0020305F80D3C05F5A355CEF8004011352B78193703F0FD032B703B7895F809313A4F03F0DF0385F80931394B44
:402900003C601C700B78002403F0FD030B70137803F0FD0313703470BDE8F88F0A785407FCD53C468CF8009065E7224E3378012B3FF43CAF2C482D4A03782D4903F0F103D1
:4029400043F0020303701378102003F0F10343F00203137002F5A35208601E321378254903F0FD0313700B7892F809311C4F03F0DF0382F809311B4BA1F5075138600639D6
:4029800018700B78A2F5035203F0FD030D3A0B70137803F0FD03137003F09EFD1649284602F06AFE35700746FEE60B4AD046127832E700BF818AFF1F0D5000409064004018
:4029C00094640040A2430040B24300400E5000407C83FF1F60640040536400400F50004080E200E0848AFF1F655000400150004080E100E0686500407883FF1F43640040AE
:402A0000646400402DE9F04F90F800A083B0BAF1010F04460F469146984600F0E180BAF1040F76D08F4D0B268F4C904F237843F00103237003F04CFE8D498E4A0B7803F0ED
:402A4000EF030B70137803F0EF03137003F044FE89498A4A0B78DFF84CE203F0FE030B701378304603F0FE0313703B78844E03F0F10343F002033B709EF8003003F0F103B0
:402A800043F002038EF800303378DFF80CE203F0F10343F002033370237803F0F10343F00C032370237843F00103237097F85730102403F0F10343F0020387F857307378E0
:402AC00007F5AA5703F0F10343F00203737006F5A356CEF800401F3633781A3703F0FD0333703B7896F80931664F03F0DF0386F80931654B3C601C700B78002403F0FD03C7
:402B00000B70137803F0FD0313702C7003B0BDE8F08F544D2B78042B53D0534E337843F00103337003F0D4FD5149524A0B7803F0EF030B70137803F0EF03137003F0CCFD5E
:402B40004D494E4A0B78494803F0FE030B70137803F0FE031370037803F0F10343F00203037091F86D3C03F0F10343F0020381F86D3C92F84E3C03F0F10343F0020382F875
:402B80004E3C337803F0F10343F00C033370337843F00103337002F02BFF3C49504602F06BFD064685F800A0002E7FF43DAF2378012B00F03581042B03D00B2003B0BDE816
:402BC000F08F314D8DF807702A786378102A6BD02A78602A00F06681012003B0BDE8F08F204D2B78012B00F01B812948294A0378294903F0F10343F0020303701378102009
:402C000003F0F10343F00203137002F5A35208601E321378214903F0FD0313700B7892F80931184E03F0DF0382F80931164BA1F507513060063918700B78A2F5035203F0A5
:402C4000FD030D3A0B70137803F0FD03137003F043FC1349504602F00FFD85F800A00646A2E700BF818AFF1F0D5000400E5000409064004094640040A2430040B243004094
:402C80000050004080E200E0848AFF1F7C83FF1F655000400150004080E100E0686500407883FF1F0F500040884A1278D60693D4874E884A884845272F7000210127117082
:402CC00007708648022202703278BB408448DFF844E202F0FD023270DBB20DF10702814F02608EF80030804882233B707F4AFF2303701023117019467D4F0EF1204E3B601F
:402D00000EF5FB4ECEF800103078DFF8F8A180072B784FF0100239606D4BDFF8FCB1DFF8D0C1EFD5CAF800201978002011F0F00F1870CCF8002059D1B9F1000F3FF44CAFCD
:402D40009BF800006178102800F0B9809BF8000060287FF441AF674802601A7802F0F7021A70654B654A492028705FFA88F80020187082F80080594A01231370327801FA26
:402D800003F35F4CDFF88CE143F001035549DBB202F0FE023270C4F80090534F8EF80030534A4FF0320E81F800E0FF2310213B700B4617464D4C2070524811600360327832
:402DC000DFF840C1D2072978414C4FF010013B60DFF81CE1F2D5CCF800102078002310F0F0002370CEF800103FF490AE374B1B785C077FF5F1AE3C4B3A4E1A463B4952271E
:402E0000FF24002037701C7008701378002BFCD110232E4A2B70137813F0210FFBD0DBE6607800287FF4C9AE3749384A0B7803F0FE030B7013785907FCD5354E3770B8F124
:402E4000000F29D04FF0000C6746844638462F4ADFF8C8E0DFF8C8A0012188450ED33C1D8C4288BF002509D913785B07FCD5013189B28845357001D38C42F5D89EF80030BC
:402E80009B0606D5B8B19AF800407B1C09F807409FB2B845E1D860461B4A137843F00103137033E6134A0A4E10211160327802F0F7023270FDE69AF800300120E9E7034B9A
:402EC0001B78D8067FF54DAF86E600BF686500408E8AFF1F8C8AFF1F858AFF1F8D8AFF1F888AFF1F7F640040106400405064004000E100E080E200E08F8AFF1F948AFF1F7C
:402F0000908AFF1F80E100E00D500040606400404364004000640040848AFF1F64640040536400402DE9F047047890B0012C05468A469146984600F0D980042C76D0C74EE7
:402F40000B27C74CC74D237843F00103237003F0BFFBC549C54A0B7803F0EF030B70137803F0EF03137003F0B7FBC149C14A0B78384603F0FE030B701378BF4F03F0FE033C
:402F800013702B78DFF808E303F0F10343F002032B703B7803F0F10343F002033B7015F80E3C03F0F10343F0020305F80E3C237803F0F10343F00C032370237843F001030C
:402FC000237097F85630102403F0F10343F0020387F8563015F80D3C07F5AA5703F0F10343F0020305F80D3C05F5A355CEF8004011352B78193703F0FD032B703B7895F81A
:4030000009319E4F03F0DF0385F809319C4B3C601C700B78002403F0FD030B70137803F0FD031370347010B0BDE8F0878B4E3378042B52D08A4F3B7843F001033B7003F002
:4030400047FB8949894A0B7803F0EF030B70137803F0EF03137003F03FFB8549854A0B78804803F0FE030B70137803F0FE031370037803F0F10343F00203037091F86D3CCE
:4030800003F0F10343F0020381F86D3C92F84E3C03F0F10343F0020382F84E3C3B7803F0F10343F00C033B703B7843F001033B7002F09EFC7349204602F0DEFA0746347013
:4030C000002F7FF43EAF2B78012B00F0FB80042B03D00B2010B0BDE8F08708F10104E4B2402C43D9012010B0BDE8F0875B4E3378012B00F0E7806448644A0378644903F099
:40310000F10343F0020303701378102003F0F10343F00203137002F5A35208601E3213785C4903F0FD0313700B7892F80931534F03F0DF0382F80931514BA1F507513860B5
:40314000063918700B78A2F5035203F0FD030D3A0B70137803F0FD03137003F0BDF94E49204602F089FA34700746A9E7424649460DF101008DF800A003F085FCDFF800E160
:403180006B789EF80020102A00F0E9809EF80020602AA7D1394ADFF828C1102111609CF8002002F0F7028CF800203C4D3C483D4945228EF8002000222A7004700A709CF825
:4031C0000010394C5B00394E3948DBB201F0FD018CF80010C4F800D0364D3370364982230370FF232B700D46344C1020034622700860274803609CF80020254F92079EF852
:4032000000102F4C4FF010012B602B4EF2D539602078002310F0F000237031603FF403AF1C4A127852077FF55DAF01F1804101F5C8410A461E4D21485226FF242E700C7047
:4032400003701378002BFCD11023124A8EF80030137813F0210FFBD044E700BF818AFF1F0D5000400E5000409064004094640040A2430040B24300400F50004080E200E095
:40328000848AFF1F7C83FF1F655000400150004080E100E0686500407883FF1F8C8AFF1F858AFF1F8D8AFF1F888AFF1F006400407F6400401064004000E100E050640040E2
:4032C0008E8AFF1F6B78002B7FF403AF03F000FA274B1A7842F001021A701A7802F0FE021A7003F0F9F92349234A0B7803F0FE030B7013785E07FCD5204C84F800A0B8F105
:40330000000F0ED008F1FF3080B21B4A484409F1FF3919F8011F13785D07FCD548452170F7D1154A1378D807FCD51249144A0B7843F001030B70137803F0200303F0FF0031
:40334000002B3FF470AE01F5A25106310B78137803F0200303F0FF00002BF7D163E6094A1278D1063FF5BEAEDFF81CC01DE700BF936400400D5000406064004043640040D6
:4033800064640040686500408E8AFF1F8C4A8D4B12781978490644D5D2B2D007F0B42CD519784539052928D8DFE801F0035D2727034102F00A01082902F0DF0200F08D80AC
:4033C0000A291AD1997A7F4C41F0A0019972597A01F0020101F0FF00002900F0CC8021789C7A11F0080F0CBF0A210921764821436025102499721D70046091060FD51A780D
:40340000987A12F0080F0CBF0222012202436F499A720A78102002F0DF020A701870F0BC70471A78D206FBD410221A7070476848D97A0078DC68C0B2C9B26054D97A614854
:403440000131C9B2D972DC7A197C8C423BD3417A01F0020101F0FF0400295ED0817A5A4C41F0090110E002F0020101F0FF0089B1597A544801F0020101F0FF0400295AD0FE
:40348000817A514C41F09A0160261025817206702560B2E71D7A5C784A49A5422DD20C7A4D68E4B22C5D4A4F4A4EE4B23C704A4D4A4C06273770FF262E702070087A0130AE
:4034C000C0B2087299E7434E434C44490227FF2500203770257008708FE718783949452857D03C4802253C4E3C4C0570FF2700254A203770257008707FE7487A00F00200C1
:4035000000F0FF0448B3887A2F4C40F00A006026102588720E7025606FE72C482D4F01782D4E41F020012D4D01701220FF21387031702C7061E7254D264F2978264E41F00B
:4035400020012970254952253D70FF2535700C70817A41F0900181724FE71C481D4F01781D4E41F020011D4D01705220FF21387031702C7041E7154C164F2178164E41F060
:403580002001164D21705224FF213C703170287033E748780028B0D048680D4E00780D4CC0B20D4F30700D4D0626FF20267038700026012446202E700C7208701DE700BFC4
:4035C00068650040848AFF1F80E100E088650040006400407F6400401064004050640040082830B402D00B2030BC70470B7913B130BC092070478B78002BF9D1C87800288D
:40360000F6D14B780A2B1CD00C2B1DD0082BEFD10146442242F210730D4D0E4C55F821100D4D03FB01F303F6921384FB03140B49DB17C3EBE42300242A704C824B610C83F0
:40364000D2E702218422E5E70421C422E2E700BF006B0000815FFF6A0A590040848AFF1F012838B502D90923184638BD0B4DC0EBC00005EB800595F8203013B9062318460E
:4036800038BDEB6A0C46984795F82120002310420CBF1A4601222270E6E700BF848AFF1F2DE9F843554E0D46B6F85440D4B1A14228BF2546B6F8567006F15801641B2A46BE
:4036C0003944A4B203F0DFF9A6F8544024B9A6F856402846BDE8F8832F44A6F856702846BDE8F88396F89820454FDFF81CE1BB5C014603EB43030EEB83035B7803F0FF0072
:403700000BB9BDE8F883BA5CD2B24FEA420C0CEB02030EEB83031F89531E072BBFB242D8DFF8E8901001C84610F80930804498F8014003F00F0344EA0323023B9BB29F422B
:4037400036D8002F4CD07C1EA4B22E4BDFF8C09001341C44814499F8080003F8010B9C42F9D162440EEB820E4FF000098EF801909EF80530BD42DBB2A6F8547088F80230C5
:403780001E4C20D208462A4604F1580103F07BF9B4F856307F1B2B44A4F85470A4F856302846BDE8F883A6F854402046BDE8F88310F8097098F8013007F00F0743EA07278D
:4037C000023FBFB2BDE708463A4604F1580103F05AF9A4F85490A4F856903846BDE8F88362440EEB820E8EF801709EF805303846DBB2A6F8547088F8023082E7848AFF1FCC
:40380000208EFF1FDC8AFF1F948EFF1FFC5F004070600040082801D00B207047102901D909207047F8B501EB8101444EC900735A3144D80701D40520F8BD8868037803F0D3
:40384000F103037096F8A83291F82440022B18D83B495B00DBB201EB83004769CD180133387895F82CE0DBB201EB83056D6920EA0E0038700B4493F82C102B7823EA010321
:403880002B70022C18D82E486100CBB200EB83014F69C118013397F800E0DBB291F82C1000EB83054EEA01016D6939700344297893F82C300B432B70224B2349187886F83B
:4038C000A84200F0FB001870187840F0010018700B781D4DDB07FBD514464A2002F0F0FE1A4B1B4A29781B88128B9B1A1BB2236096F8A832FF2B1FD0022B18D8104A5B00DC
:40390000DBB202EB83014C69D0180133217890F82C50DBB202EB8300406921EA05012170134493F82C20037823EA02030370FF2386F8A8320020F8BD0020F8BDCC80FF1F17
:40394000006B00000859004009590040A25B0040848AFF1F2DE9F04172B640F2E32541F6E74740F6253642F25124924A924B61211170924803211980182391490370A2F279
:403980007C720B2010800B708E484F2191808E49037015818D4D0B70C7809373062752208B4A2F7081F8720112788A4FD2B28A483A7025F8DE6C894A0068A1F8924115780D
:4039C000723108604FF4F0701C4605F00105164602F076FE01E0032D0DD033784FF4F07003F0010343EA450502F06AFE013C05F00305F0D1FEE77A4A7A4D4FF480701080C8
:403A00000023794907201070784E2B70DFF834E2482577480D700227042513708EF80030377005701C4691F89A33724D43F01F0381F89A3392F89D33A5F1340643F00103E9
:403A400082F89D3391F8983343F0800381F8983392F8E43643F0040382F8E43604EB440306EB4303AA88586B0134002102F064FE072C05F10605F1D15F4D002404EB8403F4
:403A800006EB43032A890134596E186E02F0FBFF032C05F10A05F1D1584E594F002556F8043F13F0FF0E23F0FF0413D005F110530EF1FF3E03F157005FFA8EFE70445633A9
:403AC00040005B001A785978023383421155F9D101357544BE42E2D14A494B4A0B784B4C43F002030B701378494843F0020313702378484A43F0400323700178464B41F0BF
:403B00001001017007CA03C3444D45491A8007C903C544492A80E83307C903C342491A80B83D07C903C5414B2A80A5F6F65503CB3F4E2A78DFF810E13060716042F0080203
:403B400003CB2A709EF800303A4A3B4FA6F62A263578DBB297F80080106038485160EDB203F007011B0901705FFA88F882F83D3745F003033370324948F003033B70402398
:403B80000B70202180F89D304FF4397082F8F91902F096FD94E80F00DFF8B0E087F800801034442735708EF8007007C42380BDE8F08100BF004800408040004082400040FF
:403BC000864000408A4000408E400040004300400F010049A14600407011004825420040044000400640004008400040014000400B400040346B0000606B0000FCFFFF47EB
:403C0000A80000480350014013500140A0430040C24300403011004800510040C05100403C1100484811004854110048601100482251004032510040F94600406E580040F2
:403C40000959004009400040CF01004976580040734B93F8A101A8B12DE9F04F704A93F8A0319C3203EB831383B0D318019300F0D58093F84090B9F1000F04D1484603B0D0
:403C8000BDE8F08F7047D2F808310F2B00F2978000208446CCEB0905614BEDB2402D614F614A93F89810D3F8A4B16DD8002D6DD0ADB27B5C03EB430302EB83035B78002B44
:403CC000F7D0584B58485C5CE4B24FEA440808EB040300EB8303188980B2A84238BF188904F1FF3334BF80B22846072B3BD808EB040602EB8606F3889BB2C3F500739842E5
:403D000003D9F088C0F5007080B208EB040302EB8303DB78DFF814A143EA10232601DBB2B2448AF80030019B5FFA80FE13EB0C038AF801E00DD060B10138DFF8F4E080B2E9
:403D40001844B644013B13F8016F83428EF80860F9D14FF00003444402EB840463706379DBB28AF80230AC441FFA8CFCCCEB0905B9F1400FEDB20CBF0BF1010B4FF0000B7F
:403D8000402D4FF0010091D9402592E7002841D1234B234993F8A1316BB191F8A021013B013202F00302012081F8A13181F8A02103B0BDE8F08F012003B0BDE8F08F12F852
:403DC000041C184D184C6B5C164803EB430304EB83035B78144A002BF5D0435CDBB203EB430102EB8102591E072910890DD8D1880E49D0780C461B01C0B218551944002333
:403E00004B7053705379DBB28B70054A0023C2F8A4313DE7024BC3F8A4B1B9E718462EE7848AFF1F1C8EFF1F948EFF1FFC5F00407060004038B5FFF70BFF0028FBD1144BFC
:403E4000144D93F89810144C6B5C124803EB430304EB83035B78104A002BF5D0435CDBB203EB430102EB8102591E072910890DD8D1880A49D0780D461B0119440024C0B21E
:403E800058554C7054705379DBB28B7038BD00BF848AFF1F1C8EFF1F948EFF1FFC5F00402DE9F84F002900F0A180514F002588468246B946AB4605E025444028ADB220D017
:403EC000A84536D9D7F8AC61C5EB080496F84000A2B2C0F14004A4B2944228BF1446002CEAD00AEB05013044224602F0CCFD96F8400025442044C0B2402886F84000ADB2A0
:403F0000DED197F8A12187F8A8B1032A5ED899F8A001511C024402F00302364B02EB82121A4489F8A11182F840B0A845C7F8AC21C8D897F8A921012387F8A8312C492AB12F
:403F40002D492E4A09781370BDE8F88F91F8B42152BB2B482B4D047881F8B43104F0010303702978284B01F0FC0129700178274C41F00401017019781F4E01F0CF01197012
:403F8000197841F030011970197801F0F0011970197841F00F01197023780E2143F0010323708180A980327019481A490378144A43F0010303700B78012003430B70137897
:403FC0000343137087F8A901BDE8F88FD9F8B041621CC9F8B021FFF73BFE99F8A121032A95D90234C9F8B04100229EE7004FA0E7848AFF1F208BFF1F034F00407E640040A6
:40400000004F0040024F00400B4F0040014F0040A3430040B34300400B4904200B4A0C4B087092F8322093F8242002F00302012A05D093F8272082F0800283F827200122F1
:4040400083F82520704700BF0B600040FC5F0040948EFF1F09490220094A0A4B087092F822201A7E02F00302012A03D0DA7E82F08002DA7601225A76704700BF0B600040E7
:40408000FC5F0040948EFF1F08490120084A094B0870927C1A7B02F00302824203D0DA7B82F08002DA7301225A7370470B600040FC5F0040948EFF1F714AF0B413889BB25A
:4040C000002B00F0B1806F4D6F4C704E02210023297023703380916819B191680B7091684B806B49664FC8798B79118843EA002389B28B42674838BF3B8007783188604B3C
:40410000394489B23180128892B2002A00F09F8059685F4A0978C9B211705968013159601988013989B21980198889B2002900F0978059680978C9B2517059680131596087
:404140001988013989B21980198889B2002900F0898059680978C9B291705968013159601988013989B21980198889B200297BD059680978C9B2D1705968013159601988DE
:40418000013989B21980198889B200295CD059680978C9B211715968013159601988013989B21980198889B200295FD059680978C9B251715968013159601988013989B2B1
:4041C0001980198889B2002952D059680978C9B291715968013159601988013989B21980198889B2002945D059680978C9B2D1715A6801325A601A88013A92B21A801B88BF
:404200009BB2002B38D0037808232278224E82F080020F2702212270377029701F4A13700370F0BC01207047164C174D1A48022718491A4A277080260F242E7004700B7039
:4042400013700120F0BC704704230278DDE70378082B13D01049134602220A702A70DDE70123F2E70223F0E70323EEE70523ECE70623EAE70723E8E70823E6E71346C4E7B5
:40428000088FFF1F3C8EFF1F168FFF1F188FFF1F00600040428EFF1F1A8FFF1F208FFF1F2DE9F04F934A89B01378DBB2DD0609D51C060AD403F0400202F0FF01002A70D1E1
:4042C0009C064ED409B0BDE8F08F03F00F03012BF8D11378DBB213701378DBB2180600F13E83854CA36843B1A2680221834B1170A268198800235180A360814A137803F069
:404300006003202B00F05E81402B00F06281002B00F065817B4903230B700B781D06D1D4744A13781B06CDD47749784B08781B78774903430B7009788B42C3D171490C4601
:404340000B781078DBB2000605D42378DBB21370137803F00F0308789842F1D109B0BDE8F08F6C4A1378DBB2042B00F0F980062B00F0EF80022BD3D1674B604C1D7823882D
:404380005D482B449BB2238011708368002B00F0DC80836801221A70836822885A808160D3E05C4A1378DBB2042B00F0C180062B00F0B480022BB3D15048574D4E4C2E78DB
:4043C0000188314489B20180208880B2002800F0CE8261684A480978C9B201706168013161602188013989B22180218889B2002900F0BB8261680978C9B2417061680131D3
:4044000061602188013989B22180218889B2002900F0A88263681B78DBB283706368013363602388013B9BB2238023889BB2002B00F0A58263681978C9B2C1706168013121
:4044400061602188013989B22180218889B2002900F0138361680978C9B201716168013161602188013989B22180218889B2002900F01E8361680978C9B241716168013167
:4044800061602188013989B22180218889B2002900F0F58261680978C9B281716168013161602188013989B22180218889B2002900F0028361680978C9B2C1716168013162
:4044C00061602188013989B2218023889BB2002B00F0F0822B7808200B4C0A4923780F2783F08003022623700F701670074B1870287015E728600040088FFF1F188FFF1F0B
:40450000006000401A8FFF1F168FFF1F208FFF1F296000403C8EFF1F428EFF1F824B197831B11978814C41F0800100202170187000217F4B11709A683AB19A6801247D4817
:4045400014709A680088508099607B4903230B70E6E6774B9A68002AF7D09A680324EEE7764B74481A78038802F00F02023AD2B213449BB26E4C038023889BB2ABB1FAB143
:404580006F4801E00131DAB16568435C013ADBB22B706368D2B2013363602388013B9BB2238023889BB2002BECD1664B66481A700378614983F080030B2203700A70AFE627
:4045C0000022F2E701F0DAFD00283FF4A3AE5A49A3E613781E067FF59DAE53789AE611782380CBB21906527800F1CB81013A0A2A3FF690AE01A151F822F000BF974600001D
:4046000015430000FF48000015430000074700001543000015430000154300006947000015430000294600004548484C037922784749D2B2012ADBB291F8225040F03E82C8
:40464000022B3FF667AE0B4493F82850414EEDB283F82C508578EDB283F82850037900790B44C0B2307093F82C0093F82830984205D0394B1A702378002B40F05384374EBE
:404680002D49314C2F4A06238025002033700B702570107041E603F00303012B00F05782C0F07182022B7FF435AE254B9A7802F0FF00002A7FF42EAE1A7902F07F02531ECF
:4046C000072B3FF627AE264B0C2404FB02339978244D01F0FE019970D87028461201515D104401F07F015155597801F0FD025A701A795B78170600F12785012B0CBF08237F
:4047000009238370BBE70E4B074F9B78134EDBB209490D4C0B483B7006228025002332700A7025700370F8E5408EFF1F08600040088FFF1F188FFF1F1A8FFF1F29600040D0
:4047400000600040208FFF1F168FFF1F3E8EFF1FEC8DFF1F3F8EFF1F3D8EFF1F3C8EFF1F948EFF1FFC5F0040C64B9B7803F0FF002BB1C54B012893F822307FF4CBADC34BF0
:404780001B7898423FF47BAFC14BBF49BF4DC14C00220126287026701A709A70DA701A819A725A705A711A739A73DA739A829A755A735A741A769A76DA761A8483F8222079
:4047C0005A765A7783F8242083F8262083F827209A8583F82E2083F8252083F8292083F8302083F8322083F833201A8783F83A2083F8312083F8352083F83C2083F83E2042
:4048000083F83F20A3F8442083F8462083F83D2083F8412083F8482083F84A2083F84B20A3F8502083F8522083F8492083F84D2083F8542083F8562083F85720A3F85C20AF
:4048400083F85E2083F8552083F8592083F8602083F8622083F86320A3F8682083F86A2083F8612083F8652081F8282081F82C2081F8292081F82D20287800283FF4FFAE8B
:40488000287891F82240C0B2B04240F0B783824F82463E781C4606F0FE064FF002093E704FF040084FF0820C4FF00D0E09E0022800F02781032800F004810130092800F0B1
:4048C00087810128C6B2F2D19F8ABFB2072F01D80827A78291F82870002FEED181276F4D1F744FF0030BC2F3800783F80CB042F0040283F811E083F80DA0EE55DDE703F0BF
:404900000303012B00F02381C0F07A83022B7FF401AD5C4B9A7802F0FF00002A7FF4FAAC1B7903F07F035A1E072A3FF6F3AC58490C2202FB031291781B0141F00101917009
:40494000D070517841F002015170127912F0800F534A1A4414BF8D23892393708FE651490B70DAE418462B78B6E50120FBE7297808293FF4B1AD4B490B701370B6E5032056
:40498000F1E70A2A3FF6C6AC01A151F822F000BF3F4A00001543000015430000154300001543000015430000DF49000015430000D149000015430000BD4900000122314BB0
:4049C00022801B79384A13446360FFF775FBFBE52E4B012222806360FFF76EFBF4E5294AD378012B00F0CB83D378022B00F0B383D378032B7FF4E6AD9378002B00F0CA83AE
:404A00002A4B197851B1002101E0187830B11D7801319078C9B281422B44F6D3194A917819B19278802A00F045831A78002A3FF471AC1A7822806360FFF73EFBC4E513F036
:404A4000030300F03082022B7FF464AC0D4A238012790F4B02F07F020C2101FB02330A4A9B7802F12401DBB2002082F8243082F825006160FFF720FBA6E5042073E7062094
:404A800071E700BF00600040EC8DFF1F3E8EFF1F948EFF1F3D8EFF1F418EFF1F048FFF1FFC5F00401A8FFF1F148EFF1F806B0000052058E7082056E7072054E700235B68D9
:404AC000FFDE9F8DBFB23F2F35D8A4F82C8091F82970002F7FF4F1AE4FF0090584F8280084F8249083F829504FF00005C2F34000084483F8255042F0020280F83460042026
:404B0000DFE61F8CBFB23F2F1BD8A4F8208091F82970002F7FF4D1AE02F001070F4484F81CC042F00102207683F81DE083F819A087F83060C1E691F82970002F7FF4BDAEB3
:404B4000CAE791F82970002F7FF4B7AEE4E719490B79012B3FF6DEAB8878174A0B79174F134493F83820164922EA0002154D164C83F83820062080260023387008702E708A
:404B80002370FFF7CABB0B4B9B78012B7FF4C2AB0E480A4F03780A490A4D0B4C03F0FD0303700622802600233A700A702E702370FFF7B3BB00600040EC8DFF1F3C8EFF1F18
:404BC0001A8FFF1F168FFF1F208FFF1F418EFF1F002201209A7583F8220083F82E00BA48BA4E047891F822105A829A8AB84891B201F001020A4491B2D9831A8C012C0A4453
:404C000091B201F001020A4491B259859A8DB14C0A4491B201F001020A4491B2D9861A8F18BF00200A4491B201F001020A4491B2A3F84210B3F844200C250A4491B201F0D0
:404C400001020A4491B2A3F84E10B3F8502030600A4491B201F001020A4491B2A3F85A10B3F85C200A4492B202F001010A4492B2A3F86620B3F868202570597C964A0029DB
:404C800000F0E881127C12F0800F944A06BF082191709570598A8F4AC9B29171598A904DC1F30721D171598A0C20C9B21171598A894CC1F30721517128705A7F002A00F0A6
:404CC000C581227F12F0800F864A06BF082191709070D98B824AC9B29171D98B824DC1F30721D171D98B0C20C9B21171D98B7A4CC1F307215171287093F82920002A00F0A4
:404D0000A18194F8282012F0800F784A06BF082191709070598D744AC9B29171598D744DC1F30721D171598D0C20C9B21171598D694CC1F307215171287093F83520002A6B
:404D400000F07C8194F8342012F0800F694A06BF082191709070D98E654AC9B29171D98E654DC1F30721D171D98E0C20C9B21171D98E594CC1F307215171287093F84120AB
:404D8000002A00F0578194F8402012F0800F5B4A06BF082191709070B3F84210564AC9B29171B3F84210564DC1F30721D171B3F842100C20C9B21171B3F84210464CC1F3AF
:404DC00007215171287093F84D20002A00F02E8194F84C2012F0800F4A4A06BF082191709070B3F84E10464AC9B29171B3F84E10454DC1F30721D171B3F84E100C20C9B2E5
:404E00001171B3F84E10344CC1F307215171287093F85920002A00F0058194F8582012F0800F3A4A06BF082191709070B3F85A10354AC9B29171B3F85A10354DC1F3072101
:404E4000D171B3F85A100C20C9B21171B3F85A10214CC1F307215171287093F86520002A00F0DC8094F8642012F0800F294A0ABF082190709170B3F86610254AC9B2917160
:404E8000B3F866102448C1F30721D171B3F86610FF24C9B21171B3F86630C3F3072353710470FFF7ECBB02211C4A218011781C4AC9B202F1240082F8241082F82530606028
:404EC000FFF7FAF8FFF780BB3E8EFF1F008FFF1F8C6C000080600040948EFF1F0C600040906000401C600040A06000402C600040B06000403C600040C06000404C6000408E
:404F0000D06000405C600040E06000406C600040F06000407C6000400A600040418EFF1FEC8DFF1F237891F82220DBB2012B62D1307800F0FF02002800F09080012A7FF4EE
:404F40009EAB91F8293003F0FF0413BB924B9348DC7682270D24022640251F771E761D845C775A7682701C8C8D4AC4F3072404701C8CE4B24470D88BC0B29071D88BC0F3BE
:404F80000720D071D88BC0B21071DB8BC3F30723537191F8293003F0FF02002B7FF46FAB7D48804B0121032702264025092480F8272080F8287080F82460858580F829404F
:404FC00080F825209970828D7749C2F307221A70828DD2B25A70438DDBB28B71438DC3F30723CB71438DDBB20B71438DC3F307234B71FFF744BB00231B7AFFDE5368FFDEAB
:405000006A4B9B78012B7FF485A96948694F037869496A4D6A4C43F00203C1E5694A8021917028E7684A80219170FFE6674A80219170D6E6664A80219170ADE6654A802119
:40504000917088E6574A8021917063E6534A802191703EE6604A802191701BE691F8282002F0FF07002A7FF40AAB4B485A4A0D21812603250824C773067405738482417423
:4050800043739370838A5549C3F307231370838ADBB25370438ADBB28B71438AC3F30723CB71438ADBB20B71438AC3F307234B71FFF7E5BA4A4E03AD0FCE0FC53168494E90
:4050C0002222494B3270297000211B780846DBB2464D01932F78464D43EA072301932F78444D43EA074301932F78023D43EA076301936B780327DBB202932D78324643EAF5
:4051000005233D4D02932D78777043EA05433B4D02932D7801AE43EA05630293735C08AF03F00F053D4407EB1313013115F8145C13F8143C0829D07050711571937002F1AE
:405140000402EBD1274B70E4012B16BF0D2384708370FFF794BA9378224A92F82220002B7FF4D8A8264B63606368DA7863689B7843EA02232380FEF79FFFFFF725BA214AF3
:405180001849122391F8221062602380FEF794FFFFF71ABA1C4B41E4948EFF1F1C600040906000402C600040A060004000600040418EFF1F3C8EFF1F1A8FFF1F168FFF1F24
:4051C000208FFF1F7C6000406C6000405C6000404C6000403C6000400C60004080600040E86C0000EC8DFF1F0301004904010049EC46004002010049050100490601004947
:40520000A46C0000906C0000806B000030B4184B18491C7891F8D63064082343164881F8D6300268B1F8D43001329BB20260EBB1124D002304E0B1F8D42092B29A4215D957
:4052400003F1080201EB8202D2F894200133107D9BB20442EFD01069D060286820F07F401061B1F8D42092B29A42E9D830BC7047824500403C8CFF1F8084FF1F18E000E0AE
:4052800030B4184B18491C7891F88E3004F00F042343164881F88E300268B1F88C3001329BB20260E3B1124D002304E0B1F88C2092B29A4214D903F1080201EB8202D26CB0
:4052C0000133107D9BB20442F0D01069D060286820F07F401061B1F88C2092B29A42EAD830BC7047834500403C8CFF1F8084FF1F18E000E030B4184B18491C7891F8463024
:40530000C4F3C0042343164881F846300268B1F8443001329BB20260E3B1124D002304E0B1F8442092B29A4214D903F1080201EB820252680133107D9BB20442F0D010690D
:40534000D060286820F07F401061B1F8442092B29A42EAD830BC70478C4500403C8CFF1F8084FF1F18E000E00378102B01D9092070470246407801280DD00028F7D170B420
:405380009D002E4CE918C900665A2144B60720D4052070BC7047294903EB8303DB00C85A0B44410701D405207047D07801282CD025D30228DBD1996800200A7802F0F10240
:4053C00042F00C020A709A68137843F0010313707047D278012A2AD027D3022A23D18E680421327842F0010232702B4404EBC3039A68137803F0F1030B431370C9E79A68B5
:40540000137803F0F10313707047996800200A7802F0F10242F00C020A709A68137803F0FE03137070470920B3E70221DDE78E680621327802F0FE023270D6E7CC80FF1F97
:40544000112801D90920704700EB80000D4BC0001A5A520701D405207047012909D00229F0D1184482680020137843F0010313707047184482680020137803F0FE0313707F
:40548000704700BFCC80FF1F112803D900230B700920704700EB80000A4BC0001A5A920701D405207047184483681B7803F0100303F0FF0013B901230B70704702230B70A7
:4054C00000207047CC80FF1FF8B50378102B01D90920F8BD9E00354DF218D200AC5A1F4624072A4401D40520F8BD8478012C49D03FD3022C2CD0F218D200AC5A2A442407A8
:40550000F1D5407801284FD04CD30228E0D1528B0C46334405EBC3031146D88B1A6A234D9047002C3CD007EB870705EBC7077A680020B2F844309BB2083302EB83035F607A
:405540007A68B2F8443001339BB2A2F84430F8BD9468237803F0F10343F0040323709268137843F0010313700378102BB0D89E00C1E79268137803F0F10343F002031370B2
:405580000378F2E79468237803F0F10343F0060323709268137803F0FE0313700378E4E72046F8BD128BB3E7928BB1E7CC80FF1FF0B570B1012804D0002313800923184694
:4055C000F0BD1388032B0BD8002313800E231846F0BD1388072B0BD80E2310801846F0BD1D4B042418680023086014801846F0BDDFF880E0194D1A4C1A4B1B4F1B4E3F78B8
:4056000005339EF800C0367895F800E0257813F8054C1B7836041B0443EA0423144C46EA0C2624783E432B4346EA0E6543EA04642E0A4FEA142E2F0C0D700C714E70034614
:40564000260C2D0E240E082081F805E08F70CD708E71CC711080B2E7FC6C000002010049010100490001004903010049EC46004006010049040100490128F0B504D00428F0
:405680002CD00B231846F0BD0B78002BF9D14A88B2F57A6F45D000F28380B2F57A7F00F0D180B2F5FA6FECD11125674E674F30783A8800F0070092B295420BD0644C2478DF
:4056C000E4B200282FD1002A2DD13D80327802F0BF02327008685F4A1060D3E74B88642B1DD0B3F5C87FCCD10B245B4D5B4E2A78338802F007009BB2A3420BD0544A1278DF
:40570000D2B2002857D1002B55D134802B7803F0BF032B7008684F4A00235060B2E72E24E3E70825C1E714F0010429D04C4EDFF83CE14C4F00204FF0010C387086F800C0BA
:405740008EF8000016F8080C0EF16E0E00F07F0006F8080C9EF80000060711D43E4607202EF8802CAEF1800E387032783D4812F00102FAD1364F3E7806F0FE063E70027057
:40578000334A1078C0074FD56FF4687C62441046354E0324358014700278D707FCD499E741F2707082424BD042F2283082427FF468AF032579E702F0020202F0FF051AB31E
:4057C000274E2A4F274A00204FF0020E107086F800E0387016F8080C723700F07F0006F8080C387806070FD41046072627F8843C167003781B4A13F00103FAD1144E3078C5
:4058000000F0FD0030701370114B1878800711D56FF4687213441A46134D03202C8018701378DB07FCD475E7084805801078044314704FE7094A14801A782A431A7069E79D
:40584000052532E7242530E78240004080400040A24300407883FF1F864000408440004010400040014000400240004014400040102801D909207047F8B504460D4600F0E8
:4058800027FF0B4B04EB840403EBC404E36826699E1B63EB030700F01FFF002E77F1000302DB2E600020F8BD16F18076F9E700BFCC80FF1F70B504460D4600F009FF104A53
:4058C00004EB840402EBC4035C681A7D94F84630134004D12B7000F0FFFE002070BD094E94F84610736821EA02020121013384F846202970736000F0EFFE002070BD00BF73
:40590000CC80FF1F8084FF1FF8B50378102B01D90920F8BD354E03EB8303DB00F25AF418130701D40520F8BD0546236A218BE08B984700F0CDFE6268217D92F8463023EACF
:40594000010382F8463000F0C7FE2C7800F0C0FEA5002F1906EBC7077A68397D92F8463023EA010382F8463000F0B6FED7F804E0BEF8440080B2B8B3DEF824309F424FF0AF
:40598000000311D0BEF8442001339BB292B203F1080193420EEB810125D24A689742F1D14FF6FF7293421ED0BEF844200EF1240092B2013AD21A93420DD2034410441946C4
:4059C00013F8012FD2B283420A70F8D12C4406EBC406D6F804E0BEF844300020013B9BB2AEF84430F8BD0020F8BD00BFCC80FF1FF8B5294A29481378294903F0F10343F0BB
:405A0000080313700378A2F6B34203F0F10343F0080303700B78234D43F002030B70137843F0020313702C786CBB1F4B02F503520D32012614701E7000F04AFE1B4A13782B
:405A400043F01003137000F047FE1949194A1A4B0F200F68107008201870A1F68831174A10230B60E0211170DFF868C0DFF868E013481449144A8CF800302E700470C7F89E
:405A800050E00C701470114A11491378102043F0020313700860F8BD6550004001500040A2430040268EFF1F886500409865004008ED00E02D6400403D64004004E400E038
:405AC0008E8AFF1F8F8AFF1F8C8AFF1F7F64004000E100E0848AFF1F8D330000014B1870704700BF71640040014B1870704700BF7565004038B5074B1B68DB0300D438BD09
:405B0000054C04F1140554F8043B03B19847AC42F9D138BD10E000E0288EFF1F024A137843F0010313707047F6460040704700BF030702D5014BC9B219707047634500408D
:405B4000C20702D5094BCAB21A70830702D5084BCAB21A70420702D5064BCAB21A70030702D5054BC9B21970704700BF18450040194500401A4500401B450040014B186011
:405B8000704700BF24650040014B1878704700BF67650040024A137803F07F031370704774650040014B1860704700BF24640040014B1878704700BF67640040024A137873
:405BC00003F07F031370704777650040830702D5104BCAB21A70420702D50F4BCAB21A70030702D50D4BCAB21A70C20602D50C4BCAB21A70830602D50A4BCAB21A7042065A
:405C000002D5094BCAB21A70030602D5074BC9B21970704711450040124500401345004014450040154500401645004017450040014B1B78704700BF8F45004030B4084B77
:405C4000084C09490022032580201A755A759A75DA751A765A769A762570087030BC7047288EFF1F286000400860004010B5134CE37E2BB1124A137843F08003137010BD26
:405C80001049114A4FF0FF330B60136000F020FD0E4A137843F01003137000F01DFD0C4A1378190704D50B490B6813781B07FBD4094A002101231170E376DBE7288EFF1FF9
:405CC0007465004024650040046500409765004067650040446500408765004010B5134C237F2BB1124A137843F08003137010BD1049114A4FF0FF330B60136000F0E8FC56
:405D00000E4A137843F01003137000F0E5FC0C4A1378190704D50B490B6813781B07FBD4094A0021012311702377DBE7288EFF1F77650040246400400464004097640040B9
:405D40006764004044640040876400402DE9F043B14C91B006460F46236A03A81421984738B3A38EC3F11402904225D8184403AA85B203F1010EE11812F8010B1FFA8EF3F0
:405D8000AB4281F83800DFF89082F2D1A8F8343056B19F4208D808F138093A463046494600F062FE002873D194F838609A4FAE4220D911B0BDE8F083032208A916230E2541
:405DC00001A88DF804208DF805308DF80050CDF808D0FAF7BDFA636A08A89DF8041098470023E363A36323646364A364A38611B0BDE8F083202208A8002100F09DFC97F887
:405E000039208DF82060531E8DF82120202B2AD8DFE803F09D294C29292939294C2984293929DA293929392939293929BB293929112966295D0094F83A6094F83B5094F893
:405E40003C0094F83D1094F83E2094F83F308DF824608DF825508DF826008DF827108DF828208DF829306D4A0023536008A8A36302F114019360D3601361A386FAF7A6FB73
:405E800011B0BDE8F08394F83A308DF82430EAE70023C8F83830C8F83C30C8F84030C8F84430C8F84830A8F8343082E794F83A0094F83B1094F83C2094F83D308DF82400C2
:405EC0008DF825108DF826208DF82730CBE794F83A2094F83B308DF824208DF82530C2E794F83A200021531E09910A918DF82420072BB8D801A252F823F000BF756000009A
:405F000075600000756000006360000063600000675E0000596000002F60000094F83A20002309930A930B938DF824203A4B002A40F0118193F83B1093F83C2093F83D3055
:405F40008DF828108DF829208DF82A308BE7721F94F83A5094F83B0094F83C100023D2B20C938DF827200A930B93CDF833308DF824508DF825008DF82610002A3FF473AFAD
:405F800027490AA800F07FFD6DE7721F94F83A5094F83B0094F83C100023D2B20D9309938DF836200A930B930C938DF824508DF825008DF83710002A3FF455AF18490DF1F2
:405FC000260000F060FD4EE794F83B20002302F03F0094F83A7094F83C500E9309930A930B930C930D93411ED309C2F380128DF83A008DF83D308DF83E208DF83B708DF8EE
:406000003C5008293FF62FAFDFE801F0947A600C0C410C4E570000BF288EFF1F608EFF1F658EFF1F94F83E308DF824301BE794F83B5094F83C0094F83D1094F83E2094F8AD
:406040003F308DF826508DF828008DF827108DF82A208DF8293006E794F83B308DF8263001E794F83C2094F83B3043EA0223ADF82830F8E694F83D1094F83C3094F83B2035
:4060800043EA0123ADF828308DF82620EBE694F83D6094F83E5094F83F0094F8401094F8412094F84230D2E694F83E2094F83F308DF824208DF82530D5E694F83D2094F8B1
:4060C0003E308DF824208DF82530CCE6A6F1080294F83D0094F83E1094F83F30D2B28DF838208DF824008DF825108DF83930002A3FF4B9AE20490DF1260000F0C4FCB2E653
:40610000A6F1080294F83D0094F83E1094F83F30D2B28DF833208DF824008DF825108DF82630002A3FF49FAE13490DF1270000F0AAFC98E694F83D0094F83E1094F83F20B9
:4061400094F840308DF824008DF825108DF826208DF8273087E6012A7FF485AE93F83D0093F83C2093F83B1042EA0023ADF82A308DF8281077E600BF688EFF1F70B4544A59
:40618000137803F00303012B5AD0022B09D0514A0023D2F8D810CB5C022B15D0002070BC704713794B4A03F07F0303EB430302EB830393F87630DBB2022BEFD8454AD2F80B
:4061C000D810CB5C022BE9D1414B197992F8DC30C9B203EB430302EB830393F876308B4231D092F8DD3003EB430302EB830393F87630994214BFFF2101213548037813F07A
:40620000800F437821D1DBB2202B2CD0222BC5D1837802EB4100A0F8F430114491F8EC30062443F002038026002581F8EC300120147582F8F24082F8EE6082F8F850AEE755
:406240001379DBB2B8E70021D7E7212BA6D170BC214BC1EBC1010B440721A2F8E010C2F8E430FDF729BF1C48C1EBC10303440720A2F8E0001144C2F8E43091F8EC30042566
:4062800043F001038024002081F8EC30157582F8EE40A2F8F000D2F8E8100E4B29B1D3F8E8100870D3F8E83058800949094CC8798B79B2F8E01043EA002389B28B4238BFD2
:4062C000A4F8E0300B2382F8F230012067E700BF00600040288EFF1F8083FF1F4A2303FB00F000F0EDB900BF012801D90920704710B5074CC0EBC00004EB800423790BB97C
:40630000062010BDE368984723699847002010BDA08AFF1F012801D90920704770B5C0EBC000084E840035192B790BB9062070BDAB68984730596B699847AB690120984708
:40634000002070BDA08AFF1F012801D90920704710B5074CC0EBC00004EB8004207930B1E3689847236998470020207110BD10BDA08AFF1F2DE9F04F8EB20027B41947EB52
:406380000705A4197D414FEA85194FEA841849EA946914EB080445EB0905AB00A10043EA94738C1943EB0705AB00A10043EA94738C1943EB07056B0143EAD463610183B00E
:4063C0000C461D46074692460846404A1946002300F0BAF94FF47A720023804689462046294600F0B1F9DFF8ECE0394BA6FB0EBC1A79CDE900BCA346AC463AB193F8202048
:40640000002A60D0062003B0BDE8F08F07F1FF3EBEF1030F28D8DFE80EF00221042444464D4614F1FF3645F1FF37002F08BFB6F1FF3F19D2002D08BF012C224614D00024E5
:40644000E100091B8900581801250571013A00205A50CAF8004003B0BDE8F08F04460D46DFE7DDE90045DCE793F820204ABBBEF1030F26D8DFE80EF01902041683468C464F
:406480001BF1FF304CF1FF31002908BFB0F1FF3F17D2BCF1000F08BFBBF1010F5A4610D00124CDE7DDE900BCEAE718F1FF3049F1FF31002908BFB0F1FF3F02D2C346CC4631
:4064C000E7E70A209FE707F1FF3ED0E740420F00A08AFF1F808D5B0070B5384A38481378384903F0F10343F00C0313700378A0F66D4003F0F10343F0020380F86D3C0B7891
:40650000A1F64E4103F0F10343F00C0381F84E3C12F8013C2C4C03F0F10343F00C0302F8013C12F8013C43F0010302F8013C037843F0010303700B7843F001030B70237840
:40654000A3B1224C00F0C4F82378214943F0200323700B781F4A43F010030B70137843F010031370BDE8704000F0B6B81A4B013A0F2102F5A252197017321378990604D57B
:4065800016490B7813789B06FBD400F0A1F80F4B134E1A78134D42F001021A701A7802F0FE021A7000F098F80F4810490023012236782D7803700B702270C2E70E5000406B
:4065C0000F50004000500040218FFF1F93640040906400409464004083640040536400406064004064640040806400408464004008B500F075F803680C2B00D0FEE7FEE72F
:4066000080B5134FF7B1134E002556F80C0C56F8084C56F8102C03463CB1043A52F8041F43F8041B191AA142F8D156F8040C1A4620B142F8045BD11A8842FAD1013F06F10A
:406640001006E2D100F052F8FAF75EFFFEE700BF01000000386D00000E4B0F4A0F491A600B680F4A43F400730E480B600023032B94BF50F823100C490133302B42F8041F64
:40668000F5D10A4B0A4918780A4A0B4B08701A60FDF760B90CED00E00004FA0514ED00E0FC7FFF1F00000000F1650000BC760040C080FF1F0080FF1F08ED00E00000000044
:4066C0000230800803D000BF01380046FCD17047EFF3108072B6704780F31088704700BF014B1868704700BFF083FF1F0E4B70B51E460E4C0025E41AA410A54204D056F88A
:40670000253098470135F8E700F0FCFA084B094C1E46E41AA4100025A54204D056F8253098470135F8E770BD106D0000106D0000106D0000186D000003460244934202D096
:4067400003F8011BFAE7704753B94AB9002908BF00281CBF4FF0FF314FF0FF3000F082B9ADF1080C6DE904CE00F006F8DDF804E0DDE9022304B070472DE9F04F8C460C4610
:406780000546099E002B4FD18A4217466BD9B2FA82FEBEF1000F0BD0CEF1200520FA05F501FA0EF345EA030C02FA0EF700FA0EF5390CBCFBF1F0BAB201FB10C300FB02F82D
:4067C0004FEA154C4CEA0344A04509D9E41900F1FF3380F02881A04540F2258102383C44C8EB0404B4FBF1F301FB134C03FB02F2ACB244EA0C418A4209D9C91903F1FF34E0
:4068000080F00F818A4240F20C81023B39448A1A43EA00400021002E63D022FA0EF2002386E80C00BDE8F08F8B4207D9002E56D0002186E811000846BDE8F08FB3FA83F16F
:40684000002940F09380A34202D3824200F2FE80851A64EB03039C460120002E41D086E82010BDE8F08F12B90127B7FBF2F7B7FA87FEBEF1000F36D1E41B4FEA17481FFA8D
:4068800087F90121B4FBF8F308FB134409FB03F24FEA154C4CEA0444A24207D9E41903F1FF3002D2A24200F2D3800346A41AB4FBF8F008FB104809FB00F9ACB244EA084284
:4068C000914507D9D21900F1FF3402D2914500F2BA802046C9EB020240EA03409BE731463046BDE8F08F07FA0EF7CEF1200C24FA0CF34FEA1748B3FBF8FA1FFA87F908FBFD
:406900001A3520FA0CFC04FA0EF40AFB09FB4CEA040C4FEA1C4242EA05439B4500FA0EF50AD9DB190AF1FF3280F08B809B4540F28880AAF1020A3B44CBEB0303B3FBF8F09F
:4069400008FB103300FB09F41FFA8CFC4CEA03439C4207D9DB1900F1FF326ED29C426CD902383B441C1B40EA0A418BE7C1F1200E8B4022FA0EFC4CEA030C24FA0EF74FEA3C
:406980001C49B7FBF9FA1FFA8CF309FB1A7720FA0EF88C400AFB03F548EA04044FEA144848EA0747BD4202FA01F200FA01FB09D917EB0C070AF1FF3041D2BD423FD9AAF19E
:4069C000020A67447F1BB7FBF9F509FB157705FB03F3A4B244EA0747BB4208D917EB0C0705F1FF3027D2BB4225D9023D674445EA0A40A0FB0289FF1A4F4545464C4614D308
:406A000029D066B3BBEB050367EB040707FA0EFECB40CF404EEA030386E888000021BDE8F08F2346F3E61846DAE6B8EB020569EB0C040138E5E70546D9E7104692E7824684
:406A4000C0E7924678E702383A4443E7084604E7023B3C442AE7C345E7D33C46D1E73146BDE8F08F704700BF10B501390244904207D010F8013B11F8014FA342F7D0181BD8
:406A800010BD002010BD10B5431E0A44914204D011F8014B03F8014FF8E710BD00000000D8FCFF7F01000000FFFFFFFF00010000DD5C0000BD5B0000B15B0000A55B000008
:406AC000DD5A0000FFFFFFFF000100006D5C0000955B0000895B00007D5B0000E95A0000010407030101040703010100000105050705070305070301080100020205000046
:406B000000010000000000000004000000000000001000003D510040285B00403D510040285B00403D510040285B00401010202040400000004F00400C0040510040300011
:406B400000000140001000140140000800400140000A004C014000021050014010000000104500401011004808001845004018110048080000500140201100481000000066
:406B8000040309042C0343007900700072006500730073002000530065006D00690063006F006E0064007500630074006F00720010035500530042005500410052005400F1
:406BC0003803430044004300200043006F006D006D0075006E00690063006100740069006F006E00200049006E007400650072006600610063006500260343004400430076
:406C000020004400610074006100200049006E00740065007200660061006300650018034B0069006F006E00690078002C00200049006E00630032034500760061006C0059
:406C400075006100740069006F006E0020004B0069007400200028004300790070007200650073007300290020034200750073002D0070006F007700650072006500640072
:406C8000200043004400430000000000020A00001201000202020008B504010601000506800100000902430002010780FA090400000102020103052400100104240202051D
:406CC0002406000105240100010705810308000A09040100020A00000407058202400000070503024000000030313233343536373839414243444546000000009CD93668A8
:406D000043000000F8B500BFF8BC08BC9E4670474D00000059660000F8B500BFF8BC08BC9E46704729000000386D0000C880FF1F30030000300B0000000000000E00000056
:406D40003C8CFF1F635000400000000000000000010000000000010002000800315B0000000000000E000000848CFF1F1850004000000000000000000100000000000100BC
:406D800002000100415B0000000000000E000000848CFF1F195000400000000000000000020000000000010002000200415B0000000000000E000000848CFF1F1A500040C6
:406DC0000000000000000000040000000000010002000400415B0000000000000E000000848CFF1F1B5000400000000000000000080000000000010002000800415B000056
:406E00000000000001000000148DFF1F1C5000400000000000000000010000000000000000000000000000000000000001000000148DFF1F1D500040000000000000000078
:406E4000010000000000000000000000000000000100000001000000148DFF1F1E500040000000000000000001000000000000000000000000000000020000000E00000091
:406E8000CC8CFF1F115000400000000000000000010000000000010002000200CD5B0000000000000E000000CC8CFF1F125000400000000000000000020000000000010064
:406EC00002000400CD5B0000000000000E000000CC8CFF1F135000400000000000000000040000000000010002000800CD5B0000000000000E000000CC8CFF1F14500040DE
:406F00000000000000000000080000000000010002001000CD5B0000000000000E000000CC8CFF1F155000400000000000000000100000000000010002002000CD5B00008A
:406F4000000000000E000000CC8CFF1F165000400000000000000000200000000000010002004000CD5B0000000000000E000000CC8CFF1F17500040000000000000000031
:406F8000400000000000010002008000CD5B000000000000060000005C8DFF1F0D500040000000000000000000000000000000000000000000000000000000000600000036
:406FC000A48DFF1F0F50004000000000000000000000000000000000000000000000000000000000FF000000000028230000900100C2010000000800C20100000008000032
:407000000000000000000000000000000000000000000000000000000000000000000000006D000000000000000000000000000000000000000000000000000000000000E3
:4070400000000000000000000000000000000000000000000000000000000000000000009083FF1F00000000000000000000000000000000000000000000000000000000DF
:4070800000000000000000000000000000000000000000000000000000000000000000000000000000000000000000000000000000000000000000000000000000000000D0
:4070C0000000000000000000000000000000000000000000000000000000000000000000000000000000000000000000000000000000000000000000000000000000000090
:40710000000000000000000000000000000000000000000000000000000000000000000000000000000000000000000000000000000000000000000000000000000000004F
:40714000000000000000000000000000000000000000000000000000000000000000000000000000000000000000000000000000000000000000000000000000000000000F
:020000040003F7
:0200000480007A
:4000000002450040024F0040065200400764004002650040560001403E010140530201404E0301406504014052050140600601404C070140540801404F090140490A014038
:400040005A0B01405A0C01404A0D01404A0E0140380F0140681401404715014065160140461701405A18014054190140451A01405D1B014006400140114101400D42014062
