:4000000000800020110000009575000095750000144A80B5144B1268144F1A60F7B1144E002556F80C4C56F8080C56F8102C234638B1043A52F8041F43F8041B191B8142A3
:40004000F8D156F8040C1A4620B142F8045BD11A8842FAD1013F06F11006E2D109F096FE00F036F8FA460040BC7600400100000004B3000010B5054C237833B9044B13B10A
:400080000448AFF300800123237010BD9087FF1F00000000A8AF0000084B10B51BB108490848AFF300800848036803B910BD074B002BFBD0BDE81040184700BF000000007C
:4000C0009487FF1FA8AF0000C080FF1F000000002DE98048ADF5137D62B6AE4B1B68002B01F03784AC4BAD491A686FF07F4542F002021A601A68AA4842F001021A601A68B0
:40010000002422F002021A600D601A68A54942F004021A6004600B784BB9A34AA34CA4480626167047250122257003700A70A14C09F01EFE2378A04943F0100323700B7824
:400140009E4A43F020030B70137843F02003137009F012FE9A4B1B781C2B01F29680112B01F09380974A114601EB43139968187B06920B780122824023EA02030B70854EE3
:4001800009F0F4FA904D042008F0DCFF052008F0D9FF8E4C8E488F498F4A904B7560357FB460F06031617261B3613746002D01F05C838B4A00258B4B15708B488B498C4AA1
:4001C0008C4C8D4E8D4F1D708D4B3D702570357005700D704FF4000015704FF080714FF48072186019604FF400701A604FF48061844A1860196013788349844843F00103AA
:4002000013700322802302700B70012009F0A8FD7F4B04221A707F4B7F4993F805310D60032B01F21D837B4A591C92F804217948134403F00303774A03EB831313441A46D6
:4002400080F8051183F84050744B6C491A604FF000006A4B00221B78002BFAD00B780870002BF6D02378002BF1D06D4B6D481A705A706D4B02701B78DFF8F891DBB2591E04
:40028000072941F2E082684B5B78DBB25A1E072A41F2CB82DFF8E08198F80030002B00F02285614B1A78002A00F01D855F4A11460892127842B198F80020082A04D81B7821
:4002C000082B9CBF0A4613783B493C4A0B78584D43F040030B701378564C43F0400313700FCD0FC495E8070004F10C0605F10C0784E807000FCF0FC6DFF880C1254B4E4AC3
:400300004E494FF0FF0E0020283428351A62C3F824C0D9629862A3F830E097E8070086E807000FCD0FC495E8070084E80700444B444D454C18782978227820F0010001F0E7
:400340009E0122F001021870297022703F4A114F82F800E03E483F491A783F4D3F4C7863B9633F483F49404E22F002023D647C64FE631A7002780B7802F09D0223F0010361
:4003800002703A4C0B703A4B04F5967583F800E076E000BFAC87FF1F10E000E014E000E018E000E0F52F002028650040386500408964004099640040A2430040B243004052
:4003C000C480FF1F3082FF1FC95C000081430000796400009D790000C97C0000CD8D00001E3000200E320020A72E0020A82E0020A92E0020A52E0020A62E0020A42E0020C7
:4004000000E100E009600040086000402860004012600040E82E0020F02F0020E42E00200C320020E12E002030300020FC310020B4AF00001C3200200994000099410000E7
:40044000885A0040285B00402B5B00400481FF1F599200002D920000CD91000091910000005B0040035B0040F9910000D085FF1F0681FF1F8C3100202C3000200542000089
:40048000636BA06B3C349847A542F9D10849094B094A0B65094BCA648B64094A094B4A650B66094A094B002425468A65CB6512E0AC87FF1F5990000099900000498C000044
:4004C00015900000FD8A0000098C0000BD8B000001341D2C10D0069A6301D35A1807F7D58DF8484152A801348DF849518DF84A5108F0D2FD1D2CEED1BB4BBB48BB4ABC491B
:4005000093F8703042660022C16682660646002B01F06281B74B0793B74B0993B74B0293B74B0A9309F024FCB64AB7491378054643F0020313700B78B44843F002030B7020
:40054000037801F5AA5143F0020303709379103143F0020393710A7800F5AB50AC4B0D3042F0030204260A7006701978A94A41F0400119701878A84900F0FC001870CE237F
:4005800013704FF002030B7092F827320A2043F0080382F8273208F099FAA04B20241C60284609F0E9FB904A9D4B92F871201C608D4B002A41F0078193F8722002F0FF0533
:4005C000002A00F00587974BDFF8D0B20593964B964C0493844A012382F8713009F0C8FB059B934A1B781178924B41F0010111701178914E41F0100111701A788F4D42F06A
:4006000001021A7019788E4A41F0100119703378074643F0020333702B78032043F002032B7013780343137008F050FA3378854A03F0FD0333702B78834803F0FD032B70EB
:40064000137872497A2543F00603137005700B78A2F5A65243F001030B70063A13786F4E43F0010313704B784FF0005543F001034B705378754943F001035370384635607C
:400680000D6009F079FB584A654B92F8782056481D60002A00F04B866D496E4A0B78524843F002030B70137801F5BE5143F0020313704D4B193193F87920FA230B70002A95
:4006C00000F00F866249634A0B78474843F001030B701378604943F001031370424B9C2293F87A300A70002B00F0D8855B4D09F03FFB4449444A0B78074643F001030B7081
:400700001378574843F00103137011F80A3C402643F0040301F80A3C12F80A3C01F5AA5143F0040302F80A3C18310B7802F5AA5243F003030B700B324A4B042111701A786F
:40074000494942F040021A701A7802F0FC021A70CE230370454A02230B7013780A2043F00803137008F0B2F92C4B38461E6009F003FB42F210732A493D4A0E600C203649FD
:4007800010708B20087011783A4A8B4003F50B63A2FB0332384BD20A1B782A60124E37483749384A0025032BF067C6F88010157013D8354D5B00DBB255F8230033490278F1
:4007C000CE5C0133DBB222EA060255F823500270CA5C2B7823EA02032B702D4F2D483E462D4902785CE000BFAC87FF1FE5800000058D0000B22E0020B42E0020B02E0020AA
:40080000B82E0020AB430040BB430040A14300400D590040085900401646004080E200E080E100E00781FF1FC82E0020C62E0020AA430040BA430040F8460040F946004085
:4008400091580040775800408258004000E100E0A8430040B8430040805B0040C02E0020005900400559004014460040275B0040D82E002053D9DE750481FF1FC93A0000F8
:40088000E93E0000D22E002010B0000030B0000009590040885A0040285B0040C72E00200B7842F00102027043F00103574A0B704FF0800A00231370554D08F04FF8CDF823
:4008C0002C90D146A246029C00220023297801F0FB012970297841F0010129703978C907FCD54820CDE9022309F03AFA494B31781988208889B2081A95F800E000B2DDE93C
:400900000223C11712184B410EF0FE0129702978B9F1010941F004012970D7D16FF07E004FF0FF31824273EB0101DDF82C905446C0F29884002A73F10001C0F2AA84D009F1
:4009400040EA4360D91109F0D9FB0022324B09F051FA09F013FE079B304A1B881BB2002B40F09785099B1A680A9B1E882C4B861B36B2A6FB0301F71703FB0711D3170AF0E5
:4009800019F909F0FDFE014626480AF001F8264B264A1B781060032B13D8254D5B00DBB255F8230023490278CE5C0133DBB222EA060255F823500270CA5C2B7823EA0203D0
:4009C0002B701D481D4902780B7842F0020243F0020302700B70144B00251D7007F0BEFF0022002311461A46CDF81C90924689462846134B134D144FDFF850E0DFF850C0E3
:400A000080262A7842F001022A7028E00481FF1F08590040A25B00400000E03FB22E0020809698000024744A0681FF1FD42E00204CB000006CB00000885A0040005B0040CB
:400A4000014E0040004E0040144E0040104E0040124E00409BF80020D2B2012A07D02278002AF7D11A7802F00102012AF7D13A7802F00302012A40F2B783022A00F0BC839F
:400A8000BEF80020BCF8001092B242EA014122780AB18BF800002A7819EB01094AEBE17A02F0FE02013E2A70ABD1484651466FF07E024FF0FF3390427AEB0303DDF81C9058
:400AC00082468B4680F2F384002871F10003C0F2E8844FEADA1040EA4B604FEAEB1109F00DFB0022A24B09F083F909F047FD059B1A78A04B012A03D01A78022A18BF1B7897
:400B000047F61222049B9C491B68096802FB00F002FB01F2002BB8BF1F335B1190FBF3F092FBF3F3C01A09F02BFE0146934809F02FFF934C934B04F1780618600125237800
:400B40001C2B0CD8069A112B02EB431207D09168127B0B7805FA02F223EA02030B70A3689847283454F8183C9847B442E7D1864D86482A1D42600A22027005F13402C260E3
:400B800005F148022B8E026105F164028049426105F17C02826105F120040022132BC1610262846040F27C840FCC7A4E0FC6226895F8843032601BB105F1840003F0D2FEC6
:400BC00045F2B433704AD35C13B1734803F0CAFE724BDFF800A253F8040B01240D900DA805938AF82C4EDFF8F0B107F087FF23462BE011780023137029B3694A69491370BD
:400C00005370694A0B701278D2B2511E072940F21881654B5B78DBB25A1E072A40F2048198F800307BB1604B5F4A1B785BB1089B5E491B783BB15E4B1B78082B03D813785E
:400C4000082B00D80B789AF82C3E012B584F28D00021084607F002FB9AF82C3E032B2CD09BF800301BB1534B1B781B063FD44D4B1B7818F8033003EB430309EB83035B78B3
:400C8000002B72D14C4B93F805211946002A5BD04A4B4A4A1B78002BABD19AF82C3E012BD6D1059B02211B8852A8ADF8483107F0D5FA9AF82C3E032BD2D1414ECDF8109093
:400CC000B14619F80C3C23B119F80A2C002A40F0858009F5A6493B4B09F130094B45F0D1DDF81090BCE7314B0893FFF7EDBA08F047FC0028FBD12B4B1A7818F80230324973
:400D000003EB430309EB83035B78002BF5D0BB5CDBB203EB430201EB82015A1E072A0889B0D8CA88C878294A1B011A44C3B200201370507048704B79DBB293701E4B93F8E3
:400D400005211946002AA3D191F80431204C03F0030303EB83130B44012081F805018BF80020236083F8402092E708F009FC89E70000E03F0781FF1FCC2E00200024744A12
:400D8000B881FF1FDC2E0020AC87FF1F68310020F880FF1FBC32002060DBFF1F08B000000C320020E12E002030300020FC3100202C300020274F0040E82E0020A42E00203F
:400DC0003C88FF1F9C2E00208C310020FC5F0040E42E002064200020E22E002019F8091C00228DF83320002937D119F80B3C002B00F0ED81012B7FF46CAFAF4BDB68002B45
:400E00003FF467AF09F5A6421B69106A0DF13301984700287FF45DAF9DF83330002B3FF458AF19F80C3C1DE003EB430209EB8202002151705179A14A1B01C9B21A449170E2
:400E4000EEE602EB420109EB81014B7049799B4B1201C9B213449970DBE6012109F8092C8DF8331019F8081C02228DF8393012AB0F938DF8382000293FF42BAF09EB020314
:400E800007930023CDF81890A9F10C060A93CDF82490737A002B3ED04FF000090F9DB379941E2919062B029100F0238156D9092B00F0D58067D90B2B00F04D81C0F0948014
:400EC000892B40F0EE807C4A96F80631516896F8052100938C68029B07990698A047034696F80611327A22B99DF838200A448DF83820002B40F086809DF83820F37913B94C
:400F0000022A00F29A80737A09F101099945C5DB099B13F8081C06980A9B00F5857006900798013300F585708B420A9306F585760790AEDB022ADDF824907FF6CAAE52A99A
:400F40000EA808F017FE10F0FF0F7FF4C2AE5C4B9DF838105B6852A89847BAE6032B00F0148122D8012B00F00381022B40F09980514B07995B6896F806215B680698984746
:400F800000210346AEE7072B00F01481082B40F08880069A484B51781B69079A5B6912F8020C9847002103469CE7042B6CD0052B77D1414B52A91B69707BDB689847034603
:400FC000E0B9529B04212B55529B029C1B0A6370BDF84A319DF83820A3709DF84B31E370337A002B8AD181E7334B52AADB68F1891B68707B98470346002854D0317A002927
:401000003FF472AF0E2B1C46DDF8249000F009810322162352A98DF8304010A80CAC8DF8413011948DF8402008F0A4FD244B9DF840105B6852A898474BE652A90EA808F01D
:4010400099FD10F0FF0F05D11D4B9DF838105B6852A8984702231A468DF8383053E7164B52AA9B69717B1B68307B984703460028C4D1BDF8483102982B55529B02211B1284
:401080009DF838204370ABE7B6F80E3101212B55B6F80E319DF838200B44DBB2A6F80E319EE700219CE7044B5298DB689B689847034660B114E000BF68310020FC5F0040F4
:4010C000BC3200209DF84030002B40F0A380AA4B10A9DB6852981B6998470028F2D003460293A54B5298DA6852689047029B0021F8E64FF6FF72B37B707BF17B8DF84A31D5
:401100009D4B8DF848018DF84911707C317C9B698DF84B018DF84C115B6852A9ADF84E21307B9847034600287FF468AF924B10AA9B69717B1B68307B9847034600287FF4FB
:401140005DAF109B02982B55109B02211B0A9DF83820437044E7884B06985B681B699847034600287FF44AAFB17A9DF8382037E7814B0A465B68B17B1C68069896F8063144
:40118000A04796F806110346ACE67B4A96F80C31516896F80B210093CC68029B07990698A047034600287FF429AF96F80C119DF8382015E7704B307B1B691B699847034656
:4011C00000287FF41BAF9DF83820012108E76A4A09F5A6431269187F0DF133019368984700287FF476AD17E6BCF80010BEF8002092B242EA01414AE4BCF8002011469EF8DD
:40120000002002925D4A1278120242EA0142029911433CE4584B5298DB685B689847034665E7574B93F8843013B1564803F09AFB554B1B7893B9FF220021544808F0CCFD47
:401240004D4B53491B6A002201200A808AF82C0E002B3FF4DDAE1B689847D9E64A4803F081FBE8E7002A73F10001C0F28F83D00940EA4360D91108F041FF0022454B08F08D
:40128000B7FD09F07BF9FFF766BB434B0693FEF776BF7F3243F10003FFF751BB42F20D063E493F4D0A782D6842F010020A703D4AE02111703C4A3D49AA650A783C4D42F02B
:4012C00006020A703B4AC42129703B4D13803B493B4A2E6001260B8080F87A601380FFF706BA384BA1F558711A700A701A78A1F5905102F0F3021A701A78193942F00402EE
:401300001A701A780125C2F3810202F19242063292F8202180F87950D2B20A701A7802F0FD021A701A78D2B21A70FFF7CBB9264B26491A700A701A78A1F5905102F0F3022F
:401340001A701A781C3942F004021A701A780125C2F3810202F19242063292F8302180F87850D2B20A701A7802F0FD021A701A78D2B21A70FFF790B968310020114E0040EE
:40138000AC87FF1F3088FF1F60DBFF1F64300020643100200000E03F3082FF1F0A41004008ED00E006E400E03D3100000159004002590040BC2E0020C02E0020BA2E002068
:4013C000C42E0020205800402458004025580040B14A48F6F0541746DFF858B30592DFF858A301223A708BF800509AF80020AB4942F010028AF800200A78A94842F01002A2
:401400000A70E022027001F5BC51A648A64A14310E700570157091F871224FF00A0E42F0180281F87122A14A00F8045CA2F2063281F8F25282F80653153900F817EC0D70F0
:4014400015705B22CA719A4A5E2111709949A2F688220D70142111703A780F2183F8761003EB820292F87210934AA3F8744011703978924A03EB8103B3F87030904C13802D
:401480003F782570FFB2012F29D08E4B0493FFF7A1B8128812B202EB82025200FFF764BAFEE710F17F0A41F1000BFFF712BB002871F1000303DA10F17F0A41F1000B4FEA39
:4014C000DA1040EA4B604FEAEB1108F017FE00227D4B08F08FFC09F051F8FFF708BB7B4B7B4A342119707B487B4916700622DA700D701A4405703F20107078481D724D715F
:4015000005709773502283F8842A754A81F881EA2C2180F87C1A1570442283F88A2A4FF00202704EDFF814E248233370DFF810C26D4B6E4980F8827A12268EF800202820EB
:40154000EB228CF8006008701A7008F011FC684F04903A78674E42F003023A703278664942F00302522032700870032007F0AEFA3A78049B184602F0FC033B703378514A71
:4015800003F0FC030492337008F0F6FB5B4A5C4913785820087023F040035A4843F0400305264D70137006704FF0020043F23337554BA2F26622C8711D701570049A5349E2
:4015C00017609AF800200B8802F007029BB2B3420CD04F48077807F001073ABB33BB0E809AF8003003F0BF038AF800302B4949480A78038802F007029BB2172B0FD0464D59
:401600002F7807F00107002A40F09C80002B40F09980172303800B7803F0BF030B703F4B3F4A1B68C3F8B420FEF7D4BF0FB33D4D3D483E4A0021012611702E70017015F8BF
:40164000081C083D01F07F01297090F86E1009070FD41146072025F8063C10700A78334812F00102FAD12A490B7803F0FE030B700270274B1A78D20740F197806FF4687697
:40168000334418462A4A0521118003221A700378DD07FCD4AAE700BF0781FF1F024100401DE400E0975800409E580040895B0040895800408D5800400E4E00400C4E0040ED
:4016C000C62E0020C82E00200000E03F004E0040024E0040054E0040044E00400A4E0040875800408B5800409158004090580040F8460040F946004092580040035B00406E
:40170000945800409A5800409C58004080400040A243004000410040A143004008ED00E03931000010400040144000400140004002400040C72E0020824000408E580040AA
:401740008F5800400FB3934D9348944A0021012611702E70017015F80C1C0C3D01F07F01297090F8F21009070FD41146072025F8063C10700A78894812F00102FAD18849B9
:401780000B7803F0FE030B700270854B1A78D60712D5A3F568731846824A1721118003221A700378DD07FCD439E77F4A052111801A7817431F7019E77C4A172111801A781F
:4017C00017431F702BE77A4BDFF878B20593794B794C0493FEF702BF784979480A780068784D794C42F010020A70784AE021297044651178764C774D41F006010794099581
:401800001170754A754811460292C4220270744A238010460A924FF400522A6001220B8086F870200380FEF77DBE03EB430209EB82020021517051796A4A1B01C9B21A4487
:401840009170FEF727BD03EB430109EB81014A704979644A1B01C9B21A449170FEF713BD01232A460B60FEF7EFBC08F081FA80465D485E4A03785E4943F001030370137885
:4018800000F5E35043F001031370012602F5E25204304FF002090E701B3280F800901378544C03F07F031370284607F00FF92378514A03F0F90323701378304603F0DF0385
:4018C000137023783343237007F000F9282007F0FDF84846494B1A7802F07F021A701A7802F0BF021A7023780343237007F0EEF823784349434A43F00403237040460D7048
:40190000157008F039FA2E4A04F1A02411683E48E02383342370C1F89C0011683B486370C1F8A00011683A4804F80F3C08661168384804F80E3C48661168374804F80D3C23
:4019400088661268354836493E7703701167FEF730BC344A1A4C136033482468334D0168334EE563334F344D41F0040153609360D3601361314C016037602B60304B4FF42E
:401980000041012221601A60FEF7ACBB7F3243F100036CE4144000401040004001400040A14300400240004080400040004100400781FF1FC82E0020C62E00200641004011
:4019C00008ED00E005E400E00D32000009590040B22E0020B42E0020B02E00200A590040B82E0020FC5F0040A5430040B54300409D6000409443004012600040F851004035
:401A00008460004085600040FD340000614D0000A535000071350000353500000CE400E0F13400004C30002010E000E0BD80000014E000E04019010018E000E000E100E02F
:401A4000AC87FF1FC72E00202DE9F04190F80341ADF5047D303CE4B2012C33D845F2303303FB04F3B04DEB5C63B390F802210F46531E8DF8042190F8042190F8061190F8B8
:401A800005818DF80721002206468DF80611ADF808218DF805810A2B14D8DFE813F0C200D800E000F0000B004E00FC006F0035008500960045F2303303FB04535A78002ABC
:401AC00000F070816A46994F0923B7F810808DF80030974B03211020B8F1020F5A601970587003D80DF5047DBDE8F08112788DF805007B688DF806208DF8041001A898471B
:401B00000DF5047DBDE8F081338829780222ADF80A31ADF80821C3F30723834A002940F0CC8045F23032A95C7F4A002940F0D780BB69002B41D0022024E03368B1882A7879
:401B4000CDF80A310223ADF80E11ADF808319DF80B11754B002A40F0A58045F23033EA5C714B002AE4D045F231329A5C002ADFD14AF258629B5C8B42DAD1A8E03388002002
:401B8000ADF80A3145F2303202FB04F2AB181E79654B4F2E40F2B080644F0D23B7F810806A468DF8003094E73368CDF80A319DF80A0110B9FB68002BE4D15C4F0B236A46FE
:401BC000B7F810808DF8003083E77B681B69002BF3D00DF5857306F12002306871681860B0685960F168103696429860D96003F11003F2D1306871683289186059601A81FB
:401C00009DF80B0150B100210A4641ABDE7E01328242314403F11403F8D388B2ADF80801B0E7FB2231460DF5857009F0B2F99DF8033296F8FA00012BADF80801A2D07B68D8
:401C40009B68002BB9D089238DF804319AE73146FB220DF5857009F09CF9002092E7314640F201120DF5857009F093F97B689DF80A02DB68ADF80801002B83D19DE73378B9
:401C800000228DF80A31ADF80C22002B95D10120ADF8080176E7337801208DF80A31ADF808016FE75A78002A7FF457AF45F228329B5C8B427FF451AF09E0517800297FF497
:401CC00030AF45F22831525C9A427FF42AAF174F03236A46B7F810808DF80030F9E645F23131515C00297FF423AF4AF25861525C9A427FF41DAFEAE7B8F1000F1AD10B4F50
:401D0000B7F8108045F2303303FB04F44FF4857202FB0640284441A906302C44013609F038F9267100233BE73088FF1FBC320020D03200203EB34FF4857E0EFB06FE6FF471
:401D40008171714411441944731E0F78A1F58571BFB113F1FF33F8D200234FF4857101FB03237244AF182B440022598903F585730A449F4292B2F8D1C2F57F43FE339BB265
:401D800003E09E42E9DC4FF6FE730F4FB7F81080B8F1FF0F94BF4344FF339BB28342B1D20E23FDE63A69D268002A3FF406AF45F2283132785B5C04208DF80A218DF80B3167
:401DC000ADF80801DEE600BFBC3200202DE9F04F04464078ADF5077D431E0E46242B00F2B682DFE813F05800B4027400B4029400B402C700B402EB00B4020C01B402570174
:401E0000B4027501B4027901B402A301B402BE01B402E401B402FA01B4022202B4024502B4027402B4029202B402A502B40225004B6806AD00266E70D3F81080B44F0423B7
:401E40003B70B8F1000F00F04D836179002900F04C8322463346507E01338B42064402F11402F8D3FD2E40F241830E232B70A84C2623204646A97D607B7007F07BFE10F0F8
:401E8000FF0F20D1A34B217846A85B6898470DF5077DBDE8F08F4B6800260696A279E11D5B68201D98479A4C06ADE87020460222032346A9266065606270237007F05AFE66
:401EC00010F0FF0FDED00DF5077DBDE8F08F06AD2846FE22002107F07FFF94F80331FC2B40F268820E232B7000220323884C002727600426204646A985F8FD20656023709B
:401F0000667007F037FE10F0FF0FDCD1BAE7824F06AD3B7800200221042228606970AA70002B40F0C18245F23033FB5C002B40F0AF82FF220021794807F04EFF784B794A40
:401F4000794F1B6A00210120118038700BB11B6898476F4C0623022263703A703278204646A92370EA70656007F004FE10F0FF0FA9D187E720790A690023ADF818308DF8B5
:401F80001A308DF81800136904A99847604D06AC9DF81060A07005220823284646A966706C602A706B7007F0E5FD10F0FF0F8AD1584B297846A85B68984784E70B6906AD50
:401FC00000222A809B69002B00F05282201D984768704F4E247904220A23304646A92C7075603270737007F0C5FD10F0FF0F7FF46AAF484B317846A85B68984763E726793E
:4020000006AD00232B80002E40F0BE81424F207A97F80080B8F1000F06D07B7823B945F22833FB5C834233D045F23033FA5C3A4B42B145F231329A5C22B94AF258629B5C7A
:40204000834225D0DFF8D0E04AF26069F3464FF0000C4FF4857A17F80C30002B00F065829EF80420002A00F060820AFB02C2734602EB0B0106E0092A07D003F5857399421B
:4020800000F053829A79062AF5D15A7B8242F4D1032088E1237906AD0022FF2B2A7000F00782312B40F2028309232B70184C03220E23204646A965602270637007F05AFD59
:4020C00010F0FF0F3FF4DEAE0DF5077DBDE8F08F201DFFF7B9FCF6E62379FF2B00F09881303BDBB2012B00F26D8245F2303000FB03F309481A5C1844002A00F0638202F035
:40210000BDFC06AD2870024C03221223D1E700BFD0320020BC3200203088FF1F643000206831002064310020902E00202379FF2B00F08681303BDBB2012B00F2478245F2A3
:40214000303000FB03F3AB481A5C1844002A00F03D8202F049FC06AD2870A74C03221423A7E72379002B00F03B814B690BB11B689847A04F3B78002B40F0208245F2303393
:40218000FB5C002B40F01682FF2200219B4807F023FE9B4B9B499C4A1B6A002401200C801070002B3FF48FAE1B6898478BE64B69002B00F065815B6820790DF215120DF16F
:4021C0001901984706AD95F8FD3028700333DBB2894C1822204646A91DE04B68DE68002E00F05D8194F8023194F80121A11D0093201D0DF11903B04706AD2870002840F019
:40220000838194F80261F31CDBB27B4C1A22204646A985F8FC6065602370627007F0AAFC10F0FF0F7FF44FAE2CE64B69FC229B682079ADF810200DF1190104AA984706ADEC
:402240002870002840F028819DF81020D31CDBB2694C1C26204646A985F8FD2023706560667007F087FC10F0FF0F7FF42CAE09E68B69002B00F02C814FF6FF726079E17907
:40228000A5798DF818008DF81910607A217A8DF81A508DF81B008DF81C105B6806A9ADF81E202079984704AD2870002800F02F810322514C1E23204646A9656022706370A0
:4022C00007F058FC10F0FF0F7FF4FDADDAE52079431EDBB20B2B50D8012202FA03F313F4D06F40F05C8140F61F071F40002F40F0ED815B0641D50B6A1BB1207A012840F227
:40230000FB8106AD00232B703BE08B69002B00F0E48007AA1B6861792079984700280CBF0522032206AD8DF81800334C2223C2E7CB69002B00F09F801B68201D984706ADE0
:4023400028702D4C24220323204646A9B3E504AB072246A90325162406A807938DF818508DF819408DF8102007F004FC274B9DF8181046A85B689847A5E50B2306AD8DF85C
:4023800018301D4C2022DEE7012E00F02381194F3B78002B00F0AD8145F23033FB5C002B00F051810C20002328706B70124C04220C237EE672689668002E00F0708194F814
:4023C0000221A11D0093201D0DF11903B047287000287FF489AD94F80321D31CDBB285E58B68002B3FF4C5AE9B68002B7FF4C0AEBFE600BF3088FF1FD03200206430002039
:402400006831002064310020902E0020BC320020BC4F06AD3B7800222A7033B1384602F02DFB287000287FF46EAE45F23033FB5C002B3FF468AEB44802F020FB287062E6FC
:40244000B04F06AD3B7800222A7033B1384602F0CBFA287000287FF480AE45F23033FB5C002B3FF47AAEA84802F0BEFA287074E60B236B70ADE50B2306AD8DF8183060E72E
:402480000B228DF8153106AD8DF8182003239FE69D4802F067FA4CE503230022D8E60B2306AD2B700323B0E6384602F05BFA3AE5944F3B7813B1384602F054FA45F23033CC
:4024C000FB5C13B1904802F04DFA00232B70EDE504AD0B232B700322EBE606AD0B232B70032222E70B232B70C1E40E46201D0DF11A01C047287000287FF4B9AC3B78F6B2F4
:4025000033446E703B70B2E4032300267DE6B36903AA1B68617920799847287000287FF4C7AE039B07226B60C3E60CF5A64C0CF1300C0EF5A64ECC450EF1300E7FF48BADB9
:40254000B8F1000F7FF428AF30233B7087F8028087F8048087F8018087F80380694F6B4BB946083494E8030083E8030045F2303303FB0876664F06F5A6463B6928361B6888
:402580003046002198473B6904465B6830469847002C79D199F800302C706B7006E78B69002B00F098805B6804F10801984706AD2870E6E6544802F0D5F9E5E5384602F090
:4025C000D1F9DBE506AD09232B709CE506AD09232B70C2E54E4AD368002B3FF4E4AE494B1978002900F0988045F23030195C00297FF4D8AE45F2313745F2323845F2343C07
:4026000045F2333EDE553127424E083403F8081003F80C1003F80E101F5494E8030086E80300DFF8E49045F22A3145F22830D36809F5A6421B6839F8011019F800002C3234
:4026400098470446A4E731214FF0010845F2303303FB08F307EB03090022F95409F5A643083489F8016089F8022089F8042089F80320283394E8030083E80300002E3FF472
:4026800075AF012E2BD0092445F230320021484607F0A2FB0023204689F8003083E694F8021101291DD00B232B701DE4303BDBB2012B3FF60AAF45F2303202FB03F31148A9
:4026C000C25C1844002A7FF4FEAEFEE64B685B69002B7FF469AF06AD0B232B7051E60C4AA1E71668A1790DF11902201DB04728706EE698463021A9E71B6806AD98472F7031
:402700003FE600BF3088FF1F60DBFF1F58DBFF1F68310020882E0020074F08344FF0300E99701971D9705E7094E8030083F800E087E80300994676E758DBFF1FF0B53D4DE5
:402740003D4C2B780022023B012B83B0226062600AD943780F46052B2DD0152B08D0082002F0E8F803B0F0BDFFF730FB03B0F0BD0379002B49D18B6813B19B6803B198470A
:402780002E4E3378002B4DD145F23033F35C002B44D1FF2200212A4807F01EFB294B2A4A1B6A0021012011802870002BDAD01B68984703B0F0BD214E022033780421019259
:4027C0008DF805008DF8061023BB45F23033F35C63BBFF2200211A4807F0FEFA194B1A4A1B6A00210120118028700BB11B689847062302222A706370397801AA8DF80710B4
:402800002370626007F09EF8ACE74B69002BB7D01B68B4E7304602F0A5F8D6E70B4802F0A1F8B6E7304602F09DF8ADE7074802F099F8CEE7902E0020D03200203088FF1F74
:4028400064300020683100206431002060DBFF1F014B1870704700BF75640040014B1860704700BF24640040014B1878704700BF66640040024A137803F07F031370704796
:4028800078650040014B1870704700BF7A640040014B1870704700BF74640040014B1870704700BF76650040014B188880B270471C4F0040014B1880704700BF1E4F004045
:4028C000014B1880704700BF1C4F0040054A137803F08F031370137843EA0010C0B21070704700BF1A4F0040074808490378084A03F0FE0303700B7803F0FB030B701378CA
:4029000003F0FB0313707047184F0040A3430040B3430040074808490378084A43F0040303700B7843F004030B70137843F0010313707047A3430040B3430040184F004018
:40294000F0B5194819490278194B42F0020202700A78184E02F08F0242F050020A701A78154C02F0CF021A701A784FF0FF0E42F030021A701A787F2702F0F0021A701A78BC
:40298000002542F00F021A70A1F67731A0F804E0378025700B78094A43F004030B70137843F001031370F0BD184F00401A4F0040234F00401E4F00401B4F0040194F0040A0
:4029C000014B188880B27047104F0040014B1880704700BF124F0040014B1880704700BF104F0040054A137803F08F031370137843EA0010C0B21070704700BF0E4F0040C0
:402A0000074808490378084A03F0FE0303700B7803F0FD030B70137803F0FD03137070470C4F0040A3430040B3430040074808490378084A43F0020303700B7843F002034F
:402A40000B70137843F0010313707047A3430040B34300400C4F0040F0B5194819490278194B42F0020202700A78184E02F08F0242F050020A701A78154C02F0CF021A7051
:402A80001A784FF0FF0E42F030021A701A787F2702F0F0021A701A78002542F00F021A70A1F66B31A0F804E0378025700B78094A43F002030B70137843F001031370F0BDAA
:402AC0000C4F00400E4F0040174F0040124F00400F4F00400D4F0040014B188880B27047044F0040014B1880704700BF064F0040014B1880704700BF044F0040054A1378FF
:402B000003F08F031370137843EA0010C0B21070704700BF024F0040074808490378084A03F0FE0303700B7803F0FE030B70137803F0FE0313707047004F0040A343004098
:402B4000B3430040074808490378084A43F0010303700B7843F001030B70137843F0010313707047A3430040B3430040004F0040F0B5194819490278194B42F002020270FE
:402B80000A78184E02F08F0242F050020A701A78154C02F0CF021A701A784FF0FF0E42F030021A701A787F2702F0F0021A701A78002542F00F021A70A1F65F31A0F804E0D3
:402BC000378025700B78094A43F001030B70137843F001031370F0BD004F0040024F00400B4F0040064F0040034F0040014F0040024B1878C0F3C000704700BF8C450040C7
:402C0000030702D5014BC9B2197070476345004010B406494FF40043054A0B6000241078147041F8803C10BC704700BF80E100E0942E0020084A4FF40041084B11601878BD
:402C40005B78C0B25B06064B4FF4004248BF40F004001A60704700BF80E100E0942E002000E100E0124B1B7803F00403B3B130B4104C05466378492B14D00F4A13780E4982
:402C8000DB07FBD50D4B1B78D8B21DB96023637030BC704710230B7030BC704703F0FF0210467047044A00214A2311706370E4E7D9490040942E0020D7490040D8490040CC
:402CC000114B1B785A0701D4022070470F4B70B419460F4E0F4C0425462230701D7062700B780A4ADB07FBD5137803F0020303F0FF0023B160236370032070BC7047602300
:402D0000637070BC704700BFD9490040D7490040D8490040942E00200A4B1A78520701D402207047084830B40246084C10210425197005706170137813F0210FFBD0002089
:402D400030BC7047D9490040D7490040942E0020154B1B785A0701D4022070474000F0B4C0B2124CB1B945236370114B114F19460D4D1226042238702E701A700B780C4A35
:402D8000DB07FBD5137803F00A030A2B07D0F0BC00207047492340F001006370E5E7102363700320F0BC7047D9490040942E0020D7490040D8490040184A5378102B01D041
:402DC00002207047164B1B781B071BD4154B30B440004FF40044C0B21C60A9B945235370114D0F4B0121114C2870197023780F49DB07FBD50B7803F00A030A2B09D00020C1
:402E000030BC704701207047492340F001005370E6E7102353700320F2E700BF942E0020D949004080E100E0D8490040D749004051B170B41F4C6578102D07D06578602D07
:402E40002CD070BC02207047022070471A4D2D782D072CD4002549266670A570E27023722278400040F00100144DC0B202F0FE02DB076160227028700CD50F49104B12206F
:402E8000042208701A700F4B4FF4004200201A6070BC7047084B01221A70F4E70A4D4FF400462E60257805F0F7052570D2E7012070BC7047942E0020D9490040D8490040C0
:402EC000D749004000E100E080E200E051B170B41E4C6578102D07D06578602D2AD070BC0220704702207047194D2D782D072AD40025452666706572A272237222784000AF
:402F0000144DC0B202F0FD02DB07E160227028700CD50F49104B1220042208701A700F4B4FF4004200201A6070BC7047084B01221A70F4E70A4D4FF400462E60257805F05B
:402F4000F7052570D4E7012070BC7047942E0020D9490040D8490040D749004000E100E080E200E06E4A6F4B12785978490631D5D2B2F0B4D70719D559784539052915D879
:402F8000DFE801F050031414502E95076AD5187A6449800740F198800878634C40F09A0060264FF4004508704E70256091060FD55A78187812F0080F0CBF02220122024367
:402FC0005A491A700A78102002F0EF020A705870F0BC70475A78D206FBD410225A7070475348997800785C68C0B2C9B2605499784C480131C9B299709C78D9788C4245D30F
:40300000017A01F0020101F0FF04002954D00178454C41F0090160264FF40045017046702560C3E702F00A01082902F0DF0231D00A29BBD119783B4841F0A0011970197A74
:403040008E0751D541781C7811F0080F0CBF0A2109213548214360254FF4004419705D700460A3E75C7A987A2E4984421CD2487ACC68C0B2205C2E4E294CC0B204253070BC
:403080002570487A0130C0B248728FE72449102008708BE758782349452831D0204C00254A202570487081E7087A84071CD508781D4C40F00A0073E71C48194D017841F016
:4030C000100101702C7071E7184C1A4E2078144D40F0100020701027042037702870087840F09000087061E71048124E01780C4C41F010011027042501703770257055E717
:40310000887A0028D0D0C868094F0078044DC0B238700426012446202E704C72487045E7D7490040942E002080E100E0D6490040D8490040D9490040704700BF704700BFD4
:4031400070B4064B064E1D6806490423E024064A3360A8640C7070BC1360704708ED00E080E100E002E400E000E100E0024B1878C0F38200704700BF81450040430702D57A
:40318000064BCAB21A70020702D5054BCAB21A70C30602D5034BC9B2197070470A4500400B4500400C45004070B4064B064E1D6806490123E024064A336028640C7070BC4D
:4031C0001360704708ED00E080E100E000E400E000E100E0014B18784009704780450040830602D5064BCAB21A70420602D5054BCAB21A70030602D5034BC9B21970704714
:40320000054500400645004007450040704700BF014B1870704700BF7A650040F0B4324D324E2A7833889BB298420BD002F007042F4A1278D2B24CB933B930802B7803F051
:40324000BF032B70F0BC7047002845D002F0080202F0FF0512B3274F274A284E00243C7008271770347012F8084C04F07F0402F8084C96F87A2016072BD41E4A204F14467B
:4032800007263B80167023781A4A13F00103FAD1174E347804F0F70434701370144B1C7824070FD56FF4687213441A460029144C14BF03210121208019701378DB07FCD4AA
:4032C000F0BC7047094A10801A782A431A70F0BC70470028E2D1D0E72B7843F040032B703080F0BC704700BF8E4000408C400040A2430040014000401040004014400040A0
:40330000024000400549064A0B7803F0F7030B70137803F0F7031370704700BFA2430040B24300400549064A0B7843F008030B70137843F008031370704700BFA2430040F6
:40334000B243004070B4064B064E1D6806490223E024064A336068640C7070BC1360704708ED00E080E100E001E400E000E100E0024B187800F00F00704700BF83450040DB
:40338000C20702D5094BCAB21A70830702D5084BCAB21A70420702D5064BCAB21A70030702D5054BC9B21970704700BF18450040194500401A4500401B45004070B4064B48
:4033C000064E1D6806491023E024064A336028650C7070BC1360704708ED00E080E100E004E400E000E100E0014B1878704700BF82450040C20702D5134BCAB21A708307A6
:4034000002D5124BCAB21A70420702D5104BCAB21A70030702D50F4BCAB21A70C20602D50D4BCAB21A70830602D50C4BCAB21A70420602D50A4BCAB21A70030602D5094B28
:40344000C9B21970704700BF1045004011450040124500401345004014450040154500401645004017450040014B1860704700BF20640040014B1878704700BF65640040B5
:40348000024A137803F07F031370704771640040014B1870704700BF7C640040014B1860704700BF24650040014B1878704700BF67640040024A137803F07F031370704721
:4034C0007B65004070B4064B064E1D6806490823E024064A3360E8640C7070BC1360704708ED00E080E100E003E400E000E100E0014B1B78704700BF8F45004070B4094A61
:40350000094E0A4C0A490023032580203370137453749374D374137553752570087070BC704700BF942E00200E32002028600040086000400B4904200B4A0C4B087092F88A
:40354000322093F8242002F00302012A05D093F8272082F0800283F82720012283F82520704700BF0B600040FC5F00408C31002009490220094A0A4B087092F822201A7E37
:4035800002F00302012A03D0DA7E82F08002DA7601225A76704700BF0B600040FC5F00408C31002008490120084A094B0870927C1A7B02F00302824203D0DA7B82F08002E4
:4035C000DA7301225A7370470B600040FC5F00408C310020F8B5134A137873B9124D13497227134E134C14482F700B700627472501213770257003701170104C06F0B8FB79
:4036000023780F4943F0200323700B780D4A43F010030B70137843F010031370BDE8F84006F0AABB603000208364004084640040296400403964004087650040936400407B
:40364000946400409765004010B5134CA37D2BB1124A137843F08003137010BD1049114A4FF0FF330B60136006F082FB0E4A137843F01003137006F07FFB0C4A1378190736
:4036800004D50B490B6813781B07FBD4094A002101231170A375DBE7942E002078650040246400400464004096640040666400404464004086640040F8B51B4BDA7DFAB919
:4036C0001A4E1B481B49022700681B4D377081260E701A4C08262E70194F1A490C252570194E4FF40045194C3A700D60E0271021012537705970DD751A70C4679A705A72FD
:4037000006F036FB1249134A0B7843F004030B70137843F00403137006F02EFB0E4B4FF400421A60F8BD00BF942E0020D649004008ED00E0C8490040CA490040DB49004021
:40374000DC49004080E100E00FE400E0652F0000A5430040B543004000E100E010B5134C237E2BB1124A137843F08003137010BD1049114A4FF0FF330B60136006F0F8FAA2
:403780000E4A137843F01003137006F0F5FA0C4A1378190704D50B490B6813781B07FBD4094A0021012311702376DBE7942E0020716400402064004000640040956400404F
:4037C00065640040406400408564004010B5134C637E2BB1124A137843F08003137010BD1049114A4FF0FF330B60136006F0C0FA0E4A137843F01003137006F0BDFA0C4A83
:403800001378190704D50B490B6813781B07FBD4094A0021012311706376DBE7942E00207B6500402465004004650040976400406764004044650040876400402DE9F843EE
:40384000234BDFF8B080234F234E4FF40049C3F8009098F800E0214D3978327830783B781F4C43EA00202B78013003F0FE032B7080B284F803E02171627106F071FA06F01D
:4038800077FA1849184A0B7803F0FB030B70137803F0FB03137006F06FFA2B782179627994F803E043F002032B7088F800E088F800E0397032702B780C480D4A03F0EF03EF
:4038C00010212B70C0F800905170BDE8F88300BF80E100E0DB490040DC490040D6490040FC80FF1FA5430040B543004080E200E0942E0020CA49004038B5154CD4F8E4300C
:40390000984794F8D6300343DBB284F8D630B4F8D4309BB2DBB10F4D002304E0B4F8D42092B2934213D204EB8302D2F8B4200133917C9BB20842F1D091695161296821F03E
:403940007F419161B4F8D42092B29342EBD338BDD085FF1F18E000E038B5154CD4F8A830984794F89A300343DBB284F89A30B4F898309BB2D3B10F4D002304E0B4F8982092
:4039800092B2934212D204EB8302926F0133917C9BB20842F2D091695161296821F07F419161B4F8982092B29342ECD338BD00BFD085FF1F18E000E038B5144CE36E984743
:4039C00094F85E300343DBB284F85E30B4F85C309BB2D3B10E4D002304E0B4F85C2092B2934212D204EB8302D26B0133917C9BB20842F2D091695161296821F07F419161F5
:403A0000B4F85C2092B29342ECD338BDD085FF1F18E000E038B5154CD4F82031984794F812310343DBB284F81231B4F810319BB2DBB10F4D002304E0B4F8102192B293427C
:403A400013D204EB8302D2F8F0200133917C9BB20842F1D091695161296821F07F419161B4F8102192B29342EBD338BDD085FF1F18E000E038B5124C236B984794F82230F0
:403A80000343DBB284F82230238C9BB2BBB10D4D002303E0228C92B2934210D254F823200133917C9BB20842F4D091695161296821F07F419161228C92B29342EED338BD4C
:403AC000D085FF1F18E000E00828F8B505D0A0F10A03012B01D90B20F8BD1C2909D8112907D0B44B49015C5A1944E30703D40520F8BD0920F8BD14464A6808281378AE4D77
:403B000003F0F103137000F0AF800B2800F06E81AB78097C032B18D8A84A5B00DBB202EB8300C76BD6180133387896F85CE0DBB202EB8306F66B20EA0E003870134493F806
:403B40005C20337823EA02033370032918D89B484A00D3B200EB8302D76BC218013397F800E0DBB292F85C2000EB83064EEA0202F66B3A700344327893F85C30134333701D
:403B80008F4AA97013788F4943F0010313700846013203E0C37DDBB2012B07D08B7D002BF8D1137803F00103012BF7D1864B1B7803F00303012B40F2E480022B00F0E980AB
:403BC000824B834A1B8812889BB243EA02428B7D7C480BB10023C375E878774B012803D0D878022818BFDB7847F612208B69CE6900FB02F100FB06F0002BB8BF1F335B11B2
:403C000091FBF3F290FBF3F07249131A81FB0312DB17C3EB62136A4A2360137803F0FE031370AB78FF2B00F0AA80032B18D8634A5B00DBB202EB8301CC6BD0180133217867
:403C400090F85C60DBB202EB8300C06B21EA06012170134493F85C20037823EA02030370FF23AB700020F8BD2B780A7C032B16D852495B00DBB251F82370CE18387896F8FD
:403C800020600133DBB220EA060051F8236038700B4493F82010337823EA01033370032A14D846485100CBB250F82370C1183E7891F820100133DBB2314350F82360397095
:403CC0000344317893F820300B433370424B2A701978424A01F0FB011970197841F00101197013783D4ED807FBD5482006F038F834493B4B32781B8808884A881B1A12B203
:403D00009BB2002A50D14A680E89DFF8DCE09E1B36B2A6FB0E01F717D3170EFB071106F049FF2C4BC21783FB00302B4BC2EB601020601A7802F0FE021A701A7842F004027E
:403D40001A702B78FF2B1AD0032B16D81B4A5B00DBB252F82340D018217890F820000133DBB221EA000152F823002170134493F82020037823EA02030370FF232B700020F9
:403D8000F8BD134A114B12881B889BB243EA02421DE70F480D4A134B008812781B781B0243EA00431A4312E74A8812B202EB82025200A9E73082FF1F0481FF1F10B00000E6
:403DC000004E0040B02E0020144E0040104E0040124E00401F85EB510859004009590040A25B0040114E0040809698006B780A7C032B0AD8354800EB8301896A034493F880
:403E000038000B7823EA00030B70032A09D82F4B03EB8201896A1344087893F8383003430B702B4B6A7019782A4A01F0FB011970197841F0010119701378264ED907FBD5FE
:403E4000482005F08DFF2449244B32781B884E898A899E1B12B2B3B292BB0A698E8ADFF884E09E1B36B2A6FB0E01F717D3170EFB071106F09FFE1A4BC21783FB0030144B09
:403E8000C2EB601020601A7802F0FE021A701A7842F004021A706B78FF2B3FF470AF032B0AD80A4901EB8302926A0B4493F83810137823EA01031370FF236B700020F8BDC1
:403EC0008A8912B202EB82025200C7E710B000000059004001590040B02E0020A05B00401F85EB518096980000F0FD03082B2DE9F04105D00B2814D00B252846BDE8F081B6
:403F00008B78012B5DD0984E002386F8213086F8223086F820300B7953B109252846BDE8F0818B78002BEED005462846BDE8F081CD78002DF1D108280C464FD00B2800F0C2
:403F40009B8096F82120884B002A00F0D28093F82220BAB9D96A854806F01AFD0021074606F014FE002800F0DE80384606F0A0F800227F4B05F03EFF06F000FB0123B0617F
:403F800086F822306378102BC7D14FF6FF73E2889A42B1D1774B93F84A30002B40F0D08096F83030002B40F0C880734A137803F0F10343F00C031370137803F0FE0313700B
:403FC0009BE7694E96F82020824204D0002286F8213086F8222086F820009CE74B780A2B00F093800C2B00F08880082B95D196F82230002BC9D12946442242F210735F4FAE
:404000005F4807EB8101496E5E4F03FB01F303F6C41380FB03013A70DB1796F821000022C3EBE1237280504F736032800028ACD097F82230002BA8D1D7F82480786806F019
:404040009FFB414606F0A4FC002106F09FFD00287AD0786806F094FB414606F099FC06F027F80022424B05F0C5FE06F087FA0123706086F8223088E74B780A2B50D00C2B78
:404080004BD0082B7FF449AF2B46442142F210724FF6FF773C4850F823303C4802FB03F303F51C6380FB03E0DFF8E8E01844DB178EF80010C3EB20330020B081336170813B
:4040C000E3886178BB4286F8281027493FF462AFB3F58B5F3FF621AF91F828402C48A24002EB5302B2FBF3F2C3F3471303700A6150E743F233329A6144E796F82230002B73
:404100007FF443AF0421C42277E796F82230002B7FF43BAF022184226FE70423C421B5E702238421B2E7384605F0C2FF0022104B05F05EFE06F022FA20E705F017FB34E7E2
:40414000042004F0FFFF2BE7786806F019FB414606F01EFC05F0ACFF0022054B05F048FE06F00CFA83E700BFB02E002000CC4C460000E03F0481FF1F0E50004010B00000A8
:40418000AD8BDB680A59004074B00000D3200DD2805B00400259004038B505F0F1F90028FBD1144B144D93F83110144C6B5C124803EB430304EB83035B78104A002BF5D0A2
:4041C000435CDBB203EB430102EB8102591E072910890DD8D1880A49D0780D461B0119440024C0B258554C7054705379DBB28B7038BD00BFB02E00202C3000208C310020EA
:40420000FC5F00402DE9F84F002900F0A080514F002588468246B946AB4605E025444028ADB21FD0A84534D97E6BC5EB080496F84000A2B2C0F14004A4B2944228BF1446DB
:40424000002CEBD00AEB05013044224606F0A1FE96F8400025442044C0B2402886F84000ADB2DFD197F83D2187F832B0032A5ED899F83C01511C024402F00302364B02EB12
:4042800082121A4489F83D1182F840B0A8457A63CAD897F83320012387F832302D492AB12E492F4A09781370BDE8F88F91F8442152BB2C482C4D047881F8443104F00103C5
:4042C00003702978294B01F0FC0129700178284C41F0040101701978204E01F0CF011970197841F030011970197801F0F0011970197841F00F01197023780E2143F00103FE
:4043000023708180A98032701A481B490378154A43F0080303700B78012043F008030B7013780343137087F83300BDE8F88FD9F84041621CC9F8402105F022F999F83D214D
:40434000032A95D90234C9F8404100229EE7014F9FE700BFB02E0020E82E0020274F00407B640040244F0040264F00402F4F0040254F0040A3430040B343004000000000AF
:404380002DE9F84303780546013B0F4690460B2B00F2EF80DFE813F0A600ED00ED002C000C00ED00ED00ED00ED00ED00ED00B200B84C94F89E30002B00F08A81B64C94F814
:4043C0003830B64A012603F01F0306FA03F31360236B984794F83830B14A03F01F039E40B8F1FF0F166040F2C9810120BDE8F883A84C94F84660002EE1D1DFF8CC9299F8AB
:40440000003043F0010389F8003005F0B1FCA549A54A0B7803F0EF030B70137803F0EF03137005F0A9FCA148A1490378A14A03F0FB0303700B7803F0FB030B70137803F06B
:40444000F10343F00203137090F86D3C9A4A03F0F10343F0020380F86D3C91F8B33C03F0F10343F0020381F8B33C99F8003003F0F10343F00C0389F8003099F8003043F0AA
:40448000010389F80030E16B16700B7803F0F10343F008030B70226C137803F0F10343F00803137023689847E368984701238349042084F8463004F089FC0646002E5AD1D9
:4044C0002B785A1E0B2A16D8DFE812F01100150015000D020D021500150015001500150015001800744B1E78002E00F0B2806B78002B00F0BC810B20BDE8F883704C0120BE
:40450000236B98476F4D637805EB43135A68137803F0F10343F002031370237805EB43135A68137803F0F10343F00C03137023781C2B0BD8112B09D005EB43139968187BB4
:404540000A78012383401343DBB20B70A3699847236B002098475A4EB844B84500F0D880E36A98474107FBD4B36A17F8010B9847F3E7484C0B26544D00272B7843F0010378
:404580002B7005F0F5FB4749474A0B7803F0EF030B70137803F0EF03137005F0EDFB434843490378434A03F0FB0303700B7803F0FB030B70137803F0F10343F00203137008
:4045C00090F86D3C3C4A03F0F10343F0020380F86D3C91F8B33C03F0F10343F0020381F8B33C2B7803F0F10343F00C032B702B7843F001032B70E16B17700B7803F0F103AC
:4046000043F002030B70226C137803F0F10343F0020313702369984763689847D4F8942084F84670137803F0F10343F002031370D4F89820137803F0F10343F00203137067
:40464000A36E9847E36D984784F89E703046BDE8F883104CE26B137803F0F10343F002031370226C137803F0F10343F002031370236998476368984784F8466005F0C8F87E
:404680001249012004F0A2FB0646002E7FF473AF16E700BF0881FF1F6081FF1F80E200E000E100E09864004094650040A2430040B24300400E500040E02E00201487FF1F25
:4046C000C480FF1F3082FF1F0D5000400C87FF1FD4F89420137803F0F10343F008031370D4F89820137803F0F10343F008031370A36D9847636E984701238149052084F8A2
:404700009E3004F063FB0646002E7FF434AFD7E6E36A9847820706D4E36A98478207F7D501E0E36A9847C307FBD5E3699847237874491C2B0CD8112B0AD005EB431398680B
:404740001E7B02780123B34022EA030303700B7805EB43135A680020137803F0F10343F002031370637805EB43156A68137803F0F10343F002031370BDE8F8836878394611
:40478000656900235FFA88F2A84700287FF42DAEA36C5D4A5D4DA2FB0330400805F066FC02460B4600205A4905F000FE064640460F4605F06BFC02460B463046394605F0AC
:4047C000CBFC4BA3D3E9002305F0F0FD4AA3D3E9002305F00FFB05F0F9FEE064636B9847800738D42968226D21F07F41521A62EB0203002A216573F1000127DB616DE36C25
:404800000A449A426265E9D394F847200023042AE364236563651CD0052A7FF4E6AD3D4CE26B137803F0F10343F002031370226C137803F0F10343F00203137023699847A6
:4048400063689847002384F84630CEE512F18072D4E7314CE4E70023E36423656365236B984710F0F00F39D10020BDE8F88305F07FFA2A4B1A7842F001021A701A7802F0A6
:40488000FE021A7005F078FA254A137803F0FE031370B8F1000F0ED008F1FF3080B2214A214C3844013F17F8011F13785B07FCD5B8422170F7D11B4A1378DE07FCD51849CB
:4048C0001A4A0B7843F001030B7013789D06CBD517490B7813789C06FBD4C5E7636A98470120BDE8F883052B3FF468AD0A4C66E5C2C298567FD34D3E00000000882AA141DD
:404900001C87FF1FC480FF1F398EE33818E000E00000F03F6081FF1F0881FF1F9B6500400D500040686400404B650040646500405B65004010B50A4AC0B0138A022B6B46DF
:4049400005D8526818460321904740B010BD032416218DF802008DF800408DF80110F0E7BC32002038B543780446002B2DD0012B07D11A4BDB6823B145F22C325B6880589B
:40498000984745F2303500212A46204605F024FA0022134B22701A782AB95A5D7AB9114B02221A7038BD5A5D997812B90029F6D038BD45F232329B5C002BF7D038BD45F2DB
:4049C00032329B5C002BEAD038BD044B00F5A6401B6928305B689847D3E700BF683100203088FF1F902E002038B543780546002B35D0012B0DD009241D4B1A78C2B945F2EF
:404A000030329A5CDAB145F232329B5CBBB1204638BD45F22C32174B8058DB68DB6898470446002CE8D1124BAC701A78002AE6D045F230329A5C997852B90029E7D10D4B08
:404A40009B68DB6898470C4B02221A70204638BD45F232329B5C002BEFD0204638BD054B00F5A6401B6928305B6898470446D8E73088FF1F68310020902E002070B54578D9
:404A800082B00446A5B1012D0FD1264BDB68002B45D045F22C329B688058984730B9224B0322A5701A7002B070BD092002B070BD1C4D01792B6900F5A6401E68283091B160
:404AC000A379052B29D0013989B24FF4857202FB0142234602E0997905291ED09A4203F58573F8D10021B04745F228322B69A05C1B690DF1070198470028D7D145F229336F
:404B00009DF80720E15C084D0123032691422E70A37008BFE37002B070BD0121E3E70B2002B070BD68310020902E002010B405498023054A0B6000241078147041F8803C3C
:404B400010BC704780E100E0F82F0020074A8021074B116018785B78C0B25B06054B4FF0800248BF40F004001A60704780E100E0F82F002000E100E0714AF0B413889BB232
:404B8000002B00F0B1806F4D6F4C704E02210023297023703380916819B191680B7091684B806B49664FC8798B79118843EA002389B28B42674838BF3B8007783188604B71
:404BC000394489B23180128892B2002A00F09F8059685F4A0978C9B211705968013159601988013989B21980198889B2002900F0978059680978C9B25170596801315960BD
:404C00001988013989B21980198889B2002900F0898059680978C9B291705968013159601988013989B21980198889B200297BD059680978C9B2D170596801315960198813
:404C4000013989B21980198889B200295CD059680978C9B211715968013159601988013989B21980198889B200295FD059680978C9B251715968013159601988013989B2E6
:404C80001980198889B2002952D059680978C9B291715968013159601988013989B21980198889B2002945D059680978C9B2D1715A6801325A601A88013A92B21A801B88F4
:404CC0009BB2002B38D0037808232278224E82F080020F2702212270377029701F4A13700370F0BC01207047164C174D1A48022718491A4A277080260F242E7004700B706F
:404D000013700120F0BC704704230278DDE70378082B13D01049134602220A702A70DDE70123F2E70223F0E70323EEE70523ECE70623EAE70723E8E70823E6E71346C4E7EA
:404D4000003200200E3200200F3200201032002000600040A92E002012320020183200202DE9F04F934A89B01378DBB2DD0609D51C060AD403F0400202F0FF01002A70D183
:404D80009C064ED409B0BDE8F08F03F00F03012BF8D11378DBB213701378DBB2180600F13E83854CA36843B1A2680221834B1170A268198800235180A360814A137803F09E
:404DC0006003202B00F05E81402B00F06281002B00F065817B4903230B700B781D06D1D4744A13781B06CDD47749784B08781B78774903430B7009788B42C3D171490C4637
:404E00000B781078DBB2000605D42378DBB21370137803F00F0308789842F1D109B0BDE8F08F6C4A1378DBB2042B00F0F980062B00F0EF80022BD3D1674B604C1D78238862
:404E40005D482B449BB2238011708368002B00F0DC80836801221A70836822885A808160D3E05C4A1378DBB2042B00F0C180062B00F0B480022BB3D15048574D4E4C2E7810
:404E80000188314489B20180208880B2002800F0CE8261684A480978C9B201706168013161602188013989B22180218889B2002900F0BB8261680978C9B241706168013108
:404EC00061602188013989B22180218889B2002900F0A88263681B78DBB283706368013363602388013B9BB2238023889BB2002B00F0A58263681978C9B2C1706168013157
:404F000061602188013989B22180218889B2002900F0138361680978C9B201716168013161602188013989B22180218889B2002900F01E8361680978C9B24171616801319C
:404F400061602188013989B22180218889B2002900F0F58261680978C9B281716168013161602188013989B22180218889B2002900F0028361680978C9B2C1716168013197
:404F800061602188013989B2218023889BB2002B00F0F0822B7808200B4C0A4923780F2783F08003022623700F701670074B1870287015E728600040003200201032002006
:404FC00000600040123200200F32002018320020296000400E320020A92E0020824B197831B11978814C41F0800100202170187000217F4B11709A683AB19A6801247D48F4
:4050000014709A680088508099607B4903230B70E6E6774B9A68002AF7D09A680324EEE7764B74481A78038802F00F02023AD2B213449BB26E4C038023889BB2ABB1FAB178
:405040006F4801E00131DAB16568435C013ADBB22B706368D2B2013363602388013B9BB2238023889BB2002BECD1664B66481A700378614983F080030B2203700A70AFE65C
:405080000022F2E703F070FC00283FF4A3AE5A49A3E613781E067FF59DAE53789AE611782380CBB21906527800F1CB81013A0A2A3FF690AE01A151F822F000BF57510000F0
:4050C000D54D0000BF530000D54D0000C7510000D54D0000D54D0000D54D000029520000D54D0000E95000004548484C037922784749D2B2012ADBB291F8265040F03E8214
:40510000022B3FF667AE0B4493F82C50414EEDB283F830508578EDB283F82C50037900790B44C0B2307093F8300093F82C30984205D0394B1A702378002B40F05384374EDF
:405140002D49314C2F4A06238025002033700B702570107041E603F00303012B00F05782C0F07182022B7FF435AE254B9A7802F0FF00002A7FF42EAE1A7902F07F02531E04
:40518000072B3FF627AE264B0C2404FB02339978244D01F0FE019970D87028461201515D104401F07F015155597801F0FD025A701A795B78170600F12685012B0CBF0823B5
:4051C00009238370BBE70E4B074F9B78134EDBB209490D4C0B483B7006228025002332700A7025700370F8E5A72E0020086000400032002010320020123200202960004026
:4052000000600040183200200F320020A52E0020F82F0020A62E0020A42E00200E3200208C310020FC5F0040C64B9B7803F0FF002BB1C54B012893F826307FF4CBADC34B06
:405240001B7898423FF47BAFC14BBF49BF4DC14C00220126287026701A709A70DA701A819A725A705A711A739A73DA739A829A755A735A741A769A76DA761A8483F82220AE
:405280005A765A7783F8242083F8262083F827209A8583F82E2083F8252083F8292083F8302083F8322083F833201A8783F83A2083F8312083F8352083F83C2083F83E2077
:4052C00083F83F20A3F8442083F8462083F83D2083F8412083F8482083F84A2083F84B20A3F8502083F8522083F8492083F84D2083F8542083F8562083F85720A3F85C20E5
:4053000083F85E2083F8552083F8592083F8602083F8622083F86320A3F8682083F86A2083F8612083F8652081F82C2081F8302081F82D2081F83120287800283FF4FFAEB0
:40534000287891F82640C0B2B04240F0B783824F82463E781C4606F0FE064FF002093E704FF040084FF0820C4FF00D0E09E0022800F02781032800F004810130092800F0E2
:4053800087810128C6B2F2D19F8ABFB2072F01D80827A78291F82C70002FEED181276F4D1F744FF0030BC2F3800783F80CB042F0040283F811E083F80DA0EE55DDE703F0F0
:4053C0000303012B00F02381C0F07A83022B7FF401AD5C4B9A7802F0FF00002A7FF4FAAC1B7903F07F035A1E072A3FF6F3AC58490C2202FB031291781B0141F0010191703F
:40540000D070517841F002015170127912F0800F534A1A4414BF8D23892393708FE651490B70DAE418462B78B6E50120FBE7297808293FF4B1AD4B490B701370B6E503208B
:40544000F1E70A2A3FF6C6AC01A151F822F000BFFF540000D54D0000D54D0000D54D0000D54D0000D54D00009F540000D54D000091540000D54D00007D5400000122314B34
:4054800022801B79384A13446360FFF775FBFBE52E4B012222806360FFF76EFBF4E5294AD378012B00F0CA83D378022B00F0B283D378032B7FF4E6AD9378002B00F0C983E6
:4054C0002A4B197851B1002101E0187830B11D7801319078C9B281422B44F6D3194A917819B19278802A00F045831A78002A3FF471AC1A7822806360FFF73EFBC4E513F06C
:40550000030300F03082022B7FF464AC0D4A238012790F4B02F07F020C2101FB02330A4A9B7802F12801DBB2002082F8283082F829006160FFF720FBA6E5042073E70620BD
:4055400071E700BF00600040F82F0020A52E00208C310020A42E0020A82E0020FC310020FC5F0040123200202430002088B00000052058E7082056E7072054E700235B686C
:40558000FFDE9F8DBFB23F2F35D8A4F82C8091F82D70002F7FF4F1AE4FF0090584F8280084F8249083F829504FF00005C2F34000084483F8255042F0020280F83860042053
:4055C000DFE61F8CBFB23F2F1BD8A4F8208091F82D70002F7FF4D1AE02F001070F4484F81CC042F00102207683F81DE083F819A087F83460C1E691F82D70002F7FF4BDAEDD
:40560000CAE791F82D70002F7FF4B7AEE4E719490B79012B3FF6DEAB8878174A0B79174F134493F83C20164922EA0002154D164C83F83C20062080260023387008702E70B3
:405640002370FFF7CABB0B4B9B78012B7FF4C2AB0E480A4F03780A490A4D0B4C03F0FD0303700622802600233A700A702E702370FFF7B3BB00600040F82F00200E32002025
:40568000123200200F32002018320020A82E0020002201209A7583F8220083F82E00BA48BA4E047891F826105A829A8AB84891B201F001020A4491B2D9831A8C012C0A44A3
:4056C00091B201F001020A4491B259859A8DB14C0A4491B201F001020A4491B2D9861A8F18BF00200A4491B201F001020A4491B2A3F84210B3F844200C250A4491B201F006
:4057000001020A4491B2A3F84E10B3F8502030600A4491B201F001020A4491B2A3F85A10B3F85C200A4492B202F001010A4492B2A3F86620B3F868202570597C964A002910
:4057400000F0E881127C12F0800F944A06BF082191709570598A8F4AC9B29171598A904DC1F30721D171598A0C20C9B21171598A894CC1F30721517128705A7F002A00F0DB
:40578000C581227F12F0800F864A06BF082191709070D98B824AC9B29171D98B824DC1F30721D171D98B0C20C9B21171D98B7A4CC1F307215171287093F82920002A00F0D9
:4057C000A18194F8282012F0800F784A06BF082191709070598D744AC9B29171598D744DC1F30721D171598D0C20C9B21171598D694CC1F307215171287093F83520002AA1
:4058000000F07C8194F8342012F0800F694A06BF082191709070D98E654AC9B29171D98E654DC1F30721D171D98E0C20C9B21171D98E594CC1F307215171287093F84120E0
:40584000002A00F0578194F8402012F0800F5B4A06BF082191709070B3F84210564AC9B29171B3F84210564DC1F30721D171B3F842100C20C9B21171B3F84210464CC1F3E4
:4058800007215171287093F84D20002A00F02E8194F84C2012F0800F4A4A06BF082191709070B3F84E10464AC9B29171B3F84E10454DC1F30721D171B3F84E100C20C9B21A
:4058C0001171B3F84E10344CC1F307215171287093F85920002A00F0058194F8582012F0800F3A4A06BF082191709070B3F85A10354AC9B29171B3F85A10354DC1F3072137
:40590000D171B3F85A100C20C9B21171B3F85A10214CC1F307215171287093F86520002A00F0DC8094F8642012F0800F294A0ABF082190709170B3F86610254AC9B2917195
:40594000B3F866102448C1F30721D171B3F86610FF24C9B21171B3F86630C3F3072353710470FFF7ECBB02211C4A218011781C4AC9B202F1280082F8281082F82930606051
:40598000FFF7FAF8FFF780BBA52E0020F831002094B10000806000408C3100200C600040906000401C600040A06000402C600040B06000403C600040C06000404C60004034
:4059C000D06000405C600040E06000406C600040F06000407C6000400A600040A82E0020F82F0020237891F82620DBB2012B62D1307800F0FF02002800F09080012A7FF467
:405A00009EAB91F82D3003F0FF0413BB924B9348DC7682270D24022640251F771E761D845C775A7682701C8C8D4AC4F3072404701C8CE4B24470D88BC0B29071D88BC0F3EF
:405A40000720D071D88BC0B21071DB8BC3F30723537191F82D3003F0FF02002B7FF46FAB7D48804B0121032702264025092480F8272080F8287080F82460858580F8294080
:405A800080F825209970828D7749C2F307221A70828DD2B25A70438DDBB28B71438DC3F30723CB71438DDBB20B71438DC3F307234B71FFF744BB00231B7AFFDE5368FFDEE0
:405AC0006A4B9B78012B7FF485A96948694F037869496A4D6A4C43F00203C1E5694A8021917028E7684A80219170FFE6674A80219170D6E6664A80219170ADE6654A80214F
:405B0000917088E6574A8021917063E6534A802191703EE6604A802191701BE691F82C2002F0FF07002A7FF40AAB4B485A4A0D21812603250824C773067405738482417454
:405B400043739370838A5549C3F307231370838ADBB25370438ADBB28B71438AC3F30723CB71438ADBB20B71438AC3F307234B71FFF7E5BA4A4E03AD0FCE0FC53268494BC7
:405B80002A7000221B781146DBB2474801930578464843EA052301930578454843EA054301930578222643EA0563019310F8013CDBB2029310F8025C43EA05230293C578A6
:405BC00043EA0543029305793A4843EA05630325029306714571031D01AEB05C08AF00F00F053D4407EB1010013215F8145C10F8140C082AD97059711D71987003F1040345
:405C0000EBD12D4B71E4012B16BF0D2384708370FFF795BA9378274A92F82620002B7FF4D9A8264B63606368DA7863689B7843EA02232380FEF7A0FFFFF726BA204A1D49B5
:405C4000122391F8261062602380FEF795FFFFF71BBA1C4B42E400BF8C3100201C600040906000402C600040A060004000600040A82E00200E320020123200200F3200209B
:405C8000183200207C6000406C6000405C6000404C6000403C6000400C60004080600040F0B100000301004904010049EC46004002010049F82F0020FC2F0020ACB10000D9
:405CC00098B1000088B000002DE9F04F8046007883B01646421E1F468DF807100B2A00F2E381DFE812F00301E101E10188000C00E101E101E101E101E101E1013701864C9A
:405D000094F89E30002B00F06082844C94F838300125834A03F01F0305FA03F31360236B984794F838307F4A03F01F0305FA03F3136098F801002A46022365690DF1070137
:405D4000A847002840F0C282A36C774A774DA2FB0330400804F08AF902460B460020744904F024FB68A3D3E9002304F01FFB68A3D3E9002304F03EF804F028FCE064636BB6
:405D80009847820700F1AC822A68236D22F07F42981A63EB0301002871F100032265C0F29A82636DE26C034493426365E7D394F847200023042AE3642365636500F08E82EA
:405DC000052A40F08382554CE26B0125137803F0F10343F002031370226C137803F0F10343F0020313702369984763689847002384F84630C6E1484C94F84650002D85D139
:405E0000DFF84C9199F8003043F0010389F8003003F0AEFF4749484A0B7803F0EF030B70137803F0EF03137003F0A6FF434844490378444A03F0FB0303700B7803F0FB03DC
:405E40000B70137803F0F10343F00203137090F86D3C3D4A03F0F10343F0020380F86D3C91F8B33C03F0F10343F0020381F8B33C99F8003003F0F10343F00C0389F80030E8
:405E800099F8003043F0010389F80030E16B15700B7803F0F10343F008030B70226C137803F0F10343F00803137023689847E368984701232549042084F8463002F086FFD1
:405EC000002840F0F38098F800305A1E0B2A17D8DFE812F0110016001600AE02AE021600160016001600160016004000164B1D78002D00F04B8198F80150002D00F05182A1
:405F00000B253FE1AFF30080C2C298567FD34D3E00000000882AA1410881FF1F6081FF1F80E200E000E100E0398EE33818E000E00000F03F9864004094650040A2430040E0
:405F4000B24300400E500040E02E00201487FF1F0D500040B04C0120236B9847DFF8ECA263780AEB43135A68137803F0F10343F00203137023780AEB43135A68137803F0A0
:405F8000F10343F00C03137023781C2B0BD8112B09D00AEB43139968187B01220B7882401343DBB20B70A3699847236B00209847E36A984700F0040000F0FF05DFF858B23C
:405FC0000028F5D1DBF828309DF807009847DBF804309248A0FB0330C00804F047F802460B4600208E4904F0E1F980463846894604F04CF802460B464046494604F0ACF874
:4060000081A3D3E9002304F0D1F981A3D3E9002303F0F0FE04F0DAFACBF80800002F00F01C81A946CDF800B0DFF824B2636A984710F0200FDFF8E08140F03B81DBF8000089
:40604000E26820F07F40121A62EB0203002A73F10001E060C0F237812069A36802449A422261C0F0F7800023C8F80830C8F80C30C8F81030D8F81C30984798F800301C2BD7
:406080000DD8112B0BD00AEB431398681D7B01220378AA4023EA0203037098F800300AEB43135A680125F2E05E4C0B205E4E05463378002743F00103337003F059FE5B49C9
:4060C0005B4A0B7803F0EF030B70137803F0EF03137003F051FE574857490378574A03F0FB0303700B7803F0FB030B70137803F0F10343F00203137090F86D3C504A03F04A
:40610000F10343F0020380F86D3C91F8B33C03F0F10343F0020381F8B33C337803F0F10343F00C033370337843F001033370E16B17700B7803F0F10343F002030B70226C99
:40614000137803F0F10343F0020313702369984763689847D4F8942084F84670137803F0F10343F002031370D4F89820137803F0F10343F002031370A36E9847E36D98472E
:4061800084F89E70284603B0BDE8F08F254CE26B137803F0F10343F002031370226C137803F0F10343F002031370236998476368984784F8465003F02BFB2249012002F0AC
:4061C00005FE00287FF472AF7DE6D4F89420137803F0F10343F008031370D4F89820137803F0F10343F008031370A36D9847636E984701231449052084F89E3002F0E6FDAF
:4062000000287FF453AF5EE6C2C298567FD34D3E00000000882AA141C480FF1FCDCCCCCC0000F03F0881FF1F0D5000409864004094650040A2430040B24300400E50004027
:40624000E02E00200C87FF1F1C87FF1F3082FF1F18E000E04F453FF6E9AE0023A360E3602361E3699847237879491C2B0CD8112B0AD00AEB431398681E7B01220378B2404C
:4062800023EA020303700B780AEB43135A68137803F0F10343F00203137063780AEB431ADAF80420137803F0F10343F00203137068E7009B1B6A984709F1010306F80900F9
:4062C0001FFA83F9BAE612F18072C5E60125284603B0BDE8F08F10F1807062E55D4C73E50023E36423656365236B984710F0F00F53D1314698F80100A5690123FAB2A84706
:406300000028E3D1A36C544A544DA2FB0330400803F0ACFE02460B460020514904F046F880463846894603F0B1FE02460B464046494603F011FF42A3D3E9002304F036F8AD
:4063400041A3D3E9002303F055FD04F03FF9E064636B9847C30716D42968226D21F07F41521A62EB0203002A216573F1000107DB616DE36C0A449A426265BFF418ADE7E74A
:4063800012F18072F4E70023E36423656365236B984710F0F0053FF4F5AE636A98470125F0E6304A781C137880B203F0FE031370A8B3AC462946AE462B4B2C4FDFF8B08089
:4063C000DFF8B090884217D90CF10404A14213D239B99DF807A01A785207FCD587F800A004E01A785207FCD587F800E0013189B2884201D98C42EBD898F8002094060CD52A
:40640000BCF1000F11D099F8004006EB0C0202F8014C0CF1010C1FFA8CFC6045D2D8114A137843F001031370ACE699F80020F0E7052B3FF46AAC074C68E400BFAFF30080FB
:40644000C2C298567FD34D3E00000000882AA141C480FF1F0881FF1F398EE33818E000E00000F03F0D500040686400404B650040646500405B6500402DE9F84F8346007807
:406480000F46411E15461E46BDF828A00B2900F28D81DFE811F012018B018B0192000C008B018B018B018B018B018B012101AE4C94F89E30002B00F00B82AC4C94F83830D5
:4064C000AB4A4FF0010803F01F0308FA03F31360236B984794F83830A64A03F01F0308FA03F3136039469BF8010067690223EAB2B84700285ED1A36C9F4AA04FA2FB03305D
:40650000400803F0B3FD02460B4600209C4903F04DFF80462846894603F0B8FD02460B464046494603F018FE8BA3D3E9002303F03DFF8BA3D3E9002303F05CFC04F046F86B
:40654000E064636B9847810700F1AE823968226D21F07F41521A62EB0203002A216573F10001C0F2D681616DE36C0A449A426265E7D394F847200023042AE3642365636501
:4065800000F0CA81052A15D1784CE26B137803F0F10343F002031370226C137803F0F10343F0020313702369984763689847002384F846300120BDE8F88F6B4C94F8468012
:4065C000B8F1000F7FF47AAFDFF8D89199F8003043F0010389F8003003F0CAFB69496A4A0B7803F0EF030B70137803F0EF03137003F0C2FB654866490378664A03F0FB0342
:4066000003700B7803F0FB030B70137803F0F10343F00203137090F86D3C5F4A03F0F10343F0020380F86D3C91F8B33C03F0F10343F0020381F8B33C99F8003003F0F1030A
:4066400043F00C0389F8003099F8003043F0010389F80030E16B82F800800B7803F0F10343F008030B70226C137803F0F10343F00803137023689847E3689847012347490C
:40668000042084F8463002F0A1FB8046B8F1000F40F08F809BF800305A1E0B2A19D8DFE812F0130018001800AF02AF021800180018001800180018001B00374B93F8008072
:4066C000B8F1000F00F0E3809BF80100002800F045820B20BDE8F88F314C0120236B9847DFF8C4B063780BEB43135A68137803F0F10343F00203137023780BEB43135A68B0
:40670000137803F0F10343F00C03137023781C2B0BD8112B09D00BEB43139968187B01220B7882401343DBB20B70A3699847236B00209847DFF868803D44BD4200F0EE808D
:40674000E36A98474307FBD4D8F8283017F8010B9847F2E7AFF30080C2C298567FD34D3E00000000882AA1410881FF1F6081FF1F80E200E000E100E0398EE33818E000E071
:406780000000F03F9864004094650040A2430040B24300400E500040E02E00201487FF1FC480FF1F0D5000403082FF1FB04C4FF00B08B04D00262B7843F001032B7003F0AE
:4067C000D7FAAD49AD4A0B7803F0EF030B70137803F0EF03137003F0CFFAA948A9490378A94A03F0FB0303700B7803F0FB030B70137803F0F10343F00203137090F86D3C47
:40680000A24A03F0F10343F0020380F86D3C91F8B33C03F0F10343F0020381F8B33C2B7803F0F10343F00C032B702B7843F001032B70E16B16700B7803F0F10343F00203DD
:406840000B70226C137803F0F10343F0020313702369984763689847D4F8942084F84660137803F0F10343F002031370D4F89820137803F0F10343F002031370A36E98475D
:40688000E36D984784F89E604046BDE8F88F784CE26B137803F0F10343F002031370226C137803F0F10343F002031370236998476368984784F8468002F0AAFF74490120B4
:4068C00002F084FA8046B8F1000F7FF472AFE1E6D4F89420137803F0F10343F008031370D4F89820137803F0F10343F008031370A36D9847636E984701236649052084F8D2
:406900009E3002F063FA8046B8F1000F7FF451AFC0E612F1807226E6554C36E663685E48A0FB0330C00803F0A1FB02460B4600205A4903F03BFD80465046894603F0A6FB09
:4069400002460B464046494603F006FC44A3D3E9002303F02BFD44A3D3E9002303F04AFA03F034FEA060BAF1000F3FD0DFF834814B4F0025636A984710F0200FDFF82491F6
:4069800062D13968E26821F07F41521A62EB0203002AE16073F100015DDB2169A3680A449A42226120D30023C9F80830C9F80C30C9F81030D9F81C30984799F800301C2BCF
:4069C0000DD8112B0BD00BEB43139968187B01220B78824023EA02030B7099F800300BEB43135A6801201CE0AA45C3D80023A360E3602361E369984723782A491C2B0CD8FF
:406A0000112B0AD00BEB431398681D7B01220378AA4023EA020303700B780BEB43135A680020137803F0F10343F00203137063780BEB431BDBF80420137803F0F10343F0A6
:406A400002031370BDE8F88FD8F8203098476B1C70559DB295E712F180729EE7AFF30080C2C298567FD34D3E00000000882AA1410881FF1F0D500040986400409465004014
:406A8000A2430040B24300400E500040E02E00200C87FF1F1C87FF1FCDCCCCCC0000F03F18E000E0C480FF1F0023E36423656365236B984710F0F00F4BD131469BF8010057
:406AC000A56901235FFA8AF2A84700287FF472ADA36C534A534DA2FB0330400803F0C6FA02460B460020504903F060FC064650460F4603F0CBFA02460B463046394603F0BE
:406B00002BFB43A3D3E9002303F050FC42A3D3E9002303F06FF903F059FDE064636B9847C20762D42968226D21F07F41521A62EB0203002A216573F1000107DB616DE36C10
:406B40000A449A426265BFF414ADE7E712F18072F4E7636A98470120BDE8F88F334A05EB0A041378A4B203F0FE031370002C35D08246014681462E4BDFF8C0C0DFF8C0B028
:406B80008C4216D90AF1040E714512D28D4207D917F801801A785207FCD58CF8008004E01A785207FCD58CF80090013189B28C42EAD89BF8002092060ED51E4A554596BF3C
:406BC00092F800E01278C5EB0A020AF1010A98BF06F802E01FFA8AFA5445D1D8134A137843F001031370BDE8F88F0023E36423656365236B984710F0F000AAD1BDE8F88F3D
:406C0000052B3FF45AAC0C4C58E400BFAFF30080C2C298567FD34D3E00000000882AA141398EE33818E000E00000F03F0D500040686400405B6500400881FF1F4B6500406A
:406C4000646500401C4B1B7803F0040303B3F0B41A4904460B78492B1ED0174A1378DB07FCD5174B1B78D8B274B1164B164E1A4616490227FF25002437701D700C701378B8
:406C8000002BFCD1F0BC704760230B70F0BC704703F0FF02104670470A4B0B4D1A460B4802272F70FF2600251E7005701378002BFCD14A230B70D0E76F640040F92F002025
:406CC0000C6400401C6400407F6400405C640040164B1B785A0701D402207047144BF0B41A46144F144D154938700626FF2400202E701C7008701378002BFCD1104C462378
:406D00000A4923700B78094ADB07FBD5137803F0020303F0FF0023B1602323700320F0BC704760232370F0BC704700BF6F6400401C6400400C6400407F6400405C64004022
:406D4000F92F00200F4B1B785B0701D4022070470D4B70B41A460D4D0D495226FF2400202E701C7008701378002BFCD1094B1021044A1970137813F0210FFBD0002070BC31
:406D8000704700BF6F6400401C6400407F6400405C640040F92F0020194B1B785A0701D4022070474000F0B4C0B2164CE9B945232370154B154D1A46154E164928703227EF
:406DC000FF25002037701D7008701378002BFCD10B490B780A4ADB07FBD5137803F00A030A2B07D0F0BC00207047492340F001002370DEE7102323700320F0BC704700BF29
:406E00006F640040F92F00201C6400400C6400407F6400405C6400401C4A1378102B01D0022070471A4B1B78DB0624D4194BF0B440008024C0B21C60F9B945231370164BE5
:406E4000164D1946164E174C28708227FF25002037701D7020700B78002BFCD10C4803780B49DB07FBD50B7803F00A030A2B09D00020F0BC704701207047492340F0010067
:406E80001370DCE7102313700320F2E7F92F00206F64004080E100E01C6400400C6400407F6400405C64004051B1F0B4244C2578102D07D02578602D0AD0F0BC022070475B
:406EC000022070471F4D2D78ED062CD41E4E07E01E4D1D4E80272F60357805F0F70535701B4D4927277000242C706A702B723278400040F00100174FC0B202F0FE0213F085
:406F0000010369603270387010D01348134A144B3225FF21057011701C70124B802200201A60F0BC70470120F0BC70470A4C0B490B4A8225FF20257008701370EDE700BFE2
:406F4000F92F00206F640040F82F002080E200E0383000200C6400407F6400401C6400405C64004000E100E051B1F0B4234C2578102D07D02578602D0AD0F0BC0220704702
:406F8000022070471E4D2D78ED062AD41D4E07E01D4D1C4E80272F60357805F0F70535701A4D4527277000246C72AA722B7232784000174FC0B202F0FD0213F00103E96030
:406FC0003270387010D01348134A144B3225FF21057011701C70124B802200201A60F0BC70470120F0BC70470A4C0B490B4A8225FF20257008701370EDE700BFF92F0020A7
:407000006F640040F82F002080E200E0383000200C6400407F6400401C6400405C64004000E100E09A4B9B491B780A78520646D5DBB2D807F0B42DD50A78453A052A29D844
:40704000DFE802F003652828034303F00A02082A03F0DF0300F096800A2A1BD18E488F4C027842F0A0020270227A02F0020202F0FF04002A00F0D6800A78057812F0080FAD
:407080000CBF0A220922864C2A436026802502700E7025609A0610D50B787F4813F0080F04780CBF022301237E4A234303701378102003F0DF0313700870F0BC70470B7844
:4070C000DB06FBD410230B707047744A764C107824785568C0B2E4B22C5410780130C0B2107014785078844242D3127A02F0020202F0FF00002A55D06748694C0278602692
:4071000042F00902802502700E702560C2E703F0020202F0FF00C2B9604A557A947AA54261D2547AD568E4B22C5D5F4F5F4EE4B23C705F4D5F4C06273770FF262E70207006
:40714000507A0130C0B25072A4E7544A127A02F0020202F0FF00002A32D04F48504C0278602642F09A02802502700E70256091E74E4E4F4C4F4A0227FF250020377025700C
:40718000107087E70A784348452A59D0474A0225474E484C1570FF2700254A2237702570027077E73F4C414F2278414E42F02002404D22701224FF223C703270287069E7CF
:4071C000384C3A4F22783A4E42F020022270394D52243C70FF22304C32702870227842F09002227056E7127A02F0020202F0FF0052B129482A4C0278602642F00A0280258E
:4072000002700E70256045E7264C284F2278284E42F02002274D22705224FF223C703270287037E71F48214F0278214E42F02002204D02705220FF22387032702C7029E743
