:400000000080002011000000492B0000492B0000144A80B5144B1268144F1A60F7B1144E002556F80C4C56F8080C56F8102C234638B1043A52F8041F43F8041B191B8142CF
:40004000F8D156F8040C1A4620B142F8045BD11A8842FAD1013F06F11006E2D107F09EF900F036F8FA460040BC760040010000003884000010B5054C237833B9044B13B104
:400080000448AFF300800123237010BD1884FF1F0000000054810000084B10B51BB108490848AFF300800848036803B910BD074B002BFBD0BDE81040184700BF0000000079
:4000C0001C84FF1F54810000C080FF1F000000002DE98048AFB062B6DFF814A3DAF80030002B01F04A83B74BB7491A686FF07F4542F002021A601A68B44842F001021A60BD
:400100001A68002422F002021A600D601A68B04942F004021A6004600B784BB9AD4AAE4CAE480626167047250122257003700A7007F026F9AA4AAB4D1378AB4C43F0100390
:4001400013702B78A94E43F008032B702378A84F43F00803237007F017F9337843F00103337007F00DF9A349A34A0B7803F0EF030B70137803F0EF03137007F005F92B7856
:400180009E4903F0FD032B7023789D4A03F0FD0323700B789B4803F0F10343F002030B701378994903F0F10343F0020313700378002203F0F10343F002030370337803F0E6
:4001C000F10343F00C033370337843F0010333700A7010F8653C8D4903F0F10343F0020300F8653C0B788A4E03F0F10343F002030B7000F5A050102333600E300178854EC6
:4002000001F0FD0101703178017C834E01F0DF010174824933600B702B78814E03F0FB032B7023787F4803F0FB0323707E4932707E4BCAF804007E4A9AF81450CAF80810D4
:40024000CAF80C20CAF81030002D01F01B82794A0025794B15707948794A7A497A4C7B4E7B4F1D707B4B3D7025703570057015704FF400000D704FF08072202118601A60AA
:40028000402019608022744918601A600B78734843F001030B70724B032101701A70012007F066F86F4B04221A706F4B6F4993F805310D60032B01F296816B4A591C92F8DC
:4002C00004216948134403F00303674A03EB831313441A4680F8051183F84050644B5C491A604FF000005A4B00221B78002BFAD00B780870002BF6D02378002BF1D05D4BDC
:400300005D481A705A705D4B02701B78DFF89091DBB2591E072941F25981584B5B78DBB25A1E072A41F26F82DFF878B19BF80030002B00F01E85514B1A78002A00F01985A7
:400340004F4A11460692127842B19BF80020082A04D81B78082B9CBF0A4613782149224A0B78484C43F010030B701378464D43F0100313700FCC0FC594E80700A64605F112
:400380000C060C3485E807000FCC0FC63F484049404A00271423AAF82830CAF82070CAF81800CAF81C10CAF8242094E8070086E80700394B164E19683848012232600864B3
:4003C00072E000BF10E000E014E000E018E000E0E38AFF1F29650040396500408665004096650040A2430040B24300400D5000403484FF1F98650040986400400E500040EF
:400400000F50004065500040E18AFF1F0150004080E100E06364004080E200E0AC8AFF1FE08AFF1FE14A00002D590000AD54000099470000068DFF1F068EFF1FDF8CFF1F2A
:40044000E08CFF1FE18CFF1FDD8CFF1FDE8CFF1FDC8CFF1F00E100E009600040286000400860004012600040908EFF1FA48FFF1FA08FFF1F048EFF1FE28AFF1F188DFF1F6F
:40048000F48DFF1F60810000148EFF1F8D6D0000D97000008131000008ED00E029510000848DFF1F148DFF1F6848694C4FF0E00C196880F800C067482260022232604864EE
:4004C0001B6865491D46654B042081F800C0226063493060AB64634B63480A7883F800C0037822F0020223F07203042525600A7003705E4B4FF0FF0C83F800C008785C4A70
:400500005C4B20F0010008705B4C5C485C49CAF82C20CAF830305B4A5B4BCAF83800CAF83C10CAF83440147819785EF8280F04F08E0401F08F011470BEF8042019705349AE
:400540009EF80630179081F800C09DF85C403946ADF860201CA848228DF8623006F044FF1CA948224A48ADF8904007F0E8FD9DF85D40394648221CA806F036FF1CA9482231
:400580004448ADF8904007F0DAFD9DF85E40394648221CA806F028FF1CA948223E48ADF8904007F0CCFD9DF85F40394648221CA806F01AFF1CA948223848ADF8904007F07A
:4005C000BEFD9DF86040394648221CA806F00CFF1CA948223248ADF8904007F0B0FD9DF86140394648221CA806F0FEFE1CA948222C48ADF8904007F0A2FD9DF86240394662
:4006000048221CA806F0F0FE1CA948222648ADF8904007F094FD2549254A264B2648CAF84810CAF844202549254ACAF84030254BB8463E46CAF84C00234CCAF85810CAF8A8
:400640005020CAF854303D4645E000BF00E400E000E100E0B550000001E400E041500000885A004002E400E0285B00409483FF1F296C0000FD6B0000C96B00009D6B000064
:40068000616B0000005B0040585B00409583FF1FE48AFF1F2C8BFF1F748BFF1FBC8BFF1F048CFF1F4C8CFF1F948CFF1FF95600004D570000FD520000B55600009D510000AA
:4006C000BD52000075520000C480FF1FB8F5347F05F1010513D034F8083008F128081807F4D512A88DF848508DF849608DF84A6005F02CF8B8F5347F05F10105EBD1BE4AA1
:40070000BE499AF87030CAF864200022CAF86C10CAF85C20CAF86020CAF86820B84E002B01F04880B74B0893B74B0993B74B0293B74B0A9306F024FEB64AB74913780546C7
:4007400043F0020313700B78B44843F002030B70037801F5AA5143F0020303709379103143F0020393710A7800F5AB50AC4B0D3042F0030204270A7007701978A94A41F03E
:40078000400119701878A84900F0FC001870CE2313704FF002030B7092F827320A2043F0080382F8273206F0D5F9A04B08241C60284606F0E9FD9E4B9AF871201C60904B25
:4007C000002A40F0418693F8722002F0FF05002A00F0DA85974B984E0593984B984C079301238AF8713006F0CBFD059B954A1B781178954B41F0010111701178934F41F0BB
:40080000100111701A78924D42F001021A701978904A41F0100119703B78804643F002033B702B78032043F002032B7013780343137006F08FF93B78874A03F0FD033B70D7
:400840002B78864803F0FD032B70137873497A2543F00603137005700B78A2F5A65243F001030B70063A1378704F43F0010313704B784FF0005543F001034B705378784982
:4008800043F00103537040463D600D6006F07CFD674B9AF878205A481D60002A00F0FC847048714A0378714943F0020303701378FA2043F0020313706D4B08701B786D497E
:4008C0006D486E4ACAF87C10032B4FF00001CAF88000117013D86A4D5B00DBB255F8230068490278CF5C0133DBB222EA070255F823500270CA5C2B7823EA02032B70624894
:40090000624902780B7842F00202027043F00203574A0B7000231370DFF8748106F062F8404F0B94029C002200238025397801F0FB013970397841F00101397098F8001027
:40094000C907FBD54A20CDE9022306F011FD504B1978B3F89912208889B2081A97F800E000B2DDE90223C11712184B410EF0FE0139703978013D41F004013970D6D16FF0F3
:400980007E004FF0FF31824273EB01010B9CC0F26384002A73F10001C0F27984D00940EA4360D91106F0B2FE00223A4B06F02AFD06F0DAFE089B134A1B881BB2002B40F015
:4009C0005F84099B1A680A9BB3F80080324BC8EB00080FFA88F7A7FB03014FEAE77803FB0811D31707F0BCF906F0A0FF01462B4807F0A4F854E000BF59630000E5530000AA
:400A00003484FF1FC08AFF1FC48AFF1FBE8AFF1FC88AFF1FAB430040BB430040A14300400D590040085900401646004080E200E080E100E09683FF1FCB8AFF1FCC8AFF1F22
:400A4000CA8AFF1FAA430040BA430040F8460040F946004091580040775800408258004000E100E0A8430040B8430040815B00409483FF1F592B00008D2E0000D68AFF1F16
:400A8000A8810000C8810000885A0040285B0040095900400000E03F809698000024744AB64BB74A1B781060032B13D8B54D5B00DBB255F82300B4490278CF5C0133DBB2B3
:400AC00022EA070255F823500270CA5C2B7823EA02032B70AD48AE4902780B7842F0010243F0010302700B70A44B00251D7005F079FF0022002311461A46CDF820A0CDF8A3
:400B00002490924689462846A24BA34DDFF8D8E2DFF8D8C2DFF8D88280272A7842F001022A7003E03278D2B2012A07D02278002AF8D11A7802F00102012AF7D19EF80020F4
:400B400002F00302012A40F22D83022A00F03283BCF80020B8F8001092B242EA0142217801B13070297819EB02094AEBE27A01F0FE01013F2970D0D1484651466FF07E02BF
:400B800090424FF0FF3371EB0303DDF820A0DDF8249002460B4680F2AD83002873F10001C0F2A383D00940EA4360D91106F0AEFD00227A4B06F024FC06F0D6FD059B1A78A9
:400BC000774B012A03D01A78022A18BF1B7847F61222079B73491B68096802FB00F002FB01F2002BB8BF1F335B1190FBF3F092FBF3F3C01A06F09AFE01466B4806F09EFF37
:400C00006A4A6B4E10606B48321D0A21BAF82830426006F12C020170C26006F1400106F164020161426106F17C01002206F11804132B8161C261846040F28A830FCC5E4D17
:400C40000FC5226896F884302A60002B40F07B839AF8FC31002B40F062839AF87433002B40F065839AF8EC34002B40F06883534B012453F8040B8AF864460D900DA805934B
:400C800004F08CFA234652E00021084605F080FC9AF86436032B58D0494B1B7823B1494B1B781B0600F1A880474B1B781BF8033003EB430309EB83035B78002B40F0DD80BD
:400CC000424B93F805211946002A00F0C580404B3F4A1B784BB311780023137029B33D4A3949137053703C4A0B701278D2B2511E072940F22282384B5B78DBB25A1E072AE9
:400D000040F20E829BF800307BB1334B324A1B785BB1069B31491B783BB1314B1B78082B03D81378082B00D80B789AF86436012BAAD1059B02211B8817A8ADF85C3005F07B
:400D400027FC9AF86436032BA6D1DFF8A880CDF8089018F80C2C22B118F80A3C002B40F08F80204B08F5BC784345F2D1DDF8089092E71A4B0693FFF7F1BA00BF9583FF1FE7
:400D8000D88AFF1FD0810000F0810000885A0040005B0040014E0040004E00400000E03F9683FF1FD08AFF1F0024744ADC8AFF1F3484FF1F648DFF1F388DFF1FA0810000FA
:400DC0009C8FFF1F034F0040E28AFF1F908EFF1FDC8CFF1F048EFF1F188DFF1FF48DFF1F148DFF1FA48AFF1F144E0040104E0040124E0040C484FF1F06F07AF80028FBD10D
:400E0000AA4B19781BF80130A94A03EB430309EB83035B78002BF5D0A64B5B5CDBB203EB430102EB8102591E072910893FF648AFD188D078A0491B011944C3B200200B702E
:400E4000487050705379DBB28B709C4B93F805211946002A7FF43BAF91F80431984C03F00303227003EB8313964C0B44012081F80501236083F8402029E706F039F81FE70B
:400E800018F8091C00238DF83330E9B918F80B3C002B00F05E81012B7FF463AF8A4BDB68002B3FF45EAF1B690DF13301D8F86801984700287FF455AF9DF83330002B3FF408
:400EC00050AF18F80C2C04E0012108F8093C8DF8331018F8081C02238DF8392012AA0F928DF8383000293FF43CAFC1460022A8F10C040892CDF81C80627A002A3DD00025CB
:400F0000A2790F9F9E1E013A07EB0608082A00F2B581DFE812F0AD00DD00B700E800A4006E004E005A000900674B17AA9B69617B1B68207B9847002873D1179B0422BB553E
:400F400017999DF83830090A88F80110BDF85E1088F802109DF85F1088F80310207A002840D0E27912B9022B00F2C780627A01359542C5DB079A12F8081C089A1E340132F7
:400F80008A42089209F11E09B6DB022BDDF81C807FF6E7AE17A90EA805F08CF810F0FF0F7FF4DFAE494B9DF838105B6817A89847D7E6454B41461B69207B1B699847002824
:400FC0002FD19DF838300122C8E73F4B99F801101B6999F800005B6998470022237A23B99DF8383013448DF83830E8B99DF83830B7E7E37B627B8DF85D30334BA07B617C63
:401000008DF85C20227C9B698DF85E008DF85F108DF860205B6817A9207B9847002800F0A480227A002ADBD00E280246DDF81C8000F0CD80162317A98DF8302003240CAAB0
:4010400010A88DF8413011928DF8404005F032F81E4B9DF840105B6817A8984781E61A4B17A91B69607BDB6898470028D9D164E7154B42465B68A17B1E684846E37BB047F2
:40108000E27BABE7104A94F82130516894F8202000938E68434609F102014846B0470028BFD194F821209DF8383057E7E28AFF1F848DFF1F148DFF1FFC5F0040908EFF1FE2
:4010C0009C8FFF1FA08FFF1F648DFF1F388DFF1FA04BA17B5A6848465668E37E09F10302B04700227AE7638C0122BB55618C9DF838301144C9B2618430E717A90EA804F037
:40110000D9FF10F0FF0F05D1934B9DF838105B6817A898474FF002038DF83830022325E703EB430209EB82020021517051798B4A1B01C9B21A449170E4E502EB420109EB66
:4011400081014B704979854B1201C9B213449970D1E5804B0DF133011B6998F864019B68984700287FF4FDADA6E67A4B10AA9B69617B1B68207B984700287FF452AFE37B7D
:401180000733DA1018BF08EB020307D01099C14008F8011B434500F10800F7D1D2B29DF83830DBE6B8F80010BCF8002092B242EA0142D4E4B8F800209CF80010029168495D
:4011C0000978090241EA024202990A43C7E49AF8843003BB9AF8FC3133BB9AF87433002B2BD19AF8EC34002B30D15A4B5D4CD969002323606360A360E36023615A4C0120E8
:4012000023808AF8640600293FF414AF0B6807929847079A0EE75548079204F0E5FD9AF8FC31079A002BD8D05148079204F0DCFD9AF87433079A002BD3D04E48079204F076
:40124000D3FD9AF8EC34079A002BCED04A48079204F0CAFD079AC8E7002A73F1000140DBD00940EA4360D91106F050FA0022434B06F0C6F806F078FAFFF79CBB00226DE644
:40128000128812B202EB82025200FFF79CBB7F3243F10003FFF782BB394B3A491A700A701A78A1F5905102F0F3021A701A781C3942F004021A701A780125C2F3810202F194
:4012C0009242063292F8302180F87850D2B20A701A7802F0FD021A701A78D2B21A70FFF7DFBA7F3243F10003BAE710F17F0243F1000357E4002873F1000103DA10F17F0224
:4013000043F10003D00940EA4360D91106F0FEF900221A4B06F076F806F026FA4EE4144804F062FD9AF87433002B3FF49BAC114804F05AFD9AF8EC34002B3FF498AC0E48EB
:4013400004F052FD93E406F1840004F04DFD7FE4FEE700BF648DFF1F388DFF1FFC5F0040114E0040508DFF1F4C8DFF1FB884FF1F3086FF1FA887FF1F2089FF1F0000E03F74
:401380002458004025580040994A9A4E11469A4801220A700591357048F6F0540278974942F0100202700A78954842F010020A70E022027001F5BC519248934A14310F7037
:4013C0000570157091F871224FF00A0C42F0180281F871228D4A00F8045CA2F2063281F8F25282F80653153900F817CC0D7015705B22CA71864A5E2111708649A2F68822DB
:401400000D701421117005980F21027883F8761003EB820292F872107F4AA3F87440117001787E4A03EB8103B3F870307C4C138090F800E025705FFA8EFEBEF1010F0BD045
:40144000784B0793FFF7CCB9694B6A4E0593754B734C0793FFF7C7B97348744B34221A7007704FF006077249724A0F7015705D713F230371704B4D715571057283F800E0B4
:40148000502381F8813A82F881CA6C4B2C2280F8842A442281F8845A1A704FF00202684FDFF8D8C148233B70DFF8D481654B80F88AEA12278CF800202820EB2288F80070E4
:4014C00081F88D0A1A7005F05BFFA8F58C580790A8F1170898F800205B4F42F0030288F800203A78594942F0030252203A700870032005F02FFB98F80020079B184602F0FF
:40150000FC0388F800303B78464A03F0FC0307923B7005F039FF4FF0020E43F233374C4A4C491378582023F04003087043F0400349484D70137005220270484B484A81F8EE
:4015400007E01D701570079A2B4B464817601A78038807319BB2062B02F0070215D0A1F5A751193991F800E00EF0010E002A40F05881002B40F055814FF0060303801E4BB5
:401580001D4A1B7803F0BF0313701C4936480A78038802F007029BB2182B10D0334D95F800E00EF0010E002A40F07181002B40F06E81182303800B7803F0BF030B702C4B26
:4015C0002C4A1B68C3F8B420FFF70AB903EB430109EB81014A704979274A1B01C9B21A449170FEF79ABE01232A460B60FEF776BE9683FF1FCB8AFF1F82400040024100407B
:401600001DE400E0975800409E580040895B0040895800408D5800400E4E00400C4E0040CA8AFF1FCC8AFF1F024E0040004E0040034E0040044E0040144E00408A580040D9
:401640008B58004091580040F946004092580040035B0040945800409A5800409C5800409D5800408040004000410040A143004008ED00E06D630000FC5F00408E58004005
:401680008F58004005F07CFEA449A54A0B78804643F001030B701378A24801F5E35143F0010304311370012602F5E2524FF0020906701B3281F800901378284603F07F0359
:4016C000137005F047FA14F81E3C974A03F0F90304F81E3C1378304603F0DF03137014F81E3C334304F81E3C05F034FA282005F031FA48468D4B1A7802F07F021A701A7808
:4017000002F0BF021A7014F81E3C034304F81E3C05F020FA14F81E3C8549864A43F0040304F81E3C40460D70157005F02DFE824A04F1A02411688148E02365342370C1F870
:401740009C0011687E486370C1F8A00011687D4804F8123C486511687B4804F8113C886511687A4804F8103CC8651268784879493E7503701167FEF76ABD774A77486E4C1B
:40178000136001682468764D41F00401E563754E754F764D764C53609360D3601361016001224FF4004137602B602160CAF80020FEF799BC6F4960480A7800686E4D6F4C90
:4017C00042F010020A706E4AE0212970C46411786C4C6D4D41F006010894099511706B4A6B4811460292C42202706A4A238010460A924FF400522A6001220B8086F87020F4
:401800000380FEF797BF03EB430209EB8202002151705179604A1B01C9B21A449170FEF783BDBEF1000F21D05C4D5D485D4A0021012711702F70017015F8081C083D01F0C9
:401840007F01297090F86E1009070FD41146072025F8063C10700A78524812F00102FAD151490B7803F0FE030B7002704E4B1A78D20741D56FF468773B4418464B4A06211A
:40188000118003221A700378DD07FCD47DE6BEF1000F21D0424D4148424A0021012711702F70017015F80C1C0C3D01F07F01297090F8F21009070FD41146072025F8063C47
:4018C00010700A78374812F00102FAD138490B7803F0FE030B700270354B1A78D70714D5A3F568731846314A1821118003221A700378DD07FCD462E62E4A062111801A78DB
:401900004EEA020E83F800E03FE62B4A182111801A784EEA020E83F800E050E6A5430040B54300409D60004012600040F8510040846000408560004008ED00E09535000075
:40194000553800003D36000009360000CD3500000CE400E089640000208DFF1F10E000E03163000014E000E01021010018E000E000E100E00641004003E400E06963000081
:4019800009590040C08AFF1FC48AFF1FBE8AFF1F0A590040C88AFF1FFC5F0040104000401440004001400040A243004002400040A143004080400040004100402DE9F04F57
:4019C000A14FA24C3A780023023A012A99B005468A46236063601CD94278052A78D0152A3FD010A9082509AB162203240BA80C938DF824508DF82C408DF82D2004F05AFB5F
:401A0000934B10A85B689DF82C10984719B0BDE8F08F41784A1E202A00F2D682DFE812F0AB00D402C800D4029E00D402EB00D4022401D4024401D402A502D4027E02D402F5
:401A4000B802D402E501D4022100D4020102D4022202D4024902D402A701D402D401D40264022A79002A2DD1DAF8083013B19B6803B19847774E3378002B40F0898396F80C
:401A80007831002B40F0808396F8F032002B40F0778396F86834002B40F06E836E4B6F4AD9696F4C00230120136053609360D3601361238038700029A8D00B68984719B02A
:401AC000BDE8F08FDAF81430002BD3D01B68D0E7604E022132780B938DF82D10002A46D196F87821002A40F05B8396F8F022002A30D196F86824002A40F04E83564A5749D9
:401B0000D569574E002201200A604A608A60CA600A61328038700DB12A6890474B4D022128460622397062709AF8006010A90BAB8DF82F606360227004F0BCFA10F0FF0F1D
:401B40007FF464AF424B297810A85B68984719B0BDE8F08F434804F047F9CAE73D4E0020327802210B908DF82D10002AB8D0304604F03AF9B4E7DAF8043000260B9604303A
:401B80005F68A979EB79021DB847304D26608DF82F000222032310A928460BAF67606270237004F087FA10F0FF0F7FF42FAFC9E7C37900270BAE112BF7600B977760B760E9
:401BC000C6F80F7040F226843B460E228DF82C2003221E4D002727608DF83E302846042310A966602270637004F064FA10F0FF0F7FF40CAFA6E70079DAF810200023ADF842
:401C00002C308DF82E308DF82C00136909A998470E4E9DF824708DF82E00052208230BAD10A9304665608DF82D702270637004F041FA10F0FF0F7FF4E9AE054B317810A8F2
:401C40005B689847E2E600BF988AFF1F9C8AFF1F388DFF1FB884FF1F648DFF1F508DFF1F4C8DFF1FA887FF1FDAF810300022ADF82C209B69002B00F0A783043098478DF826
:401C80002D002A79A34D18AB03F8342D28460A2210A9042663602670627004F00BFA10F0FF0F7FF4B3AE4DE707790023ADF82C30002F40F0AD82984E017A337833B1737881
:401CC00023B996F870318B4200F07C8396F87821914B3AB193F8792122B993F8E8328B4200F0708396F8F0228B4B3AB193F8F12222B993F860348B4200F0648396F8682423
:401D0000854B3AB193F8692422B993F8D8358B4200F05883804B04201A78002A40F0B982013803F5BC73F7D132787B4B002A00F0858596F87821784B002A00F0CD8593F812
:401D4000F022002A00F0C58593F868344FF00308002B00F066820C2100238DF82C108DF82D306C4D10A9284604260C2221E0DAF81820002A00F0B0834179C77986798DF878
:401D80002410407A297A8DF827008DF828108DF825708DF82660526809A9287990478DF82C00002800F0218303265A4D10A928461E220BAB63602670627004F07BF910F033
:401DC000FF0F7FF423AEBDE60079421E092A00F21E81DFE812F0170117011701170117011C010C01FC001C01FC000379FF2B40F0DB81494D002305F5BC668DF82C302B7846
:401E00002BB1284604F078F88DF82C0018B905F5BC75B542F3D13F4D10A9284603261422C7E7DAF81430002B00F0D2825B6800790DF13E020DF12D0198479DF83E308DF83A
:401E40002C000333DBB2334D10A9284618260BAA62602370667004F02DF910F0FF0F7FF4D5AD6FE6DAF804309E68002E00F0CD82C37D827D811D009304300DF12D03B047FA
:401E80008DF82C00002840F0AD82EE7DF31CDBB2204D0BAA8DF83D60284610A91A2762602370677004F006F910F0FF0F7FF4AEAD48E6DAF8143018AA112122F83C1D9B688E
:401EC00000790DF12D0198478DF82C00002840F086829DF82420D31CDBB20E4D10A928461C268DF83E20B2E7DAF81830002B00F0F88241791B680CAA0079984700280CBFCB
:401F0000072603268DF82C00024D10A9284622224FE700BF9C8AFF1FB884FF1FC77E303FFFB2032F00F2C6804FF4BC7202FB07F2B14EB25C002A00F0BD8090F81A80037F0F
:401F400008F1FF3290F81D9090F81EB00393082A00F2B080DFE812F0EF00FA00CB00C400B200A1009D0094005F0003790022FF2B8DF82C2000F06182332B40F206840923EC
:401F80008DF82C309D4D10A9284603260E2210E70379FF2B40F01C81974D002305F5BC668DF82C302B782BB1284603F0F3FF8DF82C0018B905F5BC75AE42F3D18F4D10A9A0
:401FC000284603261222F4E610A907250BE5DAF81830E3B15B68A91D98478DF82C00874D2026284610A903220BAB6670A2E5DAF81C301BB1A879012840F25E8400238DF837
:402000002C30ECE7DAF80430DB68002BE3D10B238DF82C30E3E76B79AA8818460593ADF8462003F02DFF002840F02D84DAF81830002B58D02A7904904FF4BC7000FB07F02C
:4020400031180D79DFF8B0E10B2D40F25B824FF00D0E8DF824E0694D102209AB28460BA9032626706270636004F024F810F0FF0F7FF4CCAC624B29780BA85B689847C5E498
:40208000AB882A79ADF846306B79059300230493D2E72A7901230493CEE72A4652F8041FEB799288202B0693CDF84610ADF84A2040F2EE8309238DF82430CCE74FF4BC71F9
:4020C00001FB07614A78002AF4D1DAF81030DB684BB191F870312A79059304230493ABE72A79002AD6D00B238DF82430B3E72A4652F8041FDAF80430CDF846105168D068C2
:40210000D2F808E0CDF84A101169928ACDF85200ADF85A206879CDF84EE0CDF8561099686B7E0590E87907939BB22A7904930690002981D1D7E7EA796B686979CDF84630E0
:4021400093B2069204932A79059175E72B4653F8042F5968CDF846209A68DB68CDF84E20CDF852306B79CDF84A100593EB792A790693002304935FE7224803F035FE8DE480
:40218000214803F031FE84E4204803F02DFE7BE4304603F029FE72E41A4803F025FEADE41A4803F021FEA0E4303BDBB2032B00F2A1814FF4BC7000FB03F30F4A995C9818C8
:4021C000002900F0978103F097FE8DF82C0022E6303BDBB2032B00F289814FF4BC7000FB03F3054A995C9818002900F07F8103F0D1FE8DF82C00E1E6B884FF1F9C8AFF1F06
:40220000388DFF1F2089FF1FA887FF1F3086FF1F012F00F08F82B94E3378002B7FF489AD98464FF4BC7202FB08F208F13001B318B15400225F709A701A71DA70083503F5D7
:40224000B87395E8030083E80300002F00F00483012F40F08A82AA4A4FF4BC7303FB08F3D168F21813460D6802F5BA72B3F8721193F87001A8470546002D40F077824FF4A3
:40228000BC7303FB08F3F35C8DF82C508DF82D3067E51A79002A3FF443AD93F806E0BEF1060F00F01381BEF1090F00F00F81012A3FF436AD93F824E0BEF1060F00F0008193
:4022C000BEF1090F00F0FC80022A3FF429AD93F842E0BEF1060F00F0ED80BEF1090F00F0E980032A3FF41CAD93F860E0BEF1060F00F0DA80BEF1090F00F0D680042A3FF418
:402300000FAD93F87EE0BEF1060F00F0C780BEF1090F00F0C380052A3FF402AD93F89CE0BEF1060F00F0B480BEF1090F00F0B080062A3FF4F5AC93F8BAE0BEF1060F00F03F
:40234000A180BEF1090F00F09D80072A3FF4E8AC93F8D8E0BEF1060F00F08E80BEF1090F00F08A80082A3FF4DBAC93F8F6E0BEF1060F7CD0BEF1090F79D0092A3FF4D0AC5B
:4023800093F814E1BEF1060F6CD0BEF1090F69D00A2A3FF4C5AC93F832E1BEF1060F5CD0BEF1090F59D00B2A3FF4BAAC93F85021062A02D0092A7FF4B3AC93F857218A42A7
:4023C0007FF4AEAC0321C7E40B238DF82D3058E40B228DF83E308DF82C20032333E5032300227AE50323002652E5DAF8183008AA1B686979287998478DF82C0000287FF49F
:40240000D3AC089B07260C93CFE40B238DF82C3003233DE5DAF804100DF12D02D1F8008004308178C0478DF82C00002840F05782EB79DA1CD2B2FFF7CCBB304D05F5BC663E
:402440002B7813B1284603F0CFFC05F5BC75AE42F6D100238DF82C3094E593F839E18E45A1D1AFE793F81BE18E4591D1AAE793F8FDE08E4581D1A5E793F8DFE08E457FF4F4
:4024800071AF9FE793F8C1E08E457FF45EAF99E793F8A3E08E457FF44BAF93E793F885E08E457FF438AF8DE793F867E08E457FF425AF87E793F849E08E457FF412AF81E7A1
:4024C00093F82BE08E457FF4FFAE7BE793F80DE08E457FF4ECAE75E70B238DF82C30032663E40B238DF82C3003260DE509238DF82C3063E509238DF82C308CE4B884FF1F68
:40250000648DFF1FB9F1000F00F05181002D00F0B881691E4FF01E0A0AFB010CF4449CF807C0BCF1000F00F0CE81A91E4B1C66D00AFB010CF4449CF807C0BCF1000F00F078
:40254000C281E91E4B1C5AD00AFB010CF4449CF807C0BCF1000F00F0B681291F4B1C4ED00AFB01007044C079002800F0AC81691F481C44D04FF4BC7C0CFB07FC0AFB01C0A8
:402580003044C079D646DFF860A3002800F09B81A91F4B1C33D00EFB01C05044C079002800F09181E91F481C29D00EFB01C05044C079002800F08781A5F108014B1C1ED041
:4025C0000EFB01C05044C079002800F07C81A5F10901481C13D00EFB01CED6449EF80700002800F07081A5F10A014B1C07D01E2000FB01C03044C079002800F0648100210C
:402600004FF4BC7000FB07FA1E2303FB01A001F1010E3044754540897ADD03FB0EAEB24B9E44BEF80AC001F1020E6044AE4580B26EDA1E2303FB0EAEAB4B9E44BEF80AC081
:4026400001F1030E6044754580B261DD1E2303FB0EAEA54B9E44BEF80AC001F1040E6044AE4580B254DA1E2303FB0EAE9E4B9E44BEF80AC001F1050E6044AE4580B247DA0C
:402680001E2303FB0EAE984B9E44BEF80AC001F1060E6044AE4580B23ADA1E2303FB0EAE914B9E44BEF80AC001F1070E6044AE4580B22DDA1E2303FB0EAE8B4B9E44BEF87E
:4026C0000AC001F1080E6044754580B220DD1E2303FB0EAE844B9E44BEF80AC001F1090E6044754580B213DD1E2303FB0EAE7E4B0A319E44BEF80AE08D42704480B207DDAC
:402700004FF4BC7101FB0761B1F83611084480B201467648C1F57F41FE31008A89B2142894BF09181431049B89B299423FD24FF00E0E8EE46E4AD368002B3FF40DAB6A4E9F
:402740003378002B7FF4F5AA083506F5B87E4FF0300C95E80300B37033717770F370984686F800C08EE8030076E509254FF4BC7202FB08F8002106EB080004F035FE002307
:40278000294606F80830FFF7E7BA303BDBB2032B3FF65FAE4FF4BC7202FB03F3524AD15CD01800293FF455AE03F01EFB51E69DF80C304FF4BC718DF84330BDF8103001FB94
:4027C00007F7ADF844309DF81430C5EB051C8DF847309DF8183007EB4C0C8DF849309DF81C304FF0000EB4448DF84190ADF85CE08DF840808DF85B308DF842B08DF84620E3
:402800000DF140080CF10609B8E80F00CCF80600CCF80A10CCF80E20B8E80700B8F800C0374401353D71C9F80C30C9F81000C9F81410C9F81820A9F81CC00AE4083503F53B
:40284000B872987018715870D870804695E8030082E8030030271F704FF4BC7707FB0867DFF88C9007F5B877D9F8103038461B6800219847D9F8103005465B683846984761
:40288000FAE4294645E703238DF82430FFF7E3BB6B791846059303F0F3FA0028F3D1DAF81830002B3FF41FAC069B2A790733C3F3CF030493FFF7C0BB1B68984700238DF80B
:4028C0002C30FFF78CBB8D42D8BF00217FF721AF96E64FF00208A4E44FF00108A1E43B460322FFF776B900BFB884FF1F388DFF1F648DFF1F8C4A8D4B12781978490644D551
:40290000D2B2D007F0B42CD519784539052928D8DFE801F0035D2727034102F00A01082902F0DF0200F08D800A291AD1997A7F4C41F0A0019972597A01F0020101F0FF0022
:40294000002900F0CC8021789C7A11F0080F0CBF0A210921764821436025102499721D70046091060FD51A78987A12F0080F0CBF0222012202436F499A720A78102002F03D
:40298000DF020A701870F0BC70471A78D206FBD410221A7070476848D97A0078DC68C0B2C9B26054D97A61480131C9B2D972DC7A197C8C423BD3417A01F0020101F0FF0467
:4029C00000295ED0817A5A4C41F0090110E002F0020101F0FF0089B1597A544801F0020101F0FF0400295AD0817A514C41F09A0160261025817206702560B2E71D7A5C78DA
:402A00004A49A5422DD20C7A4D68E4B22C5D4A4F4A4EE4B23C704A4D4A4C06273770FF262E702070087A0130C0B2087299E7434E434C44490227FF2500203770257008700F
:402A40008FE718783949452857D03C4802253C4E3C4C0570FF2700254A203770257008707FE7487A00F0020000F0FF0448B3887A2F4C40F00A006026102588720E70256028
:402A80006FE72C482D4F01782D4E41F020012D4D01701220FF21387031702C7061E7254D264F2978264E41F020012970254952253D70FF2535700C70817A41F090018172B2
:402AC0004FE71C481D4F01781D4E41F020011D4D01705220FF21387031702C7041E7154C164F2178164E41F02001164D21705224FF213C703170287033E748780028B0D01A
:402B000048680D4E00780D4CC0B20D4F30700D4D0626FF20267038700026012446202E700C7208701DE700BF63640040AC8AFF1F80E100E0836400400B64004073640040D7
:402B40001B6400405B64004008B504F021FC03680C2B00D0FEE7FEE700F0FD03082B01D00B207047112901D9092070472DE9F04101EB8101B84CC900635A2144DD0702D465
:402B80000520BDE8F0818D6808282B7803F0F1032B7000F0C58094F8D13291F82450032B18D8AE495B00DBB201EB8300876ACE180133387896F848E0DBB201EB8306B66AD0
:402BC00020EA0E0038700B4493F84810337823EA01033370032D18D8A0486900CBB200EB83018F6AC118013397F800E0DBB291F8481000EB83064EEA0101B66A3970034486
:402C0000317893F848300B43337095489549037884F8D15243F0010303700D46013003E0EB7FDBB2012B07D08B7F002BF8D1037803F00103012BF7D18B4B1B7803F0030351
:402C4000012B5AD9022B60D0884B89481B8800889BB243EA00408B7F824D0BB10023EB7794F8D2527C4B012D05D093F8D252022D18BF93F8D23247F612250B6A496A05FB9B
:402C800000F005FB01F5002BB8BF1F335B1190FBF3F195FBF3F577484B1B80FB0301DB17C3EB61136E4913600A7894F8D13202F0FE02FF2B0A701DD0032B18D8674A5B0047
:402CC000DBB202EB83018D6AD0180133297890F84860DBB202EB8300806A21EA06012970134493F84820037823EA02030370FF2384F8D1320020BDE8F0815D485B4B00886C
:402D00001B889BB243EA0040A5E7594D57485A4B2D8800781B781B0243EA054318439AE794F8D03291F82410032B16D84B485B00DBB250F82370C6183D7896F82060013300
:402D4000DBB225EA060550F823603D70034493F82000337823EA00033370032914D83F4D4800C3B255F82370E8183E7890F820000133DBB2304355F8236038702B44307882
:402D800093F82030034333703C4B84F8D01218783B4900F0FB001870187840F0010018700B78374DDB07FBD54A20904604F0E0FA2C49344B2A781B884E8A8A8A9E1B12B231
:402DC000B3B2002A41D18A698E8B2F4D9E1B36B2A6FB0501F717D31705FB071104F0C0FF244AC31782FB0020244AC3EB6010C8F80000117894F8D03201F0FE01117011785D
:402E0000FF2B41F0040111703FF474AF032B16D8124A5B00DBB252F82350D018297890F820000133DBB221EA000152F823002970134493F82020037823EA02030370FF23F6
:402E400084F8D0320020BDE8F0818A8A12B202EB82025200B8E700BFC480FF1FA8810000004E0040AC8AFF1F144E0040104E0040124E00401F85EB51114E00400859004038
:402E800009590040A25B004080969800F8B500F0FD03082B02D00B242046F8BD8B78A54E012B4ED0002386F8293086F82A3086F828300B7913B109242046F8BDCC78002CB1
:402EC000F9D108280D4648D096F82920994B002A00F08F8093F82A20BAB9196B964804F02DFE0021074604F027FF002800F08580384604F0E5FB0022904B04F083FA04F067
:402F000033FC0123306286F82A306B78102BD2D196F83430874A002B40F0CB8096F83530844E002B40F083808549864A0B7803F0F10343F00C030B70137803F0BF031370FF
:402F4000AAE796F82820824204D0002286F8293086F82A2086F82800ABE74B780A2B5ED00C2B54D0082BA6D196F82A30002BCFD12146442242F21073734D744805EB810109
:402F8000096D734D03FB01F303F6C41380FB03012A70DB1796F829000022C3EBE123B282644DB36172820028B2D095F82A30002BAED1EF6AA86904F0B9FC394604F0BEFD1A
:402FC000002104F0B9FE002800F0A580A86904F0ADFC394604F0B2FD04F072FB0022574B04F010FA04F0C0FB0123B06186F82A308EE743F233321A6287E7384604F060FB53
:4030000000224E4B04F0FCF904F0AEFB79E796F82A30002B7FF47CAF0421C422AAE796F82A30002B7FF474AF02218422A2E7494D2B7843F001032B7004F0A2F94649474AED
:403040000B7803F0EF030B70137803F0EF03137004F09AF94249434A0B78394803F0FD030B70137803F0FD031370037803F0F10343F00203037091F86D3C002003F0F10322
:4030800043F0020381F86D3C92F8B33C86F8350003F0F10343F0020382F8B33C2B7803F0F10343F00C032B702B7843F001032B703AE72D492D4D0B782D4F03F0F10343F0FC
:4030C00002030B702B78102103F0F103294843F002032B703960037805F5A455264F03F0FD03037002353B782B78244FA0F5035003F0DF032B7011383960117003781949D7
:4031000003F0FB0303700B78002003F0FB030B7082F8340002E7A86904F008FC394604F00DFD04F0CDFA0022044B04F069F904F01BFB59E7AC8AFF1F00CC4C460000E03F62
:403140000E50004010510040A8810000AD8BDB680A5900400D5000409865004098640040A2430040B2430040005000400150004080E100E0736400406364004080E200E097
:4031800038B503F0B5FE0028FBD1144B144D93F83610144C6B5C124803EB430304EB83035B78104A002BF5D0435CDBB203EB430102EB8102591E072910890DD8D1880A4911
:4031C000D0780D461B0119440024C0B258554C7054705379DBB28B7038BD00BFAC8AFF1F148DFF1F848DFF1FFC5F00402DE9F843B14AB24BB2491A600B68B24A43F400733C
:40320000B1480B600023032B94BF50F82310AF490133302B42F8041FF5D1AD4BAD4AAE4909781A6072B640F2E32441F6E74740F6253642F25125A94BA94961201870A94A9D
:403240000020088050211170A3F27C73A648032119801823A54903700B20D0800B70A4484F215181A3490370D481A34C0B70C780137506275220A14A277081F86E01117846
:403280009F4FA048A04AC9B2397024F8DE6C9F4905801578A4F5007403C984E803004FF4F0701C4605F00105164604F061F801E0032D0DD033784FF4F07003F0010343EA79
:4032C000450504F055F8013C05F00305F0D1FEE78F4A904D4FF48070108000238E49072010708E4E2B70DFF898E248258C480D700227042513708EF80030377005701C46BA
:4033000091F89A33874D43F03F0381F89A3392F89D33A5F1640643F0030382F89D3391F8983343F0800381F8983392F8E43643F0040382F8E43604EB440306EB4303AA886C
:40334000586E0134002104F04FF8092C05F10605F1D1754D002404EB840306EB43032A890134D3F8A010D3F89C0004F0E8FE062C05F10A05EFD16D4E6D4F002556F8043FA3
:4033800013F0FF0E23F0FF0413D005F110530EF1FF3E03F151005FFA8EFE7044503340005B001A785978023383421155F9D101357544BE42E2D15F485F4B604A0A2760496F
:4033C00007701A600B785F4A43F002030B7013785D4C43F0020313702378A0F5A65043F04003237001380178584A41F01001584B017007CA03C3574D57491A8007C903C528
:4034000056492A80E83307C903C355491A80B83D07C903C52A80A5F6F6552A78514E524B42F0080203CBDFF85CE13060716003CB2A709EF80030A6F62A26DFF84C81357875
:403440004A4A98F80090DFF844E1DBB2DFF840C110605160EDB203F007021B098CF800205FFA89F98EF8003045F003033370404949F0030388F800303E4A384670233E4FA6
:403480000B70402313703B700123202781F8EE7982F84F32394F03F05DFB94E80F004FF0440E103488F80090357087F800E007C42380BDE8F88300BF0004FA050CED00E04A
:4034C00014ED00E0FC7FFF1F00000000492B000008ED00E00080FF1FBC760040004800408040004082400040864000408A4000408E40004092400040004300400F01004963
:40350000A14600402042004025420040B80E0048044000400640004008400040014000400B4000400C82000044820000FCFFFF479C00004883580040D8160140040404C4DC
:403540000350014013500140A0430040780E004800510040C0510040840E0048900E00489C0E004822510040A80E0048325100403D510040095900400B59004076580040F8
:4035800009400040CF010049F94600406F5800406E58004070B4094A094E0A4C0A490023032580203370137053709370D370137153712570087070BC704700BFDC8CFF1FCF
:4035C000068EFF1F28600040086000400B4904200B4A0C4B087092F8322093F8242002F00302012A05D093F8272082F0800283F82720012283F82520704700BF0B600040DF
:40360000FC5F0040848DFF1F09490220094A0A4B087092F822201A7E02F00302012A03D0DA7E82F08002DA7601225A76704700BF0B600040FC5F0040848DFF1F08490120E7
:40364000084A094B0870927C1A7B02F00302824203D0DA7B82F08002DA7301225A7370470B600040FC5F0040848DFF1F714AF0B413889BB2002B00F0B1806F4D6F4C704E81
:4036800002210023297023703380916819B191680B7091684B806B49664FC8798B79118843EA002389B28B42674838BF3B8047793188604B394489B23180128892B2002A55
:4036C00000F09F8059685F4A0978C9B211705968013159601988013989B21980198889B2002900F0978059680978C9B251705968013159601988013989B21980198889B2B8
:40370000002900F0898059680978C9B291705968013159601988013989B21980198889B200297BD059680978C9B2D1705968013159601988013989B21980198889B20029A0
:403740005CD059680978C9B211715968013159601988013989B21980198889B200295FD059680978C9B251715968013159601988013989B21980198889B2002952D059688D
:403780000978C9B291715968013159601988013989B21980198889B2002945D059680978C9B2D1715A6801325A601A88013A92B21A801B889BB2002B38D043790823227889
:4037C000224E82F080020F2702212270377029701F4A13704371F0BC01207047164C174D1A48022718491A4A277080260F242E7004704B7113700120F0BC704704234279D9
:40380000DDE74379082B13D01049134602220A702A70DDE70123F2E70223F0E70323EEE70523ECE70623EAE70723E8E70823E6E71346C4E7F88DFF1F068EFF1F078EFF1F5E
:40384000088EFF1F00600040DC8CFF1F0A8EFF1F108EFF1F2DE9F04F934A89B01378DBB2DD0609D51C060AD403F0400202F0FF01002A70D19C064ED409B0BDE8F08F03F092
:403880000F03012BF8D11378DBB213701378DBB2180600F13583854CA36843B1A2680221834B1170A268198800235180A360814A137803F06003202B00F06481402B00F072
:4038C0006881002B00F06B817B4903230B700B781D06D1D4744A13781B06CDD47749784B08781B78774903430B7009788B42C3D171490C460B781078DBB2000605D4237806
:40390000DBB21370137803F00F0308789842F1D109B0BDE8F08F6C4A1378DBB2042B00F0FF80062B00F0EF80022BD3D1674B604C5D7923885D482B449BB2238011708368D2
:40394000002B00F0DC80836801221A70836822885A808160D3E05C480378DBB2042B00F0C180062B00F0B480022BB3D1504D574A4E4C56792988314489B22980218889B28E
:40398000002900F0C58261684A4D0978C9B229706168013161602188013989B22180218889B2002900F0B28261680978C9B269706168013161602188013989B22180218844
:4039C00089B2002900F09F8263681B78DBB2AB706368013363602388013B9BB2238023889BB2002B00F09D8263681978C9B2E9706168013161602188013989B2218021882D
:403A000089B2002900F00B8361680978C9B229716168013161602188013989B22180218889B2002900F0FF8261680978C9B269716168013161602188013989B22180218889
:403A400089B2002900F0ED8261680978C9B2A9716168013161602188013989B22180218889B2002900F0E18261680978C9B2E9716168013161602188013989B22180238884
:403A80009BB2002B00F0E682537908240B4D0A492B780F2783F0800302262B700F700670074B1C70547115E728600040F88DFF1F088EFF1F006000400A8EFF1F078EFF1F45
:403AC000108EFF1F29600040068EFF1FDC8CFF1F844BDA7832B1DA78834C42F0800200212270D9700022814B0270996839B1996801247F480C709968008848809A607D496F
:403B000003230B70E6E6794B9A68002AF7D09A680324774814709A68008850809960EEE7754B73481A78038802F00F02023AD2B213449BB26D4C038023889BB2ABB1FAB193
:403B40006E4801E00131DAB16568435C013ADBB22B706368D2B2013363602388013B9BB2238023889BB2002BECD1654B65481A700378604983F080030B2203700A70A9E67B
:403B80000022F2E702F034FF00283FF49DAE59499DE613781E067FF597AE537894E611782380CBB21906527800F1BD81013A0A2A3FF68AAE01A151F822F000BF513C000087
:403BC000C9380000A13E0000C9380000C13C0000C9380000C9380000C9380000153D0000C9380000E93B00003E4A44490B795478DBB2E4B2012C92F82A0040F02D82022BF8
:403C00003FF662AE134493F83000C0B283F834008878C0B283F830000B7909791344C9B2917093F8341093F83030994204D014705378002B40F03C84334E2E49314C304A54
:403C400006238025002033700B70257010703EE603F00303012B00F03B82C0F06182022B7FF432AE254B9A7802F0FF00002A7FF42BAE1A7902F07F02531E072B3FF624AE81
:403C8000224B0C2404FB02339978214D01F0FE019970D87028461201515D104401F07F015155597801F0FD025A701A795B78170600F1C984012B0CBF082309238370BBE7AA
:403CC0000E4B084F9B78104EDBB20A490D4C0C48FB7006228025002332700A7025700370F5E500BFDC8CFF1F08600040F88DFF1F088EFF1F0A8EFF1F29600040006000405A
:403D0000108EFF1F078EFF1F068EFF1F848DFF1FFC5F0040C64BC74A9B7803F0FF0023B1012892F82A307FF4CFAD5378C14D984282D0C14B0021012468702C701970997044
:403D4000D970198199725970597119739973D973998299755973597419769976D976198483F822105976597783F8241083F8261083F82710998583F82E1083F8251083F832
:403D8000291083F8301083F8321083F83310198783F83A1083F8311083F8351083F83C1083F83E1083F83F10A3F8441083F8461083F83D1083F8411083F8481083F84A105D
:403DC00083F84B10A3F8501083F8521083F8491083F84D1083F8541083F8561083F85710A3F85C1083F85E1083F8551083F8591083F8601083F8621083F86310A3F868103A
:403E000083F86A1083F8611083F8651085F8301085F8341085F8311085F83510687800283FF40AAF687895F82A40C0B2012840F0AB832E79814606F0FE068A461C462E71B6
:403E40004FF002084FF0400C4FF0820E09E0022800F02381032800F002810130092800F083810128C5B2F2D19E8AB6B2072E01D80826A68292F83060002EEED14FF00D0753
:403E800081264FF0030B1E7483F80CB05F746B4FC1F3800683F80D9041F00401BD55DCE703F00303012B00F01381C0F06F83022B7FF40AAD5E4B9A7802F0FF00002A7FF470
:403EC00003AD1B7903F07F035A1E072A3FF6FCAC59490C2202FB031291781B0141F001019170D070517841F002015170127912F0800F534A1A4414BF8D23892393709BE680
:403F000050490B70E3E41C465379BFE50124FBE75479082C00F094830C464A490B700370BEE50324F0E70A2A3FF6CEAC01A151F822F000BFE33F0000C9380000C93800008E
:403F4000C9380000C9380000C9380000833F0000C9380000753F0000C9380000613F00000122334B22801B79374A13446360FFF77DFB09E6354B012222806360FFF776FBE8
:403F800002E62B4AD378012B00F07883D378022B00F06083D378032B7FF4F4AD9378002B00F077832A4B197851B1002101E0187830B11D7801319078C9B281422B44F6D38A
:403FC0001B4A917819B19278802A00F064831A78002A3FF479AC1A7822806360FFF746FBD2E513F0030300F02982022B7FF46CAC0F4A23801279104B02F07F020C2101FB2B
:4040000002330C4A9B7802F12C01DBB2002082F82C3082F82D006160FFF728FBB4E5042472E7062470E705246EE707246CE700BF00600040DC8CFF1F848DFF1FF48DFF1F74
:40404000FC5F00400A8EFF1F0C8DFF1FDD8CFF1F80820000082457E700235B68FFDE9E8DB6B23F2E50D8A4F82CC092F83160002E7FF4F3AE4FF0090684F82800C1F340008F
:40408000104484F8248041F0020183F8296083F825A080F83C500420E3E61E8CB6B23F2E38D8A4F820C092F83160002E7FF4D5AE4FF00D0701F00106164484F81CE041F08B
:4040C000010120765F7783F8199086F83850C4E61F490B79012B3FF6F7AB88781D4A0B791D4F134493F840201C4922EA00021C4D1C4C83F8402006208026002338700870C8
:404100002E702370FFF7E3BB92F83160002E7FF4A4AEAFE792F83160002E7FF49EAEC7E70B4B9B78012B7FF4CFAB0A480A4F03790A490B4D0B4C03F0FD0303710622802680
:4041400000233A700A702E702370FFF7C0BB00BF00600040DC8CFF1F068EFF1F0A8EFF1F078EFF1F108EFF1F00210120997583F8220083F82E00547892F82A2059829A8A65
:40418000B64891B201F001020A4491B2D9831A8C012C0A4491B201F001020A4491B259859A8DAF4E0A4491B201F001020A4491B2D9861A8FAB4C0A4491B201F001020A440A
:4041C00091B2A3F84210B3F8442018BF00200A4491B201F001020A4491B2A3F84E10B3F850200C250A4491B201F001020A4491B2A3F85A10B3F85C2030600A4492B202F0D8
:4042000001010A4492B2A3F86620B3F868202570597C954A002900F0E381127C12F0800F924A06BF082191709570598A8D4AC9B29171598A8E4DC1F30721D171598A0C20BF
:40424000C9B21171598A884CC1F30721517128705A7F002A00F0C081227F12F0800F854A06BF082191709070D98B814AC9B29171D98B814DC1F30721D171D98B0C20C9B229
:404280001171D98B784CC1F307215171287093F82920002A00F09C8194F8282012F0800F764A06BF082191709070598D724AC9B29171598D724DC1F30721D171598D0C200B
:4042C000C9B21171598D684CC1F307215171287093F83520002A00F0778194F8342012F0800F684A06BF082191709070D98E644AC9B29171D98E644DC1F30721D171D98EBE
:404300000C20C9B21171D98E574CC1F307215171287093F84120002A00F0528194F8402012F0800F594A06BF082191709070B3F84210554AC9B29171B3F84210544DC1F3C1
:404340000721D171B3F842100C20C9B21171B3F84210454CC1F307215171287093F84D20002A00F0298194F84C2012F0800F494A06BF082191709070B3F84E10444AC9B210
:404380009171B3F84E10444DC1F30721D171B3F84E100C20C9B21171B3F84E10324CC1F307215171287093F85920002A00F0008194F8582012F0800F384A06BF08219170AF
:4043C0009070B3F85A10344AC9B29171B3F85A10334DC1F30721D171B3F85A100C20C9B21171B3F85A10204CC1F307215171287093F86520002A00F0D78094F8642012F072
:40440000800F284A0ABF082190709170B3F86610234AC9B29171B3F866102348C1F30721D171B3F86610FF24C9B21171B3F86630C3F3072353710470FFF7FEBB1B4A022102
:404440002180117902F12C00C9B282F82C1082F82D306060FFF70AF9FFF796BB8C830000F08DFF1F80600040848DFF1F0C600040906000401C600040A06000402C6000404D
:40448000B06000403C600040C06000404C600040D06000405C600040E06000406C600040F06000407C6000400A600040DC8CFF1F537892F82A10DBB2012B62D1907800F03D
:4044C000FF01002800F0908001297FF4B5AB92F8313003F0FF0413BB944B9548DC7682270D24022640251F771E761D845C77597681701C8C8F49C4F3072404701C8CE4B201
:404500004470D88BC0B28871D88BC0F30720C871D88BC0B20871DB8BC3F307234B7192F8313003F0FF02002B7FF486AB7F48824B0121032702264025092480F8272080F8B4
:40454000287080F82460858580F8294080F825209970828D7949C2F307221A70828DD2B25A70438DDBB28B71438DC3F30723CB71438DDBB20B71438DC3F307234B71FFF7E0
:404580005BBB00231B7AFFDE4B68FFDE6C4B9B78012B7FF499A96B486B4F03796B496C4D6C4C43F00203C8E56B4A802191702DE76A4A8021917004E7694A80219170DBE660
:4045C000684A80219170B2E6674A802191708DE6594A8021917068E6554A8021917043E6624A8021917020E692F8302002F0FF07002A7FF421AB4D485C4A0D218126032545
:404600000824C773067405738482417443739370838A5749C3F307231370838ADBB25370438ADBB28B71438AC3F30723CB71438ADBB20B71438AC3F307234B71FFF7FCBA17
:404640000C46FFF723BA012B16BF0D2384708370FFF7F2BA93783B4A92F82A20002B7FF433A9444B63606368DA7863689B7843EA02232380FEF7FAFFFFF786BA3E4A314915
:40468000122391F82A1062602380FEF7EFFFFFF77BBA3A4B94E43A4E03AD0FCE0FC53268384B2A7000221B781146DBB2364801930578364843EA052301930578344843EA3D
:4046C000054301930578222643EA0563019310F8013CDBB2029310F8025C43EA05230293C57843EA054302930579164843EA0563032502930672457200F1080301AEB05CDE
:4047000008AF00F00F053D4407EB1010013215F8145C10F8140C082AD97059711D71987003F10403EBD11B4B51E400BF848DFF1F1C600040906000402C600040A060004040
:4047400000600040DC8CFF1F068EFF1F0A8EFF1F078EFF1F108EFF1F7C6000406C6000405C6000404C6000403C6000400C60004080600040A4830000908300008082000048
:40478000E88300000301004904010049EC46004002010049E48CFF1F2DE9F84F00780C46012893469846BDF828A000F02181042840F09680B44FB54D3B7813B12B78042BD1
:4047C0004ED0B34EDFF80893337843F00103337002F0D6FDAF49B04A0B7803F0EF030B70137803F0EF03137002F0CEFDAB49AC4A0B7803F0FD030B70137803F0FD0313707D
:4048000091F86C3C03F0F10343F0020381F86C3C92F85D3C03F0F10343F0020382F85D3C91F8C33C002203F0F10343F0020381F8C33C337803F0F10343F00C03337033784F
:4048400043F00103337089F8002000F0F3FF9549042000F02BFE064604232B70002E44D1D3455E4638BF5646894A04EB0B071378C24403F0FE03137056B3002318469946DB
:404880008949DFF850C2DFF850B2B04211D21D1DA8420ED2A74200F0A48094F800E00A785207FCD58CF800E00134013080B28642EED89BF80020920608D5C24500F0DF806E
:4048C0007A4A127808F8012B01339BB29E42DCD86F4A0020137843F001031370BDE8F88FDFF8EC91694D684F0B26694C237843F00103237002F044FD6649674A0B7803F0CA
:40490000EF030B70137803F0EF03137002F03CFD6249634A0B78DFF8C4E103F0FD030B701378304603F0FD0313709EF80030604E03F0F10343F002038EF800303378DFF8E5
:4049400080C103F0F10343F0020333709EF85730002603F0F10343F002038EF85730237803F0F10343F00C032370237843F00103237089F800601EF80E3C03F0F10343F0AE
:4049800002030EF80E3C14F80C3C4FF0100E03F0F10343F0020304F80C3C04F5A354CCF800E006342378DFF81CC103F0FD0323709CF80030237CDFF810C103F0DF03237474
:4049C0003C4BCCF800E083F800E00B7803F0FB030B70137803F0FB0313703E702E70BDE8F88F0A785407FCD53C468CF800905CE7DFF8DC90254D99F800301BB12B78012B33
:404A00003FF42EAF2C482D4A03782D4903F0F10343F0020303701378102003F0F10343F00203137002F5A352086012321378254903F0FD0313700B78137C234E03F0DF033C
:404A400013741C4BA1F503513060013918700B78A2F5035203F0FB030B70013A13780A4F03F0FB03137000233B7002F0F1FB1749012000F01BFD012306462B70EEE60B4A35
:404A8000D046127820E700BFE08AFF1F1E8DFF1F0D5000409865004098640040A2430040B24300409C83FF1F686500405B6500400F500040AC8AFF1F005000400150004071
:404AC00080E100E06364004080E200E09883FF1FE18AFF1F4B650040686400400E5000402DE9F04F0446007883B001280E469146984600F0FC80042800F08180A04FA14DEE
:404B0000DFF8BCA24FF00B0B9F4CA04E237843F00103237002F034FC9D499E4A0B7803F0EF030B70137803F0EF03137002F02CFC99499A4A0B78DFF88CE203F0FD030B70D1
:404B40001378584603F0FD0313709EF8003003F0F10343F002038EF80030337803F0F10343F0020333709EF85730002603F0F10343F002038EF85730237803F0F10343F06A
:404B80000C032370237843F0010323703E701EF80E3C102703F0F10343F002030EF80E3C14F80C3CDFF808E203F0F10343F0020304F80C3C04F5A354CEF8007006342378C7
:404BC000DFF8F0E103F0FD0323709EF80030237CDFF8E8E103F0DF032374714BCEF800701F700B7803F0FB030B70137803F0FB0313708AF800602E7003B0BDE8F08FDFF879
:404C0000C0A1604D9AF8003013B12B78042B5FD0DFF874B15A4F9BF8003043F001038BF8003002F0ADFB5A495A4A0B7803F0EF030B70137803F0EF03137002F0A5FB5649A5
:404C4000564A0B7803F0FD030B70137803F0FD03137091F86C3C03F0F10343F0020381F86C3C92F85D3C03F0F10343F0020382F85D3C91F8C33C002203F0F10343F0020313
:404C800081F8C33C9BF8003003F0F10343F00C038BF800309BF8003043F001038BF800303A7000F0C7FD3F49042000F0FFFB834604232B70BBF1000F7FF426AF2378012BE7
:404CC00000F03C81042B03D00B2003B0BDE8F08F334D8DF807602A786378102A74D02A78602A00F06E81012003B0BDE8F08F244F244D3B781BB12B78012B00F01F812A4865
:404D00002A4A03782A4903F0F10343F0020303701378102003F0F10343F00203137002F5A352086012321378224903F0FD0313700B78137CDFF884E003F0DF031374184B12
:404D4000A1F50351CEF80000013918700B78A2F5035203F0FB030B70013A1378DFF860A003F0FB03137000238AF8003002F070FA1149012000F09AFB012383462B7099E79C
:404D8000E18AFF1F1E8DFF1F0D5000400F5000409865004098640040A2430040B2430040AC8AFF1F9C83FF1F005000400150004080E100E0636400409883FF1F80E200E01D
:404DC000E08AFF1F0E500040874A1278D6068AD4864E874A874845272F7000210127117007708548022202703278BB408348DFF840E202F0FD023270DBB20DF10702804F76
:404E000002608EF800307F4882233B707E4AFF2303701023117019467C4FDFF804E23B60CEF800103078DFF8F8A180072B784FF0100239606D4BDFF8FCB1DFF8D0C1EFD546
:404E4000CAF800201978002011F0F00F1870CCF8002059D1B9F1000F3FF445AF9BF800006178102800F0BA809BF8000060287FF43AAF674802601A7802F0F7021A70654B1C
:404E8000654A492028705FFA88F80020187082F80080594A01231370327801FA03F35F4CDFF88CE143F001035549DBB202F0FE023270C4F80090534F8EF80030534A4FF07D
:404EC000320E81F800E0FF2310213B700B4617464D4C20705248116003603278DFF840C1D2072978414C4FF010013B60DFF81CE1F2D5CCF800102078002310F0F0002370B5
:404F0000CEF800103FF478AE374B1B785C077FF5EAAE3C4B3A4E1A463B495227FF24002037701C7008701378002BFCD110232E4A2B70137813F0210FFBD0D4E66078002858
:404F40007FF4C2AE3749384A0B7803F0FE030B7013785907FCD5354B1E70B8F1000F2AD04FF0000C67461E46844638462E4ADFF8C8E0DFF8C8A0012188450ED33C1D8C420D
:404F800088BF002509D913785B07FCD5013189B28845357001D38C42F5D89EF800309B0606D5B8B19AF800407B1C09F807409FB2B845E1D860461B4A137843F001031370E4
:404FC0001AE6134A094E10211160327802F0F7023270FEE69AF800300120E9E7024B1B78D8067FF54CAF7EE663640040B68AFF1FB48AFF1FAD8AFF1FB58AFF1FB08AFF1F31
:40500000736400401B6400405B64004000E100E080E200E0B78AFF1FBC8AFF1FB88AFF1F80E100E00D500040686500404B6500400B640040AC8AFF1F686400405B6500408B
:4050400030B4184B18491C7891F8D63064082343164881F8D6300268B1F8D43001329BB20260EBB1124D002304E0B1F8D42092B29A4215D903F1080201EB8202D2F8942024
:405080000133107D9BB20442EFD01069D060286820F07F401061B1F8D42092B29A42E9D830BC704782450040E48AFF1F9084FF1F18E000E030B4184B18491C7891F88E3023
:4050C00004F00F042343164881F88E300268B1F88C3001329BB20260E3B1124D002304E0B1F88C2092B29A4214D903F1080201EB8202D26C0133107D9BB20442F0D0106968
:40510000D060286820F07F401061B1F88C2092B29A42EAD830BC704783450040E48AFF1F9084FF1F18E000E030B4184B18491C7891F84630C4F3C0042343164881F846308E
:405140000268B1F8443001329BB20260E3B1124D002304E0B1F8442092B29A4214D903F1080201EB820252680133107D9BB20442F0D01069D060286820F07F401061B1F854
:40518000442092B29A42EAD830BC70478C450040E48AFF1F9084FF1F18E000E00378112B01D9092070470246407801280DD00028F7D170B49D002E4CE918C900665A2144CE
:4051C000B60720D4052070BC7047294903EB8303DB00C85A0B44410701D405207047D07801282CD025D30228DBD1996800200A7802F0F10242F00C020A709A68137843F08E
:40520000010313707047D278012A2AD027D3022A23D18E680421327842F0010232702B4404EBC3039A68137803F0F1030B431370C9E79A68137803F0F10313707047996843
:4052400000200A7802F0F10242F00C020A709A68137803F0FE03137070470920B3E70221DDE78E680621327802F0FE023270D6E7C480FF1F122801D90920704700EB8000AF
:405280000D4BC0001A5A520701D405207047012909D00229F0D1184482680020137843F0010313707047184482680020137803F0FE031370704700BFC480FF1F122803D9B1
:4052C00000230B700920704700EB80000A4BC0001A5A920701D405207047184483681B7803F0100303F0FF0013B901230B70704702230B7000207047C480FF1FF8B50378FD
:40530000112B01D90920F8BD9E00354DF218D200AC5A1F4624072A4401D40520F8BD8478012C49D03FD3022C2CD0F218D200AC5A2A442407F1D5407801284FD04CD30228C2
:40534000E0D1528B0C46334405EBC3031146D88B1A6A234D9047002C3CD007EB870705EBC7077A680020B2F844309BB2083302EB83035F607A68B2F8443001339BB2A2F830
:405380004430F8BD9468237803F0F10343F0040323709268137843F0010313700378112BB0D89E00C1E79268137803F0F10343F0020313700378F2E79468237803F0F103BC
:4053C00043F0060323709268137803F0FE0313700378E4E72046F8BD128BB3E7928BB1E7C480FF1FF0B570B1012804D00023138009231846F0BD1388032B0BD80023138021
:405400000E231846F0BD1388072B0BD80E2310801846F0BD1D4B042418680023086014801846F0BDDFF880E0194D1A4C1A4B1B4F1B4E3F7805339EF800C0367895F800E0DF
:40544000257813F8054C1B7836041B0443EA0423144C46EA0C2624783E432B4346EA0E6543EA04642E0A4FEA142E2F0C0D700C714E700346260C2D0E240E082081F805E05A
:405480008F70CD708E71CC711080B2E7FC83000002010049010100490001004903010049EC4600400601004904010049764B00220128F0B51A7004D004282CD00B231846CB
:4054C000F0BD0B78002BF9D14A88B2F57A6F45D000F28580B2F57A7F00F0D380B2F5FA6FECD11125694E6A4F30783A8800F0070492B295420BD067480078C0B2002C2FD1A3
:40550000002A2DD13D80327802F0BF0232700868614A1060D3E74B88642B1DD0B3F5C87FCCD10B245D4D5E4E2A78338802F007009BB2A3420BD0574A1278D2B2002859D17E
:40554000002B57D134802B7803F0BF032B700868514A00235060B2E72E24E3E70825C1E700F0020000F0FF0648B34E4FDFF840E14D4800244FF0020C047087F800C08EF813
:40558000004017F8084C0EF1720E04F07F0407F8084C9EF80040240711D4044607272EF8842CAEF1840E077022783F4812F00102FAD1384F3C7804F0FD043C700270354A65
:4055C0001478A0074FD56FF4687C62441046374E0324358014700278D707FCD497E741F2707082424BD042F2283082427FF466AF032577E702F0040202F0FF051AB3294E04
:405600002B4F294A00204FF0040E107086F800E0387016F8080C763700F07F0006F8080C387806070FD41046072627F8883C167003781D4A13F00103FAD1164E307800F0FA
:40564000FB0030701370134B1878400711D56FF4687213441A46154D03202C8018701378DB07FCD473E70A4805801078304310704DE70B4A14801A782A431A7067E705253D
:4056800030E724252EE700BF1E8DFF1F8640004084400040A24300409883FF1F8A4000408840004010400040014000400240004014400040112801D909207047F8B5044662
:4056C0000D4601F05DFE0B4B04EB840403EBC404E36826699E1B63EB030701F055FE002E77F1000302DB2E600020F8BD16F18076F9E700BFC480FF1F70B504460D4601F0CF
:405700003FFE104A04EB840402EBC4035C681A7D94F84630134004D12B7001F035FE002070BD094E94F84610736821EA02020121013384F846202970736001F025FE00201B
:4057400070BD00BFC480FF1F9084FF1FF8B50378112B01D90920F8BD354E03EB8303DB00F25AF418130701D40520F8BD0546236A218BE08B984701F003FE6268217D92F8E8
:40578000463023EA010382F8463001F0FDFD2C7801F0F6FDA5002F1906EBC7077A68397D92F8463023EA010382F8463001F0ECFDD7F804E0BEF8440080B2B8B3DEF824306C
:4057C0009F424FF0000311D0BEF8442001339BB292B203F1080193420EEB810125D24A689742F1D14FF6FF7293421ED0BEF844200EF1240092B2013AD21A93420DD2034419
:405800001044194613F8012FD2B283420A70F8D12C4406EBC406D6F804E0BEF844300020013B9BB2AEF84430F8BD0020F8BD00BFC480FF1FF8B52B4A2B4813782B4903F0F2
:40584000F10343F0080313700378A2F64E4203F0F10343F0080303700B78254D43F004030B7013786C7843F0040313706CBB214B02F503520132012614701E7001F080FDA9
:405880001D4A137843F01003137001F07DFD1B491B4A1C4B0F200F68107008201870A1F68831194A10230B60E021DFF878C0DFF878E06E70154811701549164A8CF80030FE
:4058C000C7F850E004700C701470134A134C1378134943F0020313701025012025600870F8BD00BF0050004001500040A24300401E8DFF1F836400409364004008ED00E0DE
:405900002C6400403C64004004E400E0B68AFF1FB78AFF1FB48AFF1F7364004000E100E0E08AFF1FAC8AFF1FF52800002DE9F04F0446007891B001288A4691469B4600F00C
:40594000F980042800F086809D4F9E4D9E4E4FF00B089E4C237843F00103237001F010FD9B499C4A0B7803F0EF030B70137803F0EF03137001F008FD9749984A0B78DFF878
:4059800080C203F0FD030B701378DFF878E203F0FD0313709CF80030404603F0F10343F002038CF800309EF8003003F0F10343F002038EF800309CF857304FF0000E03F0F2
:4059C000F10343F002038CF85730237803F0F10343F00C032370237843F00103237087F800E01CF80E3C102703F0F10343F002030CF80E3C14F80C3CDFF8F4C103F0F1038C
:405A000043F0020304F80C3C04F5A354CCF8007006342378DFF8DCC103F0FD0323709CF80030237CDFF8D0C103F0DF0323746C4BCCF800701F700B7803F0FB030B701378CC
:405A400003F0FB03137086F800E085F800E011B0BDE8F08F5C4E5B4D337813B12B78042B5FD0DFF86881564F98F8003043F0010388F8003001F084FC5549564A0B7803F01F
:405A8000EF030B70137803F0EF03137001F07CFC5149524A0B7803F0FD030B70137803F0FD03137091F86C3C03F0F10343F0020381F86C3C92F85D3C03F0F10343F0020342
:405AC00082F85D3C91F8C33C002203F0F10343F0020381F8C33C98F8003003F0F10343F00C0388F8003098F8003043F0010388F800303A70FFF79EFE3A490420FFF7D6FC67
:405B0000804604232B70B8F1000F7FF422AF2378012B00F0EE80042B03D00B2011B0BDE8F08F0BF10105EDB2402D6DD9012011B0BDE8F08F224F234D3B781BB12B78012B21
:405B400000F0D7802848294A0378294903F0F10343F0020303701378102003F0F10343F00203137002F5A352086012321378214903F0FD0313700B78137C1F4E03F0DF03C8
:405B80001374174BA1F503513060013918700B78A2F5035203F0FB030B70013A13780A4E03F0FB0313700023337001F051FB13490120FFF77BFC012380462B70A3E700BF98
:405BC000E18AFF1F1E8DFF1FE08AFF1F0D5000409865004098640040A2430040B2430040AC8AFF1F9C83FF1F005000400150004080E100E06364004080E200E09883FF1FE6
:405C00000E5000400F5000405A4649460DF101008DF800A002F093FADFF8C8E163789EF80020102A00F0B2809EF80020602A7FF47DAF5A4ADFF890C1102111609CF80020E7
:405C400002F0F7028CF80020554C5648564945228EF800200022227005700A709CF80010524C5B00524E5348DBB201F0FD018CF80010C4F800D0504D3370504982230370A2
:405C8000FF232B700D464E4C10200346227008604C4803609CF800204A4F92079EF80010494C4FF010012B60444EF2D539602078002310F0F000237031603FF4C8AE434ADD
:405CC000127852077FF532AF3B493A4D0A463C485226FF242E700C7003701378002BFCD110233A4A8EF80030137813F0210FFBD01CE76378002B7FF410AF01F041FB344B05
:405D00001A7842F001021A701A7802F0FE021A7001F03AFB2F49304A0B7803F0FE030B7013785E07FCD52D4C84F800A0BBF1000F0ED00BF1FF3080B2274A484409F1FF397F
:405D400019F8011F13785D07FCD548452170F7D1214A1378D807FCD51E49214A0B7843F001030B70137803F0200303F0FF00002B3FF46DAE01F5AA510E310B78137803F062
:405D8000200303F0FF00002BF7D160E60F4A1278D1063FF5CBAEDFF830C055E780E200E0B48AFF1FAD8AFF1FB58AFF1FB08AFF1F0B640040736400401B64004000E100E03D
:405DC0005B64004080E100E0B68AFF1F636400409B6500400D500040686500404B65004068640040AC8AFF1F10B543780446002B38D0012B2DD04FF4BC720021204601F0B5
:405E0000F3FA00221B4B22701A7802B19A7893F87811184811B190F87A11C1B993F8F002144938B993F8681461B97AB9124B02221A7010BD91F8F2020028F3D091F86814DD
:405E4000013219B193F86A34002BEED010BD0132E4E70A4BDB68002BCDD05B68D0F874019847C8E7054B00F5B8701B695B689847C1E700BFB884FF1F988AFF1F648DFF1FB7
:405E80001C4B1A782AB15A781AB993F87021824215D093F87811174A49B993F8F012154A79B993F86834134AC3B91846704792F879110029F1D192F8E8228242EDD10120C4
:405EC000704792F8F1120029EBD192F860248242F5D093F86834074A002BE6D092F8693433B992F8D835181AB0FA80F04009704700207047B884FF1F38B543780446002B45
:405F000039D0012B1DD009251F4B1A7802B19A7893F878111C4819B190F87A1101B1013293F8F0021849B8B993F86814E9B932B9164B9B68DB689847154B02221A70284631
:405F400038BD124BD0F87401DB68DB6898470546002DD9D1A570D7E791F8F2020028E3D091F8681401320029E9D093F86A34002BDDD0284638BD054B00F5B8701B695B68AE
:405F800098470546E4E700BFB884FF1F648DFF1F988AFF1F70B5457882B004469DB1012D0ED1424BDB68002B79D09B68D0F87401984730B93E4B0322A5701A7002B070BD53
:405FC000092002B070BD394E0379326900F5B8701268002B68D0A17905295CD0012B61D094F82410052956D0022B5BD094F84210052950D0032B55D094F8601005294AD001
:40600000042B4AD094F87E10052944D0052B44D094F89C1005293ED0062B3ED094F8BA10052938D0072B38D094F8D810052932D0082B32D094F8F61005292CD0092B2CD039
:4060400094F81411052926D00A2B26D094F83211052920D00B2B20D094F85011A1F10501B1FA81F14909904733690DF107011B6994F8700198470028A3D194F871119DF801
:4060800007200B4D0123032691422E70A37008BFE37002B070BD0121E5E70021E3E70B2002B070BD2946DEE71946DCE7648DFF1F988AFF1F994B02781B8A142B28BF1423AF
:4060C0009A4201D90E2070470A7043784B7043782F2B03D9332B2DD909207047023B202B00F22381DFE813F01C0121018F0021010F01210106012101FF002101F800210172
:4061000021002101210021012100210121002101210021018F0021013A0021018F002101E800210121002101E800436800201B788B7070470278022A63D002310B4630B4CC
:40614000D51EEDB201350D4444685A1AA25C03F8012BAB42F8D1002030BC704743681A788A705A7C002A4CD05A78CA705A7C012A47DD9A780A715A7C022A42DDDA784A7109
:406180005A7C032A3DDD1A798A715A7C042A38DD5A79CA715A7C052A33DD9A790A725A7C062A2EDDDA794A725A7C072A29DD1A7A8A725A7C082A24DD5A7ACA725A7C092A8A
:4061C0001FDD9A7A0A735A7C0A2A1ADDDA7A4A735A7C0B2A15DD1A7B8A735A7C0C2A10DD5A7BCA735A7C0D2A0BDD9A7B0A745A7C0E2A06DDDA7B4A745A7C0F2A01DD1B7C56
:406200008B740020704743681A788A709A7C002AF7D05A78CA709A7C012AF2DD9A780A719A7C022AEDDDDA784A719A7C032AE8DD1A798A719A7C042AE3DD5A79CA719A7CCA
:40624000052ADEDD9A790A729A7C062AD9DDDA794A729A7C072AD4DD1A7A8A729A7C082ACFDD5A7ACA729A7C092ACADD9A7A0A739A7C0A2AC5DDDA7A4A739A7C0B2AC0DDA8
:406280001A7B8A739A7C0C2ABBDD5A7BCA739A7C0D2AB6DD9A7B0A749A7C0E2AB1DDDA7B4A749A7C0F2AACDD1A7C8A749A7C102AC4BF5B7CCB74A4E743681A788A701A784B
:4062C000002A9ED15A68CA705A68120A0A71DA884A71DB798B7194E7436800201A788A705B78CB707047436800205A788A701B78CB707047436800209A788A701A78CA70ED
:406300005B780B717047436800201A788A705A78CA709A780A71DB784B717047388DFF1F43680020DB788B7070470720704700BF38B5074B1B68DB0300D438BD054C04F1A2
:40634000140554F8043B03B19847AC42F9D138BD10E000E0208DFF1F024A137843F0010313707047F6460040704700BF704700BF014B1870704700BF74640040030702D5AB
:40638000014BC9B21970704763450040C20702D5094BCAB21A70830702D5084BCAB21A70420702D5064BCAB21A70030702D5054BC9B21970704700BF1845004019450040DD
:4063C0001A4500401B450040014B1860704700BF24650040014B1878704700BF67650040024A137803F07F031370704777650040014B1870704700BF7B650040014B18602D
:40640000704700BF23640040014B1878704700BF66640040024A137803F07F031370704775640040830702D5104BCAB21A70420702D50F4BCAB21A70030702D50D4BCAB22D
:406440001A70C20602D50C4BCAB21A70830602D50A4BCAB21A70420602D5094BCAB21A70030602D5074BC9B21970704711450040124500401345004014450040154500407D
:406480001645004017450040014B1B78704700BF8F45004010B5134C237D2BB1124A137843F08003137010BD1049114A4FF0FF330B60136000F064FF0E4A137843F0100330
:4064C000137000F061FF0C4A1378190704D50B490B6813781B07FBD4094A0021012311702375DBE7208DFF1F776500402465004004650040976500406765004044650040AF
:406500008765004010B51A4C637D2BB1194A137843F08003137010BD17494FF0FF320B780A704B784A708B788A70144BC878CA7019781A7059785A7099789A70D978DA70C8
:4065400000F01EFF0E4A137843F01003137000F01BFF0C4A1378190704D50B490B6813781B07FBD4094A0021012311706375CDE7208DFF1F75640040236400400364004044
:40658000966400406664004043640040866400402DE9F043A74C91B006460F46A36903A81421984740B3A38DC3F11402904226D8184403AA85B203F1010EE11812F8010B8E
:4065C0001FFA8EF3AB4281F83000DFF86882F2D1A8F82C305EB19F4209D808F130093A463046494601F09CFD002840F0848094F83060904FAE4220D911B0BDE8F08303229B
:4066000008A916230E2501A88DF804208DF805308DF80050CDF808D0FFF74CFDE36908A89DF804109847002363632363A363E3632364A38511B0BDE8F083202208A80021A6
:4066400000F0D2FE97F831208DF82060531E8DF82120202B3AD8DFE813F0B00039005C00390039003900490039005C0039009700390049003900F3003900490039004900C7
:4066800039004900390049003900CE0039004900390021003900760039006D0094F8326094F8335094F8340094F8351094F8362094F837308DF824608DF825508DF826005D
:4066C0008DF827108DF828208DF829305A4A0023536008A8236302F114019360D3601361A385FBF76BF911B0BDE8F08394F832308DF82430EAE70023C8F83030C8F834308B
:40670000C8F83830C8F83C30C8F84030A8F82C3072E794F8320094F8331094F8342094F835308DF824008DF825108DF826208DF82730CBE794F8322094F833308DF82420D0
:406740008DF82530C2E794F832200021531E09910A918DF82420092BB8D801A252F823F0DF680000DF680000DF680000CD680000CD680000CD660000C368000099680000C6
:40678000CD6600009968000094F83220002309930A930B938DF82420264B002A40F0108193F8331093F8342093F835308DF828108DF829208DF82A3088E7721F94F8325093
:4067C00094F8330094F834100023D2B20C938DF827200A930B93CDF833308DF824508DF825008DF82610002A3FF470AF13490AA801F0A5FC6AE7721F94F8325094F833006C
:4068000094F834100023D2B20D9309938DF836200A930B930C938DF824508DF825008DF83710002A3FF452AF04490DF1260001F086FC4BE7208DFF1F508DFF1F558DFF1F47
:4068400094F83320002302F03F0094F8327094F834500E9309930A930B930C930D93411ED309C2F380128DF83A008DF83D308DF83E208DF83B708DF83C5008293FF626AF5E
:40688000DFE801F08D735905053A0547500094F836308DF8243019E794F8335094F8340094F8351094F8362094F837308DF826508DF828008DF827108DF82A208DF8293096
:4068C00004E794F833308DF82630FFE694F8342094F8333043EA0223ADF82830F6E694F8351094F8343094F8332043EA0123ADF828308DF82620E9E694F8356094F8365049
:4069000094F8370094F8381094F8392094F83A30D0E694F8362094F837308DF824208DF82530D3E694F8352094F836308DF824208DF82530CAE6A6F1080294F8350094F8EA
:40694000361094F83730D2B28DF838208DF824008DF825108DF83930002A3FF4B7AE20490DF1260001F0EBFBB0E6A6F1080294F8350094F8361094F83730D2B28DF83320ED
:406980008DF824008DF825108DF82630002A3FF49DAE13490DF1270001F0D1FB96E694F8350094F8361094F8372094F838308DF824008DF825108DF826208DF8273085E658
:4069C000012A7FF483AE93F8350093F8342093F8331042EA0023ADF82A308DF8281075E6588DFF1F014800F0C3BC00BF1021010070B4554A137803F00303012B5BD0022B7E
:406A000009D0524A0023D2F8D010CB5C022B15D0002070BC704713794C4A03F07F0303EB430302EB830393F86E30DBB2022BEFD8464AD2F8D010CB5C022BE9D1424B197989
:406A400092F8D430C9B203EB430302EB830393F86E308B4232D092F8D53003EB430302EB830393F86E30994214BFFF2101213648037813F0800F437822D1DBB2202B2DD011
:406A8000222BC5D1837802EB4100A0F8EC30114491F8E430062443F002038026002581F8E430012082F8E64082F8EA4082F8E76082F8F050ADE71379DBB2B7E70021D6E761
:406AC000212BA5D170BC224BC1EBC1010B440721A2F8D810C2F8DC30FCF7C8BD1C48C1EBC10303440720A2F8D8001144C2F8DC3091F8E430042543F001038024002081F88D
:406B0000E43082F8E65082F8E740A2F8E800D2F8E0100E4B29B1D3F8E0100870D3F8E03058800949094CC8798B79B2F8D81043EA002389B28B4238BFA4F8D8300B2382F882
:406B4000EA30012065E700BF00600040208DFF1FA083FF1F4A2303FB00F000F009BC00BF012838B502D90923184638BD0A4DC0EBC00005EB80052B7913B90623184638BDC1
:406B80002B690C4698476A79002310420CBF1A4601222270E8E700BF148EFF1F012801D90920704710B5074CC0EBC00004EB800423790BB9062010BDE368984723699847C9
:406BC000002010BD148EFF1F012801D90920704770B5C0EBC000084E840035192B790BB9062070BDAB68984730596B699847AB6901209847002070BD148EFF1F012801D940
:406C00000920704710B5074CC0EBC00004EB8004207930B1E3689847236998470020207110BD10BD148EFF1F2DE9F04F8EB20027B41947EB0705A4197D414FEA85194FEA12
:406C4000841849EA946914EB080445EB0905AB00A10043EA94738C1943EB0705AB00A10043EA94738C1943EB07056B0143EAD463610183B00C461D46074692460846404A2A
:406C80001946002301F0BCF84FF47A720023804689462046294601F0B3F8DFF8ECE0394BA6FB0EBC1A79CDE900BCA346AC463AB193F82020002A60D0062003B0BDE8F08FD6
:406CC00007F1FF3EBEF1030F28D8DFE80EF00221042444464D4614F1FF3645F1FF37002F08BFB6F1FF3F19D2002D08BF012C224614D00024E100091B8900581801250571DA
:406D0000013A00205A50CAF8004003B0BDE8F08F04460D46DFE7DDE90045DCE793F820204ABBBEF1030F26D8DFE80EF01902041683468C461BF1FF304CF1FF31002908BF88
:406D4000B0F1FF3F17D2BCF1000F08BFBBF1010F5A4610D00124CDE7DDE900BCEAE718F1FF3049F1FF31002908BFB0F1FF3F02D2C346CC46E7E70A209FE707F1FF3ED0E796
:406D800040420F00148EFF1F808D5B002DE9F843504E0D46348FB4B1A14228BF2546778F06F13C01641B2A463944A4B201F0C7F934871CB974872846BDE8F8832F44778744
:406DC0002846BDE8F883444B444F1A78DFF814E1BB5C014603EB43030EEB83035B7803F0FF000BB9BDE8F883BA5CD2B24FEA420C0CEB02030EEB83031F89531E072BBFB273
:406E00003ED8DFF8E4901001C84610F80930804498F8014003F00F0344EA0323023B9BB29F4231D8002F47D07C1EA4B22C4BDFF8BC9001341C44814499F8080003F8010B65
:406E40009C42F9D162440EEB820E4FF000098EF801909EF80530BD42DBB2378788F802301C4C1CD208462A4604F13C0101F067F9638F7F1B2B44278763872846BDE8F8835D
:406E800034872046BDE8F88310F8097098F8013007F00F0743EA0727023FBFB2C2E708463A4604F13C0101F04AF9A4F83890A4F83A903846BDE8F88362440EEB820E8EF83B
:406EC00001709EF805303846DBB2378788F8023088E700BF148EFF1FE28AFF1F188DFF1F508EFF1F848DFF1FFC5F004070600040734B93F88101A8B12DE9F04F704A93F80C
:406F000080317C3203EB831383B0D318019300F0D48093F84090B9F1000F04D1484603B0BDE8F08F7047D2F8083166490F2B00F2968000208446CCEB0905614BEDB2402D18
:406F4000614F624A0978D3F884B16DD8002D6DD0ADB27B5C03EB430302EB83035B78002BF7D0594B59485C5CE4B24FEA440808EB040300EB8303188980B2A84238BF18890B
:406F800004F1FF3334BF80B22846072B3BD808EB040602EB8606F3889BB2C3F50073984203D9F088C0F5007080B208EB040302EB8303DB78DFF818A143EA10232601DBB280
:406FC000B2448AF80030019B5FFA80FE13EB0C038AF801E00DD060B10138DFF8F8E080B21844B644013B13F8016F83428EF80860F9D14FF00003444402EB84046370637986
:40700000DBB28AF80230AC441FFA8CFCCCEB0905B9F1400FEDB20CBF0BF1010B4FF0000B402D4FF0010091D9402592E7002840D1234B234993F881316BB191F88021013B3D
:40704000013202F00302012081F8813181F8802103B0BDE8F08F012003B0BDE8F08F1A4E0A781A4DB35C184C03EB430305EB83035B781648002BF5D0A35CDBB203EB430263
:4070800000EB82005A1E072A04890DD8C288104AC47815461B01E4B25C551A440023537043704379DBB29370054A0023C2F884313FE7034BC3F884B1BAE718462FE700BF4E
:4070C000148EFF1FE28AFF1F148DFF1F848DFF1FFC5F0040706000402DE9F84F002900F0A180514F002588468246B946AB4605E025444028ADB220D0A84536D9D7F88C610E
:40710000C5EB080496F84000A2B2C0F14004A4B2944228BF1446002CEAD00AEB05013044224601F00CF896F8400025442044C0B2402886F84000ADB2DED197F8812187F86C
:4071400088B1032A5ED899F88001511C024402F00302364B02EB82121A4489F8811182F840B0A845C7F88C21C8D897F88921012387F888312C492AB12D492E4A097813700A
:40718000BDE8F88F91F8942152BB2B482B4D047881F8943104F0010303702978284B01F0FC0129700178274C41F00401017019781F4E01F0CF011970197841F03001197056
:4071C000197801F0F0011970197841F00F01197023780E2143F0010323708180A980327019481A490378144A43F0010303700B78012003430B7013780343137087F88901CF
:40720000BDE8F88FD9F89041621CC9F89021FFF76FFE99F88121032A95D90234C9F8904100229EE7004FA0E7148EFF1F908EFF1F034F00407A650040004F0040024F00404D
