:400000000080002011000000AD260000AD26000008B5044B1A6803F53F5302331A6002F04DFB00BFFA46004010B5054C237833B9044B13B10448AFF300800123237010BD87
:400040001084FF1F00000000104E0000084B10B51BB108490848AFF300800848036803B910BD074B002BFBD0BDE81040184700BF000000001484FF1F104E0000C880FF1FB0
:400080000000000070B586B001AD132204460E462846002104F0B4FE00F06AFD032801D104230DE0E378112B09D87268A178166820460DF10502B0478DF8040002E00E23E0
:4000C0008DF804309DF804302BB9E3788DF816300333DBB203E000238DF816300323054800220260042242700370456001F076F806B070BD2C84FF1F37B5002304460D463D
:40010000019300F035FD032803D104238DF8073008E06B68221D5D68A178E3782046A8478DF80700064800230360022343700323037001AB436001F051F803B030BD00BFE6
:400140002C84FF1F37B505460023022401938DF8054000F037FE204600F002FD0648062343702A78037001AB8DF80720436001F035F803B030BD00BF2C84FF1F73B5002389
:4001800001ACADF80430A370037805460E468DF8043000F0EDFC032803D104238DF806300BE033690DF103011B69287898479DF803308DF806008DF8053005480523037098
:4001C00008234370446001F009F802B070BD00BF2C84FF1F37B5002304460D46ADF8043000F0C6FC032803D104238DF8053005E02B6920469B6998478DF80500227802AB75
:40020000054803F8042D042202700A224270436000F0E4FF03B030BD2C84FF1F13B5011D002401AA0078ADF8004000F0D1FC8DF8000020B9019B1B688DF8013001E08DF883
:4002400001400548042303700C234370C0F804D000F0C4FF02B010BD2C84FF1F13B500780024FF288DF804400BD130242046013400F084FCE4B200F04FFD342CF6D100233D
:4002800009E0332806D800F079FC00F045FD8DF8044002E009238DF804300548032303700E23437001AB436000F098FF02B010BD2C84FF1F70B5044688B0C07D0D4600F0E1
:4002C0005DFC024600284CD0617EA37D8DF80510A17E8DF804308DF80610217E013B8DF80710052B3DD8DFE803F00306122229322068029039E002AD04F110062B46206819
:400300006168083403C3B4421D46F7D12DE002AB04F110061D4620686168083403C5B4422B46F7D120682860A188A9801DE023788DF808300023ADF81E3016E0037983B9AA
:4003400023788DF80830037A8DF809300DE0AB690BB90B2306E02068A3880290ADF80C3003E009238DF8003005E001A9104600F0A7FB8DF80000054803230370102343705F
:40038000C0F804D000F02AFF08B070BD2C84FF1F13B50078FF2813D100238DF804303024204600F0EBFB20B90134E4B2342CF7D111E000F0A3FB8DF804000028F4D00AE084
:4003C00000F0DCFB20B100F099FB8DF8040002E009238DF804300548032303701223437001AB436000F0FAFE02B010BD2C84FF1F13B50078FF2813D100238DF804303024C4
:40040000204600F0BBFB20B90134E4B2342CF7D111E000F061FC8DF804000028F4D00AE000F0ACFB20B100F057FC8DF8040002E009238DF80430054803230370142343707C
:4004400001AB436000F0CAFE02B010BD2C84FF1F08B5037823B98B6833B19B681BB903E04B690BB11B689847BDE8084000F0AABC7FB54B694BB15B680DF116020DF10501AD
:40048000007898478DF8040002E00B238DF804309DF816300548033303701823437001AB436000F09BFE07B05DF804FB2C84FF1F30B589B004460D4600F05AFB032801D126
:4004C00004230EE06B689D6855B1E37CA27C0093A11C0DF10D032046A8478DF80C0002E00B238DF80C309DF80C300BB9E37C00E000238DF81D309DF81D30054803330370D6
:400500001A23437003AB436000F068FE09B030BD2C84FF1F7FB54B697BB106AA112122F8161D9B680DF1050100789847BDF802308DF804008DF8163004E08DF816300B23F7
:400540008DF804309DF816300548033303701C23437001AB436000F041FE07B05DF804FB2C84FF1F37B504460D4600F001FB032803D104238DF8003006E0AB6901A91B6831
:40058000204698478DF8000005481E23437007230370C0F804D000F021FE03B030BD00BF2C84FF1F37B504460D4600F0E1FA032801D1042318E02078A8B1052802D9072833
:4005C00008D010E06B68DB686BB1A11C98478DF804000BE0EB6923B1A078012801D81B689847002300E00B238DF804300548202343700323037001AB436000F0EFFD03B0A9
:4006000030BD00BF2C84FF1F13B5474B00221A605A600446019100F0ABFA0238C0B20128637801996AD8013B1E2B65D8DFE803F01664106468641C64226428642E643464A1
:400640003A644064706446644C64526458645E00201D02B0BDE81040FFF714BD201D02B0BDE81040FFF748BD201D02B0BDE81040FFF784BD201D02B0BDE81040FFF7AABD54
:40068000201D02B0BDE81040FFF7C8BD201D02B0BDE81040FFF7E2BD201D02B0BDE81040FFF708BE201D02B0BDE81040FFF770BE201D02B0BDE81040FFF79ABE201D02B099
:4006C000BDE81040FFF7D4BE201D02B0BDE81040FFF7EEBE201D02B0BDE81040FFF71ABF201D02B0BDE81040FFF73CBF201D02B0BDE81040FFF756BF072010E0052B05D163
:40070000084602B0BDE81040FFF71CBD152B05D1201D02B0BDE81040FFF79ABE082002B0BDE8104000F0CCBC2C84FF1FF8B50C46054620220021204604F062FB2E782670F8
:400740006F787B1E67701E2B00F20E81DFE813F01F000C0139000C010A010C01BF000C0139000C0143000C01BF000C015D000C01BF000C01BF000C01BF000C01BF000C013C
:40078000C4000C01BF000C01DD000C01ED001322201D002104F034FBAB786A1D2371EB78053E63712B79F6B2A371134604F8076F991A8E4240F3D68013F8011B04F8011FDD
:4007C000F6E700236360AB782371EB7863712B79A3716B793CE000226260A260E260AB78237133B9EB7823722B7963726B79A372B8E0012B40F0BA80EB7823722B796381AD
:400800006A7943EA02236381ACE01B220021201D04F0F6FAAB78E376EA7802F03F03D109C2F38012A3766177A2772A79013B2277072B00F29780DFE803F0040D22434337FA
:4008400043456B792371AB796371EB79A3712B7AE37187E06B7905F108022371AB79083E6371EB79F6B2A3711346E6740634991A8E4277DD13F8011B04F8011FF7E76B7909
:4008800005F108022371AB79083E6371EB79F6B26376134626760534991A8E4262DD13F8011B04F8011FF7E76B792371AB796371EB79A3712B7AE3716B7A2372AB7A32E0DE
:4008C000AB7907E0AB792371EB7963714AE000232371AB78237145E01422201D002104F08FFAAB786A1D2371EB78053E63712B79F6B2E3751346A6750534991A8E4231DD95
:4009000013F8011B04F8011FF7E7002363602381AB782371EB7863712B79A3716B79E371AB792372EB7963721CE0002262602281AB782371013B062B14D8DFE803F00404E7
:40094000040A0A131100EB78A3712B7923816A7902E0EB7823812A7943EA0223238101E0EB78A3713846F8BD0720F8BD0920F8BD38B505460C4600F09BFB2B789842C0F095
:40098000998023706B7863706B782F2B11D9332B00F29280023422462B78023BDBB2101BC1B2994280F084806968095C02F8011BF5E7023B1E2B00F28180DFE803F01E7F5C
:4009C000107F217F2B7F337F387F767F767F767F767F767F3E7F4C7F5A7F687F76006B681A7804F8022F1A46987CD11A88425FDD12F8011F04F8011FF6E76B68DB7856E0B8
:400A00006B681A78A2705A78E2709A782271DB7863714DE06B689A78A2701A78E2705B78237145E06B685A78A2701B7803E06B681A78A2705B78E3703AE06B681A7804F876
:400A4000022F1A46987CD11A884231DD12F8011F04F8011FF6E76B681A7804F8022F1A46587CD11A884223DD12F8011F04F8011FF6E76B681A7804F8022F1A46987CD11A5C
:400A8000884215DD12F8011F04F8011FF6E768680378A37003785BB902344268DA400833202B04F8012FF8D102E06B681B78A370002038BD0E2038BD092038BD072038BD28
:400AC000F0B590F8F0400646072C15D80B461C2202FB040201F118071032154618685968083303C5BB422A46F7D118680134286086F8F0400020F0BD0D20F0BD38B5037979
:400B0000044613B1012B16D023E0144B94F8F0201B691C211D68234601FB02420830934206D01C3313F80C1C0529F8D1012100E00021A84705E0094BDB6863B19B68C0687F
:400B4000984748B901236371044B032283F8202038BD092038BD0B2038BD00BF3484FF1F024B83F820000020704700BF3484FF1F014B93F8200070473484FF1F3038C1B2F3
:400B8000032910B50CD8F42202FB01F3054C04F12400184423445B6A002B08BF002010BD002010BD3484FF1F38B5054630242046FFF7E4FF20B1037913B9037AAB4205D0A2
:400BC0000134E4B2342CF2D1002038BD012038BD2DE9F84307460E46154612B90020BDE8F883E8B991F800804046FFF7DDFF00285AD130242046FFF7C1FF68B190F8F0200E
:400C00000023934208DA017C062902D1417D41454AD001331C30F4E70134E4B2342CE9D10023F42404FB03F2DFF8888008F124015058E0B9114430334244296053622B6841
:400C4000587183F8F0001F7103F1080996E8030089E803008FB1012F1ED1D8F80C2059891468187A03F10C02A047044611E00133042BD7D10C20BDE8F883D8F81030394661
:400C80001B6848469847D8F8103004465B6848469847002CA2D000E00924286838B1F422002104F0ADF802E00320BDE8F8832046BDE8F8833484FF1F38B530240025204679
:400CC000FFF75CFF10B1437903B101350134E4B2342CF4D1284638BD38B50379054633B1012B0DD10B4BC068DB68DB6803E0094B08301B695B689847044610B9687100E0E2
:400D00000924FFF7D9FF18B9024B022283F82020204638BD3484FF1F036810B50446DBB1037913B1012B05D00AE00C4B08301B695B6804E0094BDB6813B15B68C06898477A
:400D4000F4220021204604F05BF8FFF7B5FF18B9024B022283F8202010BD00BF3484FF1F10B5094C04F12400FFF7D6FF04F58C70FFF7D2FF04F50370FFF7CEFF04F54070F4
:400D8000BDE81040FFF7C8BF3484FF1F70B50C4E054634460FCD0FC495E80F0084E80F00B06800F0C7F9044628B9FFF7D9FF012386F8203001E04FF0FF34204670BD00BF99
:400DC0003484FF1F10B5302420460134FFF7D6FEE4B2FFF7A1FF342CF6D100F08DF9054B012083F82000DB691BB1BDE810401B68184710BD3484FF1F2DE9F04FA94E8FB0B5
:400E000096F82030002B00F04981012B08D1A64BA64A1B880221ADF8243009A8334603E0002133460846A14A00F086F996F82030032B40F033814FF0300B5846FFF79EFE61
:400E40000746002800F022814379002B00F01E814FF000038DF81730037913B1012B07D014E133690DF117019B68007A984708E0F368002B00F00A811B690DF11701C068F5
:400E80009847002840F002819DF81730002B00F0FD80B846814602238DF81C3058F8163B07F114058DF81D3009AB089397F8F030994580F2E48000230293029A15F8013C75
:400EC0009A4280F2D6809DF81C3015F8042CC3F11404E0B29C1E089B013A03EB040A072A00F29880DFE802F004141C2E3C5A838EEB789842C0F091807268A978146828465E
:400F00005246A0470246002840F08980EC788DE07368EA1C5C68A978EB7B2846A04777E06B7D984279D372689468002C7AD02A7D4146009328465346A047024600286ED128
:400F40006C7D73E018F8022C002A6AD100286BD0E98A1955EB8A01240133DBB2EB8265E03269D268002A3CD003283CD906A96878039390470246002851D10699039B1955BD
:400F8000069B04241B0A8AF80130BDF81A308AF802309DF81B308AF8033047E0B46904B3EB780733B0EBE30F1DDB6878FFF7FCFDD8B9236806A928469847024678BBE97868
:400FC000002420299ABF0731C91004218C4206D0069BE000C3400AF804300134F6E7E4B224E00B221BE00E2219E0032217E0336951461B6918F8020C9847B0FA80F4024664
:40100000640913E0336969785B6918F8020C9847024604E00024224608E0002405E0002404E000240B2201E004460E2215F8023C23B99DF81C0004448DF81C404AB10E2A81
:4010400003D10292FFF7BEFE029A104600F038F81CE015F8033C4BB99DF81C30022B05D907A800F0BBF802238DF81C30029B013322E709F1010908F11C081C3516E79DF8E6
:401080001C30022B02D907A800F0A8F80BF1010B5FFA8BFBBBF1340F7FF4CFAE0FB0BDE8F08F00BF3484FF1F1C4E000009060000024B9889142828BF142070472888FF1F9C
:4010C00000B5032389B08DF800008DF8043003A9162301A88DF80530CDF808D0FFF748FC044B9DF804105B6803A8984709B05DF804FB00BF2888FF1F10B5054C1422002133
:4011000004F1100003F07CFE0023A38410BD00BF2888FF1F838910B5132B81BF044C0FC884E80F00002098BF4FF0FF3010BD00BF2888FF1FFFF7EEBF2DE9F043254C8FB0CD
:401140000DF10409054688461F461421236848461646984700283AD0A38CC3F11402904211D800218E461FFA81FC0CEB0302604592B20ED919F801E0224482F810E001312C
:401180004FF0010EEFE70E20FFF79AFFFFF7B4FF1DE003449BB2BEF1000F00D0A3844DB1A28C0D49424528BF4246284603F00EFE0028EBD1A28C237C9A4208D306A9064815
:4011C000FFF7B4FAFFF798FF394606A8B0470FB0BDE8F0832888FF1F3888FF1F30B587B001A90546FFF7C4FBC4B224B9034B29785B6801A89847204607B030BD2888FF1FEC
:40120000012810B50C460BD1097800F0B4FD90B9608800F08BFD70B92268074B1A6010BD042807D1498800F03FFC20B92268024B5A6010BD0B2010BDCC80FF1F012870B594
:401240000446144E02D004280BD01AE03378012B01D100251CE000F0BFFB00F075FC0E4907E03378042BF4D000F096FC00F0A0FB0A492046FFF7C4FF347005460028E8D0F0
:4012800000E00B2500F088FC00F0A6FB00233370284670BD5088FF1FCC80FF1FD080FF1F2DE9F041044600780D4616461F46BDF81880FFF7C3FF48B9CDF818803B46324671
:4012C00029462046BDE8F04100F0F2BCBDE8F0812DE9F041044600780D4616461F46FFF7ADFFA8B92378012B09D0042B0FD13B46324629462046BDE8F04100F0AFBB3B4641
:40130000324629462046BDE8F04100F0A7BC0B20BDE8F0812DE9F041044600780D4616461F46FFF78BFFA8B92378012B09D0042B0FD13B46324629462046BDE8F04100F0B5
:401340005FBB3B46324629462046BDE8F04100F051BC0B20BDE8F08108B500F01DFC00F03BFB0548054B04300360054B4360054B8360054BC36008BD5088FF1F15130000D5
:40138000D1120000A11200000112000008B500F0E9FE054800238360044B0360044B43601423838108BD00BF6488FF1F892100002122000073B50D461646044630B1012818
:4013C0004FF000001CD10C7014801BE01388072B02D830800E2015E0684603F051FA9DE80500691E20FA04F301F8013F22FA04F30834202C0B71F5D108233380002001E039
:401400001080092002B070BD0348044B036000234360034B836070477488FF1FF5460000B513000030B50278102A5AD84378012B2CD128235A432C4CA35AA1185B074ED502
:40144000C378012B14D00DD3022B4AD18A68137803F0F10343F00C0313708A68137843F0010310E089680A7802F0F1020A7039E08A68137803F0F10343F00C0313708A6826
:40148000137803F0FE03137000232BE04BBB2824544315490D190C5B14F0020F0C461ED0C178012909D00FD302291AD1A868017841F001010170042107E0A868017801F0EC
:4014C000FE010170062100E00221282000FB02429068027802F0F1021143017002E0052300E00923184630BDD480FF1F70B505780C46102D5CD8282169432E4B5A18595AE4
:401500000E0753D58178012915D00DD302291ED19668317801F0F10141F00401317091680A7842F0010211E091680A7802F0F10242F002020AE09668317801F0F10141F02F
:401540000601317091680A7802F0FE020A700278102A2DD8282151435E18595A090725D54178012906D003D3022921D1718B02E0318B00E0B18B282606FB02331A6AD88B46
:4015800090478CB10B4B06FB05356A68B2F844309BB2083302EB83035D606A68B2F8443001339BB2A2F84430002070BD052070BD092070BDD480FF1F2DE9F04102F06CFF54
:4015C000104A05461646904692F8463000270343DBB282F84630B6F84420BBB292B293420DD2083308EB83035C68237D1D4204D02369E36003F010F920610137EBE7BDE86D
:40160000F08100BF8088FF1F2DE9F04102F034FF104A05461646904692F88E3000270343DBB282F88E30B6F88C20BBB292B293420DD2083308EB8303DC6C237D1D4204D009
:401640002369E36003F0E8F820610137EBE7BDE8F08100BF8088FF1F2DE9F04102F02EFD104A05461646904692F8D63000270343DBB282F8D630B6F8D420BBB292B29342D5
:401680000ED2083308EB8303D3F89440237D1D4204D02369E36003F0BFF820610137EAE7BDE8F0818088FF1F112803D900230B7009207047282358430A4A1318125A9207E8
:4016C0000DD59B681B7803F0100303F0FF001BB102230B700020704701230B7070470520704700BFD480FF1F112818D8282358430C4A1318125A52070FD5012906D0022970
:401700000DD19A68137843F0010303E09A68137803F0FE03137000207047052070470920704700BFD480FF1F102838B504460D4616D803F061F90B4B282202FB04346268C0
:40174000247D92F8463023401FBF92F84630A34382F8463001232B7003F052F9002038BD092038BDD480FF1F102870B504460E4615D803F041F90B4B282202FB0434E368DA
:4017800024691C1B63EB030503F03AF9002C75F1000301DA14F180743460002070BD092070BD00BFD480FF1FF8B503780746102B53D8282463432B4DEB5A1A0701D4052073
:4017C000F8BD00F09FFD3B786343EE18EB5A1B07F5D5336A318BF08B984703F00DF97268317D92F8463023EA010382F8463003F007F93E7803F000F904FB06546268217D8D
:4018000092F8463023EA010382F8463003F0F8F860680023B0F844109AB289B28A421ED202F1080100EB8101496801338C42F1D14FF6FF739A4212D0B0F84410243089B2BC
:4018400000F064FD282303FB06556A68B2F84430013B9BB2A2F8443001E00920F8BD0020F8BD00BFD480FF1F2DE9F04733489AB002F072FD324802F05BFD324802F046FD41
:4018800002F012FE304B02AA186859682F4E03C21889997A108053F80B0F9170596805AA03C29868002510600DF1080A0DF11409482719F805401AF805804822002108A846
:4018C00003F09EFA07FB0560482208A901358DF86740ADF8408003F088FA062D1B4CE8D11B4B1C4EC4F8B8311B4B2827C4F8B4311A4BC4F8B0311A4BC4F8BC31194BC4F851
:40190000C831194BC4F8C031184BC4F8C4310024254607FB04F39B5B1B0708D501A88DF804408DF805508DF80650FFF73DFF0134112CEED10E481AB0BDE8F087B915000078
:4019400009160000591600001E4E00008088FF1F29170000D480FF1FA9170000ED1400006917000025140000A9160000E9160000308AFF1F102808B511D8282358430A496E
:401980000B5A0A18DB070CD591680B7803F0F1030B7092F8240002F097FD002008BD092008BD052008BD00BFD480FF1F02F09CBD084A137803F0F10343F00803137012F803
:4019C000643C03F0F10343F0080302F8643C00F055BF00BF65500040084A137803F0F10343F00203137012F8643C03F0F10343F0020302F8643C00F055BF00BF6550004036
:401A000073B5044602A800F8011D15461E46014602230122607801F0B5F850B901F078F98207FBD501F08CF910F0F00F03D001F057F9012010E00123F2B22946607801F052
:401A4000F7F80028F5D101F063F9C307FBD501F077F910F0F000EAD102B070BD70B55C1CE4B2402C064690B00846114619D810AD05F8400D1A460DF1010003F0B6F90023CB
:401A800022462946707801F07DF850B901F040F98307FBD501F054F910F0F00002D001F01FF9012010B070BD042805D1B1F5C87F14BF0B20002070470B20704700F08CBE7D
:401AC00000B58BB062B602F089FE02F095FE6FF07F4002F099FE012002F0A6FE02F0CAFEFFF7ECFF0A238DF80830FFF735FC0390FFF74CFC049000F0C3FA0590FFF7B4FE87
:401B00000690FFF781FC079000F038FC0023089002A80993FFF73AF900B1FEE7054B1868019001A8FFF77EFCFFF766F900F0C2FBFAE700BF354E0000024A137843F0010374
:401B4000137070470D50004008B5124A137803F0F10343F00C031370537803F0F10343F00203537012F80E3C03F0F10343F00C0302F80E3C12F8013C03F0F10343F00C0360
:401B800002F8013CFFF7D8FF02F0B2FEBDE8084001F088B90E50004008B5FFF7CDFF01F0F9F802F0B1FE124A137803F0F10343F002031370537803F0F10343F0020353708A
:401BC00012F80E3C03F0F10343F0020302F80E3C12F8013C03F0F10343F00C0302F8013C12F8013C43F0010302F8013C08BD00BF0E500040F8B51D4603781446012B27D1A7
:401C000046782EBB144A0846137803F0FE03137001F0DAF801F0D2F8C207FBD501F0EEF8013D671E2C44A7420BD0002001F0CCF801F0DCF80028FBD001F0D2F807F8010F13
:401C4000F1E701F0BBF8C307FBD5FFF775FF00E00B263046F8BD00BF0D500040F8B51D4603780F46012B14461CD14678D6B901F0D1F80E4A38461378013D03F0FE031370DC
:401C800001F0A2F8671E2C44A74204D017F8010F01F09AF8F8E701F091F8C307FBD5FFF74BFF00E00B263046F8BD00BF0D5000402DE9F84F9A4603788946012B1746BDF8B5
:401CC00028802DD144785CBB01F0B6F8B845C346254638BFBB46144A137803F0FE031370AEB2B34515D9B7428CBF19F80500002001F06AF801F07AF80028FBD0B04504D9C8
:401D000001F06EF80AF8050001E001F069F80135E6E701F053F8C307FBD5FFF70DFF00E00B242046BDE8F88F0D500040B0F57A6F08B512D007D8B0F57A7F12D0B0F5FA6F5F
:401D400017D112200EE041F27073984207D042F2283398420DD1042004E0092002E0062000E025200138012180B202F0D9FD002008BD0B2008BD012804D1002914BF0B20A0
:401D8000002070470B2070470F2810B504460ED802F032FE074B01221B88A2409BB21A4214BF0124002402F02BFE204610BD002010BD00BF1C8CFF1F2DE9F0410546164EA7
:401DC000002414274FF001082046FFF7DDFF90B107FB04F293199259AA420CD11A7A52B1DA680132DA60D9685A68914222BF002283F81080DA600134102CE5D11DB1012DE4
:401E000005D0BDE8F081BDE8F04102F0C1B9BDE8F04102F06FBA00BF208CFF1F0020FFF7CBBF0120FFF7C8BF38B50C4C00250C48257202F0B9F902F0CDF940F2E73301229D
:401E400084E80C000748257502F0D0F902F0E2F90923236142F21073E36038BD608DFF1F1D1E0000231E00002DE9F74F3C238DB29046A5FB0323CDE9002300244FF00C096C
:401E8000461E09FB04F3364A98581746032E5CD8DFE806F002040E11324A01E04FF47A720023A5FB000102F0D5FD82468B4608E0A5FB00AB05E0009BA3FB00AB019B00FB6F
:401EC00003BB1AF1FF304BF1FF3100236FF001028B4208BF824238D300252846FFF754FF0646D8B902F088FD1F4A01231188AB400B439BB2138002F083FD142169431B4871
:401F000043181E72C3F804A0DE601E740C2303FB04731B7A4450124E23B11BE00135102DDBD115E0012C05D002F010F9B08802F035F904E002F0BCF9308A02F0E1F90C23E2
:401F400003FB04740123237204E00134022C98D10A2002E0C8F80050002003B0BDE8F08F608DFF1F40420F001C8CFF1F208CFF1F0F28F8B5054621D8142707FB00F31C4E81
:401F8000F45802F039FD1B4901230A88AB4092B222EA03030B8002F033FD00252846FFF7F3FE38B107FB05F3F218127A12B1F3589C4205D00135102DF0D103E00920F8BDFC
:401FC0000020F8BD0C4B0C2202FB0432107A1D4668B124B1012C04D102F078F901E002F0C3F80C2303FB045400202072F8BDF8BD208CFF1F1C8CFF1F608DFF1F0F2810B54E
:40200000044601D9092010BDFFF7BEFE0028F9D0034B142202FB043401232372002010BD208CFF1F0F2810B5044601D9092010BDFFF7AAFE0028F9D0034B142202FB04345C
:402040000020207210BD00BF208CFF1F0F2838B504460D460FD802F0CFFC084B142202FB0434237CDBB22B700BB10023237402F0C7FC002038BD092038BD00BF208CFF1F87
:4020800008B5FFF7D1FE0648064B0360064B4360064B8360064BC360064B036108BD00BF4C8AFF1F691E0000711F0000FD1F0000252000004D200000094890F80521032AC2
:4020C0009FBF90F804319B1803F0030301329DBF03EB831380F80521C0180020704700BF608AFF1FF8B5164B93F8051119B393F80421013902EB8215013202F003025D1969
:4021000083F8042183F8051115D095F840700026BB1BDCB2402C01D80CB90EE0402401F04FF90028FBD0A4B22146A819344401F01FF9A6B2ECE70020F8BD0120F8BD00BFA6
:40214000608AFF1F08B5FFF7B7FF18B9FFF7CAFFFFF7B2FF4122024902F047FE08BD00BF668BFF1F08B50121002000F08BFF00F0C7FF0028FBD000F0BDFF0028F7D0BDE8DD
:40218000084001F0BDB800002DE9F041234D8046B5F848610F46A6B1B1420C4628BF3446B5F84A7105F5A671361B22463944B6B202F01BFEA5F84861DEB12744A5F84A7192
:4021C00029E001F0F3F808B9002424E005F5A67001F000F90446A5F848010028F4D087420AD3024605F5A671404602F0FEFDA5F84861A5F84A610EE03A4605F5A6714046F6
:4022000002F0F3FDB5F84A313B44A5F84A31E31B3C46A5F848312046BDE8F081608AFF1F2DE9F047002581460F46A846204E06F5837ABD421E4C20D296F846017C1BC0F189
:402240004003A4B2DBB29C4228BF1C4609EB05012246504402F0C9FD96F8463125442344DBB2402B86F84631ADB2E2D186F88C81FFF768FF86F84681DBE794F84631ABB141
:4022800094F88C3193B994F88D31012584F88C512BB902F0B9F884F88D51BDE8F08702F0C1F82846BDE8F04702F0C2B8BDE8F087608AFF1F10B502F0B5F8030614D5104C8C
:4022C00094F8463123B1FFF73DFF002384F84631002094F805311BB1FFF704FF0120F8E7074A82F88C3110BD01F06AF830B1044B93F8050110B1FFF7F5FE012010BD00BF58
:40230000608AFF1F0021084601F032B810B5891A01398A4205D284180132835CDBB22370F7E710BD70B503780546082B0E4612D1037993B9837883B9437973B94078FFF7A3
:4023400019FB0446B0B9E8780A2808D00C2806D0082802D103E00B240CE009240AE002F01BF902F075F9002002F07EF902F090F980B23060FFF71AFB204670BD08B502F091
:4023800059F902F0A7F90248024B036008BD00BFF08BFF1F25230000022810B512D80A4A4000C0B252F8201013180C781B7E23430B70431CD8B252F820101044037E0A789E
:4023C00013430B7010BD00BF3C4E0000022810B514D80B4A4000C0B252F8201013181C7E0B7823EA04030B70431CD8B252F8201010440B78027E23EA02030B7010BD00BFF0
:402400003C4E00002DE9F04172B68B4B61221A700322A3F5F0631A80884A18234921137051804F211371D18040F2E3211372518141F6E7411373D1814FF6FF711374518233
:4024400013757F4B7F4E1A687F4B19251A60062283F80022522203F580731A707B4B7C4A1B780024DBB2137040F62532794B1A8042F2512223F8022C33784FF4F07003F01C
:40248000010343EA440402F0AFFA013D04F003042DD0032CF0D1704B4FF480721A8007221A706E4A002448211470917002221C705C7103F8032C0422DA71694A694D1378CF
:4024C000694E43F03F03137012F8013C4FF0060843F0010302F8013C2B7843F080032B7092F8463343F0040382F8463300E0FEE708FB046300215A8CD3F81E00013402F0C1
:402500007FFC0A2C584FF3D1002604FB0672134653F85A0FB2F862205968013602F065FC052EF2D15148524E002450F8041F04F1105303F1440221F0FF074533C9B20B44B5
:4025400052005B0002329A4206D012F802EC12F801CC0EF807C0F5E7B0420C44E5D1454A454F1378DFF8408143F002031370137C43F0020313742B78A2F5863243F04003A1
:402580002B70413A137843F0100313703B4A3C4B07CA03C31A803B4AB83307CA03C31A80394A283307CA03C31A80384AE83B07CA03C31A80364A374BA2F5606203CBC2F80B
:4025C000000EC2F8041E03CBC2F8100EC2F8141E13780A2043F0080313702F4B02F5AA521B783C78DBB298F800600C3203F00701E4B21B091170F6B2537044F003033B70F4
:4026000046F0030388F80030402382F89B3082F89D30224B20221A7002F074F8204B88F8006044223C701F4C1A7095E80F0007C42380BDE8F08100BF00480040824000407D
:402640005008004825420040004100400F010049A1460040224200400440004006400040A2430040A04300403C4E0000FCFFFF478400004803500140F84600401008004813
:40268000005100401C08004828080048340800482251004040080048CF0100492B5B004076580040B0430040F946004008B502F061FB03680C2B00D1FEE7FEE780B5114869
:4026C000114B0025C0B1A3F1100192C922460439161BB74204D051F8046F42F8046BF7E7114653F8046C8C1AA64202D041F8045BF9E701381033E5E702F042FBFFF7E0F9D2
:40270000FEE700BF01000000DC500000104A114B10B41A60104A114C1368114843F4007313600023032B98BF54F823204FEA830188BF0C4A0133302B4250F3D10A4B1A78CF
:402740000A4B1A700A4B064A10BC1A60FFF75ABE0004FA050CED00E014ED00E0000000000080FF1FAD260000BC760040C080FF1F08ED00E0074B72221A70074A0023137047
:402780000621A2F5B17211704721117482F85C30704700BF856500408665004010B502F02BF904460B4A137843F020031370537843F0100353706FF482731A44137843F0D3
:4027C0001003137001F072FF2046BDE8104002F017B900BF9565004008B5054803781BB9FFF7C8FF01230370BDE80840FFF7D6BFF48BFF1F114B022210B51A70812203F89C
:402800000E2C082203F80C2C00240C225A719C710B4B4FF400421A6007210F2001F094FF08490F2001F082FF074B10221A70074B1C70074B1C70074B1C7010BDD6490040E1
:4028400080E100E059290000788DFF1F7E8DFF1F868DFF1F7C8DFF1F08B502F0CDF8064A137843F004031370137C43F004031374BDE8084002F0C4B8A543004010B5074CFA
:4028800023781BB9FFF7B6FF01232370FFF7E4FF034B4FF400421A6010BD00BFF68BFF1F00E100E02DE9F843224BDFF8A8804FF40049C3F8009098F800301F4C1F4FE370B5
:4028C0003B781F4E237133781E4D637130783B782A7843EA002002F0FE0201302A7080B202F082F802F088F8174A137803F0FB031370137C03F0FB03137402F081F82B78AE
:40290000102243F002032B70E37888F80030E37888F8003023793B70637933702B7803F0EF032B70094BC3F80090094B1A70BDE8F88300BF80E100E07C83FF1FDB49004075
:40294000DC490040D6490040A543004080E200E0788DFF1FCA49004070B57C487C4A13780178DBB211F0400F014600F0E880D80740F1D18008784538052800F2CC80DFE8F4
:4029800010F006005800CA00CA0006009A0003F0DF0003F00A03082B24D10C786B4B452C1BD16C4C247864B16B4C6C4D24682478E4B22C7004241470694A01241470462251
:4029C0000EE0684C2478A60728D5674C227842F00A02227060221A701BE0002414704A221A7097E00A2B40F095805F4B1C7844F0A0041C705B4C2478A5070FD50A781C78B1
:402A000012F0080F14BF09220A2222431A7060230B70564B4FF400421A607BE0544C237843F010032370534B10241C700423137070E09C0726D44A48464C05782478A5423E
:402A40000DD2454D04782D68E4B22C5D434DE4B22C700424147002780132D2B229E041480078800704D54048027842F00A0242E03F4C207840F0100020703E481024047029
:402A800004202BE03748007810F0020F364803D0027842F09A022EE0354D2C7844F010042C70344C1025257004241470027842F0900202702FE0304D304C2E68274D2078DE
:402AC0002D78C0B2EDB2355420780130C0B220702B4824780078844202D2102010701AE02048007800F0020000F0FF0558B11E48027842F00902027060220A701B4A4FF4FF
:402B00000040106007E01A4C207840F010002070157000E003469A0616D50B78124A13F0080F107814BF0123022303431370104A137803F0EF03137010230B7070BD0378EE
:402B4000DB065CBF1023037070BD00BF788DFF1FD74900407D8DFF1F888DFF1FD84900407C8DFF1F848DFF1F7E8DFF1F80E100E0D6490040D9490040808DFF1F868DFF1FAB
:402B8000858DFF1F70B5B1B11E4C2578102D05D11D4D2D782D0710D5012070BD2578602D09D11A4D4FF400462E60194E357805F0F705357001E0022070BD45252570154C12
:402BC00000252570144C40002270144AC0B21160134A0F4913700A7813F0010F02F0FD020A70104A084B107004D012221A7004220D4B00E001221A700C4B4FF400421A6050
:402C0000002070BD788DFF1FD949004080E200E07E8DFF1F7C8DFF1F7D8DFF1F888DFF1F848DFF1FD8490040D749004000E100E070B5B1B11F4C2578102D05D11E4D2D7872
:402C40002D0710D5012070BD2578602D09D11B4D4FF400462E601A4E357805F0F705357001E0022070BD49252570164C00252570154C40002270154A40F001001160144ADE
:402C80000F4913700A78C0B202F0FE020A70114A13F0010F1070084B04D012221A7004220D4B00E001221A700C4B4FF400421A60002070BD788DFF1FD949004080E200E091
:402CC0007E8DFF1F868DFF1F858DFF1F808DFF1F848DFF1FD8490040D749004000E100E0094B1A7852070CD510221A700421023B197006490A701A7812F0210FFBD000202F
:402D000070470220704700BFD9490040788DFF1F074A4FF400431360064A1078064AC0B212785206054A48BF40F004001360704780E100E07E8DFF1F788DFF1F00E100E0F7
:402D4000054A4FF400431360044A002110781170034A1360704700BF80E100E07E8DFF1F00E100E008B501F047FE094A137843F020031370D37843F01003D37092F80331F6
:402D800043F0100382F80331BDE8084001F038BE9464004008B501F02FFE074A137803F0EF03137092F8003103F0EF0382F80031BDE8084001F024BE97640040014B1878D2
:402DC000704700BF67640040034A13785B07FCD5024B1870704700BF6764004047650040014B1878704700BF57650040024B1878C0F34010704700BF67650040034A0449BB
:402E000013789B0601D50B78FAE77047676500405765004008B501F0EFFD064B1A7842F001021A701A7802F0FE021A70BDE8084001F0E6BD9765004008B50B4A0B49137875
:402E40009B0601D50B78FAE701F0D6FD084B1A7842F001021A701A7802F0FE021A70BDE8084001F0CDBD00BF67650040576500409765004008B5074B0F221A70FFF7DCFFFB
:402E8000054B064A1B78064B1B780023137082F8003108BD8464004067640040876400406765004010B5054C23781BB9FFF7E2FF01232370BDE81040FFF754BFF78BFF1FCA
:402EC000F8B501F099FD3C4A01271378022643F001031370137C394C43F001031374384B02F5E3521F700B3203F8946C1378054603F07F031370002001F004FC2378314A46
:402F000003F0F90323701378384603F0DF03137023783B43237001F0F5FB282001F0F2FB294B30461A7802F07F021A701A7802F0BF021A7023783343237001F0E3FB2378A5
:402F4000224A43F004032370002313702846537001F056FD0721172001F0F6FB1C49172001F0E4FB0721182001F0EEFB1949182001F0DCFB0721042001F0E6FB1649042013
:402F800001F0D4FB0721052001F0DEFB1349052001F0CCFB0721062001F0D6FB1049062001F0C4FB07210C2001F0CEFBBDE8F8400C490C2001F0BABBA543004094430040B1
:402FC0009D60004012600040F851004084600040F13800001D3700005D38000089380000B9380000F538000008B51A4B1A4A187000231370194A1370194A1370194A1370DE
:40300000194A1370194A1370194A1370194B4FF400021A604FF080721A6010221A6020221A6040221A60144B19B91A7802F0FE0202E01A7842F001021A70104B03221A70DA
:40304000802203F8202C012001F0CEFC0C4B04221A7008BDAC8DFF1FB28DFF1FB08DFF1FB18DFF1FAD8DFF1F9C8DFF1FAF8DFF1F288EFF1F00E100E0096000402860004055
:403080001260004070B5074C054623780E461BB9FFF716FF0123237031462846BDE87040FFF7A2BFF88BFF1F0A4A002313700A4A13700A4A13700A4A13700A4A13700A4A3A
:4030C00013700A4A13700A4B03221A70802203F8202C7047B28DFF1FB08DFF1FB18DFF1FAD8DFF1F9C8DFF1FAF8DFF1F288EFF1F28600040014B1878704700BFB18DFF1F7B
:40310000044B1A7802F0FF001AB118780022C0B21A707047B08DFF1F024A0C2303FB002040787047BC8DFF1F431E072B0CD8074A064B00010344805C5B7800F00F0043EA87
:403140000020023880B2704700207047FC5F0040431E072BF0B531D8194B0C2505FB0035EC88184FA4B2C4F50074A2424FF00C0404FB003488BFEA88E67884BFC2F5007248
:4031800092B2104C46EA12260501EE552C44D6B2667041B90C2202FB0030002343704379DBB2A370F0BD0E46074F2F44751AADB2AA42EFD916F8015B3D72F7E7F0BD00BF9A
:4031C000BC8DFF1FFC5F004070600040431E072B0AD8064A0C2303FB002300225A705A79034BD2B200011A54704700BFBC8DFF1FFE5F004038B505461446D1B1431E072B87
:4032000019D8FFF791FFA04203D22846FFF78CFF04460A4609482B011844531A9BB29C4203D9037A02F8013BF7E72846FFF7CEFF02E00C4600E00024204638BD7060004025
:4032400070B5094C094DFF2100230C26E25C06FB0252927A824204BF194602230133DBB2012BF3D0084670BD988DFF1FBC8DFF1F10B51E4C2079FFF7E3FF237813F0800FBD
:4032800063780DD0212B2ED1BDE81040184B07221A80184AC0EBC0001044586000F094BADBB2202B0ED0222B1DD1A378124A22F81030124A135C43F002031354BDE81040B8
:4032C00000F062B90A4A07230A491380C0EBC0030B445360094A135C43F001031354BDE8104000F097BA002010BD00BF00600040A08DFF1F8283FF1F8C8DFF1F948DFF1F29
:4033000010B5164A00231370154A164C137053702078C0B2431E072B01D8FFF757FF6078C0B2431E072B01D8FFF750FF0E4A13788BB123787BB10D4B197861B11278082A61
:4033400009D8084A1278082A05D81878082894BF0020012010BD012010BD00BFF98BFF1F948DFF1F968DFF1F9A8DFF1F988DFF1F0A4610B40A4B0B491B780B4CCB5C0C210E
:40338000DBB201FB03410C89A4B2944238BF0A8910BC014638BF92B21846FFF7D9BE00BFF98BFF1F9A8DFF1FBC8DFF1F024B034A1B78D05CFFF7B0BEF98BFF1F968DFF1F0F
:4033C000024B034A1B78D05CFFF7A6BEF98BFF1F9A8DFF1F074B084A1B780849D35C0C22DBB202FB03121289014692B21846FFF701BF00BFF98BFF1F968DFF1FBC8DFF1F6C
:40340000C37890F9020003F0030300280FDA032B15BF0C480C4802F00103C2F3800319BFC15442F00102C15442F0040207E0032B1FBF0648C2F34003C15442F0020210469B
:40344000704700BF9A8DFF1F988DFF1F968DFF1F30B51A4A1A491B4D0878138803449BB21380194A00231488D8B2A4B27CB1082B0CD050680078C0B2E8545068013301307E
:4034800050601088013880B21080ECE718460B780E4C082B0E4A00D040B10E4D2B7883F080032B700F232370022301E0022323701370094B1870087030BD00BF2C8EFF1F02
:4034C000288EFF1F00600040A08DFF1F9D8DFF1FB28DFF1FAE8DFF1F298EFF1F074B02221A70074B80221A70064B0F221A70064A00231370054A012013707047B28DFF1FB3
:40350000AE8DFF1F9D8DFF1F288EFF1F298EFF1F30B5164B16491B780A8803F00F03023BDBB21A4492B20A80124C134A0020118889B279B173B15568215C013BC9B22970F5
:403540005168DBB20131516011880130013989B21180ECE7094A1370094A137883F080031370084B0B221A7030BD00BF296000402C8EFF1F00600040A08DFF1F298EFF1F3B
:40358000AE8DFF1F9D8DFF1F064A06231370064A01201370054B80221A70054B00221A70704700BFB28DFF1F9D8DFF1FAE8DFF1F298EFF1F054B9A683AB19A6804491070AD
:4035C0009A680988518000229A607047A08DFF1F2C8EFF1F08B5124B1A78D2B21A701B78DBB21A0602D50F4A137008BD0220FFF7E1FF0D4B1B7803F06003202B05D0402B3B
:4036000006D043B900F0EAFB04E001F0FDF901E000F018FD10B9034B03221A7008BD00BF286000409D8DFF1F0060004008B5084A084B0120197813880B449BB21380064B09
:4036400000221A70FFF7B6FF044B03221A7008BD2C8EFF1F288EFF1FB28DFF1F9D8DFF1F08B50C4B1B78DBB2042B07D0062B09D0022B0DD1BDE80840FFF7D8BFBDE8084029
:40368000FFF746BF0320FFF795FF034B03221A7008BD00BFB28DFF1F9D8DFF1F08B5054B002201201A70FFF785FF034B03221A7008BD00BFB28DFF1F9D8DFF1F08B50A4BB0
:4036C0001A7832B11A78094942F080020A7000221A70074B002201201A70FFF76BFF054B03221A7008BD00BF9C8DFF1F08600040B28DFF1F9D8DFF1F074B1B78DBB2042B60
:4037000005D0062B05D0022B05D1FFF7A1BEFFF7C5BFFFF7D3BF7047B28DFF1F38B51D4C2378DBB2DD0634D518060AD503F00F03012B2ED1FFF74EFF174B1B78190609D574
:4037400038BD5A0602D5FFF7D7FF03E09D0620D5FFF786FF23781B061BD4104B1A78104B1B7813430F4A13701278934211D10A4A0849154613782078DBB2000605D4137848
:40378000DBB20B700B7803F00F0328788342F1D138BD38BD286000409D8DFF1FAE8DFF1F298EFF1F29600040054A00231380054A916819B191680B7092685380704700BF93
:4037C0002C8EFF1FA08DFF1F0E4808B503889BB213B9FFF783FE13E00B4B02221A700B4B00221A70FFF7E0FF094AD1799379028843EA012392B2934238BF0380FFF728FE77
:40380000012008BDA08DFF1FB28DFF1FAE8DFF1F0060004008B50C4B04221A700B4B80221A70FFF7C1FF0A4A0120D179937943EA012308490A8892B2934238BF0B80064B1A
:403840000B221A7008BD00BFB28DFF1FAE8DFF1F00600040A08DFF1F9D8DFF1F084B01221A700F3B9B7C074B1A7B02F00302012A1EBFDA7B82F08002DA7301225A737047A0
:403880000B600040BC8DFF1F094B02221A700F3B93F82230074B1A7E02F00302012A1EBFDA7E82F08002DA7601225A76704700BF0B600040BC8DFF1F0B4B04221A700F3B7D
:4038C00093F83230094B93F8242002F00302012A1EBF93F8272082F0800283F82720012283F82520704700BF0B600040BC8DFF1FFFF7DABB00F0E6BE70B50446184B88B09D
:4039000003AA03F11006154618685968083303C5B3422A46F7D11B782B70FCB12223237001AD03232846637000F0AAFF002220461146AB5C08AC04EB131414F8144C03F094
:403940000F03847008AC234413F8143C0132082AC1700371417100F10400EAD108B070BDC84E00002DE9F0411A4D01222E460C2080274FF0080E184B00FB025C14012344BF
:40398000187016499CF805802144B8F1000F07D09CF8044024064CBF887081F802E000E08F7000FB0261CC880132E4B29C71CC88092AC4F30724DC71CC88E4B21C71C988CE
:4039C000C1F307215971D6D1054BFF221A70BDE8F08100BFBC8DFF1F70600040FC5F00400A600040064B074A1B7802EBC30253681A7C824286BF03EBC00358690020704764
:403A0000AC8DFF1FE44E00002DE9F84F424B1A78002A7ED01878414D0138C0B2FFF7E2FFA8463F4AC3681478007ADFF800C1E4B203EBC0000C2600274FF0010E834268D041
:403A40001A78A24263D11CF80420597891425ED19A7893F8039002F07F0206FB02FA05EB0A01CF7093F802B009F0030981F804B093F803B005F80AB0B3F804A0A1F808A0C3
:403A800093F902A0BAF1000F0BDAB9F1010F0CBF4FF007094FF00D0981F8059081F801E009E0B9F1010F0CBF4FF005094FF0090981F805904F704FEA02191A4906FB028293
:403AC000494481F802E0B2F808A0CAF3072A81F800A0B2F808A05FFA8AFA81F801A0B2F806A011495FFA8AFA494481F806A0B2F80690C9F3072981F80790B2F806905FFA34
:403B000089F981F80490D288C2F307224A71083394E7BDE8F88F00BFB18DFF1FBC8DFF1FAD8DFF1FFC5F0040706000409E8DFF1F08B5064B18780138C0B2FFF753FF20B1F1
:403B400043681B7900EBC300406908BDB18DFF1F2DE9F74F00210B46564E0C2707FB01F501317219092973554FF000049370DFF84491D3701381937253705371EED128B14D
:403B80004D4A4E4B14701C7054705C704C4B1A78002A00F08C80187801270138C0B2FFF721FF80464368057ADB79ED0013F0400F444B4FF0000C1A784FF00C0A14BF42F024
:403BC000010202F0FE021A700AFB0796D8F80C40FBB204EB050B5C453AD0A07800F07F01B94233D13189B4F804E089B2714538BFA6F808E02178304A94F801E0515C8E45F2
:403C000024D13071E178317094F90200E178002801F0030106DA01290CBF07210D217171012105E001290CBF05210921717100217170A17901F0F701022907D162461946A5
:403C400020460193FFF7DCFB8446019B0834C2E70137092FB8D1D8F80C200A35931C15440C210833AB4209D013F8082C13F80A0C02F07F0201FB02929072F2E7FFF758FF3D
:403C8000114B0121186000230C2000FB0192D3801289013113449BB203F00102134409299BB2F2D103B0BDE8F04FFFF75BBE03B0BDE8F08FBC8DFF1F9E8DFF1F2A8EFF1FDB
:403CC000B18DFF1FAF8DFF1FB88DFF1F114B1B7903F07F035A1E072A19D80F490C2202FB031291781B0141F0010191700021D170517841F002015170127912F0800F074A2E
:403D00001A4414BF8D2389239370FFF73DBC0020704700BF00600040BC8DFF1FFC5F004030B4194B1A7902F07F02531E072B27D8164B0C2404FB02339978154D01F0FE01B4
:403D400099700021D97029461201505D114400F07F0050555A7802F0FD025A701A795B78120605D5012B01D18C7006E00D2303E0012B0CBF082309238B7030BCFFF704BC75
:403D8000002030BC704700BF00600040BC8DFF1FFC5F004010B50D4B0D4C21791878C9B20138C0B2FFF71EFE43681B798B4201D2022909D8074A0848535CDBB24354A3788D
:403DC0000120DBB2535410BD002010BDB18DFF1F006000409E8DFF1F2A8EFF1F38B5884A884C13780021DBB221801806517840F188800A2900F20181DFE811F05800FF0046
:403E0000FF00FF00FF00FF000B00FF007900FF007D00D3787A49012B09D17B4B1A787B4B03EBC2035B685B686360122310E0CB78022B12D18878FFF7D5FD002800F0DD80A4
:403E4000436863606368DA7863689B7843EA02232380BDE83840FFF7B7BCCB78032B21D16B4B00228878D5B2854203D3644A92783AB910E0187801320028F7D018780344DB
:403E8000F0E75F4A63499278097C914203D16248FFF732FD604B1A78002A00F0AE801A78228018E0BDE8384000F0AEBD13F0030313D0022B40F0A1802380514B0C211B793E
:403EC00003F07F02554B01FB02339A78544BD2B21A7000225A706360BBE702222280514A11784F4AC9B2117053706260B1E7012323804D4BEFE70123238013794B4A13445D
:403F0000E9E701390A2978D8DFE801F037774F77067777770A7720009378454ADBB25AE0937803F0FF0153B93F4B1A78914260D01970404B01201870FFF70AFE59E0481ED8
:403F4000C0B2FFF74FFD0028EED156E0FFF722FF002852D02A4A384913791279DBB2D2B20A70364A3149D25CCB5C9A4241D0314B01221A70FFF748FD3BE003F00303012B98
:403F80002BD009D3022B38D11D4B9B78002B34D1BDE83840FFF7C4BE194B9B78012B2CD1204A137803F0FD0315E003F00303012B13D008D3022B20D1114B9B78EBB9BDE87E
:403FC0003840FFF783BE0E4B9B78012B15D1154A137843F0020313700BE0094B1A79012A0BD898781B791649DBB2CA5C22EA0002CA54BDE83840FFF7C7BA002038BD00BFC5
:4040000000600040A08DFF1FAC8DFF1FE44E0000484F0000945000003C8EFF1FBC8DFF1FFA8BFF1FAF8DFF1FB18DFF1F9E8DFF1F9C8DFF1FB08DFF1FAD8DFF1F2A8EFF1FD0
:40404000B38DFF1F034B00201A78120648BF5B78704700BF00600040830742BF104ACBB21370420742BF0F4ACBB21370030742BF0D4ACBB21370C20642BF0C4ACBB21370D1
:40408000830642BF0A4ACBB21370420642BF094ACBB21370030642BF074BC9B21970704711450040124500401345004014450040154500401645004017450040014B187864
:4040C0004008704782450040134A137803F001031370937803F0FC039370104B1A7802F0CF021A701A7842F030021A701A7802F0F0021A701A7842F00F021A70084A137862
:4041000043F001031370FF23A2F80330A2F80530044B08221A707047004F00400B4F0040014F0040034F0040074A137843F001031370137C43F00103137492F85D3B43F0CA
:40414000010382F85D3B7047A343004008B505490B781BB9FFF7B8FF01230B70BDE80840FFF7E2BFFC8BFF1F084A1378A2F65D3203F0FE0382F85D3B137803F0FE03137069
:40418000137C03F0FE031374704700BF004F0040014B1878704700BF034F0040014B1880704700BF044F0040084A4FF40033136002F688321268C021C2F88400044A1170CA
:4041C0006FF444710A441360704700BF80E100E011E400E0044A137843F020031370137C43F0200313747047A2430040074A4FF48023136002F688321268C021C2F8880067
:40420000034A1170A2F212321360704780E100E012E400E0044A137843F008031370137C43F0080313747047A2430040134A137803F001031370937803F0FC039370104B10
:404240001A7802F0CF021A701A7842F030021A701A7802F0F0021A701A7842F00F021A70084A137843F001031370FF23A2F80330A2F80530044B08221A7070470C4F0040D6
:40428000174F00400D4F00400F4F0040074A137843F002031370137C43F00203137492F8693B43F0010382F8693B7047A343004008B505490B781BB9FFF7B8FF01230B702B
:4042C000BDE80840FFF7E2BFFD8BFF1F084A1378A2F6693203F0FE0382F8693B137803F0FD031370137C03F0FD031374704700BF0C4F0040014B1878704700BF0F4F004067
:40430000014B1880704700BF104F0040064A0423136002F688321268E0219064034A1170A2F202321360704780E100E002E400E0074A0223136002F688321268E0215064E8
:40434000044A11706FF440710A441360704700BF80E100E001E400E0064A0123136002F688321268E0211064034A1170A2F540721360704780E100E000E400E0154B164990
:404380001A7802F001021A700A7802F0FC020A701A7842F004021A70DA7A02F0CF02DA72DA7A42F03002DA72DA7A02F0F002DA72DA7A42F00F02DA72084A137843F00103CA
:4043C00013700E23A2F80330A2F80530044B00221A707047184F00401A4F0040194F00401B4F0040074A137843F004031370137C43F00403137492F8753B43F0010382F845
:40440000753B7047A343004008B5054803781BB9FFF7B4FF01230370BDE80840FFF7E2BFFE8BFF1F014B1878704700BF1B4F0040014B1870704700BF75640040C20742BF02
:40444000094ACBB21370830742BF084ACBB21370420742BF064ACBB21370030742BF054BC9B21970704700BF18450040194500401A4500401B450040024B187800F00F0047
:40448000704700BF83450040030742BF014BC9B21970704763450040024B1878C0F3C000704700BF8C45004008B50020FDF78EFF0120FDF78BFF0220FDF788FF014BFF22A6
:4044C0001A7008BD9A83FF1F38B5064B054618781C46FF2801D0FDF779FF2846FDF75CFF257038BD9A83FF1F10B5044C2078FF2803D0FDF76BFFFF23237010BD9A83FF1F0F
:4045000010B500F079FA204A044613780A2043F002031370137C43F00203137412F80A3C43F0010302F80A3C937943F00103937102F5AB52137843F003031370134B042214
:404540001A7013F8012C42F0400203F8012C13F8012C02F0FC0203F8012C0E2203F8062CA3F597530222183B1A70094A137843F00803137000F0C6F8064B08222046BDE8DA
:4045800010401A6000F03CBAAB4300400E5900402F5B004080E200E0082804D00A280CBF8423C42300E0442308380E4AC0B20428137098BF0C4B4FF0000298BF33F9101049
:4045C0000A4B88BF11461A8042F210734B4341F2243103F6921393FBF1F305490B60054B1A8070470A590040DA4E0000348EFF1F388EFF1F328EFF1F08B5102000F070F845
:404600000721032000F0A0F80749032000F08EF8064A0A20137843F006031370FFF7BCFF034B00221A8008BDA946000009590040308EFF1F10B5054C23781BB9FFF7DCFFB7
:4046400001232370BDE81040FFF75ABFFF8BFF1F044B1A7802F0FB021A701A7842F001021A7070470859004010B5084B1C7814F0010403D10028F9D0002404E0204600F0FC
:4046800041F8024B1B78204610BD00BF09590040034A044B1B881088181A00B2704700BF328EFF1FA25B004070470000044A137843F004031370137C43F0040313747047AD
:4046C000A2430040024B1878C0F38010704700BF8F450040014B08221A60704780E100E0034A00F0F800137803431370704700BF02410040024A137843F001031370704739
:40470000F6460040024B1B7A584300F06DB900BF9C83FF1F044B00F00F021B6853F8220043F82210704700BF08ED00E0054A00F01F00126800F1100352F8230042F82310C0
:40474000704700BF08ED00E000F01F0000F16040490100F56440C9B2017070470F4B10B50F4900240F205C609C60DC601C615C61FFF7D0FF0B4A136843F0040313600A4B39
:404780004FF47A72DB68B3FBF2F3084A1360084B4FF400421C60C3F8E82010BD008CFF1F5148000010E000E09C83FF1F14E000E018E000E0024A136843F002031360704726
:4047C00010E000E008B5FFF7F5FF034A136843F00103136008BD00BF10E000E010B5054CA3691BB9FFF7BAFF0123A361BDE81040FFF7E8BF008CFF1F024A136823F0020394
:404800001360704710E000E0024B20F07F401860704700BF14E000E0024B186820F07F40704700BF18E000E0044B01281A680CBF42F0040222F004021A60704710E000E0A0
:40484000024B1868C0F30040704700BF10E000E038B5FFF7F5FF012808D1054D002455F8243003B198470134052CF8D138BD00BF048CFF1F014B00221A60704718E000E0A7
:40488000134B144A1B78DBB20360127843EA0223114A0360127843EA0243104A0360127843EA026303600E4B0E4A1B78DBB24360127843EA02230C4A4360127843EA0243A2
:4048C0000A4A4360127843EA02634360704700BF0301004904010049EC4600400201004901010049000100490501004906010049044A137843F001031370137C43F00103A6
:4049000013747047A2430040044A137803F0FE031370137C03F0FE0313747047A2430040F0B52B4B2B4E1F78328807F0070792B290424BD0284D2C78E4B26FB932B158B9F8
:404940001A7842F040021A703080F0BD30801A7802F0BF021A70F0BD14F0010421D01F4F1F4B00264FF0010E1E7087F800E03E7117F8086C06F07F0607F8086C144E3678BB
:40498000360700D568B9174E328007221A701A7812F00102FBD12B7803F0FE032B70104B1A702B780C4ADD070BD50E4B0029188014BF03220122013B1A701A78D207FCD48D
:4049C000F0BD044B188013781C431470F0BD00BF8240004080400040A24300401040004001400040024000400230800803D000BF01380046FCD17047EFF3108072B67047EF
:404A000080F31088704700BF0F4A137803F00303012B0AD0022B0DD113790C2103F07F020A4B01FB02339B7A00E01379DBB2022B08D800E00023064A1268D35C022B01D13E
:404A4000FEF716BC0020704700600040BC8DFF1FB88DFF1F53B94AB9002908BF00281CBF4FF0FF314FF0FF3000F082B9ADF1080C6DE904CE00F006F8DDF804E0DDE90223B8
:404A800004B070472DE9F04F8C460C460546099E002B4FD18A4217466BD9B2FA82FEBEF1000F0BD0CEF1200520FA05F501FA0EF345EA030C02FA0EF700FA0EF5390CBCFB77
:404AC000F1F0BAB201FB10C300FB02F84FEA154C4CEA0344A04509D9E41900F1FF3380F02881A04540F2258102383C44C8EB0404B4FBF1F301FB134C03FB02F2ACB244EAF0
:404B00000C418A4209D9C91903F1FF3480F00F818A4240F20C81023B39448A1A43EA00400021002E63D022FA0EF2002386E80C00BDE8F08F8B4207D9002E56D0002186E82C
:404B400011000846BDE8F08FB3FA83F1002940F09380A34202D3824200F2FE80851A64EB03039C460120002E41D086E82010BDE8F08F12B90127B7FBF2F7B7FA87FEBEF1CC
:404B8000000F36D1E41B4FEA17481FFA87F90121B4FBF8F308FB134409FB03F24FEA154C4CEA0444A24207D9E41903F1FF3002D2A24200F2D3800346A41AB4FBF8F008FB06
:404BC000104809FB00F9ACB244EA0842914507D9D21900F1FF3402D2914500F2BA802046C9EB020240EA03409BE731463046BDE8F08F07FA0EF7CEF1200C24FA0CF34FEA8A
:404C00001748B3FBF8FA1FFA87F908FB1A3520FA0CFC04FA0EF40AFB09FB4CEA040C4FEA1C4242EA05439B4500FA0EF50AD9DB190AF1FF3280F08B809B4540F28880AAF1FE
:404C4000020A3B44CBEB0303B3FBF8F008FB103300FB09F41FFA8CFC4CEA03439C4207D9DB1900F1FF326ED29C426CD902383B441C1B40EA0A418BE7C1F1200E8B4022FA27
:404C80000EFC4CEA030C24FA0EF74FEA1C49B7FBF9FA1FFA8CF309FB1A7720FA0EF88C400AFB03F548EA04044FEA144848EA0747BD4202FA01F200FA01FB09D917EB0C07FF
:404CC0000AF1FF3041D2BD423FD9AAF1020A67447F1BB7FBF9F509FB157705FB03F3A4B244EA0747BB4208D917EB0C0705F1FF3027D2BB4225D9023D674445EA0A40A0FB72
:404D00000289FF1A4F4545464C4614D329D066B3BBEB050367EB040707FA0EFECB40CF404EEA030386E888000021BDE8F08F2346F3E61846DAE6B8EB020569EB0C040138D3
:404D4000E5E70546D9E7104692E78246C0E7924678E702383A4443E7084604E7023B3C442AE7C345E7D33C46D1E73146BDE8F08F704700BF014B1868704700BF0C84FF1F01
:404D80000E4B70B51E460E4C0025E41AA410A54204D056F8253098470135F8E700F084F9084B094C1E46E41AA4100025A54204D056F8253098470135F8E770BDB4500000BB
:404DC000B4500000B4500000BC50000010B501390244904207D010F8013B11F8014FA342F7D0181B10BD002010BD10B5431E0A44914204D011F8014B03F8014FF8E710BD14
:404E000003460244934202D003F8011BFAE770470000000070FCFF7F0100000002050104070301010407030101000105050705070305070301080100020000003D51004070
:404E4000285B00403D510040285B00403D510040285B0040101020204040C84900401900004F0040300040510040300000000140001000140140800000150140800100172F
:404E80000140000500400140000A004C0140000200500140200010450040F806004808001845004000070048080000510140080700480800801401401007004880008016CF
:404EC00001409007004880003031323334353637383941424344454600000001000000040000001001000000EC4E000001000000945000000000000000000000010000003A
:404F0000044F00000100000051500000030000002E4F000000000000000000000000000000000000000000002C4F0000020A00008103080002000100820240000A00010017
:404F4000030240000A000203040309042C0343007900700072006500730073002000530065006D00690063006F006E0064007500630074006F007200100355005300420035
:404F800055004100520054003803430044004300200043006F006D006D0075006E00690063006100740069006F006E00200049006E00740065007200660061006300650089
:404FC000260343004400430020004400610074006100200049006E00740065007200660061006300650018034B0069006F006E00690078002C00200049006E00630032034B
:405000004500760061006C0075006100740069006F006E0020004B0069007400200028004300790070007200650073007300290020034200750073002D0070006F007700E6
:4050400065007200650064002000430044004300000902430002010780FA090400000102020103052400100104240202052406000105240100010705810308000A0904014D
:4050800000020A00000407058202400000070503024000001201000202020008B50401060100050680014300F8B500BFF8BC08BC9E4670474D0000000D270000F8B500BFA2
:4050C000F8BC08BC9E46704729000000E0500000C880FF1F48030000500A0000000000000000000000002823000090010E0000008088FF1F63500040000000000000000036
:4051000001000000000001000200080089440000000000000E000000C888FF1F1850004000000000000000000100000000000100020001003D440000000000000E000000DE
:40514000C888FF1F1950004000000000000000000200000000000100020002003D440000000000000E000000C888FF1F1A5000400000000000000000040000000000010065
:40518000020004003D440000000000000E000000C888FF1F1B50004000000000000000000800000000000100020008003D44000000000000010000005889FF1F1C50004001
:4051C00000000000000000000100000000000000000000000000000000000000010000005889FF1F1D50004000000000000000000100000000000000000000000000000000
:4052000001000000010000005889FF1F1E500040000000000000000001000000000000000000000000000000020000000E0000001089FF1F11500040000000000000000056
:4052400001000000000001000200020059400000000000000E0000001089FF1F12500040000000000000000002000000000001000200040059400000000000000E00000078
:405280001089FF1F13500040000000000000000004000000000001000200080059400000000000000E0000001089FF1F14500040000000000000000008000000000001007A
:4052C0000200100059400000000000000E0000001089FF1F15500040000000000000000010000000000001000200200059400000000000000E0000001089FF1F1650004062
:40530000000000000000000020000000000001000200400059400000000000000E0000001089FF1F17500040000000000000000040000000000001000200800059400000A9
:405340000000000006000000A089FF1F0D5000400000000000000000000000000000000000000000000000000000000006000000E889FF1F0F50004000000000000000000F
:405380000000000000000000000000000000000000000000008102080C0000C2010000000800C20100000008A1200000000002000000FF0000008890102101004A0000006A
:4053C000802669040000000000000000000000000000000000000000000000000000000000000000A6500000000000000000000000000000000000000000000000000000A4
:40540000000000000000000000000000000000000000000000000000000000000000000000000000AC83FF1F0000000000000000000000000000000000000000000000001F
:40544000000000000000000000000000000000000000000000000000000000000000000000000000000000000000000000000000000000000000000000000000000000002C
:4054800000000000000000000000000000000000000000000000000000000000000000000000000000000000000000000000000000000000000000000000000000000000EC
:4054C00000000000000000000000000000000000000000000000000000000000000000000000000000000000000000000000000000000000000000000000000000000000AC
:40550000000000000000000000000000000000000000000000000000000000000000000000000000000000000000000000000000000000000000000000000000000000006B
:020000040003F7
:0200000480007A
:4000000002450040084F004006520040026400400265004054000140350101401503014058040140460501404A0601404907014002090140020B0140010D01401C140140B3
:40004000431501400E1601404117014003190140031B014007400140124101401C420140154301400244014005450140054601400A4701400948014007490140134C0140E6
:400080000C4D01400C50014063017E0201500A4B0D30164B1940221B25102E1B000301010840608061A07C40800F840F85728638012203C4058007600A030B180C090E10D3
:4000C0000F01101C1202130414101568160C1786180C19011A111F01230224142501281029B02B462F01321F331E35E037013B203F404025410345EB460C480749FF4AFFA7
:400100004BFF4EF04F44500C5401580459045A045B045C025D225F0166C06A406B02810A8203831488068D208F059201930895139605970C99139B04A103A304AE08B00776
:40014000B50FB608B730B980BB20D608D804D904DB04DC20DD90DF01001003010402052008110A200C080E8010201208158018101E801F8020042240231025202705283158
:4001800029202B812C803088312032123410370538063A803B903E803F0240204120482049024A804B80508059065A805B105C80C053C23EC486CA8FCCEFCE9FD006D20828
:4001C000D61F79807A0280808640901493409402958097809A409B059C909D24A2C0A408A60AA701B240B350B480B71000010120040405E006180A200B400C300E0C0FE0F2
:40020000120C130615181705180419181A381B031E302002230924022702280229802D162F01303C320133183507360237E0390A3A023B203E443F454003470449FF4A07D4
:400240004BFF4C404D204EF04F05500856025724580459045A045B045C225D025F01604061A862406320801F8220887F8A808CC08E02908096FF9A609CC09E01A090A24023
:40028000A4C0A604A8C0AA08AE9FB0FFBE01D201D301D610D804DB04DD40DF0102980302040205200602070809200A020B800C080E480F11110113181598170219441B036D
:4002C0001E8021A8220229202A042B812E033010312032013305380239013A403B14410846104704520C53C060046820695C6A056B026D8073018180860290149340940207
:40030000958097809A409B059C109D24A280A408A608A701C0DFC2FBC4FECA0FCC07CE0FD002D804E401EE0201010201050109080B210C010D010E02100411071318150479
:400340001D102101240429222A022B082D0132033404353F382039203E043F105608580459045B045D905F018106840885028634870488018B068C348D068E029107930839
:4003800094489504961098089A609C36A036A106A436A509A706A836A901AB0EAC04AD02AE48B002B23CB30FB440B601B908BA08BE51D409D804D904DB04DF010010014821
:4003C0000680070108080A090B100E8010601110120213011728184819081B801E2823102708280129222B102C012D222E4131083202368639543B013D403E043F314020CC
:4004000041084C014E0258A059045A025F4061407C407E01828087809010915492059341940295809640971499409B209D20A020A240A604AF20B140C097C217C46FCABF3C
:40044000CCD3CEFFD61FD808E205E408EE20E205E408E401EE02EA20010403510D20100211011201130E152719271C011E02210223112403280330033107332035403718E6
:400480003F405608580459045B045C225D905F010452062008820C900D020F10102814821520170819011C501E401F142192233024202659288029012C902F16302831024C
:4004C0003302350936043720380139403C013E684410458047204C014E085602570458405E2060036C286D4074807628770880018108884094209E02A204A641A704C0F0B4
:40050000C2F9C4F6CAF1CCE7CEF9D070D230D628D808EA01EE060A0212011A022E01300232013A203E05541858045B045C025D205F0100040142042009080A490E800F08D0
:40054000106011101602180219601A491E081F052228230429622A083040322039543B01404C4208430849644B01514852905E0262186301670A6F0187089040915494024B
:40058000958096489704984899029D249F01A020A508A680B210B484C04DC25FC48ECA0FCC0CCE0FD007D20CD680D83EE602EA80EC01EE02E602EC01EE02E280EA01EE06E0
:4005C00031083280358036043B20CCF0CE10040807403310352057085F408340874097209D80A508A684C020CC30D440D620E480E6401B011F01228023043E103F024320A7
:400600005B015E04610286048701900897209D809F10A508A684A708AD20C630C810CEA0D010D6C0D840E240EE406B016F017502810883109008961097209B019D809F1033
:40064000A508A604A708AB21AF04B102DAC0DE20E2A0E8401410C40413209810B010C402EA04820198109B20A580AD8009800B400F808360840198109B20A201A580C20EC7
:4006800096109D80A604A708A804AF10B102EC80EE4029809D80AA14AF08CA10EA80EE600D801040132017021F805E0278107E2085809810A001A221AA20AF40C201C40EEC
:4006C000C601D601DE031280740178408A809840A001ABA0AF02C408DC01DE04E201001501010214080509010A150B011005110112141A051B0100000001010101010101D1
:400700000101010100000000FF2A00C03C000000FF0200000C1000004C30A3004F70900F03010000007FB300F3000C0B0800000001200000044F0030007840074203000006
:400740008C037C380F40000400802A000000001032050600010000EC30FFFFFF62A0F0410C0000000000021104040404222200010000000000004002001030100010101267
:40078000000000000000000000000000000000009C00000161011E00000100008C001001A400100008004000300C8F00D10122009C0100009402080810048C0200020004D8
:4007C00030000001C10E0F0000203200000000042605400003DEFB0C1FFFFFFF2200F008040000004000000004040404000000010000C00040011011C00100114001400140
:4008000000000000000000000000000000000000020000000300030004000000A0004880A000A000000000004000000000000000C00000002000802B6B004000000000008E
:40084000FE000000000000000F00000000007000080018010000000000000000000000000000000000000000000000000000000000000000000000000000000000000000DA
:400880000000000000000000000000000000000000000000000000000000000000000000000000000000000000000000000000000000000000000000000000000000000038
:4008C00000000000000000000000000000000000000000000000000000000000000000000000000000000000000000000000000000000000000000000000000000000000F8
:4009000000000000000000000000000000000000000000000000000000000000000000000000000000000000000000000000000000000000000000000000000000000000B7
:400940000000000000000000000000000000000000000000000000000000000000000000000000000000000000000000000000000000000000000000000000000000000077
:0200000490006A
:0400000000004005B7
:0200000490105A
:04000000BC90ACAF55
:0200000490303A
:0200000038CFF7
:0200000490402A
:4000000000000000000000000000000000000000000000000000000000000000000000000000000000000000000000000000000000000000000000000000000000000000C0
:400040000000000000000000000000000000000000000000000000000000000000000000000000000000000000000000000000000000000000000000000000000000000080
:400080000000000000000000000000000000000000000000000000000000000000000000000000000000000000000000000000000000000000000000000000000000000040
:4000C0000000000000000000000000000000000000000000000000000000000000000000000000000000000000000000000000000000000000000000000000000000000000
:0200000490501A
:0C00000000012E16106900012E3749384F
:00000001FF